:020000041000EA
:1000000000B5324B212058609868022188439860DF
:10001000D860186158612E4B002199600221596106
:100020000121F02299502B49196001219960352056
:1000300000F044F80222904214D00621196600F024
:1000400034F8196E01211966002018661A6600F04E
:100050002CF8196E196E196E052000F02FF8012189
:100060000842F9D1002199601B49196000215960AB
:100070001A491B48016001219960EB211966A021F2
:10008000196600F012F800219960164914480160C1
:100090000121996001BC002800D000471248134993
:1000A000086003C880F30888084703B5996A0420EC
:1000B0000142FBD001200142F8D103BD02B5186610
:1000C0001866FFF7F2FF186E186E02BD00000240BE
:1000D000000000180000070000035F00212200005C
:1000E000F4000018222000A00001001008ED00E03C
:1000F00000000000000000000000000074B24E7A12
:1001000000200420F7010010CB010010CD010010E9
:10011000C9010010C9010010C9010010C901001077
:10012000C9010010C9010010C9010010CF01001061
:10013000C9010010C9010010D1010010D301001045
:10014000C1010010C1010010C1010010C101001067
:10015000C1010010C1010010C1010010C101001057
:10016000C1010010C1010010C1010010C101001047
:10017000C1010010C1010010C1010010C101001037
:10018000C1010010C1010010C1010010C101001027
:10019000C1010010C1010010C1010010C101001017
:1001A000C1010010C1010010C1010010C101001007
:1001B000C1010010C1010010C1010010C1010010F7
:1001C000EFF30580103800BE00BE00BE00BE00BECA
:1001D00000BE00BEF2EB88713C3C01105C3C01109B
:1001E0003802001090A31AE71E481F49086006C88D
:1001F00081F3088810471D480068002801D019487D
:10020000F3E70DA40ECC002902D000F012F8F9E7B4
:100210001749184A002000E001C19142FCD116495B
:100220008847164988471649884700BEFDE701C937
:1002300001C29A42FBD370475C3C0110C000002011
:1002400038140020D44F01100000042000000420C6
:10025000D44F011000100420001004200000000002
:10026000704700000000000008ED00E0000000D032
:100270003814002074A40020416E00108503001083
:10028000396E0010F8B5C04606480749091A8B10A8
:10029000C90FC91810B5491003D0044B002B00D06A
:1002A000984710BD381400203814002000000000CA
:1002B000054B10B5002B03D00449054800E000BFF2
:1002C000FFF7E2FF10BDC0460000000048230020F9
:1002D00074A000100123F0B5C646984600B5104E34
:1002E000104D114F82B03378002B14D12C78631C41
:1002F0002B7043461C40FC236442DB003C40E41866
:1003000000F02EFF052305227E21E920009400F055
:10031000EFF900F02DFFFA20400003F05BFEE2E76A
:100320006FA4002070A400203FF8FFFF10B500F07C
:10033000E3FA10BDF0B5C646002000B500F0B0F9F4
:100340000D4B002698460D4FB8443D003424200044
:100350002A883100013400F087F90235BB2CF6D130
:100360000F37FF3701364745EFD1054803F032FE1E
:1003700080BCB846F0BDC046628E00003CA60010AE
:10038000B80B000010B506F085FEFA20C00003F09F
:1003900021FE00F0C3F800F0DBFEFFF7CBFF1F20CB
:1003A00000F07EF9642003F015FE064809F034FCE5
:1003B00000F028FE0449054800F038FE00F058FE21
:1003C000002010BDD50200102D03001078A00010F1
:1003D000F0B54E46DE4657464546E0B585B002AC20
:1003E000E61D8027D024802598462A2383462406AC
:1003F000AD027F0233708A4691463100A761012227
:10040000A561454809F0ECFD5B46180028306561A0
:100410000093031233700190310067610122A561DE
:100420003D4809F0DDFD009A6561283232703100E7
:1004300067610122A561384809F0D2FD4A46019B57
:1004400065619B18013B1B1201923370310067619B
:100450000122A561304809F0C3FD0198009A2730B8
:100460008318656131003370012267612A48A561F4
:1004700009F0B6FD2B236561310033700122A761BD
:100480002548A56109F0ACFD53461A003532656177
:100490000093131233700192310067610122A5614C
:1004A0001D4809F09DFD00986561353030703100C0
:1004B00067610122A561184809F092FD4246019B3F
:1004C00065619B18013B1B1201923370310067611B
:1004D0000122A561104809F083FD019B0098343387
:1004E0001B18656131003370012267610A48A561FC
:1004F00009F076FD2C236561012233703100A7617C
:100500000548A56109F06CFD656105B0F0BCBB460E
:10051000B246A946A046F0BD00C0034070B5D02445
:100520008025802682B04D494D4809F0A1FA01216D
:10053000122002F023FF012113202406AD0202F055
:100540001DFF1120760202F043FF1020656202F0C9
:100550003FFF1420666202F03BFF80235B0363626F
:100560006A466361012301A913713D480122A66116
:10057000A56109F035FD9620656103F02BFD11237F
:100580006A4601A9137136480122A661A56109F0E6
:1005900027FD3220656103F01DFD3A236A4601A95B
:1005A00013712F48A6610122A56109F019FD0523E9
:1005B0006A46656101A91371294866610122A56136
:1005C00009F00EFD36236A46656101A913712448BE
:1005D000A6610122A56109F003FD70236A466561E9
:1005E00001A913711E4866610122A56109F0F8FC9A
:1005F00021236A46656101A913711948A661012288
:10060000A56109F0EDFC29236A46656101A9137112
:1006100013480122A661A56109F0E2FC0A20656188
:1006200003F0D8FC8723F02200210020FFF7D0FE42
:1006300000236A466661A5610A4C9380022208483D
:1006400001A9013C09F0CCFC002CF7D1D023802279
:100650001B0692025A6102B070BDC046A0ACB9033D
:1006600000C00340907E000070B5012382B01600E8
:100670000122FFF7ADFED024802380256A462406A0
:100680005B026361AD0273BAA56101A9938003485F
:10069000022209F0A5FC656102B070BD00C00340F4
:1006A00010B587230400F02282B000210020FFF75C
:1006B0008FFED02380221B0652025A6180229202B2
:1006C0009A616B4664BA9C80074C0222074801A9D4
:1006D000013C09F085FC002CF7D1D02380221B06B9
:1006E00092025A6102B010BD907E000000C003402B
:1006F00070B582B01D006B461C8B2B001600FFF7F7
:1007000067FED02380221B0652025A618022920289
:100710009A616B46754364BA9C80002D08DD002405
:100720000222074801A9013409F05AFCAC42F7D172
:10073000D02380221B0692025A6102B070BDC046CF
:1007400000C00340F0B54E464546DE465746E0B58C
:1007500085B099466B46451A02950D001B8FCE0059
:10076000984693009B185B0003937618029B5B5D91
:10077000002B30D0203BDAB201355E2A32D81A4C39
:10078000DB001C1900F0ECFCA246082301275344AF
:100790009B46039B01951B1B0093009D0024554421
:1007A0002B0055469A462B78424623411F4200D0E3
:1007B0004A46A01951460134FFF756FF082CF2D1E2
:1007C000AA4601239A44D345E7D1019D093600F09A
:1007D000CFFC192DCADD05B0F0BCBB46B246A94618
:1007E000A046F0BD004CCDE7A0340110F0B5DE46C8
:1007F00057464E464546E0B50378040085B0002BC9
:1008000057D0334A334E934601229046324A0392E0
:1008100008E000235A4601371360376063780134DB
:10082000002B46D037680A2BF3D05A460398203B5A
:100830001568DAB281465E2A01D8DB00994400F0DF
:100840008FFC0823BA004B44D2199A46EF004B465E
:100850007F1902963E005200D31A204D0093019456
:10086000009F00244F443B004F4699463A78434648
:1008700022411A40013A1A4B2A40A0194946D2187F
:100880000134FFF7F1FE082CF0D1B9460123994459
:10089000CA45E5D1019C029E00F06AFC5B461B68DC
:1008A0000133192B0CDC5A46013413602378002BDA
:1008B000B8D105B0F0BCBB46B246A946A046F0BDD3
:1008C00000235A461360336801333360A6E7C046FD
:1008D000D81E0020DC1E0020A03401102000FFFFE5
:1008E000FFFF000010B5FFF781FF0248FFF77EFF12
:1008F00010BDC04680A00010F0B5DE465746454604
:100900004E46E0B51F20CBB0FFF7CAFEDB4B0025FB
:100910001A009A4600231360D94A1360D94B0792F4
:1009200018001793FFF762FFD74C2000FFF75EFF18
:10093000D64B18001993FFF759FF2000FFF756FF19
:10094000D34B18001A93FFF751FF2000FFF74EFF1B
:10095000D04B18001893FFF749FF2000FFF746FF20
:10096000CD4B18000593FFF741FF3AAB9B46CB4BAD
:100970000993CB4B0A93CB4B1093CB4B1193CB4B9F
:100980001293CB4B1393CB4B1493CB4B0B93CB4B7F
:100990000C93CB4B0D93CB4B0E93CB4B0F93CB4B7D
:1009A0001593CB4B1693CB4B1C93CB4B1B93CB4B41
:1009B0002593CB4B2693CB4B2F93CB4B1D93CB4BFC
:1009C0001E93CB4B1F93CB4B2793CB4B2893CB4BF7
:1009D0002993CB4B2093CB4B2193CB4B2293CB4BE7
:1009E0002393CB4B2493CB4B2A93CB4B2B93CB4BC7
:1009F00004952C93CA4B2D93CA4B2E93CA4B089344
:100A0000002006F04BFB831CFAD00D284ED00A289C
:100A10004CD07F2800D1B0E0049A3E2AF0DC5B463F
:100A2000985453461E68079B1F680300203BDBB2A7
:100A30005E2B00D90DE2FF23089903408946203B35
:100A4000DB0001329944049200F08AFB08234B44F6
:100A500003934B46BA00D2195200D31A02930123D2
:100A60009846F200B14F069494190025029E4E4418
:100A70004B461A7843462A411A40013AAC4B3A4059
:100A800028193100D2180135FFF7EEFD082DEFD1FE
:100A900001239944039B9945E7D1069C00F068FB2C
:100AA000534652461B6801331360A9E700235A4698
:100AB000049920005354FFF799FE5B469D4A1B683A
:100AC000934269D05B469C4A1B68934200D1C1E0C7
:100AD0005A469A4B12689A4200D16CE15A46984B9A
:100AE00012689A4200D17DE15A46964B12689A42AA
:100AF00000D1B4E15A46944B12689A4200D1D1E138
:100B00005A46924B12689A4200D1F8E15B461B7834
:100B1000002B2CD05A468E4B12689A4200D120E20C
:100B20005846299909F08EF9051E00D116E258465B
:100B3000209909F087F9051E00D147E2584621990E
:100B400009F080F9002800D10FE2072258462B99BE
:100B500009F012F9002800D145E2072258462D99E4
:100B600009F00AF9002800D033E201F09DFF059852
:100B7000FFF73CFE0023049342E753461E68079BA1
:100B80001F68049B002B00DDE4E05A46D05401337B
:100B90000493089B994657E75B461B79002B91D13C
:100BA0000998FFF723FE2000FFF720FE0A98FFF7C1
:100BB0001DFE2000FFF71AFE1098FFF717FE200019
:100BC000FFF714FE1198FFF711FE2000FFF70EFE4D
:100BD0001298FFF70BFE2000FFF708FE1398FFF7AF
:100BE00005FE2000FFF702FE1498FFF7FFFD20002E
:100BF000FFF7FCFD0B98FFF7F9FD2000FFF7F6FD6E
:100C00000C98FFF7F3FD2000FFF7F0FD0D98FFF7BC
:100C1000EDFD2000FFF7EAFD0E98FFF7E7FD20004D
:100C2000FFF7E4FD0F98FFF7E1FD2000FFF7DEFD81
:100C30001598FFF7DBFD2000FFF7D8FD1698FFF7AA
:100C4000D5FD2000FFF7D2FD0598FFF7CFFD00236B
:100C50000493D5E65B469B88722B00D038E71F20B3
:100C6000FFF71EFD002553461D60079B05981D607C
:100C7000FFF7BCFD00230493C2E6C046D81E002047
:100C8000DC1E002084A0001080A0001094A00010A2
:100C9000A4A000109CA40010B8A00010C4A00010D4
:100CA000D0A00010E4A00010FCA0001014A10010BF
:100CB0002CA1001044A1001060A1001078A1001028
:100CC00094A10010B4A10010CCA10010F0A100105C
:100CD00010A2001038A2001054A200106CA2001044
:100CE00088A2001098A20010A8A20010C0A20010B4
:100CF000D0A20010F0A2001010A300102CA300102E
:100D000034A3001038A3001040A3001058A3001013
:100D10006CA3001080A3001090A3001098A30010F3
:100D2000A0A30010A8A30010A03401102000FFFF12
:100D3000FFFF000068656C70636C656168656C6CD2
:100D4000636F6C6F696E666F7461736B706F6E67E3
:100D5000696E7600013B04935346751E1D6000F0DA
:100D6000FFF9BA00089BD21952001E00D31A029351
:100D700001239946A04B039498463400EF007F1955
:100D80000025029B1E1922784B462A411A404346F1
:100D9000013A1A40994B78193100D2180135FFF702
:100DA00063FC082DEFD1964B0134A342E8D1039C9C
:100DB00000F0DEF924E65B469B886F2B00D08DE6C1
:100DC0001C98FFF713FD2000FFF710FD1B98FFF79D
:100DD0000DFD2000FFF70AFD0598FFF707FD002332
:100DE00004930DE65B469B88722B00D07CE6F823CB
:100DF0001B0250220021002000938723FFF778FC7C
:100E0000FC23DB0050220021502000938723FFF7B2
:100E10006FFC1F2350220021A02000936833FFF7AE
:100E200067FCFA20C00003F0D5F81F20FFF738FC5C
:100E3000002553461D60079B25981D60FFF7D6FCD3
:100E40002000FFF7D3FC0598FFF7D0FC00230493A4
:100E5000D6E5130001330493089B9946F4E55B46FD
:100E60001B79002B00D045E61798FFF7BFFC200048
:100E7000FFF7BCFC2698FFF7B9FC2000FFF7B6FC93
:100E80002F98FFF7B3FC2000FFF7B0FC1D98FFF789
:100E9000ADFC2000FFF7AAFC0598FFF7A7FC002394
:100EA0000493ADE55B469B88732B00D028E61E9823
:100EB000FFF79CFC2000FFF799FC1F98FFF796FCBA
:100EC0002000FFF793FC2798FFF790FC2000FFF726
:100ED0008DFC00F037F9082203002021009232A88F
:100EE000289A05F06BFF32A8FFF780FC2000FFF77F
:100EF0007DFC0598FFF77AFC0023049380E55B46B0
:100F00001D79002D00D001E600F082F91F20FFF7C7
:100F1000C7FB53461D60079B17981D60FFF766FCD3
:100F20002000FFF763FC1998FFF760FC2000FFF733
:100F30005DFC1A98FFF75AFC2000FFF757FC189841
:100F4000FFF754FC2000FFF751FC0598FFF74EFC1B
:100F50000598FFF74BFC0023049351E501F042FE96
:100F6000D4E7002500F0A2FBD0E731A930A802F0B9
:100F7000F3F91798FFF73AFC2000FFF737FC2298A7
:100F8000FFF734FC2000FFF731FC2398FFF72EFC1D
:100F90002000FFF72BFC319B249A202132A805F07A
:100FA0000DFF32A8FFF722FC2000FFF71FFC02F024
:100FB000D9F9202103002A9A32A805F0FFFE32A8B1
:100FC000FFF714FC2000FFF711FCD0E501F0DCFF77
:100FD0009CE72E98FFF70AFC5846FFF707FC200015
:100FE000FFF704FCC3E52C98FFF700FC2000FFF797
:100FF000FDFB01F047FCBAE52000FFFFFFFF00000A
:10100000A834011010B5054A0021054804F02EFB54
:101010000022044B1A60044B1A6010BDA08000002F
:10102000B4230020B0230020D41E00208C460D499C
:1010300010B504000868072811DC0202121892009B
:10104000094B12189200D0509B1862469A600022F9
:101050005C60064C1A731A51431C0B6010BD0120D2
:101060004042FBE7B0230020B42300201010000012
:10107000F0B5D6464F4646462D4BC0B59A461B683E
:10108000002B4FD02B4B2C4F1E68994633029846AD
:101090009B199B009B199B00FB181B7B012B25D9DF
:1010A000434600229B199B009B199B00FB181A7357
:1010B00053461D68701C290003F020FC002D15DD2F
:1010C000002406E0481C0134290003F017FCA54267
:1010D0000CD00A0253189B005B189B00FB181B7B6B
:1010E000002BEFD14B460E009046196043469C19E9
:1010F0000123A400A419A4003C19104D2373A36874
:10110000AE6A9847FA21A86A0D4B801B8900E41843
:1011100003F01CFC2368C0184B461E682060330295
:101120009846BDE7E0BCBA46B146A846F0BDC04609
:10113000B0230020D41E0020B4230020004005402E
:1011400010100000014B18687047C046B023002003
:1011500010B5024802F016FC10BDC046081F002062
:1011600010B5024808F05CFF10BDC046081F002003
:1011700010B5024808F0E4FE10BDC046081F00206C
:10118000F0B583B0FFF7ECFF0023F0220021002030
:1011900000930833FFF7ACFAFFF7EAFF194E5A2520
:1011A00033680024002B12DD174FFFF7D9FF062309
:1011B0000422012128000097FFF79AFAFFF7D8FFD1
:1011C00033680134A34202DD0635092CEDD10F4E00
:1011D000822533680024002B12DD0B4FFFF7C0FF80
:1011E00006230422012128000097FFF781FAFFF768
:1011F000BFFF33680134A34202DD0635092CEDD16F
:1012000003B0F0BD94230020FFFF000098230020CE
:10121000F0B5DE464E46574645460123E0B5E04E62
:1012200089B00C203370D02402F0D2F88023240639
:101230005B01A362002201210C2002F0B7F80D200F
:1012400002F0C6F880239B01A362002201210D2039
:1012500002F0ACF80E2002F0BBF88023DB01A362A1
:10126000002201210E2002F0A1F80F2002F0B0F8B8
:1012700080231B020121A36200220F2002F096F8B6
:10128000FA20400002F0A6FE3923C64AC64D13607C
:101290002B6000230392C54AC54C13600592C54AD2
:1012A000136078230692C44A1360353B2360C34B16
:1012B00002929B4602235A461360C14A136004926D
:1012C000FFF74EFF0020FFF7EBF9FFF751FF082370
:1012D0001F00BC4B9946FFF743FF4B4639000422E1
:1012E0007620009306370323FFF702FAFFF740FF4B
:1012F000802FF0D1FFF744FFD0231B0699460796B5
:101300004B465B68DB0402D42B68033B2B604B46E7
:101310005B689B0402D42B6803332B604B46802709
:101320005B68FF013B4214D14B4680265B68360266
:1013300033420ED19620400002F04CFE4B465B68D3
:101340003B4206D14B465B681A003240334200D123
:101350005AE12B68072B00DD43E108232B60039E35
:101360005946336809681A000A32002900DC2DE169
:101370002168881E824200DB39E102333360072B8B
:1013800000DC2AE16B2B02DD6B23039A136000263D
:10139000FFF7E6FE77230422082108200096FFF7D6
:1013A000A7F9FFF7E5FEFFF7DBFE0821E42077232E
:1013B00004220096FFF79CF9FFF7DAFE029A2768ED
:1013C00013689846FFF7CCFE0423042239004046F8
:1013D0000096FFF78DF9FFF7CBFE5B46029A1B687C
:1013E00011680498C9181160236802689B1823606B
:1013F000082B00DDCAE002230360063323600C29BA
:101400004EDC2A68181D90425CDB14329A4259DB8C
:1014100002235A461360029A0B3313600826694F61
:10142000FFF79EFE31000323042276200097063644
:10143000FFF75EF9FFF79CFE802EF1D12B689A46EC
:10144000FFF78EFE604B5146984604220820009319
:101450001423FFF74DF9FFF78BFE039B1B689A4699
:10146000FFF77EFE434651460422E42000931423F6
:10147000FFF73EF9FFF77CFE029B26681B689A4641
:10148000FFF76EFE434650460422310000930423CA
:10149000FFF72EF9FFF76CFE102002F09BFD2FE7FF
:1014A000DF29BBDD039A181D126890423BDB143222
:1014B0009A4238DB02235A465B421360029AE133B8
:1014C0001360ABE70029A9DA069E082733680133C9
:1014D0003360FFF755FE7823029AFA201360353BFC
:1014E0002360059B32681B6840009B180322DB07C2
:1014F000DB1793435A46023313600223049A314E9A
:10150000136002F067FDFFF72BFE3900032304226E
:10151000762000960637FFF7EBF8FFF729FE802FBD
:10152000F1D1029B1968F02900DC77E7059E0827B6
:10153000336801333360FFF723FE7823029AFA20E1
:101540001360069A353B12682360336840009B188D
:101550000322DB07DB1793435A460233136002234F
:10156000049A136002F036FD164B9A46FFF7F8FD19
:101570005346390004227620009306370323FFF7F1
:10158000B7F8FFF7F5FD802FF0D147E77A2B00DCA5
:1015900035E702235B4203607D3323602FE7C046BB
:1015A0006FA400206C2300206823002094230020D7
:1015B000901D0020982300208C1D0020841D0020F9
:1015C000881D002010840000FFFF0000402A15DC69
:1015D00001333360072B00DDD9E60823039A13603B
:1015E000D5E66B2B00DCBAE66B232B60B7E6023145
:1015F0008A4200DCC3E6023B3360C0E6452A00DCD9
:10160000C5E6013B3360BDE6079E327009B0F0BC11
:10161000BB46B246A946A046F0BDC046F0B583B071
:10162000FFF79EFD0023F0220021002000930833E5
:10163000FFF75EF8FFF79CFD184E0824336800257D
:10164000002B17DD164F0135F02C11D8FFF788FD60
:10165000062306220121A01F0097FFF749F8FFF794
:1016600087FD33689D4205DA08340135F02CEDD949
:101670009D42F9DB0B4B1C686400642C00DD642484
:10168000FFF76EFD084B2200022150200093042337
:10169000FFF72EF8FFF76CFD03B0F0BD70230020BC
:1016A000FF07000090230020E0FF0000F0B5DE46B9
:1016B00057464E4645460124E0B5EB4B93B00C200F
:1016C0001C700E93D02501F083FE80232D065B0154
:1016D000AB62002201210C2001F068FE0D2001F018
:1016E00077FE80239B01AB62002201210D2001F0D7
:1016F0005DFE0E2001F06CFE8023DB01AB62002258
:1017000001210E2001F052FE0F2001F061FE802326
:101710001B02AB62002201210F2001F047FE962040
:10172000400002F057FC7223D04DD14A2B600323B6
:10173000136000230F92CF4A13601192CE4A934652
:101740000A2259460A60CD4A92460C2251460A6046
:10175000CB4ACC4914600B92C82252000A60CA4A94
:10176000089113600492C94A002113700392C84A79
:1017700013609146C74A13700692C74BC74A13605D
:10178000079253609360D36013615361C44B03228B
:101790001800029303F06AFFFFF7E2FC0020FEF757
:1017A0007FFFFFF7E5FCFFF739FF2C68E42C0BD82F
:1017B000FFF7D6FCBB4B0C227A21200000930623B6
:1017C000FEF796FFFFF7D4FCA84600265F46554675
:1017D000079C2378002B01D000F0B5FE6378002B26
:1017E00001D000F090FEA378002B01D000F06BFE3A
:1017F000E378002B01D000F046FE2379002B01D0C6
:1018000000F021FE6379002B01D000F0FCFDA379EC
:10181000002B01D000F0D7FDE379002B01D000F0C0
:10182000B2FD0A3608341E2ED3D1069BAA461B7879
:101830004546002B00D013E39B4BD3460C939B4BA8
:10184000CA460D93D8E0002A01D000F0DDFC2E68D6
:10185000954B063698461E607523944A752413608E
:10186000743B05920B70EE2E01D900F089FDFFF755
:1018700077FC002321000222300000930533FEF79D
:1018800037FFFFF775FC059B1C68059B043C1C603B
:10189000072C01DD00F0CDFC0023039A13705346A2
:1018A00052461B68013313601E2B00DD06E1029BCC
:1018B0001B78002B00D011E1029B5B78002B42D0FB
:1018C0007B4E7C4C73689946636898464B46EE2B7A
:1018D00010D84346822B0DD8FFF742FC0023414627
:1018E0000222484600930533FEF702FFFFF740FC53
:1018F000636898460223984443466360872B01DD62
:1019000000F028FD74682E68A64201DD00F0F1FCAD
:1019100033000C33A34201DA00F0EBFC4346792B91
:1019200001DD00F0BBFEEE2C0DD8002B0BDBFFF72A
:1019300017FC614B02224146200000930523FEF76D
:10194000D7FEFFF715FC029B9B78002B42D0584E28
:10195000584CB3689946A36898464B46EE2B10D86E
:101960004346822B0DD8FFF7FBFB002341460222A2
:10197000484600930533FEF7BBFEFFF7F9FBA3686B
:101980009846022398444346A360872B01DD00F06C
:10199000DCFCB4682E68B44201DA00F09FFC33002E
:1019A0000C339C4201DD00F099FC4346792B01DDAC
:1019B00000F040FEEE2C0DD8002B0BDBFFF7D0FB28
:1019C0003D4B02224146200000930523FEF790FE86
:1019D000FFF7CEFB049A136801331360089A1B01CA
:1019E0001268934200DDC5E1102002F0F3FA069B75
:1019F0001B78002B00D033E2D024802624066368B5
:101A00003602334209D18022520190464146636832
:101A10001A400B4201D100F081FCD0231B065A680A
:101A2000802316005B011E401A4200D155E1D023ED
:101A30001B065A68802316009B011E401A4200D1E3
:101A400078E1D0231B0603995B680A785B0400D415
:101A5000F9E6002A00D122E7134B98461E68134B83
:101A60001C680593D6E3C0466FA4002074230020B1
:101A70007023002090230020641D0020681D00209A
:101A8000581D00205C1D0020601D002069A400205E
:101A90001C1F00206AA40020010101016C1D002010
:101AA000181F0020FF070000941E0020981E002031
:101AB000201F00202C1F0020E0FF000000225046C5
:101AC000029902600B78002B4DD04B78002B01D18E
:101AD00000F04EFE8B780226002B45D0A14EA24C82
:101AE00033689946236898464B46EE2B10D84346F8
:101AF000822B0DD8FFF734FB0023414602224846D3
:101B000000930533FEF7F4FDFFF732FB2368984698
:101B10000223984443462360872B01DD00F010FC2C
:101B200034682E68A64201DD00F0EEFB33000C3372
:101B3000A34200DAE8E34346792B01DD00F0E4FD3F
:101B4000EE2C00D9B8E6002B00DAB5E6FFF708FB6B
:101B5000864B02224146200000930523FEF7C8FD74
:101B6000FFF706FBA8E600260721049B079C1A68DE
:101B7000B318D817400F1B180B401B1AE018047C31
:101B8000002C01D000F0F7FD007A002801D000F011
:101B900007FE079CE05C002800D09BE0531C9B19CB
:101BA000D817400F1B180B401B1AE018047C002CA0
:101BB00001D000F0E0FD007A002801D000F0F0FD37
:101BC000079CE05C002800D084E0931C9B19D81788
:101BD000400F1B180B401B1AE018047C002C01D08E
:101BE00000F0C9FD007A002801D000F0D9FD079C63
:101BF000E05C00286ED1D01C8019C3175B0FC018A1
:101C00000140CB1AE118097C002901D000F0B3FD96
:101C1000E118097A002901D000F0C2FDE15C002939
:101C200058D1131D9B19D817400F1B1807310B40B3
:101C30001B1AE018047C002C01D000F09CFD007AF7
:101C4000002801D000F0ACFD079CE05C002841D1E9
:101C5000531D9B19D817400F1B180B401B1AE01877
:101C6000047C002C01D000F086FD007A002801D011
:101C700000F096FD079CE05C00282BD1901D801998
:101C8000C3175B0FC0180140CB1AE118087C00286D
:101C900001D000F070FD097A002901D000F080FD2C
:101CA000E15C002916D1072307329219D117490F99
:101CB000521813405B1AE218117C002901D000F081
:101CC0005AFD127A002A01D000F06AFDE25C002A77
:101CD00000D1ECE5002200F04FFD2C68E42C0BD87D
:101CE000FFF73EFA200006230C227A210096FEF729
:101CF000FFFCFFF73DFA2C68033C2C60002C00DA57
:101D00002DE3E42C00DC2DE3D0231B065B689B0451
:101D100000D596E6E423E4242B60FFF721FA144B68
:101D20000C227A21200000930623FEF7E1FCFFF746
:101D30001FFA86E62C68E42C0BD8FFF711FA200076
:101D400006230C227A210096FEF7D2FCFFF710FA48
:101D50002C6803342C60E42CDCDC002C00DA70E608
:101D6000DBE7C046201F00202C1F0020E0FF000002
:101D7000FF0700000023049AB94613603B680595ED
:101D800000261D005F46079C2378002B00D022E22E
:101D90006378002B00D001E2A378002B00D0E0E1B3
:101DA000E378002B00D0BFE12379002B00D09EE127
:101DB0006379002B00D07DE1A379002B00D05CE19A
:101DC000E379002B00D03BE10A3608341E2EDBD12C
:101DD000A846BB464F460B99059D0A6853009B18C1
:101DE00043443B60053B762B0BD95B4652420A606D
:101DF0005A461B68043313605C2B02DD0123069AEC
:101E00001370A84600265D46079C2378002B00D05F
:101E1000FCE06378002B00D0DBE0A378002B00D03F
:101E2000BAE0E378002B00D099E02379002B00D0B2
:101E300078E06379002B5AD1A379002B3CD1E37968
:101E4000002B1ED10A3608341E2EDED1102002F0DF
:101E5000C1F8069BAB461B784546002B00D1CBE56D
:101E6000FFF77EF90020FEF71BFCFFF781F9002346
:101E70000E9A137013B0F0BCBB46B246A946A046FA
:101E8000F0BD622291463B6899444B46E62BD9D877
:101E90002B689B46B3445B46802BD3D8FFF760F991
:101EA000FC23DB000A225946484600930723FEF72D
:101EB0001FFCFFF75DF9C5E7542291463B68994442
:101EC0004B46E62BBBD82B689B46B3445B46802B26
:101ED000B5D8FFF745F9FC23DB000A2259464846EE
:101EE00000930723FEF704FCFFF742F9A7E7462219
:101EF00091463B6899444B46E62B9DD82B689B4600
:101F0000B3445B46802B97D8FFF72AF9FC23DB000C
:101F10000A225946484600930723FEF7E9FBFFF7DC
:101F200027F989E7382291463B6899444B46E62BCE
:101F300000D97EE72B689B46B3445B46802B00D9D3
:101F400077E7FFF70DF9FC23DB000A2259464846E4
:101F500000930723FEF7CCFBFFF70AF969E72A2273
:101F600091463B6899444B46E62B00D95DE72B68C8
:101F70009B46B3445B46802B00D956E7FFF7F0F849
:101F8000FC23DB000A225946484600930723FEF74C
:101F9000AFFBFFF7EDF848E71C2291463B689944F8
:101FA0004B46E62B00D93CE72B689B46B3445B4687
:101FB000802B00D935E7FFF7D3F8FC23DB000A229A
:101FC0005946484600930723FEF792FBFFF7D0F8E7
:101FD00027E70E2291463B6899444B46E62B00D9F1
:101FE0001BE72B689B46B3445B46802B00D914E764
:101FF000FFF7B6F8FC23DB000A2259464846009357
:102000000723FEF775FBFFF7B3F806E73B689B462F
:10201000E62B00D9FDE62B689946B1444B46802B50
:1020200000D9F6E6FFF79CF8FC23DB000A224946BC
:10203000584600930723FEF75BFBFFF799F8E8E6A5
:1020400062239B46AB445B46E62B00D9BCE63B686B
:102050009846B0444346802B00D9B5E6FFF780F898
:1020600000230A224146584600930733FEF740FBFF
:10207000FFF77EF84B461D68A6E654239B46AB440B
:102080005B46E62B00D99BE63B689846B044434646
:10209000802B00D994E6FFF763F800230A2241461B
:1020A000584600930733FEF723FBFFF761F84B46D2
:1020B0001D6885E646239B46AB445B46E62B00D96C
:1020C0007AE63B689846B0444346802B00D973E6D5
:1020D000FFF746F800230A2241465846009307338B
:1020E000FEF706FBFFF744F84B461D6864E638230D
:1020F0009B46AB445B46E62B00D959E63B689846C5
:10210000B0444346802B00D952E6FFF729F800235C
:102110000A224146584600930733FEF7E9FAFFF7D3
:1021200027F84B461D6843E62A239B46AB445B4693
:10213000E62B00D938E63B689846B0444346802BEE
:1021400000D931E6FFF70CF800230A224146584631
:1021500000930733FEF7CCFAFFF70AF84B461D68E9
:1021600022E61C239B46AB445B46E62B00D917E6D0
:102170003B689846B0444346802B00D910E6FEF7F2
:10218000EFFF00230A224146584600930733FEF72B
:10219000AFFAFEF7EDFF4B461D6801E60E239B46A6
:1021A000AB445B46E62B00D9F6E53B689846B04465
:1021B0004346802B00D9EFE5FEF7D2FF00230A2229
:1021C0004146584600930733FEF792FAFEF7D0FFD8
:1021D0004B461D68E0E5E62D00D9D9E53B689846F9
:1021E000B0444346802B00D9D2E5FEF7B9FF002367
:1021F00028000A22414600930733FEF779FAFEF7DA
:10220000B7FF4B461D68C3E50C9B98461E680D9BA7
:102210001C680593EE2E01D9FFF737FB822C01D8FD
:10222000FFF725FB059B043C1C60072C01DCFFF736
:1022300033FB079E00230A96D1463E000993109572
:102240000024B2460A9D2B78002B16D053461F68F7
:1022500043461B68E719BB420FDB3A000A32934240
:102260000BDC5B461E68099BF618059B1B68B34296
:1022700003DBF21D934200DC82E10E340135702C49
:10228000E1D1099B0A9A0A330832564609930A9209
:102290001E2BD5D1039B37001B78CA46109D002BFF
:1022A00001D1FFF7FCFA43461C68EE2C01D9FFF779
:1022B000F6FA059B1E68822E01D9FFF7F0FAFEF7A9
:1022C0004FFFF8231B020222310020000093052358
:1022D000FEF70EFAFEF74CFFFFF7E1FAEE2C01D9FC
:1022E000FFF778FB4346822B01D8FFF767FBFFF728
:1022F00071FBEE2C01D9FFF726FB4346822B01D858
:10230000FFF715FBFFF71FFBEE2C01D9FFF7D4FAFF
:102310004346822B00D819E4FFF7CEFA96200E9B95
:1023200040001A7001F056FE6368334201D0FFF797
:1023300074FB42466368134201D0FFF76EFB99E5D8
:102340000023029A1370FFF7B7FA0023029A9370E2
:10235000FFF740FB0023029A5370FFF7F4FA0023C3
:1023600000242B60FEF7FCFEE64B0C227A212000B5
:1023700000930623FEF7BCF9FEF7FAFEFFF757FBC2
:102380007033136055E7622292463B689A44534685
:10239000E62B01D9FFF745FA2B689B46B3445B4611
:1023A000802B01D9FFF73DFAFEF7DAFEFC23DB00B4
:1023B0000A225946504600930723FEF799F9FEF783
:1023C000D7FEFFF72EFA542292463B689A445346B2
:1023D000E62B01D9FFF720FA2B689B46B3445B46F6
:1023E000802B01D9FFF718FAFEF7BAFEFC23DB00B9
:1023F0000A225946504600930723FEF779F9FEF763
:10240000B7FEFFF709FA462292463B689A445346C4
:10241000E62B01D9FFF7FBF92B689B46B3445B46DB
:10242000802B01D9FFF7F3F9FEF79AFEFC23DB00BE
:102430000A225946504600930723FEF759F9FEF742
:1024400097FEFFF7E4F9382292463B689A445346D8
:10245000E62B01D9FFF7D6F92B689B46B3445B46C0
:10246000802B01D9FFF7CEF9FEF77AFEFC23DB00C3
:102470000A225946504600930723FEF739F9FEF722
:1024800077FEFFF7BFF92A2292463B689A445346EB
:10249000E62B01D9FFF7B1F92B689B46B3445B46A5
:1024A000802B01D9FFF7A9F9FEF75AFEFC23DB00C8
:1024B0000A225946504600930723FEF719F9FEF702
:1024C00057FEFFF79AF91C2292463B689A445346FE
:1024D000E62B01D9FFF78CF92B689B46B3445B468A
:1024E000802B01D9FFF784F9FEF73AFEFC23DB00CD
:1024F0000A225946504600930723FEF7F9F8FEF7E3
:1025000037FEFFF775F90E2292463B689A44534610
:10251000E62B01D9FFF767F92B689B46B3445B466E
:10252000802B01D9FFF75FF9FEF71AFEFC23DB00D1
:102530000A225946504600930723FEF7D9F8FEF7C2
:1025400017FEFFF750F93B689B46E62B01D9FFF7D2
:1025500045F92B689A46B2445346802B01D9FFF7C0
:102560003DF9FEF7FDFDFC23DB000A2251465846EB
:1025700000930723FEF7BCF8FEF7FAFDFFF72EF9EC
:10258000E62F0DD8802E0BD8FEF7EAFD00230A2295
:102590003100380000930733FEF7AAF8FEF7E8FD94
:1025A0000023039A2B701370119A13680133136080
:1025B000FFF734F807994A780B789B188A789B18AC
:1025C000CA789B180A799B184A799B188A799B18B4
:1025D000CA799B180A7A9B184A7A9B188A7A9B18A0
:1025E000CA7A9B180A7B9B184A7B9B188A7B9B188C
:1025F000CA7B9B180A7C9B184A7C9B188A7C9B1878
:10260000CA7C9B180A7D9B184A7D9B188A7D9B1863
:10261000CA7D08999B185A07D21A9200D21A520002
:102620009132FF320A60002B00D026E6069A013371
:10263000137022E60024029B9C70E42E0AD8FEF759
:102640008FFD06230C227A2130000094FEF750F80B
:10265000FEF78EFD0F9A1368013B1360FEF7DEFF55
:10266000FA20400001F0B6FC2C68E42C0BD8FEF7F1
:1026700077FD244B0C227A21200000930623FEF7DD
:1026800037F8FEF775FD0F9B1B68002B01DDFFF788
:10269000A1F90123069A1370FFF79CF90024029B0D
:1026A0005C70E42E0AD8FEF75BFD06230C227A212B
:1026B00030000094FEF71CF8FEF75AFD0F9A1368DD
:1026C000013B1360FEF7AAFFFA20400001F082FCF4
:1026D0002C68E42C0BD8FEF743FD0A4B0C227A2120
:1026E000200000930623FEF703F8FEF741FD0F9B41
:1026F0001B68002B01DDFFF726F90123069A1370F2
:10270000FFF721F9FF0700000024029B1C70E42E54
:102710000AD8FEF725FD06230C227A21300000940A
:10272000FDF7E6FFFEF724FD0F9A1368013B1360E7
:10273000FEF774FFFA20400001F04CFC2C68E42CFA
:102740000BD8FEF70DFD174B0C227A2120000093C9
:102750000623FDF7CDFFFEF70BFD0F9B1B68002B3B
:1027600001DDFFF7A9F80123069A1370FFF7A4F81B
:102770000126FFF7F9F91422DC00E31A3C685B003C
:1027800009481B19B10005330B5058460068074B28
:1027900012180732CA500123029A9355FFF787F89F
:1027A0000A22E9E7FF070000201F00202C1F00205D
:1027B000F0B5CE4647460025022680B52C4C83B0A6
:1027C0008146FEF7CDFC0020FDF76AFFFEF7D0FC46
:1027D000FEF7C6FC0C23F022002100200094FDF738
:1027E00087FFFEF7C5FC0094002300220121214849
:1027F000FDF7A8FF204C2378002B15D0A94524D045
:102800001E4B0027984620003200434601214038E5
:102810000097FDF797FF2000320043460A210097FA
:102820003038FDF78FFF013601354134082DE2D1F4
:1028300000230C220093002111480D4BFDF782FF6D
:1028400003B0C0BCB946B046F0BDFC27FEF788FC1B
:10285000B1008919FF000A23F022002049000097E7
:10286000FDF746FFFEF784FC00239846CBE7C04601
:10287000E0FF0000B4A30010A0110020FFFF000043
:10288000C8A30010F0B5D64646464F460024C0B552
:1028900096B006AF1022002138000AAE02F0E6FE24
:1028A0000EAD10220021300002F0E0FE20220021B7
:1028B000280002F0DBFEFEF753FC0020FDF7F0FEDF
:1028C000FEF756FC002200216D486E4B0094FDF788
:1028D00039FFFC236C48DB00022200210094FDF745
:1028E00031FF6A4B18009846FDF780FF002004F086
:1028F000D5FB831CFAD00D280FD00A280DD07F28D5
:1029000000D1A4E00E2CF1DC38550020013404F095
:10291000C5FB831CEAD00D28EFD100233B55009363
:10292000FC23042200215A48DB00FDF70BFF404640
:10293000FDF75CFF0024002004F0B0FB831CFAD0FC
:102940000D280FD00A280DD07F2800D184E00E2C4E
:10295000F1DC30550020013404F0A0FB831CEAD0E8
:102960000D28EFD1002333550093FC2306220021CC
:102970004848DB00FDF7E6FE4046FDF737FF002440
:10298000002004F08BFB831CFAD00D280ED00A28FF
:102990000CD07F2865D01E2CF2DC28550020013495
:1029A00004F07CFB831CEBD00D28F0D100232B55C9
:1029B000394C05A9200098460593039400F070FC5B
:1029C000059B9946072B50DC9A019246D2189046F7
:1029D0000394444439001022200007F003FA4046D3
:1029E000039B103031001818102207F0FBF95A230E
:1029F000203427002E000024984605E04246337814
:102A0000013653403B550134280007F05FFAA042DD
:102A1000F4DC49465346012203985B18C31840333F
:102A200001311A70059100F0CFFB00230093FC23C5
:102A3000092200211948DB00FDF784FE184801F047
:102A4000C9FA16B0E0BCBA46B146A846F0BD002CA3
:102A500000DC59E7013C49E7002C00DC79E7013C48
:102A600069E7002C99DD013C8AE743460093F8238F
:102A7000092200210B481B02FDF764FEDEE7C04679
:102A8000E4A30010E0FF0000F4A30010B8A00010C1
:102A9000FCA3001004A40010601100200CA400107E
:102AA000DC0500001CA40010F0B5C646002400B5EB
:102AB000464B84B0180003A99846039400F0F0FB3D
:102AC000039B002B77D0D025FEF74AFB0020FDF7B3
:102AD000E7FDFEF74DFB002200213D483D4B0094F1
:102AE000FDF730FE3B4B012200213B480094FDF7EF
:102AF00029FE2D060020FFF75BFE6B6800241B04F7
:102B000060D5802780267F01B6010BE06B683342D9
:102B10001AD06B685B0425D5322001F05BFA6B6834
:102B20001B044FD56B683B42F0D10399013C601800
:102B300001F0E4FE08000C00FFF73AFEC82001F0A7
:102B400049FA6B683342E4D10399601C01F0D6FE68
:102B500008000C00FFF72CFEC82001F03BFA6B6860
:102B60005B04D9D4039D013DAC420ADAA0010019EF
:102B700001002C1BA201413112194144404407F0CD
:102B800079F8A801401941220021404402F06EFD6D
:102B900029004046039500F017FB00230093F8231B
:102BA0000A2200210D481B02FDF7CCFDFA2080000F
:102BB00001F010FA02E00A48FDF794FE04B080BC70
:102BC000B846F0BDC82001F005FAF7E76011002013
:102BD0003CA40010E0FF000054A400106CA40010FE
:102BE00028A40010F0B5DE46454657464E46012360
:102BF000E0B5D94F91B00C203B70D02400F0E8FB39
:102C0000802324065B0100220121A3620C2000F036
:102C1000CDFB0D2000F0DCFB80239B010022012175
:102C2000A3620D2000F0C2FB0E2000F0D1FB802338
:102C30008025DB01A362002201210E2000F0B6FBFB
:102C40002D020F2000F0C4FB002201210F20A562FD
:102C500000F0ACFB96200026400001F0BBF9BF4B12
:102C600007A918009B46079600F01AFBBC4B0020F2
:102C700098461E60FFF79CFD63682B4200D1F1E08F
:102C8000B84B5E460493059706E0322001F0A2F9A6
:102C900063682B4200D1E4E06368DB040BD4434655
:102CA000186801381860002800DA15E1FFF780FD88
:102CB000C82001F08FF9616880230A009B011A4047
:102CC000194200D1DAE063685B04DED4C82001F069
:102CD00081F943461B689F01FF183B00203399464A
:102CE000B144484607F0F2F8002800D131E1431E14
:102CF000042B00D80FE14B469B0700D00BE108AB3B
:102D00009A4683089B0002934B449B46964B0200D5
:102D10009C464B460393029B494658469946934628
:102D200053460296664604C9724004C38842F9D1EC
:102D30004A465846039B029E99460292904221D0F1
:102D40000322010091438C465A218B466246594624
:102D50009A5C53464A4061465A54029B5A1C904220
:102D600010DD4B4659469B5C4B4019005346995425
:102D7000029B0233984205DD4A465946D25C4A40DE
:102D80005146CA540023994650440370FEF7E8F9AF
:102D90000020FDF785FCFEF7EBF94B46F019002209
:102DA00000210093714BFDF7CDFC4B460093FC23B3
:102DB000022200210498DB00FDF7C4FC4B461037CB
:102DC00002220521F0190093694BFDF7BBFC4B462D
:102DD0000093F8230422002166481B02FDF7B2FC91
:102DE0004B460422052150460093614BFDF7AAFC97
:102DF0004B460C22009300215C4B5F48FDF7A2FC80
:102E000063682B4264D08027FF0105E0322001F087
:102E1000E1F863682B425BD063681A003A403B429A
:102E2000F4D19146C82001F0D5F85146534804F03A
:102E30004DFA4B460093FC23514806220521DB0046
:102E4000FDF780FCFA20800001F0C4F843461868C2
:102E5000FFF7AEFC322001F0BDF863682B4200D0D2
:102E60001AE7059FC82001F0B5F800233B7011B0A8
:102E7000F0BCBB46B246A946A046F0BD4346186822
:102E80004021013018608123715CF35C5B18C22122
:102E9000715C5B180421FF31715C5B18A221490051
:102EA000715C5B188621FF31715C5B18E32149007E
:102EB000715C5B183349715C5B18984202DB4346D6
:102EC00000201A60FFF774FCC82001F083F8FAE6CE
:102ED000C82001F07FF8B9E78123F05C413BF35C47
:102EE000C018C223F35CC0180423FF33F35CC0187E
:102EF000A2235B00F35CC0188623FF33F35CC01889
:102F0000E3235B00F35CC0181E4BF35CC018434620
:102F100001381860CAE60F2204A95218924601220D
:102F200052429144421C94460200012360465A21B9
:102F3000B446BB464E4691465746F25C4A40FA5468
:102F400001339842F8D108AB5F46664648469A4638
:102F500018E708AB9A4615E76FA40020601100201F
:102F60009C230020FCA300105A5A5A5AE0FF00008C
:102F7000FFFF000004A4001078A400108CA400102F
:102F800090A4001007020000F0B5DE464E4645460C
:102F90005746E0B5D02680250123804C91B00F2004
:102FA00036062D02237000F013FA002201210F20B3
:102FB000B56200F0FBF99620400001F00BF801F03B
:102FC00019F973682B4200D1D9E0FA22002392004C
:102FD00001F0FAFC724B049005919946714B0CADCF
:102FE0009846714B07940393704B06934346C8462B
:102FF000994601F0FFF8FA220023920001F0E4FC68
:10300000049B059CFA22C01AA1419200002301F002
:10301000DBFC0023664AFF26801859411E2200234C
:1030200001F0D2FC934632001924624B0240D218C0
:10303000E241C2230F065A40030AFB1833409B1893
:10304000E622E34152000F045A40030CFB183340C0
:103050009A18E623E2419B005340000E0A02101822
:103060003040C018C222E0413300D20042400B4041
:103070009B18DC22E341120153400A0A3240D21865
:10308000D223E2415B01090C53405B18C826E3419F
:10309000B6015A465E401E23474F9B1A9A46FEF7DA
:1030A0005FF80020FDF7FCFAFEF762F8FEF758F82B
:1030B0000C23F022002100200097FDF719FBFEF7FA
:1030C00057F800230022042140460097FDF73AFB01
:1030D00030003A49E04101F039FC4A460B0008A8AB
:1030E000102103F06BFE002608AF163C3B78210050
:1030F0002B70FC236E70042228000096DB00043441
:10310000FDF720FB01371B2CF0D1FEF729F82C4BE3
:10311000F02200935A2108230020FDF7E9FA5346D4
:10312000DA005B46143B0A2B35D9FC23DB00002474
:103130005A21002000930823FDF7DAFAFEF718F869
:1031400053461021039A280003F038FE0B22002179
:1031500028001C4B0094FDF7F5FA174B0C221021A8
:1031600006980094FDF7EEFAFA20400000F032FFD6
:10317000D0231B065B681B0400D53AE7079CC820D8
:1031800000F028FF0023237011B0F0BCBB46B2460C
:10319000A946A046F0BDF8231B02C8E76FA4002093
:1031A000A0A40010ACA40010B4A40010C4A400108B
:1031B00000F15365095A5A5AE0FF000040420F00DF
:1031C00082100000FFFF0000F0B58522324C0500A0
:1031D000A5440C009200002101A802F047FA2F4BF1
:1031E00002940193002C52DD2B000020A201944692
:1031F0001219AA185E7819788919091898781E008A
:103200004118D8784036401819790918587940186B
:1032100099790918D8794018197A0918587A4018F4
:10322000997A0918D87A4018197B0918587B4018E0
:10323000997B0918D87B4018190020310F7801318B
:10324000C0198E42FAD141339A42D3D1842301AAC4
:103250009B00D05022002900624403A802F00CFA1F
:10326000EFF3108472B68021F8204901400306F084
:103270009FFE8522F820920001A9400306F078FE07
:1032800084F31088012087239B009D44F0BDA30197
:1032900000209C46DAE7C046E4FDFFFFEFBEADDE4E
:1032A000F0B5C646294B0D00294A1968844600B579
:1032B000914239D15C68002C45DD0021254BA001ED
:1032C0000019C0185E781A789219521899781E0061
:1032D0008918DA7840365218197989185A795218AB
:1032E00099798918DA795218197A89185A7A5218FC
:1032F000997A8918DA7A5218197B89185A7B5118E9
:103300009A7B5218D97B89181A002032177801321B
:10331000C919B242FAD141338342D3D184230B4A33
:103320009B00D3588B4205D0002300202B6080BC2B
:10333000B846F0BDA201604606492C60121902F0A1
:103340009BF90120F3E70021E8E7C04600001F10C9
:10335000EFBEADDE08001F10C8230360E723DB00CB
:103360000B607047034B044A19680020914200D15A
:103370005868704700001F10EFBEADDE10B5402446
:10338000074A83009A181268C0005440C0222240A5
:10339000044C1B191A60044BC018416010BDC04694
:1033A00004C0014004D0014000400140064B8000B1
:1033B000C3181B68C90092000A435A400C231340EB
:1033C000024A80180360704704C0014004D00140E5
:1033D0000123D0228340120693629361084A83003E
:1033E0009A1811684022514080320A400549C000B5
:1033F0005B181A60044BC018052343607047C04631
:1034000004C0014004D00140004001408023DB059E
:103410001868000F7047C0460FB400B5084883B065
:1034200003F0D2FE049B002B07D005A918000191E0
:1034300003F0E8FC034803F0C7FE012003F0FAFCA8
:10344000D0A4001080A0001070B58C461600EFF3D9
:10345000108472B60F490B68002BFCD0BFF35F8F4E
:103460006346DB08C5180722C05C63461A40012387
:1034700093401A000240034207D118432870BFF35B
:103480005F8F0A6084F3108870BD61463000FFF7DB
:10349000C3FFC0462C0100D0F8B5CE4647468C4647
:1034A00080B51C00EFF3108872B61C490B68002B26
:1034B000FCD0BFF35F8FA24221D80723994602E0D8
:1034C0000132944218D34946012611408E40D30858
:1034D000C718C35C1E42F3D1100033433B70BFF3E7
:1034E0005F8F00220D4B1A6088F3108800280EDBD6
:1034F000C0BCB946B046F8BD01204042EFE7BFF37B
:103500005F8F00230B6088F31088012040426346E0
:10351000002BEDD00898FFF77FFFC0462C0100D0AC
:10352000044A1078431CDBB2172B00D91023137008
:103530007047C0466813002000B5054B83B00100FA
:10354000009318221F230348FFF7A6FF03B000BD16
:10355000E0A40010A41E00200021044B044ABFF385
:103560005F8F02C39342FAD17047C046000100D07A
:10357000800100D0084B094A1360094A1360094AC8
:103580001360094A1360094A1360094A1360094A23
:103590001360094A136070478080808000E400E077
:1035A00004E400E008E400E00CE400E010E400E0E3
:1035B00014E400E018E400E01CE400E01F231840DD
:1035C0001E3B8340002905D0C021044A49005350C6
:1035D00013607047802201498B50FAE700E100E058
:1035E00001228240034B1B6813405A1E9341D8B2FC
:1035F0007047C04600E100E001238340014A1360A8
:103600007047C04600E200E0054B10309B68800028
:10361000C358044A00209B1A2F229A424041704707
:1036200000ED00E06C13002070B50D00EFF3108684
:1036300072B60F4A1368002BFCD0BFF35F8F0D4B9F
:1036400010309B6884001B590B4A934203D09D4263
:1036500001D001F013F8074B9B681D51BFF35F8F3A
:10366000BFF35F8F0022024B1A6086F3108870BD93
:10367000240100D000ED00E0C1010010F0B5DE46ED
:1036800057464E464546E0B5824683B08B46170006
:10369000EFF3108872B6604A1368002BFCD0BFF3BA
:1036A0005F8F00255D4B5D579946002D00DA9AE04B
:1036B0004A466B005A4C5E19B6000193A319009359
:1036C0009B791370574B9A68534610339B00D1581F
:1036D00099460B1B2F2B32D9534B994200D098E0BF
:1036E000019B0236ED18514BAD006353504BA619A8
:1036F000043B9B1B4F4A1B055B0D651913436B80F5
:103700004D4B0121AB80FF23AB715B46AB60009B4F
:10371000EF710B4319004A46424B9B689950BFF327
:103720005F8FBFF35F8F00223B4B1A6088F31088D6
:1037300003B0F0BCBB46B246A946A046F0BD01208E
:103740000A008243D379B446BB422DD83B4BB51C0B
:10375000190013001B1B5B415943090D8C46334B69
:103760006519A353324B0099043B5B1B1B05314D7C
:103770005B0D2B4304364B80A619131F9B1B1B05A7
:103780005B0D1D4363468B715B468B602C4B8D80BC
:10379000CF7113600143BEE75800C01880002018A5
:1037A000C679BE4225D902000623D356002BF3DA90
:1037B0009A46131D9C4623486346009E9571043E1D
:1037C000F61A36051B4B760D1E43019B96805A193F
:1037D00053469200A418A3715B46194AA080226048
:1037E000E771A36097E700F049FF00254B465D575E
:1037F0005EE766469A46131D9C469088043640054F
:103800000015A6196044801B00050A4E400D304388
:10381000D2E700F033FF63E7240100D06BA400205F
:103820006C13002000ED00E0C101001000A1FFFFBB
:103830009C13002000E0FFFF01BDFFFFAAAA0000CB
:103840000148804701BD00000123034370B59C4639
:10385000EFF30581EFF3108572B6214A1368002B50
:10386000FCD0BFF35F8F1F4B04001F4AE41A644172
:103870006243120D1D4C8900A66852B27658664507
:103880001CD00621595691421CD012215956914202
:1038900022D01E215956914220D02A215956032464
:1038A000914210D0124B19781A708171BFF35F8F5B
:1038B00000220B4B1A6085F3108870BDA3680D4C75
:1038C0005C50EFE700246100091989005B18FF21B3
:1038D000997109499980E5E70124F4E70224F2E7A8
:1038E000240100D06C130020AAAA000000ED00E023
:1038F0006BA40020C101001001BDFFFF00B5074B04
:1039000083B001000093002205230548FFF7C4FDA2
:10391000002801DB1F23181A03B000BDFCA400100F
:1039200071A40020024BC918890001607047C0468D
:103930004000003470B5114C114DAC420FD2FF263F
:103940002368002B0CD0FFF7EBFD01002000FFF7F0
:10395000E9FFA680BFF35F8F0834AC42F0D370BD9F
:10396000FFF7DEFD01002000FFF7DCFF2671BFF34B
:103970005F8F0834AC42E3D3F1E7C046281400203F
:103980003814002010B50400FFF7CAFD0100200024
:10399000FFF7C8FFFF232371BFF35F8F10BDC04641
:1039A00010B504000120FFF7C7FD034BC0188000CD
:1039B0002060BFF35F8F10BD40000034034BC91877
:1039C00089000160BFF35F8F7047C046400000343C
:1039D0000A4B1968EFF3108072B60A68002AFCD00F
:1039E000BFF35F8F1B68BFF35F8F00221A6080F305
:1039F000108840BF002000217047C046A42300204B
:103A0000F0B5DE4657464E464546E0B585B0EFF385
:103A1000058303221A40B34B91005F580123934062
:103A20009B4602925A468846AF4B1A60AF4B0393AF
:103A30005B46AF4843630823FE5E002E37DABB883F
:103A40001BB2002B00DBA4E0BB79002B00D0E5E02B
:103A50000823F95E002920DB4B007A695B18DB0044
:103A6000D3189D68DC686B1C00D104E1A0480100FC
:103A70004144826A0B69AE1A9B1A9E4215D30123F8
:103A8000026A029883401A420FD0994800F0AAFBBC
:103A90008C4202DCCCD18542CAD940BF05B0F0BC13
:103AA000BB46B246A946A046F0BD0D61EDE77A6976
:103AB000730091469B19DB0099444B469C68DD6876
:103AC00000F090FB8D42BADC00D1F6E0002D00DA68
:103AD000DBE04A464B4652691B699246039A934281
:103AE00000D1CCE04A460821785E52880004514655
:103AF00010439847009001910099019A0B001343DD
:103B000000D1C2E013000A00002B00DBD9E0200046
:103B10002900801A99414B469860D96000229B5E2B
:103B2000002B00DA8BE75D007C69EA18D200A2184E
:103B300000949468D268A2468A4200DD7FE702D1F1
:103B4000844200D97BE70824A4463B81BC44009C06
:103B500000972F006546B4463E0006E05E00F2186E
:103B6000D200A2189768D268BA468A4207DC00D110
:103B7000B4E0F318DB00E518E35E002BEEDA6646EE
:103B80004A46009F13802E80BB881BB2002B00DAB0
:103B90005AE73A69EFF3108172B61368002BFCD034
:103BA000BFF35F8F0123BE885B42BB8036B23B69A7
:103BB000BFF35F8F00221A6081F31088002E00DAB5
:103BC00042E73B0008333A0099467D6973009B1930
:103BD0000824115FDB004846EB18002913DB9C68C2
:103BE0000093A446DC6806E0A34240D00023F95EBF
:103BF0003800002906DB4F007F18FF00EF19FB6833
:103C0000A342F1DD009B068000201E5E1980002E7D
:103C1000DCDA1700BB79002B00D119E70023BB7158
:103C20000823F95E4B1C00D137E73D000835AC4650
:103C30007C6903E084464B1C00D109E74B005B180C
:103C4000DB00E0180A00E15E43881BB2002BF1DACA
:103C500001256D42EE178560C66008257B5F9342A3
:103C6000E9D0634619803B8903803A81E3E7BB686A
:103C70006345BBD9C6E7631C00D0F7E605E75346AA
:103C800050461B699847002823D14B461B883A6948
:103C90003B81EFF3108372B611680029FCD0BFF3AB
:103CA0005F8F49467A880A803A697E80BFF35F8FCA
:103CB0000021116083F31088C1E6844200D805E733
:103CC000BDE60B4800F08EFA009B019CC0186141D4
:103CD00021E753460CCB009201930DE7824500D8B3
:103CE00047E74CE7782300203C700540013A00107C
:103CF0000040054070B52D4C2569002D04D00A21E7
:103D00002B48FFF70FFE70BD2A4E0321294800F013
:103D10005FFAE660FFF704FC274B0322C018D023AC
:103D200022701B061B6801216370244B8000A36076
:103D30000F2320610220638063694942A1801980BA
:103D40000231198647311D83585218315A52753243
:103D50005C39995218320131995218320131995215
:103D6000183201319952083518329D5202311832F9
:103D70009952183201319952183201319952183240
:103D80000131995218320131995218320131995248
:103D90000B4B0C49DC6001303562FFF745FC01211B
:103DA0000320FFF70BFC084B1D60A8E7B4130020AD
:103DB000A42300200040054040000034FFFF100015
:103DC00078230020013A0010386005400048704711
:103DD000B4130020F8B51F0008AB1B7804001600D0
:103DE000002B07D100F006FA32003B00121A8B417B
:103DF000002B51DB2269EFF3108C72B61368002B95
:103E0000FCD0BFF35F8F0223E15E256900293ADB16
:103E10004B0060695B18DB00C218C35A6380BFF3B4
:103E20005F8F00232B608CF31088069B9660D76011
:103E30001361079B5361538801335B045B0C181CAF
:103E4000002B1ED083B25080080418432569EFF37D
:103E5000108672B62B68002BFCD0BFF35F8FA3884F
:103E60001380A1802369BFF35F8F00221A6086F35D
:103E70001088237801329A400849E3685B181A6079
:103E8000F8BD0120DEE7BFF35F8F00232B608CF3CA
:103E9000108801204042F3E70020F1E73C200000B9
:103EA00070B582B00092019301000269EFF31084B3
:103EB00072B61368002BFCD0BFF35F8F0223C85E7D
:103EC0000D6900283FDB4A69430016001B18DB0020
:103ED000D218F35A4B80BFF35F8F00232B6084F31B
:103EE0001088069B1361079B5361009B019C9360A4
:103EF000D460538801335B045B0C1D1C002B20D065
:103F0000ACB20304558023430D69EFF3108C72B6F5
:103F10002C68002CFCD0BFF35F8F8C8814808880C5
:103F20000A69BFF35F8F002010608CF310880A7855
:103F300001309040CA68084952181060180002B059
:103F400070BD0125DCE7BFF35F8F00232B6084F396
:103F50001088013BF2E7C0463C20000010B54389C1
:103F60000A1493421ADD53009B184269DB00D318F0
:103F70000469EFF3108C72B62268002AFCD0BFF3FC
:103F80005F8F5A88090494B2090C8A4208D00369E9
:103F9000BFF35F8F00221A608CF31088002010BDE1
:103FA000094A22435A80012302698371BFF35F8F5C
:103FB000002111608CF31088027804499340C26894
:103FC000012052181360EAE70080FFFF3C20000048
:103FD00040787047F0B5C64600B582B0040000F0E6
:103FE00009F9FA2206000F002000002300219200A8
:103FF00001F0D0FA8019794104000D1E02DA012483
:104000002E4D644206267642F71736196F41AF42AD
:1040100014D811D000F0EEF832003B00121A8B4198
:10402000002B15DC002B46D02000290000F022F9DF
:1040300002B080BCB846F0BDA642EBD900260027EE
:1040400000F0D8F832003B00121A8B41002BE9DD5A
:1040500000F0D0F832003B00121A8B41002B0ADB33
:1040600000230193164B3200009316483B00FFF7E4
:1040700017FF0130D8D000233900B0469C46124AC1
:104080001248536A994204D8966A4645CCD299425E
:10409000CAD10668EFF3108772B63368002BFCD0E4
:1040A000BFF35F8F0368BFF35F8F66461E6087F3C1
:1040B000108820BFE5E7002AB6D0C9E7FFFFFF7FE1
:1040C000D1390010B413002000400540A423002083
:1040D000F0B5CE46474680B504000D0085B0EFF33D
:1040E00005868946002E10D0364900204B6AAB4227
:1040F00006D38A6A5B1B591E8B41A242404118437A
:1041000005B0C0BCB946B046F0BD2F4FFB683A7849
:1041100098461800039200F065F8039A131D424672
:104120009B009B5822001B1A9C462B00121A8B41A5
:104130009E4210DC0DD020BF224A0020536A4B451E
:10414000DED3926A5B1B591E8B41A2424041184349
:10415000D6E79445EFD900F04DF822002B00121A53
:104160008B41002B1BDB00230193184B2200009393
:1041700038002B00FFF794FE002810DD114B5A6A1F
:104180004A451CD39B6AA34217D301003800FFF7AE
:10419000E5FE0C4A0020536A4B45B1D3D1E7094AEA
:1041A0000020536A4B45ABD30020926A5B1BA242AE
:1041B00040415A1E93411843A2E74A45E5D120BF2A
:1041C000E3E7C04600400540B4130020D139001099
:1041D00010B5024A0248FFF737F910BD18A50010C4
:1041E000A81E00200300416A0A00986A596A8A42A0
:1041F000FAD17047034B596A0A00986A596A91428A
:10420000FAD170470040054070B505000E00184A0D
:10421000536A1900946A536A8B42FAD1200019003C
:104220002C00350024184D41AB4216D813D0104B4A
:104230002A005B6A9D4203D90D494B6A9342FCD325
:10424000934207D10A4A02E0516A994202D1916A27
:10425000A142F9D370BDA042E9D9054B5B6A1C00AD
:104260005A1CEFD0012201246442E5175242E3E7D1
:1042700000400540064A536A9942FCD807D1044BD6
:1042800002E05A6A914202D19A6A9042F9D8704784
:1042900000400540F8B5DE464E4645465746E0B577
:1042A00005008B4618000A99914600F04FFB0A9BC7
:1042B0006C001E026419304BA400E4186368804649
:1042C0009E4200D966602F1FFBB29A46012B2FD960
:1042D000C0238022294FAD009B0179591201E318B8
:1042E0001A6000291BD14B4622685B015340E02233
:1042F000134080225201A21813605346012B2FD97C
:10430000802380229B01E31812011A6043466660F5
:104310007B51F0BCBB46B246A946A046F8BD7869C1
:1043200000F014FB013043001B18033BFDD2DAE719
:104330005B46012BCCD1C02303229B01E3181A60FA
:10434000023AA3681A42FCD04A46236852015A40F6
:10435000E023134080225201A218084F1360AD00E1
:1043600058460323216841400B40136001228240DC
:10437000A3681A42FCD0C3E700800040AC1E0020B6
:10438000F0B5D6464F464646440098462418324B70
:10439000A400E41863688A469146C0B5FF2B02D892
:1043A00080235B006360061FF6B2012E2FD9C02365
:1043B00080222A4F85009B0179591201E3181A6067
:1043C00000291BD14B4622685B015340E022134079
:1043D00080225201A2181360012E30D9802380223E
:1043E0009B01E31812011A6080235B00636043465F
:1043F0007B51E0BCBA46B146A846F0BD786900F0F2
:10440000A5FA013043001B18033BFDD2DAE75346FF
:10441000012BCCD1C02303229B01E3181A60023A7E
:10442000A3681A42FCD04A46236852015A40E0234E
:10443000134080225201A218084F13608500504695
:104440000323216841400B40136001228240A3688E
:104450001A42FCD0C2E7C04600800040AC1E0020DB
:10446000014B8000C0587047AC1E0020F0B5C64616
:10447000040000B52348160098460D0000F066FAC7
:104480000100300000F062FA4346069A1B04120352
:1044900013439C4623680600002B22DB1A4B1B4863
:1044A000E218531E9A4180235242120B9B011203C1
:1044B000D218174B1A60174B1A60130001688B4310
:1044C000FBD12122144B2560E318A6601A602268F4
:1044D000002AFCDA6246E26008221A6080BCB84614
:1044E000F0BD3F2322681340AB42D7D1A3681B0520
:1044F0001B0D8342D2D1EE22E368D2021340634502
:10450000CCD1EBE7001BB7000040FDBF08C0004066
:1045100000E0004000F000400430000010B58024AE
:104520001C4BE4051C6000281AD001231A4C1843C8
:104530001A4BDC611A4C44401C625962986280211B
:10454000144BC9051960174817490860E021C904D0
:104550001960002A07D18022144B12061A6010BD80
:104560000E4BD861EBE753019B1A9B009A188023EE
:1045700012015B049A4209D213000D490B60074BEC
:104580005A608022094BD2051A60E8E7094B1A00ED
:10459000F3E7C04600B00540D3C007B00080054037
:1045A0002D3FF84FFCFF01000820014000A005400E
:1045B00040230020FFFFFF008023024A9B000B43A3
:1045C000D362704700800540002310B50100988A2F
:1045D0001B8B984710BDC046162310B501001888E4
:1045E0005B88984710BDC046F8B54746CE4680B5B3
:1045F0000F1E18D014239946043304000025012609
:1046000098464B461888434621681B88984701C442
:10461000431E984101350640AF42F2D13000C0BC84
:10462000B946B046F8BD0126F8E7C046002370B58C
:1046300004000D00988A05491B8B98470300002051
:10464000002C01DB0130A0402900984755420000B2
:10465000AA23064A1B0113608D235B00D360044923
:10466000044B19605368002BFCDA7047004002408D
:1046700000B0FA00006002407047C04610B5014823
:10468000FEF7CAFE3CA5001070B5074D074EB542B7
:1046900009D20024013E761BB608013608CD01344C
:1046A0009847B442FAD170BD30A000106CA0001041
:1046B00070B5074D074EB54209D20024013E761B66
:1046C000B608013608CD01349847B442FAD170BD1E
:1046D00064A000106CA00010054B064A06491A6041
:1046E000064A074B1A6010000B689843FBD17047CD
:1046F00000E00040BFCDFBFE08C00040FE7F3C0054
:1047000000F00040044BDB6C002B03D18022034BF4
:10471000D2021A607047C046000011504C20115060
:10472000044A054B1A60054A1368DB018033FBD14C
:104730007047C046FFFFFF0100F0004008C0004086
:104740004022034B9A675A671A67DA667047C04679
:1047500000F0014010B5FEF7FFFE10BD70B528490E
:10476000284D294E6D1AAC102200302C00D9302271
:104770003000920000F080FFBC2D3DD823002A3B82
:10478000224A052B1DD9302075196D07A446001B40
:10479000EB0F002D03DA611C8C46A1007250C01A89
:1047A000E3189B004108F318C900C9181A605A6041
:1047B00008339942FAD1012303421DD09843604443
:1047C0000400A300F250631C2F2C15D09B00F25064
:1047D000A31C2E2C10D09B00F250E31C2D2C0BD0D0
:1047E0009B00F250231D2C2C06D09B00F250631D21
:1047F0002B2C01D09B00F250054B9E6070BDC04633
:1048000000010010C001001000000020C1010010D4
:1048100000ED00E0002310B5294C82B0A367FFF73C
:1048200017FF0122274B1A60636C012BFCD1032276
:10483000254B1A60224A936B012BFCD10133009364
:104840000121224A22480433FFF710FE05230121EB
:104850000093204A2048FFF709FE0022022104208D
:104860001E4BFFF78DFD0022012105201C4BFFF799
:1048700087FD0022002107201A4BFFF781FD00224F
:1048800000210820174BFFF77BFD8023DB000093FE
:10489000002200210920134BFFF7FCFC0022104BE3
:1048A00000210620FFF76CFD0420FFF7D9FD0E491B
:1048B00000F04CF801000020FFF77EFE02B010BDB2
:1048C000008000403CB0004030B00040002F6859EC
:1048D00000800240008C864700C00240001BB700E9
:1048E00040597307006CDC0240420F00014804216C
:1048F000014B1847D0130020E9450010124A936F6E
:104900009B0815D29066D166002905D0FFE7FFE726
:10491000FFE7516F106F704704B580210906C21779
:104920005140002800D0C84305F02AFB002104BDF7
:10493000F0B5146E556E576F166FFFF7E3FF1466F0
:10494000556657671667F0BD000000D0114A936F97
:104950009B0813D210665166002905D0FFE7FFE7D8
:10496000FFE7516F106F704704B5002801D0002099
:10497000C04305F005FB002104BDC046F0B5146E30
:10498000556E576F166FFFF7E5FF1466556657674C
:104990001667F0BD000000D094464A4A926F920814
:1049A000624601D228E0C046F0B5464E346E756EC0
:1049B000776F366F00F020F89446424A14665566C9
:1049C000576716676246F0BD94463E4A926F92085A
:1049D000624601D254E0C046F0B53A4E346E756E70
:1049E000776F366F00F04CF89446364A1466556679
:1049F000576716676246F0BD002B24DB11D00029F3
:104A00003EDA00B5C943404200D1013100F038F828
:104A1000C943404200D10131DB43524200D101334E
:104A200000BD002AEBD1002801D1002905D00020CB
:104A3000C90FC90701D1C043410800B505F088FA84
:104A40000022002300BD00B500290ADBDB435242EF
:104A500000D1013300F014F8C943404200D10131C4
:104A600000BDC943404200D10131DB43524200D175
:104A7000013300F005F8DB43524200D1013300BDA1
:104A8000002923D1002B18D1002A0CD0BC460D4F91
:104A900038667A6600210023FFE7FFE7FFE77A6FB9
:104AA000386F67467047002801D00748010000B5FD
:104AB00005F04EFA0022002300BD02000B0000208A
:104AC00000217047000000D0FFFFFFFF002B00D047
:104AD000BFE0130C28D1002AE7D080B4114F39660B
:104AE0007A66FFE7FFE730B4040C7B6F396F1B0475
:104AF00023433B667A66FFE7FFE7FFE7C04684B2E1
:104B00007B6F3D6F1B0423433B667A66FFE7FFE73D
:104B1000C04600232C042D0C7A6F386F00196941B0
:104B2000B0BC7047000000D0F0B594460025140ECC
:104B300001D112020835140F01D112010435940F6E
:104B400001D192000235D40F01D152000135D40BAE
:104B50000134254F7C66254C3C660E0C93B2FFE772
:104B6000FFE7FFE73C6F6643360C7703BE467343AF
:104B7000DF0B5B04C01AB941130C7343DB18C91A6D
:104B8000CE086643360CB64493B273431F0F1B0125
:104B9000C01AB941130C73431F0B1B05C01AB9414E
:104BA000860D8F023E436643360C092D24DB520AE4
:104BB0007243801A7703460A6643360C16235B1B42
:104BC000DE40DF40BF1964466643821B70460435F1
:104BD00006330100D940A840C01900D30131A242D8
:104BE00006D20023F0BD0000000000D0FFFFFFFF51
:104BF000121B0130F3D3F1E709277F1BFE40644607
:104C0000A2B27243801A00D20139220C7243130CF3
:104C10001204821A99410B007046043513370100C3
:104C2000F940A840801900D30131002B02D1A242E3
:104C30000AD2F0BD013000D30131121BFAD2013B80
:104C4000F8D1A24200D2F0BD013000D30131121BD5
:104C5000F7E7F0B51C0C00D080E00CB400251C0A6E
:104C600004D11B02160E3343120208351C0B04D16B
:104C70001B01160F3343120104359C0B04D19B001A
:104C8000960F334392000235DC0B02D192185B4140
:104C900001351C00971864410134464F7C66464C30
:104CA0003C660E0CFFE7FFE7FFE7C0463C6F66433C
:104CB000360C7703BE4697B27743C01B00D201394A
:104CC000C01B00D201399FB27743C91BC91B170C07
:104CD00077437E04FF0B801BB941CE086643360C38
:104CE0000C2D33DBB644120B1F053A431B0B97B256
:104CF0007743C01B00D201399FB27743C91B170C01
:104D000077433E043F0C801BB941860D8F023E4322
:104D1000664329277F1BFE400C3D7746AF40BF19F5
:104D200030BCA2B2ABB272437343801A9941220CD9
:104D30007243130C1204801A994102000B000137D0
:104D4000001BA941F9D2781E0021F0BD0C277F1B62
:104D5000FE4077467F0BAF40FF19E0E700245D1C63
:104D600007D0144F7D663966FFE7FFE7FFE7FFE7EF
:104D70003C6F95B29EB265436643401BB141150C32
:104D80001E0C6543664336042F0C3E432D04401B26
:104D9000B141994204D202000B0020000021F0BD75
:104DA00001D19042F7D3801A994101349942F2D34C
:104DB000F6E70000000000D0FFFFFFFF4840414041
:104DC000484018B41B4B5B68FC46019308BD04DFE8
:104DD0006750001018B4174B1B68FC46019308BDC0
:104DE00000DF715000109446134A926F920809D266
:104DF000624618B40F4BDB68FC46019308BD0CDF1C
:104E0000295300100C4AF0B5146E556E576F166F8B
:104E10006246FFF7EEFF084A146655665767166745
:104E2000F0BD18B4034B9B68FC46019308BD08DF36
:104E3000CD51001088160020000000D0FFB5504072
:104E40004240504059404B40594000E0FFB5154F9B
:104E50004C00640D03D0BC4204D10C0314D80020D4
:104E6000090D09055C00640D03D0BC4204D11C038C
:104E70000AD800221B0D1B0501264B4009D44B40CC
:104E800003D58B4200D18242FFBD9942FCD19042B2
:104E9000FFBD0B43DB1803431343F5D0C943491847
:104EA000FFBD0000FF07000000B5FFF7CFFF804106
:104EB00000BDC04600B5FFF7C9FF01D9002000BD05
:104EC000012000BD00B5FFF7B9FF01D9002000BDEA
:104ED000012000BD00B5FFF7B1FF804100BD0120FA
:104EE00040054A00121804D85A00121801D80020B0
:104EF00070470120704700000021002805D170474D
:104F0000C1174840401AFAD0C90713B5064B1B68B1
:104F100098470CBC441CA2401005120B0349091B06
:104F200009051943114310BDA02300201F040000F0
:104F300010B54C00620D8023D218DB00D21A5B053D
:104F40007E2A10DD9E3A13DACC170903490819436B
:104F50005242D140640001341532202A05DAD04093
:104F60000843604310BD002010BD0846604310BDDB
:104F7000C80FC018013810BD18B4044B5B6AFC465A
:104F8000019308BD24DFD9540010000088160020CA
:104F9000132370B51D78012D19D014DD1F48FFF7BC
:104FA0001BFB06001E48FFF717FB1E4C802231003A
:104FB000200000F061FB022D2DD01B48FFF704FB01
:104FC0001A4B186070BD1A4B164CA364F5E7184BCA
:104FD000144C23606360A360E36023616361A36199
:104FE000E36123626362A362E36223636363A36397
:104FF000E36323646364A364E36423656365A36577
:10500000E36523666366A366E36623676367A36756
:10501000E367A364D1E7064BA364CEE753440000E3
:1050200053460000881600204C330000A0230020C7
:105030003550001007B5604601880A0A0230DF2AA1
:10504000FAD1C9B2820804D3028840880004104310
:1050500000E00068014A5050039007BD8816002008
:105060000FB403BC0CBCF0B50124E407634000E0BE
:10507000F0B50C0DCF0F661E3605891B640503D3F2
:10508000C943404200D30131640D03D0661CF60AC7
:1050900007D0E41B00207F00791C89078912803C1F
:1050A00024031D0DDF0F6E1E36059B1B6D0503D3FC
:1050B000DB43524200D301336D0D03D06E1CF60A60
:1050C00007D0ED1B00227F007B1C9B079B12803DBD
:1050D0002D032F1B661B58D4A446202E46DA2037FA
:1050E0001400BC401D00BD40F24033412A438018EB
:1050F0005941CB0F05D0C943C043002264425041FF
:10510000514162464D0D28D10D0D07D100281FD009
:10511000241940414941013A0D0DF9D0640006D3EC
:10512000013000D30131002C01D140084000013A88
:105130000BD4941CE40A04D112051144DB07194472
:10514000F0BDD907204B194300E0D9070020F0BD7E
:105150000029DDD1002CDBD1F0BD0132C6074008AB
:10516000CD0728434908002EE1D0D9E73C2E29DAA3
:10517000203E40371400BC4000D00124F2401443CC
:105180001A00BB401C43D317ACE7AC46202F08DA0B
:1051900020360400B4400D00B540F84039412843A2
:1051A000A5E73C2F0CDA203F40360400B44000D085
:1051B0000124F84004430800B1400C43C117EAE75A
:1051C00010001900002494E70000F07FF0B50C0DEA
:1051D000661E3605891BE60A6405640D02D0651C4F
:1051E000ED0A04D0002001210905803C2403A446D7
:1051F0001C0D671E3F05DB1BE70A6405640D02D02A
:10520000651CED0A04D0002201231B05803C240309
:105210007740644497B484B296B27443070C7E43DB
:10522000150C6F4380B26843361802D30120000486
:105230003F183004350C00197D41844688B29AB27B
:1052400050430C0C62431F0C7C438EB27E43921978
:1052500002D301263604A4191604170C3618674128
:1052600001BC81B29AB25143040C62431B0C5C43F3
:1052700080B25843121802D30120000424181004ED
:10528000130C401863412D185E410020474106BCB5
:1052900088B293B258430C0C6343120C544389B246
:1052A00051435B1802D301210904641819041A0C34
:1052B000091862416D1856410020474118BCF90297
:1052C000720D1143F0026A0D1043ED020A0D03D175
:1052D0006D1940414941013B124E9B1B7600B34280
:1052E0000ED26D0007D3013000267141664635436A
:1052F00001D1400840001B05C918E4072144F0BD56
:105300000BDA013306D1013004D101314F0D01D048
:105310004908F2E7E1070020F0BD01363105002021
:10532000EBE70000FF030000F0B51C0D671E3F0512
:10533000DB1BE70A6405640D02D0661CF60A04D084
:10534000002201231B05803C2403D0252D060026C6
:10535000F6432E661E096E66CE0FF619B446490056
:105360004F0D02D07E1CF60A03D000200021403FE2
:105370003F033E1BB600B444013F7F05C91B4908EB
:105380002E6F013676089C02950D25437543ED136B
:105390007543AD1301356D10F603761B0CB4CC02CA
:1053A000450D2C43A2B2B3B25A43270C7B43350CB4
:1053B0006F43A4B26C431B1902D3012424043F1988
:1053C0001C041D0CA4187D4124196D41009A91B252
:1053D000ACB26143170C7C432B0C5F4392B25A432F
:1053E000A41802D301221204BF182204230C52185D
:1053F0007B41019C6C431B19520ED9010A434401A5
:10540000A01A81B2B2B2514303145A43360C73430B
:1054100087B27743D617D21900277E4136049B19ED
:105420001704160C7F185E417316ED18F301002661
:1054300080337541A90F06D16400690AE8055B0A4B
:10544000184309D22FE00422944480337541A90AFD
:10545000A8059B0A184326D3404149412404009AD9
:10546000019B0D005543641B4343E41A95B286B279
:105470007543170C7E43030C5F4392B25A43B61830
:1054800002D301221204BF183204330C52197B419B
:1054900052429C41002C02D400220130514140086C
:1054A000CA071043490802B06246D7079210084B5A
:1054B000D218084B9A4203D212058918C919F0BDB7
:1054C0000020002A01DC3900F0BD01331905F5E7A1
:1054D000FD030000FE070000002200B5203200F0AE
:1054E00004F8080000BD000000220B150AD410B516
:1054F000944600F031F81414013400DA0021CB177F
:10550000144C20470020002170476244343A0CD4E8
:105510000C2A07DA04009140904052422032D440D5
:10552000214310BDD843D94310BD203207D40C46C7
:105530009440524220321141D040204310BD080017
:10554000C917203203D452422032104110BD180036
:10555000190010BD0B5500100A0DCC0F531E1B0572
:10556000C91A520503D3C943404200D30131520D39
:1055700003D0531CDB0A07D0121B00206400611CFF
:1055800089078912803A1203014BD21A7047000032
:10559000FF03000051434343C9188C46110C83B2EA
:1055A0004B4310B4040C614392B280B25043624347
:1055B0001C041B0C001910BC59411304120CC01818
:1055C0005141614470470000132310B51C78134803
:1055D000FFF702F8012C0BD004DD010080221048F7
:1055E00000F04AF80F48FEF7EFFF0F4B186010BDB0
:1055F0000B4C01005422200000F03EF80B4B636579
:10560000A365E36523666366A366E3662367636752
:10561000A367E3672362E361E4E7C0465346000003
:10562000881700204C330000A023002031560010C2
:1056300007B5604601880A0A0230DF2AFAD1C9B2EA
:10564000820804D3028840880004104300E0006808
:10565000014A5050039007BD8817002001480421DB
:10566000014B1847E0130020E9450010014B1B686F
:1056700018470000E0130020014B5B68184700004A
:10568000E01300209A4200D2885470477047C04609
:10569000F8B5DE4657464E464546E0B599460D9B61
:1056A0000700884693469B0728D00B9B002B3CD0D5
:1056B00016000B9C0A9D3619321B013C4B46414695
:1056C000285DB847002CF7D135000D9B9B070ED500
:1056D0005B46EC1A0C9BA34209D91E002A004B46DC
:1056E000414620200134B8470135B442F6D32800A2
:1056F000F0BCBB46B246A946A046F8BD0B9B0C9A2F
:10570000934214D213005D460C000B9A9E1A761930
:105710002A004B46013521002020B847B542F7D179
:105720000B9BA046002BC4D1E1E71500CDE75E46F8
:10573000002BBED15D46DAE7F0B54F46D646464669
:10574000C0B584B09C460EAB1F78129B9146BA46FA
:105750000D9C109E119D9B074CD4002D41D1B4424D
:1057600048D20123129F1F40B8460C9B5F1E302376
:1057700003E001343B55A64201D9202CF9D1434620
:10578000002B00D187E00C9B5F1E3023A54204D87C
:1057900030E001343B55AC422CD0202CF9D1129B87
:1057A000DB060DD5129B5B0557D4A64267D0A542F8
:1057B00065D00F9B102B53D0022B5BD0202C36D101
:1057C0002023129C01930C9B4A460093039463464A
:1057D0000295FFF75DFF04B0E0BCBA46B146A846AB
:1057E000F0BD0123129A13409846012313422DD194
:1057F000B442BAD3129BDB061ED5129B5B05D8D4EC
:10580000002CD2D10F9B102B60D00F9B022B71D09C
:10581000302301240C9A13705346002B11D1129B94
:105820005B0740D52B260C9A631C1655C9E723004D
:10583000013430260C9AD654202CC1D05346002B6C
:10584000EDD02D260C9A631C1655BAE7002F34D0E4
:10585000013DB44200D288E795E70F9B102BAFD1F2
:10586000129B9B063CD5202CAAD058230C9A13558A
:105870000134A3E7202CA3D02300013407E0631EEA
:10588000012CBFD00F9A102A36D0022AD1D162261D
:105890000C9AD65492E7129BDB06CDD5129B5B0582
:1058A00000D482E785E7129A2300160700D488E720
:1058B00020260C9A0133165583E70C2313405F1EF4
:1058C000BB41ED1AB44200D24FE75CE7129B9B0646
:1058D0000ED478230C9A02241370302353709BE764
:1058E000202C00D16CE778230C9A1355013465E71E
:1058F0005823EFE76033EDE70C9AA61EB618129A0C
:10590000920602D55822327093E77822327090E7DF
:1059100010B5002800D110BD01F00CFCFBE7C0461B
:1059200010B5002803D04A680B681100984710BDD5
:10593000F0B54E46DE4657464546E0B595B083463F
:105940008946924698461E9A1F9B10001900209E79
:10595000FFF7C5FA002800D0D2E11E981F99012256
:10596000C44B5242FFF7A0FA002800D001E11E9874
:105970001F990122C04B5242FFF7ACFA002800D019
:10598000D6E01E981F990022BC4BFFF7A3FA00280F
:1059900000D0B5E01E981F990022B94BFFF784FA9A
:1059A000002800D0ACE01E981F9900220023FFF7CA
:1059B0007BFA002800D0D1E000230B93229B5B05EB
:1059C00000D406260024302306E006AA013417324C
:1059D0001355013E202C01D0092EF6D81E981F9990
:1059E000FFF7A6FAA74BF2009B180CCB0500089214
:1059F0000993FFF785FA02000B001E981F99FFF725
:105A0000E0F9089A099BFFF70CFA06900791FFF757
:105A1000B3FA0700FFF770FA02000B000698079927
:105A2000FFF7CFF90022984B06900791FFF752FA43
:105A3000002800D1E9E001373800FFF75DFA0200E5
:105A40000B0008980999FFF735FA002801D00027C4
:105A50000135002E00D1B7E0069513E0172306AA02
:105A60009B180A21380001341D19FEF76FFF3031F1
:105A7000297038000A21013EFEF768FF092F00D87F
:105A8000E1E00700202CE9D1069D20240CAB069311
:105A9000172706ABFF180DE028000A21FEF72EFF9E
:105AA00001343031280039550A21FEF727FF051E41
:105AB00000D1B7E0202CEFD10323229A1340012B11
:105AC00017D1219B002B14D00B9B002B00D1E3E0BE
:105AD000219B013B2193202B0BD93023219A06E0F7
