:020000041000EA
:1000000000B5324B212058609868022188439860DF
:10001000D860186158612E4B002199600221596106
:100020000121F02299502B49196001219960352056
:1000300000F044F80222904214D00621196600F024
:1000400034F8196E01211966002018661A6600F04E
:100050002CF8196E196E196E052000F02FF8012189
:100060000842F9D1002199601B49196000215960AB
:100070001A491B48016001219960EB211966A021F2
:10008000196600F012F800219960164914480160C1
:100090000121996001BC002800D000471248134993
:1000A000086003C880F30888084703B5996A0420EC
:1000B0000142FBD001200142F8D103BD02B5186610
:1000C0001866FFF7F2FF186E186E02BD00000240BE
:1000D000000000180000070000035F00212200005C
:1000E000F4000018222000A00001001008ED00E03C
:1000F00000000000000000000000000074B24E7A12
:1001000000200420F7010010CB010010CD010010E9
:10011000C9010010C9010010C9010010C901001077
:10012000C9010010C9010010C9010010CF01001061
:10013000C9010010C9010010D1010010D301001045
:10014000C1010010C1010010C1010010C101001067
:10015000C1010010C1010010C1010010C101001057
:10016000C1010010C1010010C1010010C101001047
:10017000C1010010C1010010C1010010C101001037
:10018000C1010010C1010010C1010010C101001027
:10019000C1010010C1010010C1010010C101001017
:1001A000C1010010C1010010C1010010C101001007
:1001B000C1010010C1010010C1010010C1010010F7
:1001C000EFF30580103800BE00BE00BE00BE00BECA
:1001D00000BE00BEF2EB8871FC1401101C1501106A
:1001E0003802001090A31AE71E481F49086006C88D
:1001F00081F3088810471D480068002801D019487D
:10020000F3E70DA40ECC002902D000F012F8F9E7B4
:100210001749184A002000E001C19142FCD116495B
:100220008847164988471649884700BEFDE701C937
:1002300001C29A42FBD370471C150110C000002078
:100240000811002064250110000004200000042093
:10025000642501100010042000100420000000009C
:10026000704700000000000008ED00E0000000D032
:1002700008110020DCA000200D4D001071030010BB
:10028000054D0010F8B5C04606480749091A8B10FD
:10029000C90FC91810B5491003D0044B002B00D06A
:1002A000984710BD08110020081100200000000030
:1002B000054B10B5002B03D00449054800E000BFF2
:1002C000FFF7E2FF10BDC04600000000C41F002081
:1002D000847B0010F0B501270D4D0E4E83B02C78B5
:1002E000631C2B70FC233C406442DB003440E41868
:1002F00000F090FD0A2323227821B920009400F019
:10030000EDF900F08FFDFA20400001F0E1FDE6E795
:10031000D9A000203FF8FFFF10B500F085FA10BD0E
:10032000F0B5C646002000B500F0B0F90D4B002630
:1003300098460D4FB8443D00342420002A883100EF
:10034000013400F087F90235BB2CF6D10F37FF37A7
:1003500001364745EFD1054801F0BAFD80BCB846EB
:10036000F0BDC046628E0000F87E0010B80B0000A1
:1003700010B504F0C3FDFA20C00001F0A9FD00F0A3
:10038000C3F800F03FFDFFF7CBFF1F2000F07EF920
:10039000642001F09DFD064807F002FB00F08CFC94
:1003A0000449054800F09CFC00F0BCFC002010BD96
:1003B000D502001019030010887B0010F0B54E46DE
:1003C000DE4657464546E0B585B002ACE61D8027BF
:1003D000D024802598462A2383462406AD027F0236
:1003E00033708A4691463100A7610122A5614548D4
:1003F00007F06EFB5B46180028306561009303121E
:1004000033700190310067610122A5613D4807F01A
:100410005FFB009A6561283232703100676101220A
:10042000A561384807F054FB4A46019B65619B185B
:10043000013B1B1201923370310067610122A561FB
:10044000304807F045FB0198009A27308318656112
:1004500031003370012267612A48A56107F038FB3B
:100460002B236561310033700122A7612548A56106
:1004700007F02EFB53461A003532656100931312C4
:1004800033700192310067610122A5611D4807F0B8
:100490001FFB0098656135303070310067610122C3
:1004A000A561184807F014FB4246019B65619B1843
:1004B000013B1B1201923370310067610122A5617B
:1004C000104807F005FB019B009834331B18656149
:1004D00031003370012267610A48A56107F0F8FA1C
:1004E0002C236561012233703100A7610548A561A5
:1004F00007F0EEFA656105B0F0BCBB46B246A9460E
:10050000A046F0BD00C0034070B5D02480258026F1
:1005100082B04D494D4807F06FF90121122000F0DB
:10052000ABFE012113202406AD0200F0A5FE112030
:10053000760200F0CBFE1020656200F0C7FE1420AA
:10054000666200F0C3FE80235B0363626A466361F8
:10055000012301A913713D480122A661A56107F09D
:10056000B7FA9620656101F0B3FC11236A4601A930
:10057000137136480122A661A56107F0A9FA32205D
:10058000656101F0A5FC3A236A4601A913712F4861
:10059000A6610122A56107F09BFA05236A46656101
:1005A00001A91371294866610122A56107F090FA3B
:1005B00036236A46656101A913712448A6610122A8
:1005C000A56107F085FA70236A46656101A9137178
:1005D0001E4866610122A56107F07AFA21236A4666
:1005E000656101A913711948A6610122A56107F08F
:1005F0006FFA29236A46656101A913711348012224
:10060000A661A56107F064FA0A20656101F060FC4B
:100610008723F02200210020FFF7D0FE00236A4646
:100620006661A5610A4C93800222084801A9013C39
:1006300007F04EFA002CF7D1D02380221B0692023D
:100640005A6102B070BDC046A0ACB90300C00340FF
:10065000907E000070B5012382B016000122FFF7E2
:10066000ADFED024802380256A4624065B026361A8
:10067000AD0273BAA56101A993800348022207F075
:1006800027FA656102B070BD00C0034010B5872332
:100690000400F02282B000210020FFF78FFED0235B
:1006A00080221B0652025A61802292029A616B4696
:1006B00064BA9C80074C0222074801A9013C07F05C
:1006C00007FA002CF7D1D02380221B0692025A6130
:1006D00002B010BD907E000000C0034070B582B033
:1006E0001D006B461C8B2B001600FFF767FED02306
:1006F00080221B0652025A61802292029A616B4646
:10070000754364BA9C80002D08DD0024022207484E
:1007100001A9013407F0DCF9AC42F7D1D0238022E3
:100720001B0692025A6102B070BDC04600C0034071
:10073000F0B5DE4657464E464546E0B50378040020
:1007400085B0002B57D0334A334E93460122904652
:10075000324A039208E000235A460137136037609B
:1007600063780134002B46D037680A2BF3D05A4601
:100770000398203B1568DAB281465E2A01D8DB0077
:10078000994400F047FB0823BA004B44D2199A461B
:10079000EF004B467F1902963E005200D31A204DBF
:1007A00000930194009F00244F443B004F4699461C
:1007B0003A78434622411A40013A1A4B2A40A0197E
:1007C0004946D2180134FFF745FF082CF0D1B9464D
:1007D00001239944CA45E5D1019C029E00F022FB09
:1007E0005B461B680133192B0CDC5A46013413603D
:1007F0002378002BB8D105B0F0BCBB46B246A94661
:10080000A046F0BD00235A461360336801333360BD
:10081000A6E7C046741B0020781B00205C0D011069
:100820002000FFFFFFFF0000F0B5DE4645465746BB
:100830004E46E0B5B7B000F045FB1F20FFF726FF9E
:100840000023E34AE34C13602360E34B0892180053
:100850001493FFF76DFFE14D28000495FFF768FF43
:10086000DF48FFF765FF2800FFF762FFDD48FFF76D
:100870005FFF2800FFF75CFFDB48FFF759FF280008
:10088000FFF756FFD94B002518000793FFF750FFDD
:1008900026AB9B46D64B0F93D64B1093D64B0A9361
:1008A000D64B0B93D64B0C93D64B0D93D64B0E9346
:1008B000D64B1193D64B1293D64B1393D64B1B9317
:1008C000D64B1C93D64B1D93D64B1793D64B1893F0
:1008D000D64B1993D64B05941A93D64B1593D64BFA
:1008E0001693D64B0993002004F00CFB831CFAD01E
:1008F0000D2849D00A2847D07F287FD03E2DF2DC32
:100900005B465855059B1E68089B1F680300203BEB
:10091000DBB25E2B00D938E1FF23099A03409146F0
:10092000203BDB009944013500F074FA08234B4466
:100930009A464B46BA00D2195200D31A03930123A8
:100940009846F200BE4F069595190024039E4E442A
:100950004B461A78434622411A40013AB94B3A4075
:1009600060193100D2180134FFF774FE082CEFD162
:1009700001239944D145E8D1069D00F053FA059A28
:10098000136801331360AEE700235A4604985355A9
:10099000FFF7CEFE5B46AC4A1B6893423AD05B46FB
:1009A000AA4A1B6893426BD05A46A94B12689A42D6
:1009B00000D1A5E05A46A74B12689A4200D1B2E096
:1009C0005A46A54B12689A4200D1E2E05B461B787A
:1009D000002B0ED05A46A14B12689A4200D141E139
:1009E0001698FFF7A5FE5846FFF7A2FE0498FFF7FA
:1009F0009FFE0798FFF79CFE002574E7059B1E6885
:100A0000089B1F68002D48DC5B465855099B013543
:100A1000994689E75B461B79002BC0D10F98FFF7F9
:100A200087FE049C2000FFF783FE1098FFF780FEEE
:100A30002000FFF77DFE0A98FFF77AFE2000FFF7FF
:100A400077FE0B98FFF774FE2000FFF771FE0C98FD
:100A5000FFF76EFE2000FFF76BFE0D98FFF768FEB4
:100A60002000FFF765FE0E98FFF762FE2000FFF7FB
:100A70005FFE1198FFF75CFE2000FFF759FEB8E714
:100A80005B469B88722B8FD100251F20FFF7FEFD50
:100A9000059B1D60089B1D60ABE7059B013E1E602A
:100AA00000F0B8F9BA00099BD21952001C00D31A01
:100AB0000393F200012390469A46614BB044994655
:100AC0004346013DA84625001C000026039B5F19F4
:100AD0002A78534632411A404B46013A1A40594B44
:100AE000A0193900D2180136FFF7B4FD082EEFD156
:100AF0005B4B0135AB42E8D1454600F093F9F2E695
:100B00005B469B886F2B00D054E71298FFF710FECE
:100B1000049C2000FFF70CFE1398FFF709FE20004D
:100B2000FFF706FE65E75B469B88722B00D047E720
:100B3000F8231B0200935022872300210020FFF797
:100B4000CDFDFC23DB0000935022872300215020A1
:100B5000FFF7C4FD1F23502200210093A02068331B
:100B6000FFF7BCFDFA200025C00001F0B1F91F20FD
:100B7000FFF78CFD059B1B981D60089B1D60FFF710
:100B8000D7FD0498FFF7D4FD33E7099B013599465B
:100B9000CAE65B461B79002B00D017E71498FFF7D5
:100BA000C7FD049C2000FFF7C3FD1C98FFF7C0FDA4
:100BB0002000FFF7BDFD1D98FFF7BAFD2000FFF7ED
:100BC000B7FD1798FFF7B4FD2000FFF7B1FD10E760
:100BD000781B0020741B0020947B0010907B001079
:100BE000A47B0010B47B0010B07C0010C87B001008
:100BF000D47B0010E07B0010F47B00100C7C001014
:100C0000247C00103C7C0010547C0010707C001090
:100C1000987C0010B47C0010CC7C0010E87C0010A4
:100C2000F87C0010087D0010207D0010307D001041
:100C3000507D0010707D0010807D00105C0D011053
:100C40002000FFFFFFFF000068656C70636C65614A
:100C500068656C6C636F6C6F696E666F7461736BE3
:100C6000640D01105B469B88732B00D0B8E6189882
:100C7000FFF75EFD049D2800FFF75AFD1998FFF766
:100C800057FD2800FFF754FD1A98FFF751FD280083
:100C9000FFF74EFD00F0B0F808220300202100927B
:100CA0001EA8159A04F000F81EA8FFF741FD2800C1
:100CB000FFF73EFD9DE6C04610B5054A00210548F8
:100CC00002F052FC0022044B1A60044B1A6010BD63
:100CD000A0800000202000201C200020701B00208D
:100CE0008C460D4910B504000868072811DC020283
:100CF00012189200094B12189200D0509B186246AD
:100D00009A6000225C60064C1A731A51431C0B60F7
:100D100010BD01204042FBE71C20002020200020C5
:100D200010100000F0B5D6464F4646462D4BC0B5D4
:100D30009A461B68002B4FD02B4B2C4F1E689946B0
:100D4000330298469B199B009B199B00FB181B7B49
:100D5000012B25D9434600229B199B009B199B0020
:100D6000FB181A7353461D68701C290001F044FDDE
:100D7000002D15DD002406E0481C0134290001F097
:100D80003BFDA5420CD00A0253189B005B189B0048
:100D9000FB181B7B002BEFD14B460E0090461960D1
:100DA00043469C190123A400A419A4003C19104D2A
:100DB0002373A368AE6A9847FA21A86A0D4B801B7B
:100DC0008900E41801F040FD2368C0184B461E68F6
:100DD000206033029846BDE7E0BCBA46B146A8465B
:100DE000F0BDC0461C200020701B002020200020E9
:100DF0000040054010100000014B18687047C046C5
:100E00001C20002010B5024800F03AFD10BDC0467D
:100E1000A41B002010B5024806F08AFE10BDC04693
:100E2000A41B002010B5024806F022FE10BDC046EB
:100E3000A41B0020F0B583B0FFF7ECFF0023F022E5
:100E40000021002000930833FFF748FCFFF7EAFF7A
:100E5000194E5A2533680024002B12DD174FFFF777
:100E6000D9FF06230422012128000097FFF736FC52
:100E7000FFF7D8FF33680134A34202DD0635092CA1
:100E8000EDD10F4E822533680024002B12DD0B4F6D
:100E9000FFF7C0FF06230422012128000097FFF777
:100EA0001DFCFFF7BFFF33680134A34202DD0635A6
:100EB000092CEDD103B0F0BD04200020FFFF00009D
:100EC00008200020F0B5DE464E4657464546E0B5C0
:100ED0000C2087B000F0FAF9D024802324065B01AF
:100EE000A362002201210C2000F0DEF90D2000F0A9
:100EF000EDF980239B01A362002201210D2000F067
:100F0000D3F90E2000F0E2F98023DB01A362002276
:100F100001210E2000F0C8F90F2000F0D7F980233E
:100F20001B0201210F20A362002200F0BDF939232A
:100F3000C74AC84D13602B6000230292C64AC74EB1
:100F400013600492C64AC74C136078333360353B54
:100F50002360C54B05929B4602235A461360C34A41
:100F600013600392FFF756FF0020FFF78FFBFFF798
:100F700059FF08231F00BE4B9946FFF74BFF4B4616
:100F8000390004227620009306370323FFF7A6FBDF
:100F9000FFF748FF802FF0D1FFF74CFFD0231B064F
:100FA00099468CE008232B60029F59463B680968EC
:100FB0001A000A32002900DCACE02168881E824257
:100FC00000DB30E102333B60072B00DCAAE06B2B37
:100FD00002DD6B23029A13600027FFF71BFF7723C4
:100FE0000422082108200097FFF778FBFFF71AFF7B
:100FF000FFF710FF04220821E42077230097FFF772
:101000006DFBFFF70FFF3368984623689A46FFF79A
:1010100001FF04230422514640460097FFF75EFB80
:10102000FFF700FF5B4631681B680398C918026828
:10103000236831609B182360082B00DDEAE002235F
:101040000360063323600C2970DC2A68181D904267
:101050007DDB14329A427ADB02235A4613600B334B
:1010600033602B68834F9A46FFF7D4FE5146042223
:10107000082014230097FFF731FBFFF7D3FE029BF4
:101080001B689A46FFF7C6FE51460422E42014234B
:101090000097FFF723FBFFF7C5FE336898462368E8
:1010A0009A46FFF7B7FE40460423042251460097B4
:1010B000FFF714FBFFF7B6FE102000F009FF4B46C8
:1010C00080225B685201134202D12B68033B2B60E4
:1010D0004B465B689B0402D42B6803332B604B4662
:1010E0005B685B0404D44B465B681B0400D4A7E038
:1010F0002B68072B00DC55E76B2B00DC54E76B23D8
:10110000029F59462B603B6809681A000A32002981
:1011100000DD52E7402A00DD8CE001333B60072B05
:1011200000DD59E70823029A136055E7DF2998DDAF
:10113000029A181D126890423ADB14329A4237DB49
:1011400002235A465B421360E133336089E700298A
:1011500087DA059F3B6801333B60FFF76BFE78231E
:101160003360353B2360049B3A681B68FA209B1868
:101170000322DB07DB1793435A4602331360022333
:10118000039A4000136000F0A3FE394B08279846ED
:10119000FFF740FE434639000422762000930637CD
:1011A0000323FFF79BFAFFF73DFE802FF0D1316854
:1011B000F02900DC55E7049F3B6801333B60FFF7F3
:1011C00039FE7823059A3360353B126823603B680B
:1011D000FA209B180322DB07DB1793435A4602339E
:1011E00013600223039A4000136000F071FE204B4D
:1011F00008279A46FFF70EFE534639000422762050
:10120000009306370323FFF769FAFFF70BFE802FE1
:10121000F0D126E77A2B00DC15E702235B4203605E
:101220007D3323600FE702318A4200DCCCE6023BCB
:101230003B60C9E6452A00DCCEE6013B3B60C6E6E2
:1012400007B0F0BCBB46B246A946A046F0BDC046BA
:10125000E81F0020E41F002004200020301A002096
:1012600008200020341A0020281A00202C1A002000
:1012700010840000FFFF000010B54024074A8300DF
:101280009A181268C0005440C0222240044C1B1916
:101290001A60044BC018416010BDC04604C0014034
:1012A00004D0014000400140064B8000C3181B6879
:1012B000C90092000A435A400C231340024A801886
:1012C0000360704704C0014004D001400123D022D4
:1012D0008340120693629361084A83009A1811684A
:1012E0004022514080320A400549C0005B181A6014
:1012F000044BC018052343607047C04604C001403A
:1013000004D00140004001408023DB051868000F35
:101310007047C0460FB400B5084883B003F088FE9C
:10132000049B002B07D005A91800019103F0D0FC05
:10133000034803F07DFE012003F0E2FC8C7D0010E9
:10134000907B001070B58C461600EFF3108472B6D7
:101350000F490B68002BFCD0BFF35F8F6346DB089F
:10136000C5180722C05C63461A40012393401A0047
:101370000240034207D118432870BFF35F8F0A6011
:1013800084F3108870BD61463000FFF7C3FFC0468C
:101390002C0100D0F8B5CE4647468C4680B51C00DF
:1013A000EFF3108872B61C490B68002BFCD0BFF31A
:1013B0005F8FA24221D80723994602E0013294426E
:1013C00018D34946012611408E40D308C718C35C84
:1013D0001E42F3D1100033433B70BFF35F8F0022F6
:1013E0000D4B1A6088F3108800280EDBC0BCB9468C
:1013F000B046F8BD01204042EFE7BFF35F8F002306
:101400000B6088F31088012040426346002BEDD02A
:101410000898FFF77FFFC0462C0100D0044A1078DF
:10142000431CDBB2172B00D9102313707047C04642
:101430003010002000B5054B83B001000093182246
:101440001F230348FFF7A6FF03B000BD9C7D0010DB
:10145000401B00200021044B044ABFF35F8F02C3EE
:101460009342FAD17047C046000100D0800100D0FD
:10147000084B094A1360094A1360094A1360094A74
:101480001360094A1360094A1360094A1360094A44
:10149000136070478080808000E400E004E400E096
:1014A00008E400E00CE400E010E400E014E400E0F4
:1014B00018E400E01CE400E01F2318401E3B8340BA
:1014C000002905D0C021044A4900535013607047D9
:1014D000802201498B50FAE700E100E001228240BE
:1014E000034B1B6813405A1E9341D8B27047C04645
:1014F00000E100E001238340014A13607047C046C9
:1015000000E200E0054B10309B688000C358044A9D
:1015100000209B1A2F229A424041704700ED00E0C4
:101520003410002070B50D00EFF3108672B60F4A2C
:101530001368002BFCD0BFF35F8F0D4B10309B68FE
:1015400084001B590B4A934203D09D4201D001F005
:1015500013F8074B9B681D51BFF35F8FBFF35F8F7D
:101560000022024B1A6086F3108870BD240100D05F
:1015700000ED00E0C1010010F0B5DE4657464E46D2
:101580004546E0B5824683B08B461700EFF31088DE
:1015900072B6604A1368002BFCD0BFF35F8F002542
:1015A0005D4B5D579946002D00DA9AE04A466B0084
:1015B0005A4C5E19B6000193A31900939B791370DE
:1015C000574B9A68534610339B00D15899460B1BD2
:1015D0002F2B32D9534B994200D098E0019B023611
:1015E000ED18514BAD006353504BA619043B9B1BA8
:1015F0004F4A1B055B0D651913436B804D4B012151
:10160000AB80FF23AB715B46AB60009BEF710B437C
:1016100019004A46424B9B689950BFF35F8FBFF356
:101620005F8F00223B4B1A6088F3108803B0F0BC38
:10163000BB46B246A946A046F0BD01200A0082433F
:10164000D379B446BB422DD83B4BB51C19001300CF
:101650001B1B5B415943090D8C46334B6519A35342
:10166000324B0099043B5B1B1B05314D5B0D2B433B
:1016700004364B80A619131F9B1B1B055B0D1D43D6
:1016800063468B715B468B602C4B8D80CF711360F2
:101690000143BEE75800C01880002018C679BE423A
:1016A00025D902000623D356002BF3DA9A46131DE0
:1016B0009C4623486346009E9571043EF61A360503
:1016C0001B4B760D1E43019B96805A195346920080
:1016D000A418A3715B46194AA0802260E771A36039
:1016E00097E700F049FF00254B465D575EE76646E9
:1016F0009A46131D9C469088043640050015A6198D
:101700006044801B00050A4E400D3043D2E700F0D4
:1017100033FF63E7240100D0D5A00020341000205F
:1017200000ED00E0C101001000A1FFFF64100020E7
:1017300000E0FFFF01BDFFFFAAAA000001488047AB
:1017400001BD00000123034370B59C46EFF3058102
:10175000EFF3108572B6214A1368002BFCD0BFF35B
:101760005F8F1F4B04001F4AE41A64416243120D4D
:101770001D4C8900A66852B2765866451CD00621D9
:10178000595691421CD012215956914222D01E2105
:101790005956914220D02A2159560324914210D003
:1017A000124B19781A708171BFF35F8F00220B4BB7
:1017B0001A6085F3108870BDA3680D4C5C50EFE78C
:1017C00000246100091989005B18FF2199710949FA
:1017D0009980E5E70124F4E70224F2E7240100D030
:1017E00034100020AAAA000000ED00E0D5A00020DF
:1017F000C101001001BDFFFF00B5074B83B0010020
:101800000093002205230548FFF7C4FD002801DBF3
:101810001F23181A03B000BDB87D0010DAA0002005
:10182000024BC918890001607047C046400000346F
:1018300070B5114C114DAC420FD2FF262368002B1E
:101840000CD0FFF7EBFD01002000FFF7E9FFA680B9
:10185000BFF35F8F0834AC42F0D370BDFFF7DEFDFD
:1018600001002000FFF7DCFF2671BFF35F8F083413
:10187000AC42E3D3F1E7C046F81000200811002085
:1018800010B50400FFF7CAFD01002000FFF7C8FFF4
:10189000FF232371BFF35F8F10BDC04610B5040056
:1018A0000120FFF7C7FD034BC01880002060BFF385
:1018B0005F8F10BD40000034034BC91889000160E0
:1018C000BFF35F8F7047C046400000340A4B196871
:1018D000EFF3108072B60A68002AFCD0BFF35F8F66
:1018E0001B68BFF35F8F00221A6080F3108840BF2F
:1018F000002000217047C04610200020F0B5DE46D1
:1019000057464E464546E0B585B0EFF305830322C2
:101910001A40B34B91005F58012393409B460292BB
:101920005A468846AF4B1A60AF4B03935B46AF48AD
:1019300043630823FE5E002E37DABB881BB2002B00
:1019400000DBA4E0BB79002B00D0E5E00823F95EC2
:10195000002920DB4B007A695B18DB00D3189D68F7
:10196000DC686B1C00D104E1A04801004144826A9C
:101970000B69AE1A9B1A9E4215D30123026A029884
:1019800083401A420FD0994800F0AAFB8C4202DC37
:10199000CCD18542CAD940BF05B0F0BCBB46B246E7
:1019A000A946A046F0BD0D61EDE77A697300914646
:1019B0009B19DB0099444B469C68DD6800F090FB66
:1019C0008D42BADC00D1F6E0002D00DADBE04A46B9
:1019D0004B4652691B699246039A934200D1CCE070
:1019E0004A460821785E52880004514610439847C1
:1019F000009001910099019A0B00134300D1C2E0BD
:101A000013000A00002B00DBD9E020002900801A17
:101A100099414B469860D96000229B5E002B00DA0A
:101A20008BE75D007C69EA18D200A21800949468E4
:101A3000D268A2468A4200DD7FE702D1844200D903
:101A40007BE70824A4463B81BC44009C00972F0000
:101A50006546B4463E0006E05E00F218D200A218C9
:101A60009768D268BA468A4207DC00D1B4E0F3181E
:101A7000DB00E518E35E002BEEDA66464A46009F7F
:101A800013802E80BB881BB2002B00DA5AE73A691C
:101A9000EFF3108172B61368002BFCD0BFF35F8F99
:101AA0000123BE885B42BB8036B23B69BFF35F8FC8
:101AB00000221A6081F31088002E00DA42E73B0012
:101AC00008333A0099467D6973009B190824115F19
:101AD000DB004846EB18002913DB9C680093A44602
:101AE000DC6806E0A34240D00023F95E38000029FC
:101AF00006DB4F007F18FF00EF19FB68A342F1DD02
:101B0000009B068000201E5E1980002EDCDA170084
:101B1000BB79002B00D119E70023BB710823F95EC4
:101B20004B1C00D137E73D000835AC467C6903E02B
:101B300084464B1C00D109E74B005B18DB00E01822
:101B40000A00E15E43881BB2002BF1DA01256D42E9
:101B5000EE178560C66008257B5F9342E9D0634637
:101B600019803B8903803A81E3E7BB686345BBD9B1
:101B7000C6E7631C00D0F7E605E7534650461B69ED
:101B80009847002823D14B461B883A693B81EFF3E5
:101B9000108372B611680029FCD0BFF35F8F4946ED
:101BA0007A880A803A697E80BFF35F8F00211160D6
:101BB00083F31088C1E6844200D805E7BDE60B48F0
:101BC00000F08EFA009B019CC018614121E753464A
:101BD0000CCB009201930DE7824500D847E74CE714
:101BE000EC1F00203C700540FD180010004005402F
:101BF00070B52D4C2569002D04D00A212B48FFF724
:101C00000FFE70BD2A4E0321294800F05FFAE660FE
:101C1000FFF704FC274B0322C018D02322701B06B9
:101C20001B6801216370244B8000A3600F23206197
:101C30000220638063694942A180198002311986BC
:101C400047311D83585218315A5275325C399952B6
:101C5000183201319952183201319952183201313A
:101C60009952083518329D52023118329952183261
:101C70000131995218320131995218320131995279
:101C80001832013199521832013199520B4B0C49DB
:101C9000DC6001303562FFF745FC01210320FFF7CE
:101CA0000BFC084B1D60A8E77C10002010200020D2
:101CB0000040054040000034FFFF1000EC1F0020F2
:101CC000FD18001038600540004870477C10002067
:101CD000F8B51F0008AB1B7804001600002B07D1D5
:101CE00000F006FA32003B00121A8B41002B51DB48
:101CF0002269EFF3108C72B61368002BFCD0BFF38F
:101D00005F8F0223E15E256900293ADB4B006069A1
:101D10005B18DB00C218C35A6380BFF35F8F0023D8
:101D20002B608CF31088069B9660D7601361079B2D
:101D30005361538801335B045B0C181C002B1ED0CD
:101D400083B25080080418432569EFF3108672B6F9
:101D50002B68002BFCD0BFF35F8FA3881380A1807A
:101D60002369BFF35F8F00221A6086F310882378FF
:101D700001329A400849E3685B181A60F8BD0120F7
:101D8000DEE7BFF35F8F00232B608CF31088012008
:101D90004042F3E70020F1E73C20000070B582B03C
:101DA0000092019301000269EFF3108472B6136888
:101DB000002BFCD0BFF35F8F0223C85E0D690028A3
:101DC0003FDB4A69430016001B18DB00D218F35AA8
:101DD0004B80BFF35F8F00232B6084F31088069B3A
:101DE0001361079B5361009B019C9360D4605388EF
:101DF00001335B045B0C1D1C002B20D0ACB2030430
:101E0000558023430D69EFF3108C72B62C68002CBB
:101E1000FCD0BFF35F8F8C88148088800A69BFF381
:101E20005F8F002010608CF310880A78013090409A
:101E3000CA68084952181060180002B070BD012528
:101E4000DCE7BFF35F8F00232B6084F31088013B36
:101E5000F2E7C0463C20000010B543890A149342C3
:101E60001ADD53009B184269DB00D3180469EFF3B5
:101E7000108C72B62268002AFCD0BFF35F8F5A889C
:101E8000090494B2090C8A4208D00369BFF35F8F3A
:101E900000221A608CF31088002010BD094A2243EA
:101EA0005A80012302698371BFF35F8F00211160A3
:101EB0008CF31088027804499340C26801205218BC
:101EC0001360EAE70080FFFF3C2000004078704785
:101ED000F0B5C64600B582B0040000F009F9FA2258
:101EE00006000F00200000230021920001F0D0FA2C
:101EF0008019794104000D1E02DA01242E4D64423E
:101F000006267642F71736196F41AF4214D811D022
:101F100000F0EEF832003B00121A8B41002B15DC6A
:101F2000002B46D02000290000F022F902B080BC2E
:101F3000B846F0BDA642EBD90026002700F0D8F83D
:101F400032003B00121A8B41002BE9DD00F0D0F883
:101F500032003B00121A8B41002B0ADB0023019355
:101F6000164B3200009316483B00FFF717FF013075
:101F7000D8D000233900B0469C46124A1248536A12
:101F8000994204D8966A4645CCD29942CAD106688D
:101F9000EFF3108772B63368002BFCD0BFF35F8F6E
:101FA0000368BFF35F8F66461E6087F3108820BF0B
:101FB000E5E7002AB6D0C9E7FFFFFF7FCD18001084
:101FC0007C1000200040054010200020F0B5CE46D7
:101FD000474680B504000D0085B0EFF305868946BD
:101FE000002E10D0364900204B6AAB4206D38A6AD5
:101FF0005B1B591E8B41A2424041184305B0C0BC37
:10200000B946B046F0BD2F4FFB683A7898461800A5
:10201000039200F065F8039A131D42469B009B58FB
:1020200022001B1A9C462B00121A8B419E4210DC88
:102030000DD020BF224A0020536A4B45DED3926A5E
:102040005B1B591E8B41A24240411843D6E7944581
:10205000EFD900F04DF822002B00121A8B41002B13
:102060001BDB00230193184B2200009338002B0048
:10207000FFF794FE002810DD114B5A6A4A451CD325
:102080009B6AA34217D301003800FFF7E5FE0C4A14
:102090000020536A4B45B1D3D1E7094A0020536A67
:1020A0004B45ABD30020926A5B1BA24240415A1EB3
:1020B00093411843A2E74A45E5D120BFE3E7C04674
:1020C000004005407C100020CD18001010B5024AD9
:1020D0000248FFF737F910BDD47D0010441B0020E3
:1020E0000300416A0A00986A596A8A42FAD1704725
:1020F000034B596A0A00986A596A9142FAD17047AB
:102100000040054070B505000E00184A536A1900DA
:10211000946A536A8B42FAD1200019002C003500D2
:1021200024184D41AB4216D813D0104B2A005B6ADD
:102130009D4203D90D494B6A9342FCD3934207D188
:102140000A4A02E0516A994202D1916AA142F9D346
:1021500070BDA042E9D9054B5B6A1C005A1CEFD048
:10216000012201246442E5175242E3E700400540A2
:10217000064A536A9942FCD807D1044B02E05A6AD6
:10218000914202D19A6A9042F9D8704700400540C6
:10219000F8B5DE464E4645465746E0B505008B4647
:1021A00018000A99914600F04FFB0A9B6C001E0232
:1021B0006419304BA400E418636880469E4200D93D
:1021C00066602F1FFBB29A46012B2FD9C0238022B5
:1021D000294FAD009B0179591201E3181A600029BB
:1021E0001BD14B4622685B015340E0221340802202
:1021F0005201A21813605346012B2FD9802380224D
:102200009B01E31812011A60434666607B51F0BCE3
:10221000BB46B246A946A046F8BD786900F014FB5B
:10222000013043001B18033BFDD2DAE75B46012B6C
:10223000CCD1C02303229B01E3181A60023AA368A1
:102240001A42FCD04A46236852015A40E023134008
:1022500080225201A218084F1360AD005846032394
:10226000216841400B40136001228240A3681A425A
:10227000FCD0C3E700800040481B0020F0B5D646E4
:102280004F464646440098462418324BA400E418B2
:1022900063688A469146C0B5FF2B02D880235B0055
:1022A0006360061FF6B2012E2FD9C02380222A4F69
:1022B00085009B0179591201E3181A6000291BD18E
:1022C0004B4622685B015340E022134080225201BA
:1022D000A2181360012E30D9802380229B01E318BD
:1022E00012011A6080235B00636043467B51E0BCAF
:1022F000BA46B146A846F0BD786900F0A5FA0130AB
:1023000043001B18033BFDD2DAE75346012BCCD127
:10231000C02303229B01E3181A60023AA3681A4201
:10232000FCD04A46236852015A40E02313408022E1
:102330005201A218084F13608500504603232168FC
:1023400041400B40136001228240A3681A42FCD036
:10235000C2E7C04600800040481B0020014B8000BF
:10236000C0587047481B0020F0B5C646040000B5B1
:102370002348160098460D0000F066FA0100300070
:1023800000F062FA4346069A1B04120313439C466C
:1023900023680600002B22DB1A4B1B48E218531E51
:1023A0009A4180235242120B9B011203D218174B01
:1023B0001A60174B1A60130001688B43FBD121226E
:1023C000144B2560E318A6601A602268002AFCDA24
:1023D0006246E26008221A6080BCB846F0BD3F2326
:1023E00022681340AB42D7D1A3681B051B0D834263
:1023F000D2D1EE22E368D20213406345CCD1EBE7A1
:10240000001BB7000040FDBF08C0004000E00040D6
:1024100000F000400430000010B580241C4BE4059F
:102420001C6000281AD001231A4C18431A4BDC6197
:102430001A4C44401C62596298628021144BC905B1
:102440001960174817490860E021C9041960002A7B
:1024500007D18022144B12061A6010BD0E4BD861B2
:10246000EBE753019B1A9B009A18802312015B042F
:102470009A4209D213000D490B60074B5A60802223
:10248000094BD2051A60E8E7094B1A00F3E7C0468A
:1024900000B00540D3C007B0008005402D3FF84F85
:1024A000FCFF01000820014000A00540BC1F0020E7
:1024B000FFFFFF008023024A9B000B43D36270475B
:1024C00000800540002310B50100988A1B8B9847B7
:1024D00010BDC046162310B5010018885B889847C8
:1024E00010BDC046F8B54746CE4680B50F1E18D081
:1024F00014239946043304000025012698464B46D0
:102500001888434621681B88984701C4431E984198
:1025100001350640AF42F2D13000C0BCB946B046EA
:10252000F8BD0126F8E7C046002370B504000D0091
:10253000988A05491B8B984703000020002C01DB7B
:102540000130A0402900984755420000AA23064ABE
:102550001B0113608D235B00D3600449044B196099
:102560005368002BFCDA70470040024000B0FA00CC
:10257000006002407047C04610B50148FEF7CAFE31
:10258000F87D001070B5074D074EB54209D2002402
:10259000013E761BB608013608CD01349847B44297
:1025A000FAD170BD407B00107C7B001070B5074DE8
:1025B000074EB54209D20024013E761BB60801360B
:1025C00008CD01349847B442FAD170BD747B001035
:1025D0007C7B0010054B064A06491A60064A074BE9
:1025E0001A6010000B689843FBD1704700E0004070
:1025F000BFCDFBFE08C00040FE7F3C0000F0004065
:10260000044BDB6C002B03D18022034BD2021A60F7
:102610007047C046000011504C201150044A054B31
:102620001A60054A1368DB018033FBD17047C0464E
:10263000FFFFFF0100F0004008C000404022034BB4
:102640009A675A671A67DA667047C04600F0014019
:1026500010B5FEF7FFFE10BD70B52849284D294E74
:102660006D1AAC102200302C00D9302230009200BC
:1026700000F080FFBC2D3DD823002A3B224A052BC9
:102680001DD9302075196D07A446001BEB0F002DD6
:1026900003DA611C8C46A1007250C01AE3189B003B
:1026A0004108F318C900C9181A605A6008339942E2
:1026B000FAD1012303421DD0984360440400A300D3
:1026C000F250631C2F2C15D09B00F250A31C2E2C13
:1026D00010D09B00F250E31C2D2C0BD09B00F2502D
:1026E000231D2C2C06D09B00F250631D2B2C01D0F7
:1026F0009B00F250054B9E6070BDC046000100106B
:10270000C001001000000020C101001000ED00E039
:10271000002310B5294C82B0A367FFF717FF0122F1
:10272000274B1A60636C012BFCD10322254B1A60E6
:10273000224A936B012BFCD1013300930121224AE1
:1027400022480433FFF710FE052301210093204A9D
:102750002048FFF709FE0022022104201E4BFFF74C
:102760008DFD0022012105201C4BFFF787FD002273
:10277000002107201A4BFFF781FD002200210820CD
:10278000174BFFF77BFD8023DB0000930022002125
:102790000920134BFFF7FCFC0022104B0021062000
:1027A000FFF76CFD0420FFF7D9FD0E4900F04CF84F
:1027B00001000020FFF77EFE02B010BD0080004047
:1027C0003CB0004030B00040002F6859008002400B
:1027D000008C864700C00240001BB70040597307B9
:1027E000006CDC0240420F0001480421014B1847F5
:1027F000A0100020E5240010124A936F9B0815D208
:102800009066D166002905D0FFE7FFE7FFE7516F2B
:10281000106F704704B580210906C2175140002887
:1028200000D0C84305F03CF9002104BDF0B5146E9A
:10283000556E576F166FFFF7E3FF146655665767BF
:102840001667F0BD000000D0114A936F9B0813D2A9
:1028500010665166002905D0FFE7FFE7FFE7516FDB
:10286000106F704704B5002801D00020C04305F068
:1028700017F9002104BDC046F0B5146E556E576FB0
:10288000166FFFF7E5FF1466556657671667F0BDCC
:10289000000000D094464A4A926F9208624601D2E4
:1028A00028E0C046F0B5464E346E756E776F366FD1
:1028B00000F020F89446424A14665566576716673A
:1028C0006246F0BD94463E4A926F9208624601D23B
:1028D00054E0C046F0B53A4E346E756E776F366F81
:1028E00000F04CF89446364A1466556657671667EA
:1028F0006246F0BD002B24DB11D000293EDA00B582
:10290000C943404200D1013100F038F8C943404288
:1029100000D10131DB43524200D1013300BD002A16
:10292000EBD1002801D1002905D00020C90FC9072B
:1029300001D1C043410800B505F0A2F800220023F0
:1029400000BD00B500290ADBDB43524200D1013350
:1029500000F014F8C943404200D1013100BDC94321
:10296000404200D10131DB43524200D1013300F03B
:1029700005F8DB43524200D1013300BD002923D1C9
:10298000002B18D1002A0CD0BC460D4F38667A6651
:1029900000210023FFE7FFE7FFE77A6F386F674604
:1029A0007047002801D00748010000B505F068F81D
:1029B0000022002300BD02000B0000200021704710
:1029C000000000D0FFFFFFFF002B00D0BFE0130C82
:1029D00028D1002AE7D080B4114F39667A66FFE724
:1029E000FFE730B4040C7B6F396F1B0423433B6655
:1029F0007A66FFE7FFE7FFE7C04684B27B6F3D6F73
:102A00001B0423433B667A66FFE7FFE7C0460023CB
:102A10002C042D0C7A6F386F00196941B0BC7047D7
:102A2000000000D0F0B594460025140E01D112022A
:102A30000835140F01D112010435940F01D1920011
:102A40000235D40F01D152000135D40B0134254F8A
:102A50007C66254C3C660E0C93B2FFE7FFE7FFE770
:102A60003C6F6643360C7703BE467343DF0B5B0453
:102A7000C01AB941130C7343DB18C91ACE08664358
:102A8000360CB64493B273431F0F1B01C01AB941F1
:102A9000130C73431F0B1B05C01AB941860D8F021F
:102AA0003E436643360C092D24DB520A7243801ADA
:102AB0007703460A6643360C16235B1BDE40DF4075
:102AC000BF1964466643821B704604350633010015
:102AD000D940A840C01900D30131A24206D2002338
:102AE000F0BD0000000000D0FFFFFFFF121B01300F
:102AF000F3D3F1E709277F1BFE406446A2B272437D
:102B0000801A00D20139220C7243130C1204821A6B
:102B100099410B007046043513370100F940A84075
:102B2000801900D30131002B02D1A2420AD2F0BD9C
:102B3000013000D30131121BFAD2013BF8D1A2427D
:102B400000D2F0BD013000D30131121BF7E7F0B520
:102B50001C0C00D080E00CB400251C0A04D11B0220
:102B6000160E3343120208351C0B04D11B01160F3D
:102B70003343120104359C0B04D19B00960F334361
:102B800092000235DC0B02D192185B4101351C002A
:102B9000971864410134464F7C66464C3C660E0CE7
:102BA000FFE7FFE7FFE7C0463C6F6643360C77035D
:102BB000BE4697B27743C01B00D20139C01B00D27A
:102BC00001399FB27743C91BC91B170C77437E0499
:102BD000FF0B801BB941CE086643360C0C2D33DB4E
:102BE000B644120B1F053A431B0B97B27743C01B29
:102BF00000D201399FB27743C91B170C77433E04BB
:102C00003F0C801BB941860D8F023E436643292746
:102C10007F1BFE400C3D7746AF40BF1930BCA2B2CF
:102C2000ABB272437343801A9941220C7243130C66
:102C30001204801A994102000B000137001BA941C0
:102C4000F9D2781E0021F0BD0C277F1BFE4077468D
:102C50007F0BAF40FF19E0E700245D1C07D0144F45
:102C60007D663966FFE7FFE7FFE7FFE73C6F95B258
:102C70009EB265436643401BB141150C1E0C654373
:102C8000664336042F0C3E432D04401BB14199424C
:102C900004D202000B0020000021F0BD01D19042BF
:102CA000F7D3801A994101349942F2D3F6E7000034
:102CB000000000D0FFFFFFFF48404140484018B4EB
:102CC0001B4B5B68FC46019308BD04DF632F0010BB
:102CD00018B4174B1B68FC46019308BD00DF6D2F2D
:102CE00000109446134A926F920809D2624618B4B3
:102CF0000F4BDB68FC46019308BD0CDF253200104A
:102D00000C4AF0B5146E556E576F166F6246FFF79A
:102D1000EEFF084A1466556657671667F0BD18B48B
:102D2000034B9B68FC46019308BD08DFC9300010C7
:102D300058130020000000D0FFB5504042405040E2
:102D400059404B40594000E0FFB5154F4C00640D11
:102D500003D0BC4204D10C0314D80020090D09058E
:102D60005C00640D03D0BC4204D11C030AD80022CD
:102D70001B0D1B0501264B4009D44B4003D58B424C
:102D800000D18242FFBD9942FCD19042FFBD0B436E
:102D9000DB1803431343F5D0C9434918FFBD0000B6
:102DA000FF07000000B5FFF7CFFF804100BDC04620
:102DB00000B5FFF7C9FF01D9002000BD012000BD0B
:102DC00000B5FFF7B9FF01D9002000BD012000BD0B
:102DD00000B5FFF7B1FF804100BD012040054A006A
:102DE000121804D85A00121801D800207047012088
:102DF000704700000021002805D17047C1174840E6
:102E0000401AFAD0C90713B5064B1B6898470CBC8B
:102E1000441CA2401005120B0349091B0905194364
:102E2000114310BD0C2000201F04000010B54C0001
:102E3000620D8023D218DB00D21A5B057E2A10DDDA
:102E40009E3A13DACC170903490819435242D1407C
:102E5000640001341532202A05DAD040084360436B
:102E600010BD002010BD0846604310BDC80FC0183B
:102E7000013810BD18B4044B5B6AFC46019308BDD1
:102E800024DFD5330010000058130020132370B541
:102E90001D78012D19D014DD1F48FFF71BFB06001C
:102EA0001E48FFF717FB1E4C80223100200000F067
:102EB00061FB022D2DD01B48FFF704FB1A4B186055
:102EC00070BD1A4B164CA364F5E7184B144C2360E5
:102ED0006360A360E36023616361A361E3612362D4
:102EE0006362A362E36223636363A363E3632364B4
:102EF0006364A364E36423656365A365E365236694
:102F00006366A366E36623676367A367E367A364F7
:102F1000D1E7064BA364CEE75344000053460000BC
:102F2000581300204C3300000C200020312F0010DB
:102F300007B5604601880A0A0230DF2AFAD1C9B211
:102F4000820804D3028840880004104300E000682F
:102F5000014A5050039007BD581300200FB403BC22
:102F60000CBCF0B50124E407634000E0F0B50C0DA3
:102F7000CF0F661E3605891B640503D3C943404243
:102F800000D30131640D03D0661CF60A07D0E41BA0
:102F900000207F00791C89078912803C24031D0DC5
:102FA000DF0F6E1E36059B1B6D0503D3DB435242BC
:102FB00000D301336D0D03D06E1CF60A07D0ED1B54
:102FC00000227F007B1C9B079B12803D2D032F1B43
:102FD000661B58D4A446202E46DA20371400BC4085
:102FE0001D00BD40F24033412A4380185941CB0FA8
:102FF00005D0C943C043002264425041514162465A
:103000004D0D28D10D0D07D100281FD024194041A6
:103010004941013A0D0DF9D0640006D3013000D3C7
:103020000131002C01D140084000013A0BD4941C1E
:10303000E40A04D112051144DB071944F0BDD90795
:10304000204B194300E0D9070020F0BD0029DDD155
:10305000002CDBD1F0BD0132C6074008CD07284364
:103060004908002EE1D0D9E73C2E29DA203E40372E
:103070001400BC4000D00124F24014431A00BB40AD
:103080001C43D317ACE7AC46202F08DA20360400E7
:10309000B4400D00B540F84039412843A5E73C2F26
:1030A0000CDA203F40360400B44000D00124F84040
:1030B00004430800B1400C43C117EAE710001900AF
:1030C000002494E70000F07FF0B50C0D661E360575
:1030D000891BE60A6405640D02D0651CED0A04D064
:1030E000002001210905803C2403A4461C0D671E15
:1030F0003F05DB1BE70A6405640D02D0651CED0A81
:1031000004D0002201231B05803C24037740644443
:1031100097B484B296B27443070C7E43150C6F4388
:1031200080B26843361802D3012000043F183004EF
:10313000350C00197D41844688B29AB250430C0C7C
:1031400062431F0C7C438EB27E43921902D3012648
:103150003604A4191604170C3618674101BC81B255
:103160009AB25143040C62431B0C5C4380B2584337
:10317000121802D30120000424181004130C401864
:1031800063412D185E410020474106BC88B293B2CE
:1031900058430C0C6343120C544389B251435B18DF
:1031A00002D301210904641819041A0C0918624198
:1031B0006D1856410020474118BCF902720D1143A9
:1031C000F0026A0D1043ED020A0D03D16D19404162
:1031D0004941013B124E9B1B7600B3420ED26D005B
:1031E00007D30130002671416646354301D14008BE
:1031F00040001B05C918E4072144F0BD0BDA013378
:1032000006D1013004D101314F0D01D04908F2E758
:10321000E1070020F0BD013631050020EBE700009A
:10322000FF030000F0B51C0D671E3F05DB1BE70A1E
:103230006405640D02D0661CF60A04D00022012346
:103240001B05803C2403D0252D060026F6432E6660
:103250001E096E66CE0FF619B44649004F0D02D016
:103260007E1CF60A03D000200021403F3F033E1B96
:10327000B600B444013F7F05C91B49082E6F0136D3
:1032800076089C02950D25437543ED137543AD13E8
:1032900001356D10F603761B0CB4CC02450D2C43A2
:1032A000A2B2B3B25A43270C7B43350C6F43A4B28E
:1032B0006C431B1902D3012424043F191C041D0C68
:1032C000A4187D4124196D41009A91B2ACB26143BA
:1032D000170C7C432B0C5F4392B25A43A41802D3C1
:1032E00001221204BF182204230C52187B41019CB6
:1032F0006C431B19520ED9010A434401A01A81B232
:10330000B2B2514303145A43360C734387B2774326
:10331000D617D21900277E4136049B191704160CC4
:103320007F185E417316ED18F30100268033754156
:10333000A90F06D16400690AE8055B0A184309D29F
:103340002FE00422944480337541A90AA8059B0A02
:10335000184326D3404149412404009A019B0D00A3
:103360005543641B4343E41A95B286B27543170C68
:103370007E43030C5F4392B25A43B61802D3012234
:103380001204BF183204330C52197B4152429C4143
:10339000002C02D40022013051414008CA071043DA
:1033A000490802B06246D7079210084BD218084B62
:1033B0009A4203D212058918C919F0BD0020002ACB
:1033C00001DC3900F0BD01331905F5E7FD0300000C
:1033D000FE070000002200B5203200F004F80800CB
:1033E00000BD000000220B150AD410B5944600F071
:1033F00031F81414013400DA0021CB17144C2047A3
:103400000020002170476244343A0CD40C2A07DAB9
:1034100004009140904052422032D440214310BDDC
:10342000D843D94310BD203207D40C4694405242B1
:1034300020321141D040204310BD0800C91720326E
:1034400003D452422032104110BD1800190010BDA3
:10345000073400100A0DCC0F531E1B05C91A520564
:1034600003D3C943404200D30131520D03D0531C52
:10347000DB0A07D0121B00206400611C8907891237
:10348000803A1203014BD21A70470000FF0300007C
:1034900051434343C9188C46110C83B24B4310B4BB
:1034A000040C614392B280B2504362431C041B0C73
:1034B000001910BC59411304120CC0185141614449
:1034C00070470000132310B51C781348FFF702F86B
:1034D000012C0BD004DD01008022104800F04AF8D6
:1034E0000F48FEF7EFFF0F4B186010BD0B4C0100AB
:1034F0005422200000F03EF80B4B6365A365E365A2
:1035000023666366A366E36623676367A367E3676F
:103510002362E361E4E7C0465346000058140020EC
:103520004C3300000C2000202D35001007B56046FC
:1035300001880A0A0230DF2AFAD1C9B2820804D30C
:10354000028840880004104300E00068014A50509F
:10355000039007BD5814002001480421014B18476F
:10356000B0100020E5240010014B1B681847000034
:10357000B0100020014B5B6818470000B01000201D
:103580009A4200D2885470477047C046F8B5DE466C
:1035900057464E464546E0B599460D9B070088467E
:1035A00093469B0728D00B9B002B3CD016000B9C0E
:1035B0000A9D3619321B013C4B464146285DB847EF
:1035C000002CF7D135000D9B9B070ED55B46EC1AFE
:1035D0000C9BA34209D91E002A004B4641462020DD
:1035E0000134B8470135B442F6D32800F0BCBB46DD
:1035F000B246A946A046F8BD0B9B0C9A934214D242
:1036000013005D460C000B9A9E1A76192A004B4651
:10361000013521002020B847B542F7D10B9BA046C9
:10362000002BC4D1E1E71500CDE75E46002BBED1EB
:103630005D46DAE7F0B54F46D6464646C0B584B09B
:103640009C460EAB1F78129B9146BA460D9C109E6D
:10365000119D9B074CD4002D41D1B44248D2012387
:10366000129F1F40B8460C9B5F1E302303E00134BD
:103670003B55A64201D9202CF9D14346002B00D15D
:1036800087E00C9B5F1E3023A54204D830E0013454
:103690003B55AC422CD0202CF9D1129BDB060DD52A
:1036A000129B5B0557D4A64267D0A54265D00F9BFD
:1036B000102B53D0022B5BD0202C36D12023129C10
:1036C00001930C9B4A460093039463460295FFF7CF
:1036D0005DFF04B0E0BCBA46B146A846F0BD012388
:1036E000129A13409846012313422DD1B442BAD303
:1036F000129BDB061ED5129B5B05D8D4002CD2D1C1
:103700000F9B102B60D00F9B022B71D03023012414
:103710000C9A13705346002B11D1129B5B0740D5B6
:103720002B260C9A631C1655C9E72300013430265A
:103730000C9AD654202CC1D05346002BEDD02D2608
:103740000C9A631C1655BAE7002F34D0013DB442E1
:1037500000D288E795E70F9B102BAFD1129B9B06F9
:103760003CD5202CAAD058230C9A13550134A3E73A
:10377000202CA3D02300013407E0631E012CBFD00E
:103780000F9A102A36D0022AD1D162260C9AD6542A
:1037900092E7129BDB06CDD5129B5B0500D482E736
:1037A00085E7129A2300160700D488E720260C9A92
:1037B0000133165583E70C2313405F1EBB41ED1AFE
:1037C000B44200D24FE75CE7129B9B060ED47823ED
:1037D0000C9A02241370302353709BE7202C00D1E5
:1037E0006CE778230C9A1355013465E75823EFE70B
:1037F0006033EDE70C9AA61EB618129A920602D50F
:103800005822327093E77822327090E710B5002882
:1038100000D110BD01F0C2FBFBE7C046F0B54E463B
:10382000DE4657464546E0B595B083468946924602
:1038300098461E9A1F9B10001900209EFFF7CDFA94
:10384000002800D0D2E11E981F990122C44B524299
:10385000FFF7A8FA002800D001E11E981F99012265
:10386000C04B5242FFF7B4FA002800D0D6E01E98B1
:103870001F990022BC4BFFF7ABFA002800D0B5E03F
:103880001E981F990022B94BFFF78CFA002800D030
:10389000ACE01E981F9900220023FFF783FA00284E
:1038A00000D0D1E000230B93229B5B0500D40626B9
:1038B0000024302306E006AA013417321355013ED6
:1038C000202C01D0092EF6D81E981F99FFF7AEFACA
:1038D000A74BF2009B180CCB050008920993FFF749
:1038E0008DFA02000B001E981F99FFF7E8F9089A5D
:1038F000099BFFF714FA06900791FFF7BBFA070040
:10390000FFF778FA02000B0006980799FFF7D7F93E
:103910000022984B06900791FFF75AFA002800D131
:10392000E9E001373800FFF765FA02000B0008985C
:103930000999FFF73DFA002801D000270135002E34
:1039400000D1B7E0069513E0172306AA9B180A21B9
:10395000380001341D19FEF777FF30312970380027
:103960000A21013EFEF770FF092F00D8E1E00700B1
:10397000202CE9D1069D20240CAB0693172706AB1B
:10398000FF180DE028000A21FEF736FF0134303120
:10399000280039550A21FEF72FFF051E00D1B7E098
:1039A000202CEFD10323229A1340012B17D1219B06
:1039B000002B14D00B9B002B00D1E3E0219B013B9B
:1039C0002193202B0BD93023219A06E006A901343C
:1039D00017310B55944200D3A0E0202CF6D1229B46
:1039E00001940393219B0293069B21E0229B524664
:1039F0000493219B4946039358461E9B1F9C0296A5
:103A000000930194434600F043F90400200015B0F0
:103A1000F0BCBB46B246A946A046F0BD229B5B0760
:103A20000FD40322544B22990192039121990291C0
:103A300000935246434649465846FFF7A7FD040007
:103A4000E4E704224D4BEEE71E9A1F9B0020002165
:103A5000FFF735F901231E901F910B9324E70223F2
:103A6000229A54461A40229B06929B0700D1ACE052
:103A70002600434D08942F1F3200E87843464946FC
:103A8000013DD8470136BD42F6D1089C069B04345F
:103A9000002BBBD05746219AE31B9A42B6D915009A
:103AA00022004346494620200134D847E31BAB425D
:103AB000F6D3ABE72800FFF7A1F902000B001E9830
:103AC0001F99FFF7FCF82B4B002206000F00FFF7B1
:103AD00069F90CAB0693002800D04FE700223000B4
:103AE0003900244BFFF774F9002800D046E7012382
:103AF00001359D4342E70022069807991D4BFFF7C9
:103B000051F9002800D01AE7002F59D1013716E7E4
:103B10000323229A1340012B00D1A6E0202C00D1D0
:103B20005DE70B9B002B3AD02D23069A13550134E9
:103B300055E7069D202C00D11DE73023361906E0FD
:103B400006AA013417321355202C00D113E7A642E0
:103B5000F6D12E230CAA0134069293550EE7C046E7
:103B6000FFFFEFFFFFFFEF7F65CDCD4165CDCDC1FD
:103B7000481201100000E03F4C7E0010447E00100F
:103B8000547E00100C23229A134257D0219B013BF4
:103B90002193A34200D916E7202C00D11FE7229BD6
:103BA0005B0704D52B23069A1355013417E7229B94
:103BB0001B0700D413E72023069A135501340EE7A0
:103BC000FB0700D4BBE60137B9E6219B042B00D8E4
:103BD0004EE755464F46043CE4182A00434601355B
:103BE00039002020D847AC42F7D141E70227229B79
:103BF00055461F409B0726D006975F46234EEC1C78
:103C00002A00B078434649460135B847013EAC42E8
:103C1000F6D1069F002F00D1F8E65746219AE31B04
:103C20009A4200D8F2E61500220043464946202079
:103C30000134D847E31BAB42F6D3E7E6219BA3420E
:103C400000D9C0E6CBE6219B032BD5D90697544675
:103C50004F46033DED182200434601343900202031
:103C6000D847A542F7D1069FC6E7219B002B00D17C
:103C700054E70B9B002B85D0219B013B21939C4259
:103C800000D2A0E6202C00D04EE7A8E6507E00101F
:103C9000F0B54546DE4657464E46E0B59BB0249CFF
:103CA000259D824688469346994622002B00200097
:103CB0002900FFF792F8002800D0C1E0012220007F
:103CC00029007C4B5242FFF783F8002800D0B7E070
:103CD000012220002900784B5242FFF763F80028A8
:103CE00000D0ADE00022002320002900FFF75AF8A1
:103CF000002800D0BBE10894099508980999802311
:103D0000289ADB001A400F928022289E120116404A
:103D100032000E96289E0F000A901E4200D0A4E0AA
:103D20000B00034300D0CBE0002A00D012E23200A7
:103D300006332693022313400C930223134200D030
:103D40000AE2279B042B00D215E200270426043B3D
:103D50000E930022002320002900FFF723F80028FB
:103D600000D0C8E1554B289A134004930E9B03934F
:103D7000269B0293089B099C0093019441464B4665
:103D80005A465046FFF74AFD02002020289B002596
:103D9000034059424B415B421840531C0893414633
:103DA0004B464530D047FB17FC185C40FB0F1F27E4
:103DB0000A93731E0E930AABFF1806E020000A2137
:103DC000FEF742FD0400202D08D00A212000FEF756
:103DD0003BFD013530317955092CEFD80523069389
:103DE0000E9B56460593002304930A3303930A9BC4
:103DF0004146029312AB009330004B46089A01955E
:103E0000FFF718FC0C9B002B28D05F46279BC41B98
:103E1000A34223D982461D003A194B464146202031
:103E20000134B047A542F7D850465946279C421A5C
:103E300001320023944200D395E1013018180DE0BF
:103E4000289B009401950493279B0393269B029340
:103E50004B465A4641465046FFF7E0FC1BB0F0BCCB
:103E6000BB46B246A946A046F0BD01432AD10E9BEF
:103E70003200002B00D15DE70027269B0026BB42C5
:103E800000DD82E10022002320002900FEF78AFFE6
:103E9000002800D04BE1289B084A02961A40802354
:103EA000DB0013430493279B0393089B099C009317
:103EB0000194CDE7FFFFEF7FFFFFEFFFFFF7FFFF6D
:103EC00006232693B24B7800400DC018FEF796FFEC
:103ED000B04AB14BFEF723FFB04AB14BFEF7F8FEF4
:103EE0003F03B04B3F0B3B430C900D9100220A98CF
:103EF0001900AD4BFEF7E3FEAC4AAD4BFEF70FFFEA
:103F000002000B000C980D99FEF7E2FEFEF78EFF03
:103F10000700FEF773FFA74AA74B0A900B91FEF725
:103F2000FEFE0022A54BFEF7D3FEFEF77FFFA44A5C
:103F300006000A980B99A34BFEF7F1FE0A900B912D
:103F40003000FEF75BFFA04AA04BFEF7E8FE020040
:103F50000B000A980B99FEF7B2FE02000B000A90C4
:103F60000B91FEF7DCFE0C900D910A980B99020064
:103F70000B00FEF7ADFE0022109011910C980D99E8
:103F8000934BFEF7AEFE0022924BFEF7A1FE02001D
:103F90000B000C980D99FEF7A4FE00228E4BFEF745
:103FA00097FE02000B000C980D99FEF79AFE0A9AF4
:103FB0000B9B0C900D9180210020C905FEF77FFE20
:103FC00002000B000C980D99FEF782FE02000B0018
:103FD00010981199FEF785FE0022724BFEF778FECD
:103FE0007E4B0022F6183305FEF799FE02000B0007
:103FF0000A900B9108980999FEF7D4FE002808D082
:104000000A980B990022734BFEF76BFE0A900B91F6
:10401000013F0A990B9A0B0011003A006332C62A3D
:1040200012D802222898042610400E9A0C90002ADA
:1040300026D1279B042B05D9002800D0A1E0279B7F
:10404000043B0E93042642E00222289810400E9A68
:104050000C90002A13D1279B052B00D889E000285B
:1040600000D084E0279B0526053B0E9332E0802399
:104070001B069C46AC446346089409933DE605261E
:104080000B4300D1F9E608980999554A554BFEF7BC
:1040900097FE002808D0089809990022524BFEF795
:1040A00081FE002800D0E8E6269B002B34D00F9B31
:1040B000002B31D0269B013B2693279BB34204D98A
:1040C0000C9B002B59D002230C9300230E93002F3E
:1040D00000D13EE60A9A0B9B08980999FEF701FE6B
:1040E000002208900991002320002900FEF75AFEC3
:1040F000002800D136E6089C099D289A80203B4B79
:1041000000061340220004930E9B0393269B029308
:104110002B180092019331E6279BB342D5D90C9B13
:10412000002B2AD000230E9302330C93CFE7289B59
:104130002E4A8020089C099D1A408023DB001343EF
:1041400022000493279B000603932B1800920193EF
:1041500002967DE6052695E600230E93023300279E
:1041600004260C93F5E54B1E1B191B1A65E602236A
:104170000C930526AEE70423E7E5279B9B1B0E93D4
:10418000A5E7022304260C93A1E7DB1B5E1E79E65C
:1041900001FCFFFFFB799F501344D33FB3C8608BF2
:1041A000288AC63F0000F03F0000F83F61436F637C
:1041B000A787D23F71A379094F930A400000E03FDF
:1041C0001655B5BBB16B0240EF39FAFE422EE63F01
:1041D00000002C400000244000001840FF030000B5
:1041E0002D431CEBE2361A3F80842E41FFF7FFFF80
:1041F000F0B55746DE464E464546E0B5A3B01F0033
:104200002C9B92460C93C94AC94B8B460B901A6063
:10421000002900D1BFE1002338789946002800D159
:10422000C1E1C44B4C460993C34B0E935B460A93C2
:1042300008E0220053460A990B9DA84701343878BC
:10424000002876D001372528F3D110239B46083B60
:104250009946043B9846033B002602259C46387845
:10426000791C0300203BDBB2102B03D8099A9B007A
:10427000D3589F460300303B092B36D900252A2806
:1042800000D1A7E000230D932E283FD00300683B08
:10429000DBB2122B1BD80E9A9B00D3589F46634665
:1042A0000F001E43DBE70F002E43D8E743460F0005
:1042B0001E43D4E75B460F001E43D0E74B460F007A
:1042C0001E43CCE7802378785B001E4301310F004A
:1042D000672845D82428ACD90300253BDBB2422B04
:1042E000A7D896499B00CB589F460025AB005D1987
:1042F0006D002D1808780F000300303B303D013170
:10430000092BF3D900230D932E28BFD13022802012
:1043100052429046C000064378780B0080444246E3
:10432000092A00D851E12A2800D15EE10F000131AD
:10433000ACE70A9BA1469B46CA4503D801235B42D2
:104340005344994653464A46594600200B9DA84778
:10435000200023B0F0BCBB46B246A946A046F0BD43
:104360000300693BDBB20F2B00D962E701219940C2
:104370008846734A11408B46110042460A4200D0DB
:1043800013E10A2B2FD0072B00D052E70C9D01CD53
:10439000002800D134E121231E43B0461F260D9A88
:1043A00012ABF618A14694465946340002E00009C3
:1043B00020290AD00F26064032003732092E00D8B5
:1043C000073A013162540F28F1D863464C468B46B8
:1043D0000D9322E10C9B20CB002D52DB78780C93BF
:1043E0000F0001314EE70C9B0D9904CB90469B4684
:1043F000002900D128E1434618784144002801D122
:1044000000F029FC0D9A94460A0004E05978013323
:10441000002900D195E19A42F8D163460D934346B5
:10442000D31A0F93730500D46CE10F9B0D9A93423E
:1044300000D90F9202231A0032400C92334200D16D
:1044400091E20C930D9BB9461E1943461B1BA846CF
:1044500022001F000B9D08E0541C53460A99A847F0
:10446000385D002800D163E122009642F4D1454630
:104470004F4634000C9B002B00D097E15B460C9319
:10448000DDE60222787816430F006D420C9301316D
:10449000F8E678786C2800D159E180235B001E4350
:1044A000013114E780239B0078781E4301310EE729
:1044B0007878682800D150E1802301311E4306E757
:1044C000672800D1C2E0472800D134E1452800D157
:1044D00034E107210C9B0D9A07338B431900049696
:1044E000039502920CC90B98009201930C91220043
:1044F00053460A99FFF7CCFB0400A0E6462800D1FA
:10450000A8E007210C9B0D9A07338B4319000496F2
:10451000039502920CC90B98009201930C91220012
:1045200053460A99FFF77AF9040088E6F141001032
:10453000B81F0020A8100110EC1001103811011054
:10454000419000002200534625200A990B9DA84760
:10455000013474E60C9B04339B46631C9846B607F3
:1045600000D4FFE00C9B220018780A9953460B9E5A
:10457000B0476419012D00D849E245460B9EB84664
:104580000A9F2A005346013539002020B047A54232
:10459000F7D1474672E7DB4B38780B9300239946F7
:1045A000002800D03DE60024C6E66F2855D000D88C
:1045B000BCE21023782800D19EE09E430A239C464B
:1045C00000230F930A339B464DE000218A005218C6
:1045D000520001331118187830390200303A092A94
:1045E000F4D90D911F00591C50E60C9BB87804CBF0
:1045F0000237D143C9170A400D920C93791C45E646
:104600001023300098431133184380238046300034
:10461000DB0018401E4200D1C0E643460693082343
:1046200005930D9B22000493102303930023029310
:104630005B4601931AAB00930A9953460B98FEF719
:10464000F9FF0C950400FAE50139D4E680231B013B
:104650001E433EE720231E4353E708239C460023C6
:104660000F9308339B4680233000DB0018401E4226
:1046700000D11AE10D233100994380230A009B00E9
:104680001A409146194200D0C3E180230A005B0022
:104690001A4090460C9A04320F92194200D08FE2D1
:1046A0004B0600D597E10B0600D4E5E20C9B1B8876
:1046B00099464B46002B00D005E210339943002861
:1046C00000D100E2002398460D9B069104935B46BF
:1046D00003930023059502934346D9E0582808D058
:1046E000622878D102239C4600230F9302339B4615
:1046F000B9E720231E43103B9C4600230F93103341
:104700009B46B0E702231A0032400C92334200D19C
:1047100005E20C934346B9460B9E0A9FA8461D1B13
:104720002200534639000134B047285D0028F7D1F4
:1047300045464F469EE680231B011E4320231E4311
:10474000C7E662460D9242469B1A0F936AE6C02363
:104750009B00B8781E43F91CB9E5C023B8781E4306
:10476000F91CB4E5012D00D84AE1631E9946A9441D
:104770004B4652462600A146BA461C001700A846E2
:104780000B9D32003B00013620200A99A847A64223
:10479000F7D13B0057469A464C460C9B320018789E
:1047A0000A9953460B9D4444A84767E6A0460F9BD1
:1047B0009D4200D862E62C190B9E4546B8460A9FDA
:1047C000E41A2A005346013539002020B047A5429B
:1047D000F7D1474652E680233200DB001A4090466C
:1047E0001E4200D1F3E011218E43B4469846802347
:1047F00062469B001A40934662461A4259D1802372
:104800005B001A4091460C9A04320F9262461A429B
:1048100000D0A0E163465B0600D5D4E063461B06EA
:1048200000D412E20C9B00229B5ED817191841405D
:1048300089B2DA0F0C92002B00D187E188461F263F
:1048400012ABBB461495F71845464E46E046A146C6
:1048500006E028000A21FDF7F7FF0500202E08D00A
:104860000A212800FDF7F0FF01363031B955092D36
:10487000EFD84C46C446B1465F46149D6346069346
:104880000D9B059504930A2303930C9B02934B46BF
:1048900001931AAB220000930A9953460B98FEF736
:1048A000C9FE0F9B04000C93C9E40C23310099430B
:1048B000E3E60822072191460C9B07338B4399447A
:1048C0004A460ACB08000C92DA0F9346184300D0F0
:1048D00085E0002399464346002B2FD10022002378
:1048E0001092119300231F26994612ABF6185B46CF
:1048F0001495BB46E04637000F934E46A146109CE8
:10490000119D05E08935001004000D00202E0CD00B
:104910000A22002320002900FDF7D4FF013630329F
:10492000BA55002DF0D1092CEED80F9B109411959B
:104930005F464C46C446B1469B46149D634606936B
:104940000D9B059504930A2303935B4602934B4604
:1049500001931AAB220000930A9953460B98FEF775
:1049600069FE04006BE40F9B9D4200D896E1802312
:10497000DB000C930F9B2E19F61A43460F930D9BE9
:10498000A84699465346BA461F000B9D22003B009D
:10499000013420200A99A847B442F7D10F9B45461D
:1049A00098464B460D933B0057469A464346187827
:1049B000002800D162E56B1C0F930C9B002B00D1EB
:1049C000A8E600233DE50C9B1B78190031E7102376
:1049D0009E43B4460BE70C9B1B78994669E6DA17B1
:1049E000129213924A401092129813990A005A4058
:1049F0001192109A119B121A8B411092119371E728
:104A00000C9B220018780A9953460B9CA0474446F9
:104A100034E50822072690460C9B0733B34398449D
:104A200042460C921A685B68149208931300089A25
:104A3000134305D11033994300239846002838D1F9
:104A400061208B0600D5412000231F2698465A4638
:104A500012ABF618030018920F9A0A3BB14616954E
:104A6000179419974446664690469B46149F089DA6
:104A7000159103E007000D00202C13D03200002315
:104A800038002900FDF71EFF5B46D2B2D318092A71
:104A900001D8130030334A4601341355A845E9D1F3
:104AA000BE42E7D9189BA0469B461599169D179CB8
:104AB000199F0D9B069104935B4603930023059574
:104AC0000293434644E761208B0600D541201F2610
:104AD00012ABF21803000A3B0C934B464646A14624
:104AE000A8461C005D461491BB46170002E0040076
:104AF000202E0DD029002000FDF7A6FE0C9BCB1820
:104B0000092901D80B0030330136BB55AC42EED237
:104B10005F464C46AB4614994546B046D4E50F9BDC
:104B20009D4200D926E701330F93F3E510233200AD
:104B30009A439446692800D0A2E080233200DB002B
:104B40001A4090461E4200D151E64CE64346002BE7
:104B500000D093E673E60C9B1B68DA0F002B70D035
:104B6000D9175B184B4098461F2612ABF618A14682
:104B700014955C464546BB46E04637000C9206E07D
:104B800028000A21FDF760FE0500202C08D00A212C
:104B90002800FDF759FE013430313955092DEFD881
:104BA0005F46C446A3464C46149D0C9A6346069342
:104BB0000D9B059504930A23029203935B4667E6D7
:104BC0000C9B1B689846002B03D110339943002897
:104BD0002DD161208B0600D541201F2612ABF6187F
:104BE00003000A3B4A460C93149143463100A84601
:104BF000A1465E461400BB461D000F0002E0050002
:104C0000202C0DD031002800FDF71EFE0C9BCB1888
:104C1000092901D80B00303301343B55B542EED29F
:104C200023005F464C464546B346994614990D9B72
:104C3000069104935B4603930023059502934B462C
:104C400026E64346002BB1D18EE70C9B1B68D81794
:104C500019184140EDE580233200DB001A400F9225
:104C60001E420FD00230020032400F92304219D063
:104C70000023A0460F939AE50C9B1B68994618E504
:104C800016009BE402231A0032400C92334200D0FB
:104C90008CE5002D00D06DE6FFF7F0FB01330F939C
:104CA000FFF7D0FB0C93F4E784460CB400B585B055
:104CB00006AB0A0002CB0548039300930B00614644
:104CC000FFF796FA05B008BC02B01847813500100E
:104CD00010B5094A0300146884B0002C08D00122E2
:104CE00000910648524203A9A047012004B010BD1C
:104CF00000F09EF90020F9E7B81F00200D380010E1
:104D000000BEFDE710B5FFF7FBFFC04670B5FDF72D
:104D100039FC074D074EB54209D20024013E761BEF
:104D2000B608013608CD01349847B442FAD170BDB7
:104D30007C7B0010847B0010030010B5080011007C
:104D40001B68984710BDC046F8B5437D07000D00AD
:104D50001600002B38D0002A1ADD0B780A2B18D049
:104D60000020012E09D0012421006B5C01340A2BA4
:104D70001AD0B442F8D1864203DD311A3B682818B4
:104D80009847AD19013D2B780D3B5A4253413B7575
:104D9000F8BD037D002BE3D102210E483B68984704
:104DA000012EEED00120DEE76B1E5B5C0D2BE0D008
:104DB000884203DA091A3B682818984705480221F7
:104DC0003B6898472000D4E7036811002800984703
:104DD000DEE7C04698120110F0B54646D6464F466B
:104DE000C0B582B090461C0006000D00FDF780F9AA
:104DF00000232F4A12184B41002B02DA01222D4BBF
:104E000052422D4908008A4602F072FE81466B1C10
:104E100003D1300002F0F2FD0500002C27D0274F0F
:104E2000274B1C68002C18D04346002B21D1254B62
:104E3000984602E02469002C0FD02368002BF9D09B
:104E400043461B68002B01D09C42F3D120002A006E
:104E50003100B8472469002CEFD14B46002B23D1F9
:104E6000280002B0E0BCBA46B146A846F0BD164FD5
:104E7000D6E7144B984602E02469002CEDD0236855
:104E8000002BF9D043461B68002B01D0A342F3D17D
:104E90002A0031002000B8476B460A222000DA7150
:104EA000D91D093AB847E7E7504602F0E1FDD7E7D8
:104EB00040420F00FFFFFF7F00110020494D00100E
:104EC000AC1B0020B41B0020394D00100A4A1368A7
:104ED000002B05D10CE01A001B691032002B07D003
:104EE0008342F8D1002902D1186910601961704716
:104EF0000029FCD01060FAE7AC1B002010B500F0D0
:104F0000C7FA10BDF0B5CE464746040080B583B061
:104F1000FDF7EEF82600002736184F41002F02DA81
:104F200001261A4F76421A4B1A4D994601AB984604
:104F30004B461C68002C03D116E02469002C13D0CA
:104F40002B68002B01D09C42F7D1A368002BF4D032
:104F50000121404698470028EFDD4346187803B00A
:104F6000C0BCB946B046F0BD0B4B5A6A974207D851
:104F70009B6AB34202D302204042F0E79742FAD143
:104F800001200021FDF7BEF8D2E7C046FFFFFF7FFA
:104F9000AC1B0020B41B002000400540F0B5CE46FD
:104FA000474680B583B06B460600DD1D2870FDF7CF
:104FB0009FF80023194A12184B41002B02DA0122F4
:104FC000174B524217490800894602F091FD164BD3
:104FD00080461C68002C14D0144F02E02469002C79
:104FE0000FD02368002BF9D03B68002B01D09C42E6
:104FF000F4D1200001222900FFF7A6FE2469002C2D
:10500000EFD14346002B05D1300003B0C0BCB946F8
:10501000B046F0BD484602F02BFDF5E740420F00D8
:10502000FFFFFF7F00110020AC1B0020B41B0020FD
:1050300070B5040002F0E2FC01230100050001222A
:105040002000FFF7C9FE084B1C68002C06D06368DF
:10505000002B05D098472469002CF8D1280070BD9A
:105060002469002CF3D1F9E7AC1B00207047C0463F
:105070000022014B1A707047D6A000204B79002007
:10508000FF2B0BD18B79002B08D1CB79012B05D1CC
:10509000082A03D9024B8A7809301A707047C04633
:1050A000D6A000200120704710B5012913D1124964
:1050B0005379107909781B0203430020994200D0EC
:1050C00010BD5378012B08D0022BF9D164220021A6
:1050D0000020FDF7A1F90120F2E7D37891781B02B7
:1050E0001943480ADB0501D4012040427F238A0589
:1050F000D20F1940FDF718FAD6A0002000487047DB
:10510000641301109446012310B501290AD1527885
:105110000023012A06D162461179527912020A430C
:10512000072A01D0180010BDA6336146024A01F0DB
:1051300063FA0300F6E7C046BC12011001230370B6
:10514000004870479C1201104B780A781B021343E9
:105150008A7810B512041A43CB781B0613439622A3
:10516000D200934200D010BD002201201100404225
:10517000FDF7DAF9024B1860024B19607047C04620
:10518000381B00203C1B002010B5024B1878FCF7A0
:10519000B1F910BDD7A00020154B70B51A68002AD0
:1051A00022D0EFF3108172B610680028FCD0BFF354
:1051B0005F8F00200F4A596010701B68BFF35F8F2C
:1051C000186081F31088002400250B4E3078FCF71E
:1051D00085F9002804D1002400252900200070BD95
:1051E0003078FCF787F9F8E7FA240025A400ECE70B
:1051F000DC1F0020D8A00020D7A0002070B505003B
:1052000000200E0001F010FB002834D0002001F037
:1052100021FB00282FD0FCF76BFF0023174A121840
:105220004B41002B16DB164C200002F061FC0028DD
:1052300021D0002001F0F8FA00280FD10120002130
:10524000404200F00FFD03256D42200002F010FCEB
:10525000280070BD01220B4B5242E4E7002001F010
:10526000F9FA0028EAD029003200002001F0FCFA07
:10527000051EEAD1E7E703256D42E9E740420F004A
:1052800014200020FFFFFF7F10B5FCF731FF002343
:105290000D4A12184B41002B02DA01220B4B5242ED
:1052A0000B4802F025FC00280CD0012000214042D0
:1052B00000F0D8FC002001F01BFB0028F5D10448C9
:1052C00002F0D6FB10BDC04640420F00FFFFFF7F3B
:1052D00014200020F8B5CE46474680B505000C00E6
:1052E000FCF706FF0023344A12184B41002B02DA68
:1052F0000122324B524232490800884602F0F8FB44
:10530000002803D1C0BCB946B046F8BD002001F06A
:105310008BFA002848D00026002C41DD294B994605
:1053200013E0A919002001F01FFB07000120002154
:10533000404200F097FC002001F0DAFAFCF7D8FEBA
:10534000204BF61903C3B4422ADD002001F02CFBE8
:10535000A71B0200B84200DD3A00002AE1D101207B
:105360000021404200F07EFC002001F0C1FA002044
:1053700001F05AFA002813D0002001F015FB002894
:10538000E1D1FCF7B5FE4B460F000CCB0021844663
:105390000D4812184B419F4202D8D4D19445D2D91E
:1053A000404602F065FBADE700200021054B03C33A
:1053B000404602F05DFBA5E740420F00FFFFFF7F84
:1053C000142000205013002020A1070030B5002138
:1053D00085B0284802F06CFB00281CD1264B1A68C7
:1053E000002A16D0EFF3108172B610680028FCD0A6
:1053F000BFF35F8F01242148596002781B68D2B245
:105400000470BFF35F8F0020186081F31088002ABA
:1054100017D005B030BD01200021404200F022FC31
:10542000002001F017FA0500124802F021FB002DC0
:10543000EFD0134B1B68002BEBD0124A1068984733
:10544000E7E7FCF741FC0400FCF752FEFA220023D8
:10545000920012184B41002B02DA01220A4B5242F1
:105460000121029100210191084920000091FCF7DF
:105470002FFCCEE714200020DC1F0020D8A0002045
:10548000381B00203C1B0020FFFFFF7F99510010BC
:10549000D02310B51B0684B01C68FCF715FCFCF784
:1054A00015FDA04202D0002004B010BD284B002101
:1054B00000201B7801F060FD26480368002B44D0D3
:1054C0000120FCF799F9FF23234C24492070184050
:1054D000FCF728F820780121FBF7EEFF0520FCF708
:1054E00011F8002824D1082200211D48FEF73CF8BD
:1054F000FCF7EAFB0400FCF7FBFDFA220023920014
:1055000012184B41002B02DA0122164B52420121A4
:10551000029100210191144920000091FCF7D8FB71
:105520000028C0DB11480121FFF7D0FC0120BBE7B8
:105530000120FBF77FFF01000948FCF7BDF90022BD
:1055400005200B49FCF718F8ECE7FCF799F9B7E7E9
:105550001815011014200020D7A00020CD530010F2
:10556000DC1F0020FFFFFF7F99510010C0100020BA
:10557000895100100048704700140110004870471E
:10558000AC13011010B5040016480378002B20D08E
:10559000002C06D1144B15484380063BFF3B03808B
:1055A00010BD052C1CD8124BA400E4580F48012351
:1055B000811C013C04E001330A800231142B0CD021
:1055C000E25C002AF7D1C022DBB25B0092001343F9
:1055D000E5E7112100F016F8DAE7CA239B00DEE7C1
:1055E0000020DDE7C0A00020090400007C1B002093
:1055F0009413011010B5024800F0F4F810BDC04635
:10560000FC1F002030B5012900D1BBE0744B0139EB
:105610001A78121114003034092A00DDB5E0047044
:10562000012900D1DAE00F221C7822401400303426
:10563000092A00D9ACE04470022900D1CEE05A78A2
:105640009446121114003034092A00DDA3E084705E
:10565000032900D1C2E064460F22224014003034F6
:10566000092A00D99AE0C470042900D1B6E09A78DA
:105670009446121114003034092A00DD91E00471BF
:10568000052900D1AAE064460F22224014003034DC
:10569000092A00D988E04471062900D19EE030250E
:1056A000AC46DC7822119444092A00DD7FE0624692
:1056B0008271072900D191E00F222240140030347A
:1056C000092A00D977E0C471082900D186E0302585
:1056D000AC461C7922119444092A00DD6EE0624632
:1056E0000272092900D179E00F22224014003034DF
:1056F000092A67D844720A2900D16FE03025AC46E8
:105700005C7922119444092A5FDC624682720B297B
:1057100064D00F22224014003034092A59D8C472B0
:105720000C295BD03025AC469C7922119444092A7F
:1057300002DD0735AC469444624602730D294DD014
:105740000F22224014003034092A01D937321400C4
:1057500044730E2942D0DA7913111C003034092B1E
:1057600001DD37331C0084730F2937D00F2313401A
:105770001A003732092B01D830331A00C2731029AE
:105780002CD010300023037030BD3732140046E7B0
:10579000373214004FE73732140058E7373214001D
:1057A00061E7373214006AE73732140073E70735D0
:1057B000AC4694447BE73732140084E70735AC46A7
:1057C00094448CE73732140094E70735AC46944490
:1057D0009BE737321400C4720C29A3D14018D1E7DB
:1057E000FC1F002010B588B004000D22002168467F
:1057F000FDF7BAFE0D22002104A8FDF7B5FE4B23EC
:105800006A466846137004A90D2202F029F9152191
:10581000082220006944FDF7ADFE08B010BDC04667
:10582000F8B500F047F90C23194DFF22AB670520AE
:105830001849FBF7A1FE184C402200212000FDF77B
:1058400093FE4027002301262121144A66702783F6
:10585000A260136063545F31618445396354104A18
:1058600010496360E2602787A1620B606362E262B5
:1058700002F00EF980239B052E64EB6490230A4A04
:105880000120EA508022094B5202DA64F8BDC0467A
:10589000000011505D050020B81B0020840010504E
:1058A000000110508000105010D001000020115055
:1058B00010B501210520FBF7FFFD10BD10B500223A
:1058C0000021024800F016F910BDC046D81B002088
:1058D000044B1970002904D080219023024A8902C8
:1058E000D1507047D2A00020002011500B785B06E9
:1058F00000D070474B78052BFBD18A78014B1A609A
:10590000F7E7C04600001150F8B5CE464746C878C4
:1059100080B58007830F1800012B61D08B780A793E
:105920009C464B797F211B0213435B055E0D63464A
:105930001940DC094B001A191F0063462F4D520114
:10594000AA18937001236340537000231683D37009
:10595000D076B146CA00012C31D0294E92198E0161
:10596000B446AC446646B2601360002931D0254B82
:10597000C900C91871604B463F339B09022836D0D5
:105980009B01214839190268490169180E00CA6053
:105990001E49D31803608B422BD83B195B01ED18CD
:1059A000EB7E1B499B064A40134380221206134399
:1059B0006A6813600120C0BCB946B046F8BD154EF8
:1059C00092198E01B446AC446646B2621360002957
:1059D00008D1002364012C1963600F4BE360E9E7F1
:1059E0000020E8E70A4BC900C9187162C3E7DB0170
:1059F000C7E7FCF7C1FDF268CFE7C046B81B00203F
:105A00008400105004001050C01F0020FF0F1050E1
:105A100000001050800010500001105010B502F02E
:105A200037F810BD7F2010B508404000C909401864
:105A30001100044A400180181A0000F05BF80120B0
:105A400010BDC046B81B00207F23180000B50840D9
:105A500083B00B4204D14B424B41084A0133936659
:105A60008022C9094000064B401840010021C0189F
:105A7000120102F055F803B000BDC04600201150DD
:105A8000B81B00207F22130010B50B400A4200D142
:105A900010BDC9095B005B1804485B01C0180023F6
:105AA00000220349C37002F03BF8F1E7B81B002065
:105AB000FFF7FFFF80220A4B520410B51A60094B12
:105AC00009491A6010000B689843FBD1802200211D
:105AD00052010648FDF748FD0922054B5A6710BDE3
