:020000041000EA
:1000000000B5324B212058609868022188439860DF
:10001000D860186158612E4B002199600221596106
:100020000121F02299502B49196001219960352056
:1000300000F044F80222904214D00621196600F024
:1000400034F8196E01211966002018661A6600F04E
:100050002CF8196E196E196E052000F02FF8012189
:100060000842F9D1002199601B49196000215960AB
:100070001A491B48016001219960EB211966A021F2
:10008000196600F012F800219960164914480160C1
:100090000121996001BC002800D000471248134993
:1000A000086003C880F30888084703B5996A0420EC
:1000B0000142FBD001200142F8D103BD02B5186610
:1000C0001866FFF7F2FF186E186E02BD00000240BE
:1000D000000000180000070000035F00212200005C
:1000E000F4000018222000A00001001008ED00E03C
:1000F00000000000000000000000000074B24E7A12
:1001000000200420F7010010CB010010CD010010E9
:10011000C9010010C9010010C9010010C901001077
:10012000C9010010C9010010C9010010CF01001061
:10013000C9010010C9010010D1010010D301001045
:10014000C1010010C1010010C1010010C101001067
:10015000C1010010C1010010C1010010C101001057
:10016000C1010010C1010010C1010010C101001047
:10017000C1010010C1010010C1010010C101001037
:10018000C1010010C1010010C1010010C101001027
:10019000C1010010C1010010C1010010C101001017
:1001A000C1010010C1010010C1010010C101001007
:1001B000C1010010C1010010C1010010C1010010F7
:1001C000EFF30580103800BE00BE00BE00BE00BECA
:1001D00000BE00BEF2EB88714C3201106C3201108F
:1001E0003802001090A31AE71E481F49086006C88D
:1001F00081F3088810471D480068002801D019487D
:10020000F3E70DA40ECC002902D000F012F8F9E7B4
:100210001749184A002000E001C19142FCD116495B
:100220008847164988471649884700BEFDE701C937
:1002300001C29A42FBD370476C320110C00000200B
:1002400008130020B4440110000004200000042022
:10025000B44401100010042000100420000000002D
:10026000704700000000000008ED00E0000000D032
:100270000813002044A300208D67001085030010A0
:1002800085670010F8B5C04606480749091A8B1063
:10029000C90FC91810B5491003D0044B002B00D06A
:1002A000984710BD0813002008130020000000002C
:1002B000054B10B5002B03D00449054800E000BFF2
:1002C000FFF7E2FF10BDC04600000000182200202A
:1002D000D49700100123F0B5C646984600B5104EDD
:1002E000104D114F82B03378002B14D12C78631C41
:1002F0002B7043461C40FC236442DB003C40E41866
:1003000000F078FE052305227E21E920009400F00C
:10031000EFF900F077FEFA20400003F001FBE2E77E
:100320003FA3002040A300203FF8FFFF10B500F0DE
:10033000D9FA10BDF0B5C646002000B500F0B0F9FE
:100340000D4B002698460D4FB8443D003424200044
:100350002A883100013400F087F90235BB2CF6D130
:100360000F37FF3701364745EFD1054803F0D8FA7C
:1003700080BCB846F0BDC046628E00004C9C0010A8
:10038000B80B000010B506F02BFBFA20C00003F0FC
:10039000C7FA00F0C3F800F025FEFFF7CBFF1F20DF
:1003A00000F07EF9642003F0BBFA064809F0DAF8A1
:1003B00000F072FD0449054800F082FD00F0A2FD46
:1003C000002010BDD50200102D030010D89700109A
:1003D000F0B54E46DE4657464546E0B585B002AC20
:1003E000E61D8027D024802598462A2383462406AC
:1003F000AD027F0233708A4691463100A761012227
:10040000A561454809F084F95B461800283065610C
:100410000093031233700190310067610122A561DE
:100420003D4809F075F9009A656128323270310053
:1004300067610122A561384809F06AF94A46019BC3
:1004400065619B18013B1B1201923370310067619B
:100450000122A561304809F05BF90198009A273024
:100460008318656131003370012267612A48A561F4
:1004700009F04EF92B236561310033700122A76129
:100480002548A56109F044F953461A0035326561E3
:100490000093131233700192310067610122A5614C
:1004A0001D4809F035F9009865613530307031002C
:1004B00067610122A561184809F02AF94246019BAB
:1004C00065619B18013B1B1201923370310067611B
:1004D0000122A561104809F01BF9019B00983433F3
:1004E0001B18656131003370012267610A48A561FC
:1004F00009F00EF92C236561012233703100A761E8
:100500000548A56109F004F9656105B0F0BCBB467A
:10051000B246A946A046F0BD00C0034070B5D02445
:100520008025802682B04D494D4808F047FF0121C3
:10053000122002F0C9FB012113202406AD0202F0B3
:10054000C3FB1120760202F0E9FB1020656202F085
:10055000E5FB1420666202F0E1FB80235B0363622B
:100560006A466361012301A913713D480122A66116
:10057000A56109F0CDF89620656103F0D1F911234A
:100580006A4601A9137136480122A661A56109F0E6
:10059000BFF83220656103F0C3F93A236A4601A926
:1005A00013712F48A6610122A56109F0B1F8052356
:1005B0006A46656101A91371294866610122A56136
:1005C00009F0A6F836236A46656101A9137124482B
:1005D000A6610122A56109F09BF870236A46656156
:1005E00001A913711E4866610122A56109F090F806
:1005F00021236A46656101A913711948A661012288
:10060000A56109F085F829236A46656101A913717E
:1006100013480122A661A56109F07AF80A206561F4
:1006200003F07EF98723F02200210020FFF7D0FE9F
:1006300000236A466661A5610A4C9380022208483D
:1006400001A9013C09F064F8002CF7D1D0238022E5
:100650001B0692025A6102B070BDC046A0ACB9033D
:1006600000C00340907E000070B5012382B01600E8
:100670000122FFF7ADFED024802380256A462406A0
:100680005B026361AD0273BAA56101A9938003485F
:10069000022209F03DF8656102B070BD00C0034060
:1006A00010B587230400F02282B000210020FFF75C
:1006B0008FFED02380221B0652025A6180229202B2
:1006C0009A616B4664BA9C80074C0222074801A9D4
:1006D000013C09F01DF8002CF7D1D02380221B0625
:1006E00092025A6102B010BD907E000000C003402B
:1006F00070B582B01D006B461C8B2B001600FFF7F7
:1007000067FED02380221B0652025A618022920289
:100710009A616B46754364BA9C80002D08DD002405
:100720000222074801A9013408F0F2FFAC42F7D1D8
:10073000D02380221B0692025A6102B070BDC046CF
:1007400000C00340F0B54E464546DE465746E0B58C
:1007500085B099466B46451A02950D001B8FCE0059
:10076000984693009B185B0003937618029B5B5D91
:10077000002B30D0203BDAB201355E2A32D81A4C39
:10078000DB001C1900F036FCA24608230127534465
:100790009B46039B01951B1B0093009D0024554421
:1007A0002B0055469A462B78424623411F4200D0E3
:1007B0004A46A01951460134FFF756FF082CF2D1E2
:1007C000AA4601239A44D345E7D1019D093600F09A
:1007D00019FC192DCADD05B0F0BCBB46B246A946CE
:1007E000A046F0BD004CCDE7B02A0110F0B5DE46C2
:1007F00057464E464546E0B50378040085B0002BC9
:1008000057D0334A334E934601229046324A0392E0
:1008100008E000235A4601371360376063780134DB
:10082000002B46D037680A2BF3D05A460398203B5A
:100830001568DAB281465E2A01D8DB00994400F0DF
:10084000D9FB0823BA004B44D2199A46EF004B4615
:100850007F1902963E005200D31A204D0093019456
:10086000009F00244F443B004F4699463A78434648
:1008700022411A40013A1A4B2A40A0194946D2187F
:100880000134FFF7F1FE082CF0D1B9460123994459
:10089000CA45E5D1019C029E00F0B4FB5B461B6893
:1008A0000133192B0CDC5A46013413602378002BDA
:1008B000B8D105B0F0BCBB46B246A946A046F0BDD3
:1008C00000235A461360336801333360A6E7C046FD
:1008D000A81D0020AC1D0020B02A01102000FFFF41
:1008E000FFFF0000F0B5DE46454657464E46E0B5F0
:1008F0001F20BFB0FFF7D4FE0023D74AD74C1360A8
:100900002360D74B089218001593FFF76FFFD54D62
:1009100028000495FFF76AFFD34A10001692FFF7EC
:1009200065FF2800FFF762FFD04A10001792FFF71B
:100930005DFF2800FFF75AFFCD4A10001892FFF71D
:1009400055FF2800FFF752FFCA4B002518000593FA
:10095000FFF74CFF2EAB9B46C74B0F93C74B109333
:10096000C74B0A93C74B0B93C74B0C93C74B0D93C5
:10097000C74B0E93C74B1193C74B1293C74B13939F
:10098000C74B1493C74B1993C74B1A93C74B21936B
:10099000C74B1B93C74B1C93C74B1D93C74B22934D
:1009A000C74B2393C74B2493C74B2593C74B1E9329
:1009B000C74B1F93C74B2093C74B0993002006F0EA
:1009C00013F8831CFAD00D284AD00A2848D07F2873
:1009D00000D1DBE03E2DF1DC5B465855089B2668D4
:1009E0001F680300203BDBB25E2B00D9C1E1FF236F
:1009F000099A03409146203BDB009944013500F001
:100A0000F9FA08234B449A464B46BA00D2195200D1
:100A1000D31A039301239846F200B04F079406952A
:100A200094190025039E4E444B461A7843462A41AA
:100A30001A40013AAA4B3A4028193100D218013520
:100A4000FFF712FE082DEFD101239944D145E8D1DB
:100A5000079C069D00F0D6FA236801332360ADE7BA
:100A600000235A4604985355FFF7C0FE5B469D4A43
:100A70001B6893423ED05B469B4A1B68934200D161
:100A80008FE05A46994B12689A4200D1CCE05A4600
:100A9000974B12689A4200D136E15A46954B12683C
:100AA0009A4200D169E15A46934B12689A4200D1AA
:100AB00086E15A46914B12689A4200D1ADE15B46FD
:100AC0001B78002B5DD05A468D4B12689A4200D19C
:100AD000D4E158461E9908F073FD051E00D1CAE105
:100AE00058461F9908F06CFD051E00D0CAE101F0C0
:100AF000CBFF99E15B461B79002BBCD10F98FFF728
:100B000075FE049D2800FFF771FE1098FFF76EFE3A
:100B10002800FFF76BFE0A98FFF768FE2800FFF732
:100B200065FE0B98FFF762FE2800FFF75FFE0C984A
:100B3000FFF75CFE2800FFF759FE0D98FFF756FE01
:100B40002800FFF753FE0E98FFF750FE2800FFF72E
:100B50004DFE1198FFF74AFE2800FFF747FE129856
:100B6000FFF744FE2800FFF741FE1398FFF73EFE13
:100B70002800FFF73BFE1498FFF738FE2800FFF728
:100B800035FE0598FFF732FE002517E7089B26681B
:100B90001F68002D16DC5B465855099B01359946A8
:100BA0002DE75B469B88722B00D06AE700251F204B
:100BB000FFF776FD089B059825601D60FFF716FE80
:100BC0000025FBE6013E266000F014FABA00099BFE
:100BD000D21952009A46D31A03930123F70099467B
:100BE0003E4B013DBF19069598465546A2463C002E
:100BF0000026039B5F192A784B4632411A40434630
:100C0000013A1A40364BA0193900D2180136FFF7C5
:100C10002BFD082EEFD13B4B0135AB42E8D15446BA
:100C2000069D00F0EFF9C9E65B469B886F2B00D06C
:100C30002DE71998FFF7DAFD049D2800FFF7D6FD90
:100C40001A98FFF7D3FD2800FFF7D0FD0598FFF7AE
:100C5000CDFD0025B2E6C046AC1D0020A81D002039
:100C6000E4970010E0970010F4970010049800102B
:100C7000AC9A0010189800102498001030980010BA
:100C8000449800105C980010749800108C98001024
:100C9000A4980010C0980010D8980010F498001084
:100CA000149900103C990010589900107099001088
:100CB0008C9900109C990010AC990010C4990010F8
:100CC000D4990010F4990010149A0010309A001072
:100CD000389A00103C9A0010B02A01102000FFFF43
:100CE000FFFF000068656C70636C656168656C6C23
:100CF000636F6C6F696E666F7461736B706F6E6734
:100D0000696E7600B82A01105B469B88722B00D072
:100D1000C3E6F8231B025022002100200093872302
:100D2000FFF7E6FCFC23DB0050220021502000935B
:100D30008723FFF7DDFC1F2350220021A020009312
:100D40006833FFF7D5FCFA200025C00002F0E8FD6B
:100D50001F20FFF7A5FC089B21981D602560FFF769
:100D600045FD0498FFF742FD0598FFF73FFD00257C
:100D700024E6099B0135994641E65B461B79002B29
:100D800000D090E61598FFF731FD049D2800FFF78D
:100D90002DFD1B98FFF72AFD2800FFF727FD1C9863
:100DA000FFF724FD2800FFF721FD1D98FFF71EFD2A
:100DB0002800FFF71BFD0598FFF718FD0025FDE54E
:100DC0005B469B88732B00D073E62298FFF70EFDDD
:100DD000049E00253000FFF709FD2398FFF706FD6C
:100DE0003000FFF703FD2498FFF700FD3000FFF708
:100DF000FDFC00F0F1F8082203002021009226A853
:100E0000259A05F081FC26A8FFF7F0FC3000FFF7DB
:100E1000EDFC0598FFF7EAFCD0E55B461D79002D57
:100E200000D04CE600F03EF91F20FFF739FC089B8C
:100E300015981D602560FFF7D9FC049D2800FFF779
:100E4000D5FC1698FFF7D2FC2800FFF7CFFC1798C7
:100E5000FFF7CCFC2800FFF7C9FC1898FFF7C6FC89
:100E60002800FFF7C3FC0598FFF7C0FC0598FFF7C3
:100E7000BDFC0025A2E501F04FFCD5E7002500F000
:100E80005FFBD1E72098FFF7B1FC5846FFF7AEFCB7
:100E90000498FFF7ABFC74E610B5054A002105483D
:100EA00004F08AF80022044B1A60044B1A6010BD4B
:100EB000A08000008422002080220020A41D0020A9
:100EC0008C460D4910B504000868072811DC0202A1
:100ED00012189200094B12189200D0509B186246CB
:100EE0009A6000225C60064C1A731A51431C0B6016
:100EF00010BD01204042FBE7802200208422002018
:100F000010100000F0B5D6464F4646462D4BC0B5F2
:100F10009A461B68002B4FD02B4B2C4F1E689946CE
:100F2000330298469B199B009B199B00FB181B7B67
:100F3000012B25D9434600229B199B009B199B003E
:100F4000FB181A7353461D68701C290003F07CF9C6
:100F5000002D15DD002406E0481C0134290003F0B3
:100F600073F9A5420CD00A0253189B005B189B0032
:100F7000FB181B7B002BEFD14B460E0090461960EF
:100F800043469C190123A400A419A4003C19104D48
:100F90002373A368AE6A9847FA21A86A0D4B801B99
:100FA0008900E41803F078F92368C0184B461E68DE
:100FB000206033029846BDE7E0BCBA46B146A84679
:100FC000F0BDC04680220020A41D00208422002005
:100FD0000040054010100000014B18687047C046E3
:100FE0008022002010B5024802F072F910BDC04600
:100FF000D81D002010B5024808F0BAFB10BDC0464D
:10100000D81D002010B5024808F05AFB10BDC0469C
:10101000D81D0020F0B583B0FFF7ECFF0023F022CD
:101020000021002000930833FFF762FBFFF7EAFF7F
:10103000194E5A2533680024002B12DD174FFFF795
:10104000D9FF06230422012128000097FFF750FB57
:10105000FFF7D8FF33680134A34202DD0635092CBF
:10106000EDD10F4E822533680024002B12DD0B4F8B
:10107000FFF7C0FF06230422012128000097FFF795
:1010800037FBFFF7BFFF33680134A34202DD0635AB
:10109000092CEDD103B0F0BD64220020FFFF000059
:1010A00068220020F0B5DE464E46574645460123ED
:1010B000E0B5E04E89B00C203370D02401F02EFE54
:1010C000802324065B01A362002201210C2001F091
:1010D00013FE0D2001F022FE80239B01A36200225B
:1010E00001210D2001F008FE0E2001F017FE8023E3
:1010F000DB01A362002201210E2001F0FDFD0F2083
:1011000001F00CFE80231B020121A36200220F20AC
:1011100001F0F2FDFA20400002F002FC3923C64A39
:10112000C64D13602B6000230392C54AC54C136063
:101130000592C54A136078230692C44A1360353B72
:101140002360C34B02929B4602235A461360C14A56
:1011500013600492FFF74EFF0020FFF7A1FAFFF79C
:1011600051FF08231F00BC4B9946FFF743FF4B4636
:10117000390004227620009306370323FFF7B8FADC
:10118000FFF740FF802FF0D1FFF744FFD0231B066D
:10119000994607964B465B68DB0402D42B68033BF9
:1011A0002B604B465B689B0402D42B6803332B6097
:1011B0004B4680275B68FF013B4214D14B4680269B
:1011C0005B68360233420ED19620400002F0A8FB45
:1011D0004B465B683B4206D14B465B681A00324087
:1011E000334200D15AE12B68072B00DD43E108238D
:1011F0002B60039E5946336809681A000A32002999
:1012000000DC2DE12168881E824200DB39E10233D7
:101210003360072B00DC2AE16B2B02DD6B23039A82
:1012200013600026FFF7E6FE77230422082108203A
:101230000096FFF75DFAFFF7E5FEFFF7DBFE0821FA
:10124000E420772304220096FFF752FAFFF7DAFE34
:10125000029A276813689846FFF7CCFE04230422FD
:10126000390040460096FFF743FAFFF7CBFE5B4696
:10127000029A1B6811680498C918116023680268F3
:101280009B182360082B00DDCAE0022303600633AD
:1012900023600C294EDC2A68181D90425CDB143256
:1012A0009A4259DB02235A461360029A0B331360A9
:1012B0000826694FFFF79EFE3100032304227620A3
:1012C00000970636FFF714FAFFF79CFE802EF1D147
:1012D0002B689A46FFF78EFE604B514698460422D3
:1012E000082000931423FFF703FAFFF78BFE039BFC
:1012F0001B689A46FFF77EFE434651460422E420CF
:1013000000931423FFF7F4F9FFF77CFE029B266895
:101310001B689A46FFF76EFE434650460422310092
:1013200000930423FFF7E4F9FFF76CFE102002F0AE
:10133000F7FA2FE7DF29BBDD039A181D12689042E8
:101340003BDB14329A4238DB02235A465B4213607D
:10135000029AE1331360ABE70029A9DA069E082759
:10136000336801333360FFF755FE7823029AFA2081
:101370001360353B2360059B32681B6840009B1857
:101380000322DB07DB1793435A4602331360022321
:10139000049A314E136002F0C3FAFFF72BFE3900B6
:1013A00003230422762000960637FFF7A1F9FFF702
:1013B00029FE802FF1D1029B1968F02900DC77E724
:1013C000059E0827336801333360FFF723FE782337
:1013D000029AFA201360069A353B1268236033683C
:1013E00040009B180322DB07DB1793435A46023366
:1013F00013600223049A136002F092FA164B9A4685
:10140000FFF7F8FD53463900042276200093063793
:101410000323FFF76DF9FFF7F5FD802FF0D147E7C4
:101420007A2B00DC35E702235B4203607D332360C7
:101430002FE7C0463FA300203C2200203822002096
:1014400064220020601C0020682200205C1C002018
:10145000541C0020581C002010840000FFFF0000D6
:10146000402A15DC01333360072B00DDD9E6082361
:10147000039A1360D5E66B2B00DCBAE66B232B6076
:10148000B7E602318A4200DCC3E6023B3360C0E6C5
:10149000452A00DCC5E6013B3360BDE6079E32709D
:1014A00009B0F0BCBB46B246A946A046F0BDC04656
:1014B000F0B583B0FFF79EFD0023F022002100204D
:1014C00000930833FFF714F9FFF79CFD184E08242A
:1014D00033680025002B17DD164F0135F02C11D88D
:1014E000FFF788FD062306220121A01F0097FFF7C2
:1014F000FFF8FFF787FD33689D4205DA08340135B0
:10150000F02CEDD99D42F9DB0B4B1C686400642C78
:1015100000DD6424FFF76EFD084B220002215020FD
:1015200000930423FFF7E4F8FFF76CFD03B0F0BD70
:1015300040220020FF07000060220020E0FF0000A2
:10154000F0B5DE4657464E4645460124E0B5EB4B26
:1015500093B00C201C700E93D02501F0DFFB80238C
:101560002D065B01AB62002201210C2001F0C4FBBF
:101570000D2001F0D3FB80239B01AB6200220121EF
:101580000D2001F0B9FB0E2001F0C8FB8023DB0128
:10159000AB62002201210E2001F0AEFB0F2001F012
:1015A000BDFB80231B02AB62002201210F2001F052
:1015B000A3FB9620400002F0B3F97223D04DD14A2C
:1015C0002B600323136000230F92CF4A1360119204
:1015D000CE4A93460A2259460A60CD4A92460C22C8
:1015E00051460A60CB4ACC4914600B92C822520083
:1015F0000A60CA4A089113600492C94A0021137014
:101600000392C84A13609146C74A13700692C74BAB
:10161000C74A1360079253609360D36013615361AC
:10162000C44B03221800029303F0C6FCFFF7E2FC50
:101630000020FFF735F8FFF7E5FCFFF739FF2C68CE
:10164000E42C0BD8FFF7D6FCBB4B0C227A212000F0
:1016500000930623FFF74CF8FFF7D4FCA8460026BA
:101660005F465546079C2378002B01D000F0B5FE5D
:101670006378002B01D000F090FEA378002B01D0FE
:1016800000F06BFEE378002B01D000F046FE2379DA
:10169000002B01D000F021FE6379002B01D000F077
:1016A000FCFDA379002B01D000F0D7FDE379002BDE
:1016B00001D000F0B2FD0A3608341E2ED3D1069BAD
:1016C000AA461B784546002B00D013E39B4BD3461C
:1016D0000C939B4BCA460D93D8E0002A01D000F032
:1016E000DDFC2E68954B063698461E607523944A9D
:1016F00075241360743B05920B70EE2E01D900F037
:1017000089FDFFF777FC00232100022230000093BF
:101710000533FEF7EDFFFFF775FC059B1C68059B85
:10172000043C1C60072C01DD00F0CDFC0023039A73
:101730001370534652461B68013313601E2B00DDA5
:1017400006E1029B1B78002B00D011E1029B5B7825
:10175000002B42D07B4E7C4C736899466368984658
:101760004B46EE2B10D84346822B0DD8FFF742FC98
:10177000002341460222484600930533FEF7B8FF96
:10178000FFF740FC63689846022398444346636031
:10179000872B01DD00F028FD74682E68A64201DD6C
:1017A00000F0F1FC33000C33A34201DA00F0EBFC53
:1017B0004346792B01DD00F0BBFEEE2C0DD8002B4B
:1017C0000BDBFFF717FC614B022241462000009320
:1017D0000523FEF78DFFFFF715FC029B9B78002B7E
:1017E00042D0584E584CB3689946A36898464B4629
:1017F000EE2B10D84346822B0DD8FFF7FBFB0023BE
:1018000041460222484600930533FEF771FFFFF779
:10181000F9FBA3689846022398444346A360872BAC
:1018200001DD00F0DCFCB4682E68B44201DA00F09F
:101830009FFC33000C339C4201DD00F099FC4346D1
:10184000792B01DD00F040FEEE2C0DD8002B0BDBD8
:10185000FFF7D0FB3D4B02224146200000930523B9
:10186000FEF746FFFFF7CEFB049A136801331360BF
:10187000089A1B011268934200DDC5E1102002F0B6
:101880004FF8069B1B78002B00D033E2D024802633
:10189000240663683602334209D180225201904601
:1018A000414663681A400B4201D100F081FCD0230D
:1018B0001B065A68802316005B011E401A4200D1A5
:1018C00055E1D0231B065A68802316009B011E4059
:1018D0001A4200D178E1D0231B0603995B680A788D
:1018E0005B0400D4F9E6002A00D122E7134B9846A6
:1018F0001E68134B1C680593D6E3C0463FA3002027
:10190000442200204022002060220020341C0020BD
:10191000381C0020281C00202C1C0020301C00201B
:1019200039A30020EC1D00203AA300200101010191
:101930003C1C0020E81D0020FF070000641D002063
:10194000681D0020F01D0020FC1D0020E0FF0000AD
:1019500000225046029902600B78002B4DD04B7844
:10196000002B01D100F04EFE8B780226002B45D0D3
:10197000A14EA24C33689946236898464B46EE2BFD
:1019800010D84346822B0DD8FFF734FB0023414685
:101990000222484600930533FEF7AAFEFFF732FB0A
:1019A000236898460223984443462360872B01DD31
:1019B00000F010FC34682E68A64201DD00F0EEFB5A
:1019C00033000C33A34200DAE8E34346792B01DD10
:1019D00000F0E4FDEE2C00D9B8E6002B00DAB5E605
:1019E000FFF708FB864B02224146200000930523A7
:1019F000FEF77EFEFFF706FBA8E600260721049B04
:101A0000079C1A68B318D817400F1B180B401B1AF5
:101A1000E018047C002C01D000F0F7FD007A0028CB
:101A200001D000F007FE079CE05C002800D09BE09E
:101A3000531C9B19D817400F1B180B401B1AE0189A
:101A4000047C002C01D000F0E0FD007A002801D0D9
:101A500000F0F0FD079CE05C002800D084E0931CBF
:101A60009B19D817400F1B180B401B1AE018047C59
:101A7000002C01D000F0C9FD007A002801D000F050
:101A8000D9FD079CE05C00286ED1D01C8019C317DB
:101A90005B0FC0180140CB1AE118097C002901D066
:101AA00000F0B3FDE118097A002901D000F0C2FD71
:101AB000E15C002958D1131D9B19D817400F1B1842
:101AC00007310B401B1AE018047C002C01D000F0F9
:101AD0009CFD007A002801D000F0ACFD079CE05C82
:101AE000002841D1531D9B19D817400F1B180B40DC
:101AF0001B1AE018047C002C01D000F086FD007A4F
:101B0000002801D000F096FD079CE05C00282BD156
:101B1000901D8019C3175B0FC0180140CB1AE11844
:101B2000087C002801D000F070FD097A002901D05E
:101B300000F080FDE15C002916D1072307329219DD
:101B4000D117490F521813405B1AE218117C002973
:101B500001D000F05AFD127A002A01D000F06AFD8F
:101B6000E25C002A00D1ECE5002200F04FFD2C6879
:101B7000E42C0BD8FFF73EFA200006230C227A2132
:101B80000096FEF7B5FDFFF73DFA2C68033C2C608C
:101B9000002C00DA2DE3E42C00DC2DE3D0231B061F
:101BA0005B689B0400D596E6E423E4242B60FFF7F2
:101BB00021FA144B0C227A21200000930623FEF711
:101BC00097FDFFF71FFA86E62C68E42C0BD8FFF789
:101BD00011FA200006230C227A210096FEF788FDD8
:101BE000FFF710FA2C6803342C60E42CDCDC002CAA
:101BF00000DA70E6DBE7C046F01D0020FC1D002087
:101C0000E0FF0000FF0700000023049AB9461360BC
:101C10003B68059500261D005F46079C2378002B36
:101C200000D022E26378002B00D001E2A378002BE1
:101C300000D0E0E1E378002B00D0BFE12379002B56
:101C400000D09EE16379002B00D07DE1A379002BC9
:101C500000D05CE1E379002B00D03BE10A36083488
:101C60001E2EDBD1A846BB464F460B99059D0A6840
:101C700053009B1843443B60053B762B0BD95B46D6
:101C800052420A605A461B68043313605C2B02DD23
:101C90000123069A1370A84600265D46079C237808
:101CA000002B00D0FCE06378002B00D0DBE0A378B1
:101CB000002B00D0BAE0E378002B00D099E0237924
:101CC000002B00D078E06379002B5AD1A379002B48
:101CD0003CD1E379002B1ED10A3608341E2EDED10A
:101CE000102001F01DFE069BAB461B784546002BDD
:101CF00000D1CBE5FFF77EF90020FEF7D1FCFFF71E
:101D000081F900230E9A137013B0F0BCBB46B246A3
:101D1000A946A046F0BD622291463B6899444B46D5
:101D2000E62BD9D82B689B46B3445B46802BD3D88F
:101D3000FFF760F9FC23DB000A225946484600936E
:101D40000723FEF7D5FCFFF75DF9C5E7542291465E
:101D50003B6899444B46E62BBBD82B689B46B34463
:101D60005B46802BB5D8FFF745F9FC23DB000A2240
:101D70005946484600930723FEF7BAFCFFF742F99D
:101D8000A7E7462291463B6899444B46E62B9DD8EF
:101D90002B689B46B3445B46802B97D8FFF72AF904
:101DA000FC23DB000A225946484600930723FEF72E
:101DB0009FFCFFF727F989E7382291463B68994451
:101DC0004B46E62B00D97EE72B689B46B3445B4627
:101DD000802B00D977E7FFF70DF9FC23DB000A22FF
:101DE0005946484600930723FEF782FCFFF70AF99D
:101DF00069E72A2291463B6899444B46E62B00D975
:101E00005DE72B689B46B3445B46802B00D956E7C1
:101E1000FFF7F0F8FC23DB000A22594648460093FE
:101E20000723FEF765FCFFF7EDF848E71C22914613
:101E30003B6899444B46E62B00D93CE72B689B4610
:101E4000B3445B46802B00D935E7FFF7D3F8FC237A
:101E5000DB000A225946484600930723FEF748FC58
:101E6000FFF7D0F827E70E2291463B6899444B468E
:101E7000E62B00D91BE72B689B46B3445B46802BBF
:101E800000D914E7FFF7B6F8FC23DB000A22594615
:101E9000484600930723FEF72BFCFFF7B3F806E74D
:101EA0003B689B46E62B00D9FDE62B689946B1447A
:101EB0004B46802B00D9F6E6FFF79CF8FC23DB00AD
:101EC0000A224946584600930723FEF711FCFFF704
:101ED00099F8E8E662239B46AB445B46E62B00D9C3
:101EE000BCE63B689846B0444346802B00D9B5E633
:101EF000FFF780F800230A22414658460093073333
:101F0000FEF7F6FBFFF77EF84B461D68A6E6542366
:101F10009B46AB445B46E62B00D99BE63B68984664
:101F2000B0444346802B00D994E6FFF763F80023C2
:101F30000A224146584600930733FEF7D9FBFFF7C4
:101F400061F84B461D6885E646239B46AB445B46DD
:101F5000E62B00D97AE63B689846B0444346802B8E
:101F600000D973E6FFF746F800230A224146584697
:101F700000930733FEF7BCFBFFF744F84B461D68A0
:101F800064E638239B46AB445B46E62B00D959E612
:101F90003B689846B0444346802B00D952E6FFF791
:101FA00029F800230A224146584600930733FEF7DA
:101FB0009FFBFFF727F84B461D6843E62A239B4605
:101FC000AB445B46E62B00D938E63B689846B04404
:101FD0004346802B00D931E6FFF70CF800230A2294
:101FE0004146584600930733FEF782FBFFF70AF895
:101FF0004B461D6822E61C239B46AB445B46E62B02
:1020000000D917E63B689846B0444346802B00D978
:1020100010E6FEF7EFFF00230A22414658460093E0
:102020000733FEF765FBFEF7EDFF4B461D6801E643
:102030000E239B46AB445B46E62B00D9F6E53B6896
:102040009846B0444346802B00D9EFE5FEF7D2FF17
:1020500000230A224146584600930733FEF748FB07
:10206000FEF7D0FF4B461D68E0E5E62D00D9D9E527
:102070003B689846B0444346802B00D9D2E5FEF732
:10208000B9FF002328000A22414600930733FEF7D8
:102090002FFBFEF7B7FF4B461D68C3E50C9B984628
:1020A0001E680D9B1C680593EE2E01D9FFF737FBC8
:1020B000822C01D8FFF725FB059B043C1C60072CF4
:1020C00001DCFFF733FB079E00230A96D1463E0052
:1020D000099310950024B2460A9D2B78002B16D048
:1020E00053461F6843461B68E719BB420FDB3A00A3
:1020F0000A3293420BDC5B461E68099BF618059B6F
:102100001B68B34203DBF21D934200DC82E10E3414
:102110000135702CE1D1099B0A9A0A3308325646E0
:1021200009930A921E2BD5D1039B37001B78CA4610
:10213000109D002B01D1FFF7FCFA43461C68EE2CE2
:1021400001D9FFF7F6FA059B1E68822E01D9FFF729
:10215000F0FAFEF74FFFF8231B02022231002000A5
:1021600000930523FEF7C4FAFEF74CFFFFF7E1FAF0
:10217000EE2C01D9FFF778FB4346822B01D8FFF7FD
:1021800067FBFFF771FBEE2C01D9FFF726FB4346F7
:10219000822B01D8FFF715FBFFF71FFBEE2C01D9AF
:1021A000FFF7D4FA4346822B00D819E4FFF7CEFAA2
:1021B00096200E9B40001A7001F0B2FB6368334218
:1021C00001D0FFF774FB42466368134201D0FFF76A
:1021D0006EFB99E50023029A1370FFF7B7FA00230C
:1021E000029A9370FFF740FB0023029A5370FFF7A7
:1021F000F4FA002300242B60FEF7FCFEE64B0C22D1
:102200007A21200000930623FEF772FAFEF7FAFE09
:10221000FFF757FB7033136055E7622292463B6825
:102220009A445346E62B01D9FFF745FA2B689B46A3
:10223000B3445B46802B01D9FFF73DFAFEF7DAFE87
:10224000FC23DB000A225946504600930723FEF781
:102250004FFAFEF7D7FEFFF72EFA542292463B685C
:102260009A445346E62B01D9FFF720FA2B689B4688
:10227000B3445B46802B01D9FFF718FAFEF7BAFE8C
:10228000FC23DB000A225946504600930723FEF741
:102290002FFAFEF7B7FEFFF709FA462292463B688F
:1022A0009A445346E62B01D9FFF7FBF92B689B466E
:1022B000B3445B46802B01D9FFF7F3F9FEF79AFE92
:1022C000FC23DB000A225946504600930723FEF701
:1022D0000FFAFEF797FEFFF7E4F9382292463B68C3
:1022E0009A445346E62B01D9FFF7D6F92B689B4653
:1022F000B3445B46802B01D9FFF7CEF9FEF77AFE97
:10230000FC23DB000A225946504600930723FEF7C0
:10231000EFF9FEF777FEFFF7BFF92A2292463B68F6
:102320009A445346E62B01D9FFF7B1F92B689B4637
:10233000B3445B46802B01D9FFF7A9F9FEF75AFE9B
:10234000FC23DB000A225946504600930723FEF780
:10235000CFF9FEF757FEFFF79AF91C2292463B6829
:102360009A445346E62B01D9FFF78CF92B689B461C
:10237000B3445B46802B01D9FFF784F9FEF73AFEA0
:10238000FC23DB000A225946504600930723FEF740
:10239000AFF9FEF737FEFFF775F90E2292463B685C
:1023A0009A445346E62B01D9FFF767F92B689B4601
:1023B000B3445B46802B01D9FFF75FF9FEF71AFEA5
:1023C000FC23DB000A225946504600930723FEF700
:1023D0008FF9FEF717FEFFF750F93B689B46E62B97
:1023E00001D9FFF745F92B689A46B2445346802B32
:1023F00001D9FFF73DF9FEF7FDFDFC23DB000A22C2
:102400005146584600930723FEF772F9FEF7FAFD8E
:10241000FFF72EF9E62F0DD8802E0BD8FEF7EAFD38
:1024200000230A223100380000930733FEF760F9D9
:10243000FEF7E8FD0023039A2B701370119A1368BE
:1024400001331360FFF734F807994A780B789B182B
:102450008A789B18CA789B180A799B184A799B1826
:102460008A799B18CA799B180A7A9B184A7A9B1812
:102470008A7A9B18CA7A9B180A7B9B184A7B9B18FE
:102480008A7B9B18CA7B9B180A7C9B184A7C9B18EA
:102490008A7C9B18CA7C9B180A7D9B184A7D9B18D6
:1024A0008A7D9B18CA7D08999B185A07D21A9200F8
:1024B000D21A52009132FF320A60002B00D026E679
:1024C000069A0133137022E60024029B9C70E42ECE
:1024D0000AD8FEF78FFD06230C227A2130000094E3
:1024E000FEF706F9FEF78EFD0F9A1368013B1360A5
:1024F000FEF7DEFFFA20400001F012FA2C68E42C0F
:102500000BD8FEF777FD244B0C227A212000009394
:102510000623FEF7EDF8FEF775FD0F9B1B68002BF9
:1025200001DDFFF7A1F90123069A1370FFF79CF96B
:102530000024029B5C70E42E0AD8FEF75BFD0623A4
:102540000C227A2130000094FEF7D2F8FEF75AFDF3
:102550000F9A1368013B1360FEF7AAFFFA204000B0
:1025600001F0DEF92C68E42C0BD8FEF743FD0A4B92
:102570000C227A21200000930623FEF7B9F8FEF71B
:1025800041FD0F9B1B68002B01DDFFF726F901239E
:10259000069A1370FFF721F9FF0700000024029B41
:1025A0001C70E42E0AD8FEF725FD06230C227A21A2
:1025B00030000094FEF79CF8FEF724FD0F9A136894
:1025C000013B1360FEF774FFFA20400001F0A8F908
:1025D0002C68E42C0BD8FEF70DFD174B0C227A214A
:1025E000200000930623FEF783F8FEF70BFD0F9BF8
:1025F0001B68002B01DDFFF7A9F80123069A137071
:10260000FFF7A4F80126FFF7F9F91422DC00E31A1A
:102610003C685B0009481B19B10005330B50584654
:102620000068074B12180732CA500123029A9355CB
:10263000FFF787F80A22E9E7FF070000F01D0020F6
:10264000FC1D0020F0B5CE4647460025022680B589
:102650002C4C83B08146FEF7CDFC0020FEF720F81D
:10266000FEF7D0FCFEF7C6FC0C23F0220021002070
:102670000094FEF73DF8FEF7C5FC0094002300220D
:1026800001212148FEF75EF8204C2378002B15D05D
:10269000A94524D01E4B002798462000320043460F
:1026A000012140380097FEF74DF8200032004346E4
:1026B0000A2100973038FEF745F8013601354134DC
:1026C000082DE2D100230C220093002111480D4B6C
:1026D000FEF738F803B0C0BCB946B046F0BDFC27E1
:1026E000FEF788FCB1008919FF000A23F0220020C0
:1026F00049000097FDF7FCFFFEF784FC0023984695
:10270000CBE7C046E0FF0000489A001070100020A0
:10271000FFFF00005C9A0010F0B5DE464E465746BB
:1027200045460123E0B5CC4E8FB00C203370D02449
:1027300000F0F4FA802324065B0100220121A36249
:102740000C2000F0D9FA0D2000F0E8FA80239B015C
:1027500000220121A3620D2000F0CEFA0E2000F02D
:10276000DDFA8023DB0100220121A3620E2000F0AC
:10277000C3FA0F2000F0D2FA80231B0200220121AD
:10278000A3620F20994600F0B7FA9620400001F0AE
:10279000C7F80023B14F00203B60FFF753FF4A46C4
:1027A0006368134200D1E4E0AD4B05961E0007E0DC
:1027B000322001F0B5F84A466368134200D1D7E0F1
:1027C0006368DB040AD4386801383860002800DA0E
:1027D00007E1FFF737FFC82001F0A2F86168802306
:1027E0000A009B011A40194200D1CEE063685B04E5
:1027F000DED4C82001F094F83B689A01D3181D007C
:102800000293974B20359A465544280006F01CFF4A
:10281000002800D11DE1431E042B00D800E1AB07C6
:1028200000D0FDE006AB9846190083089B005A19BA
:102830009346039504951D005B46AB46894A944632
:10284000039A0390604620CA454020C19342F9D1C3
:102850005B460398049D039358451DD00322010055
:1028600091435A2293460B006A5C59464A404146BE
:10287000CA54039B5A1C90420EDD5946AB5C4B4038
:10288000190043469954039B0233984204DD59468C
:10289000EA5C4A404146CA54002540440570FEF7B0
:1028A000A9FB0020FDF7FCFEFEF7ACFB029800221E
:1028B00000216D4B50440095FDF744FFFC2302229C
:1028C00000216A48DB000095FDF73CFF02980222D8
:1028D00010300521664B50440095FDF733FFF82377
:1028E0000422002163481B020095FDF72BFF042200
:1028F000052140465E4B0095FDF724FF0C225A4B04
:1029000000215D480095FDF71DFF4A4663681342AC
:1029100063D08025ED0106E0322001F001F84A463F
:102920006368134259D063681A002A402B42F3D1DE
:102930009246C82000F0F4FF4146504804F06CF97C
:1029400053460093FC234E4806220521DB00FDF789
:10295000F9FEFA20800000F0E3FF3868FFF772FE0E
:10296000322000F0DDFF4A466368134200D027E7BB
:10297000059EC82000F0D4FF002333700FB0F0BCD8
:10298000BB46B246A946A046F0BD81234021386827
:1029900001303860715CF35C5B18C221715C5B18BC
:1029A0000421FF31715C5B18A2214900715C5B1846
:1029B0008621FF31715C5B18E3214900715C5B1873
:1029C0003049715C5B18984201DB00203A60FFF7E8
:1029D00039FEC82000F0A4FF08E7C82000F0A0FFDF
:1029E000BBE781221E4B985C413A9A5C8018C22258
:1029F0009A5C80180422FF329A5C8018A22252004E
:102A00009A5C80188622FF329A5C8018E32252007A
:102A10009A5C80181B4A9B5CC01801383860D8E665
:102A2000072204A9521894466A1E90460200451CCB
:102A3000012340465A21B34690466646C25C4A404E
:102A4000F25401339D42F8D106AB40465E469846AB
:102A500022E706AB98461FE73FA300206C22002028
:102A6000301000205A5A5A5AE0FF0000789A00109D
:102A7000FFFF0000809A0010889A00109C9A0010B6
:102A8000A09A001007020000F0B5DE464E4645460B
:102A90005746E0B5D02680250123804C91B00F2009
:102AA00036062D02237000F039F9002201210F2093
:102AB000B56200F021F99620400000F031FF01F0EE
:102AC0003FF873682B4200D1D9E0FA22002392002C
:102AD00001F020FC724B049005919946714B0CADAE
:102AE0009846714B07940393704B06934346C84630
:102AF000994601F025F8FA220023920001F00AFC21
:102B0000049B059CFA22C01AA1419200002301F007
:102B100001FC0023664AFF26801859411E2200232B
:102B200001F0F8FB934632001924624B0240D218A0
:102B3000E241C2230F065A40030AFB1833409B1898
:102B4000E622E34152000F045A40030CFB183340C5
:102B50009A18E623E2419B005340000E0A02101827
:102B60003040C018C222E0413300D20042400B4046
:102B70009B18DC22E341120153400A0A3240D2186A
:102B8000D223E2415B01090C53405B18C826E341A4
:102B9000B6015A465E401E23474F9B1A9A46FEF7DF
:102BA00029FA0020FDF77CFDFEF72CFAFEF722FA49
:102BB0000C23F022002100200097FDF799FDFEF77D
:102BC00021FA00230022042140460097FDF7BAFDB8
:102BD00030003A49E04101F05FFB4A460B0008A88B
:102BE000102103F091FD002608AF163C3B78210030
:102BF0002B70FC236E70042228000096DB00043446
:102C0000FDF7A0FD01371B2CF0D1FEF7F3F92C4B9B
:102C1000F02200935A2108230020FDF769FD534656
:102C2000DA005B46143B0A2B35D9FC23DB00002479
:102C30005A21002000930823FDF75AFDFEF7E2F920
:102C400053461021039A280003F05EFD0B22002159
:102C500028001C4B0094FDF775FD174B0C2210212A
:102C600006980094FDF76EFDFA20400000F058FE33
:102C7000D0231B065B681B0400D53AE7079CC820DD
:102C800000F04EFE0023237011B0F0BCBB46B246EC
:102C9000A946A046F0BDF8231B02C8E73FA30020C9
:102CA000B09A0010BC9A0010C49A0010D49A001078
:102CB00000F15365095A5A5AE0FF000040420F00E4
:102CC00082100000FFFF000010B54024074A830077
:102CD0009A181268C0005440C0222240044C1B19AC
:102CE0001A60044BC018416010BDC04604C00140CA
:102CF00004D0014000400140064B8000C3181B680F
:102D0000C90092000A435A400C231340024A80181B
:102D10000360704704C0014004D001400123D02269
:102D20008340120693629361084A83009A181168DF
:102D30004022514080320A400549C0005B181A60A9
:102D4000044BC018052343607047C04604C00140CF
:102D500004D00140004001408023DB051868000FCB
:102D60007047C0460FB400B5084883B003F0D2FEE8
:102D7000049B002B07D005A91800019103F0E8FC83
:102D8000034803F0C7FE012003F0FAFCE09A0010AC
:102D9000E097001070B58C461600EFF3108472B601
:102DA0000F490B68002BFCD0BFF35F8F6346DB0835
:102DB000C5180722C05C63461A40012393401A00DD
:102DC0000240034207D118432870BFF35F8F0A60A7
:102DD00084F3108870BD61463000FFF7C3FFC04622
:102DE0002C0100D0F8B5CE4647468C4680B51C0075
:102DF000EFF3108872B61C490B68002BFCD0BFF3B0
:102E00005F8FA24221D80723994602E00132944203
:102E100018D34946012611408E40D308C718C35C19
:102E20001E42F3D1100033433B70BFF35F8F00228B
:102E30000D4B1A6088F3108800280EDBC0BCB94621
:102E4000B046F8BD01204042EFE7BFF35F8F00239B
:102E50000B6088F31088012040426346002BEDD0C0
:102E60000898FFF77FFFC0462C0100D0044A107875
:102E7000431CDBB2172B00D9102313707047C046D8
:102E80003812002000B5054B83B0010000931822D2
:102E90001F230348FFF7A6FF03B000BDF09A001000
:102EA000741D00200021044B044ABFF35F8F02C34E
:102EB0009342FAD17047C046000100D0800100D093
:102EC000084B094A1360094A1360094A1360094A0A
:102ED0001360094A1360094A1360094A1360094ADA
:102EE000136070478080808000E400E004E400E02C
:102EF00008E400E00CE400E010E400E014E400E08A
:102F000018E400E01CE400E01F2318401E3B83404F
:102F1000002905D0C021044A49005350136070476E
:102F2000802201498B50FAE700E100E00122824053
:102F3000034B1B6813405A1E9341D8B27047C046DA
:102F400000E100E001238340014A13607047C0465E
:102F500000E200E0054B10309B688000C358044A33
:102F600000209B1A2F229A424041704700ED00E05A
:102F70003C12002070B50D00EFF3108672B60F4AB8
:102F80001368002BFCD0BFF35F8F0D4B10309B6894
:102F900084001B590B4A934203D09D4201D001F09B
:102FA00013F8074B9B681D51BFF35F8FBFF35F8F13
:102FB0000022024B1A6086F3108870BD240100D0F5
:102FC00000ED00E0C1010010F0B5DE4657464E4668
:102FD0004546E0B5824683B08B461700EFF3108874
:102FE00072B6604A1368002BFCD0BFF35F8F0025D8
:102FF0005D4B5D579946002D00DA9AE04A466B001A
:103000005A4C5E19B6000193A31900939B79137073
:10301000574B9A68534610339B00D15899460B1B67
:103020002F2B32D9534B994200D098E0019B0236A6
:10303000ED18514BAD006353504BA619043B9B1B3D
:103040004F4A1B055B0D651913436B804D4B0121E6
:10305000AB80FF23AB715B46AB60009BEF710B4312
:1030600019004A46424B9B689950BFF35F8FBFF3EC
:103070005F8F00223B4B1A6088F3108803B0F0BCCE
:10308000BB46B246A946A046F0BD01200A008243D5
:10309000D379B446BB422DD83B4BB51C1900130065
:1030A0001B1B5B415943090D8C46334B6519A353D8
:1030B000324B0099043B5B1B1B05314D5B0D2B43D1
:1030C00004364B80A619131F9B1B1B055B0D1D436C
:1030D00063468B715B468B602C4B8D80CF71136088
:1030E0000143BEE75800C01880002018C679BE42D0
:1030F00025D902000623D356002BF3DA9A46131D76
:103100009C4623486346009E9571043EF61A360598
:103110001B4B760D1E43019B96805A195346920015
:10312000A418A3715B46194AA0802260E771A360CE
:1031300097E700F049FF00254B465D575EE766467E
:103140009A46131D9C469088043640050015A61922
:103150006044801B00050A4E400D3043D2E700F06A
:1031600033FF63E7240100D03BA300203C12002082
:1031700000ED00E0C101001000A1FFFF6C12002073
:1031800000E0FFFF01BDFFFFAAAA00000148804741
:1031900001BD00000123034370B59C46EFF3058198
:1031A000EFF3108572B6214A1368002BFCD0BFF3F1
:1031B0005F8F1F4B04001F4AE41A64416243120DE3
:1031C0001D4C8900A66852B2765866451CD006216F
:1031D000595691421CD012215956914222D01E219B
:1031E0005956914220D02A2159560324914210D099
:1031F000124B19781A708171BFF35F8F00220B4B4D
:103200001A6085F3108870BDA3680D4C5C50EFE721
:1032100000246100091989005B18FF21997109498F
:103220009980E5E70124F4E70224F2E7240100D0C5
:103230003C120020AAAA000000ED00E03BA3002001
:10324000C101001001BDFFFF00B5074B83B00100B5
:103250000093002205230548FFF7C4FD002801DB89
:103260001F23181A03B000BD0C9B001041A30020BF
:10327000024BC918890001607047C0464000003405
:1032800070B5114C114DAC420FD2FF262368002BB4
:103290000CD0FFF7EBFD01002000FFF7E9FFA6804F
:1032A000BFF35F8F0834AC42F0D370BDFFF7DEFD93
:1032B00001002000FFF7DCFF2671BFF35F8F0834A9
:1032C000AC42E3D3F1E7C046F81200200813002017
:1032D00010B50400FFF7CAFD01002000FFF7C8FF8A
:1032E000FF232371BFF35F8F10BDC04610B50400EC
:1032F0000120FFF7C7FD034BC01880002060BFF31B
:103300005F8F10BD40000034034BC9188900016075
:10331000BFF35F8F7047C046400000340A4B196806
:10332000EFF3108072B60A68002AFCD0BFF35F8FFB
:103330001B68BFF35F8F00221A6080F3108840BFC4
:10334000002000217047C04674220020F0B5DE4600
:1033500057464E464546E0B585B0EFF30583032258
:103360001A40B34B91005F58012393409B46029251
:103370005A468846AF4B1A60AF4B03935B46AF4843
:1033800043630823FE5E002E37DABB881BB2002B96
:1033900000DBA4E0BB79002B00D0E5E00823F95E58
:1033A000002920DB4B007A695B18DB00D3189D688D
:1033B000DC686B1C00D104E1A04801004144826A32
:1033C0000B69AE1A9B1A9E4215D30123026A02981A
:1033D00083401A420FD0994800F0AAFB8C4202DCCD
:1033E000CCD18542CAD940BF05B0F0BCBB46B2467D
:1033F000A946A046F0BD0D61EDE77A6973009146DC
:103400009B19DB0099444B469C68DD6800F090FBFB
:103410008D42BADC00D1F6E0002D00DADBE04A464E
:103420004B4652691B699246039A934200D1CCE005
:103430004A460821785E5288000451461043984756
:10344000009001910099019A0B00134300D1C2E052
:1034500013000A00002B00DBD9E020002900801AAD
:1034600099414B469860D96000229B5E002B00DAA0
:103470008BE75D007C69EA18D200A218009494687A
:10348000D268A2468A4200DD7FE702D1844200D999
:103490007BE70824A4463B81BC44009C00972F0096
:1034A0006546B4463E0006E05E00F218D200A2185F
:1034B0009768D268BA468A4207DC00D1B4E0F318B4
:1034C000DB00E518E35E002BEEDA66464A46009F15
:1034D00013802E80BB881BB2002B00DA5AE73A69B2
:1034E000EFF3108172B61368002BFCD0BFF35F8F2F
:1034F0000123BE885B42BB8036B23B69BFF35F8F5E
:1035000000221A6081F31088002E00DA42E73B00A7
:1035100008333A0099467D6973009B190824115FAE
:10352000DB004846EB18002913DB9C680093A44697
:10353000DC6806E0A34240D00023F95E3800002991
:1035400006DB4F007F18FF00EF19FB68A342F1DD97
:10355000009B068000201E5E1980002EDCDA17001A
:10356000BB79002B00D119E70023BB710823F95E5A
:103570004B1C00D137E73D000835AC467C6903E0C1
:1035800084464B1C00D109E74B005B18DB00E018B8
:103590000A00E15E43881BB2002BF1DA01256D427F
:1035A000EE178560C66008257B5F9342E9D06346CD
:1035B00019803B8903803A81E3E7BB686345BBD947
:1035C000C6E7631C00D0F7E605E7534650461B6983
:1035D0009847002823D14B461B883A693B81EFF37B
:1035E000108372B611680029FCD0BFF35F8F494683
:1035F0007A880A803A697E80BFF35F8F002111606C
:1036000083F31088C1E6844200D805E7BDE60B4885
:1036100000F08EFA009B019CC018614121E75346DF
:103620000CCB009201930DE7824500D847E74CE7A9
:10363000482200203C7005404D33001000400540FA
:1036400070B52D4C2569002D04D00A212B48FFF7B9
:103650000FFE70BD2A4E0321294800F05FFAE66094
:10366000FFF704FC274B0322C018D02322701B064F
:103670001B6801216370244B8000A3600F2320612D
:103680000220638063694942A18019800231198652
:1036900047311D83585218315A5275325C3999524C
:1036A00018320131995218320131995218320131D0
:1036B0009952083518329D520231183299521832F7
:1036C000013199521832013199521832013199520F
:1036D0001832013199521832013199520B4B0C4971
:1036E000DC6001303562FFF745FC01210320FFF764
:1036F0000BFC084B1D60A8E78412002074220020F8
:103700000040054040000034FFFF10004822002028
:103710004D33001038600540004870478412002087
:10372000F8B51F0008AB1B7804001600002B07D16A
:1037300000F006FA32003B00121A8B41002B51DBDD
:103740002269EFF3108C72B61368002BFCD0BFF324
:103750005F8F0223E15E256900293ADB4B00606937
:103760005B18DB00C218C35A6380BFF35F8F00236E
:103770002B608CF31088069B9660D7601361079BC3
:103780005361538801335B045B0C181C002B1ED063
:1037900083B25080080418432569EFF3108672B68F
:1037A0002B68002BFCD0BFF35F8FA3881380A18010
:1037B0002369BFF35F8F00221A6086F31088237895
:1037C00001329A400849E3685B181A60F8BD01208D
:1037D000DEE7BFF35F8F00232B608CF3108801209E
:1037E0004042F3E70020F1E73C20000070B582B0D2
:1037F0000092019301000269EFF3108472B613681E
:10380000002BFCD0BFF35F8F0223C85E0D69002838
:103810003FDB4A69430016001B18DB00D218F35A3D
:103820004B80BFF35F8F00232B6084F31088069BCF
:103830001361079B5361009B019C9360D460538884
:1038400001335B045B0C1D1C002B20D0ACB20304C5
:10385000558023430D69EFF3108C72B62C68002C51
:10386000FCD0BFF35F8F8C88148088800A69BFF317
:103870005F8F002010608CF310880A780130904030
:10388000CA68084952181060180002B070BD0125BE
:10389000DCE7BFF35F8F00232B6084F31088013BCC
:1038A000F2E7C0463C20000010B543890A14934259
:1038B0001ADD53009B184269DB00D3180469EFF34B
:1038C000108C72B62268002AFCD0BFF35F8F5A8832
:1038D000090494B2090C8A4208D00369BFF35F8FD0
:1038E00000221A608CF31088002010BD094A224380
:1038F0005A80012302698371BFF35F8F0021116039
:103900008CF31088027804499340C2680120521851
:103910001360EAE70080FFFF3C200000407870471A
:10392000F0B5C64600B582B0040000F009F9FA22ED
:1039300006000F00200000230021920001F0D0FAC1
:103940008019794104000D1E02DA01242E4D6442D3
:1039500006267642F71736196F41AF4214D811D0B8
:1039600000F0EEF832003B00121A8B41002B15DC00
:10397000002B46D02000290000F022F902B080BCC4
:10398000B846F0BDA642EBD90026002700F0D8F8D3
:1039900032003B00121A8B41002BE9DD00F0D0F819
:1039A00032003B00121A8B41002B0ADB00230193EB
:1039B000164B3200009316483B00FFF717FF01300B
:1039C000D8D000233900B0469C46124A1248536AA8
:1039D000994204D8966A4645CCD29942CAD1066823
:1039E000EFF3108772B63368002BFCD0BFF35F8F04
:1039F0000368BFF35F8F66461E6087F3108820BFA1
:103A0000E5E7002AB6D0C9E7FFFFFF7F1D330010AE
:103A1000841200200040054074220020F0B5CE46FC
:103A2000474680B504000D0085B0EFF30586894652
:103A3000002E10D0364900204B6AAB4206D38A6A6A
:103A40005B1B591E8B41A2424041184305B0C0BCCC
:103A5000B946B046F0BD2F4FFB683A78984618003B
:103A6000039200F065F8039A131D42469B009B5891
:103A700022001B1A9C462B00121A8B419E4210DC1E
:103A80000DD020BF224A0020536A4B45DED3926AF4
:103A90005B1B591E8B41A24240411843D6E7944517
:103AA000EFD900F04DF822002B00121A8B41002BA9
:103AB0001BDB00230193184B2200009338002B00DE
:103AC000FFF794FE002810DD114B5A6A4A451CD3BB
:103AD0009B6AA34217D301003800FFF7E5FE0C4AAA
:103AE0000020536A4B45B1D3D1E7094A0020536AFD
:103AF0004B45ABD30020926A5B1BA24240415A1E49
:103B000093411843A2E74A45E5D120BFE3E7C04609
:103B100000400540841200201D33001010B5024AF9
:103B20000248FFF737F910BD289B0010781D0020D0
:103B30000300416A0A00986A596A8A42FAD17047BA
:103B4000034B596A0A00986A596A9142FAD1704740
:103B50000040054070B505000E00184A536A190070
:103B6000946A536A8B42FAD1200019002C00350068
:103B700024184D41AB4216D813D0104B2A005B6A73
:103B80009D4203D90D494B6A9342FCD3934207D11E
:103B90000A4A02E0516A994202D1916AA142F9D3DC
:103BA00070BDA042E9D9054B5B6A1C005A1CEFD0DE
:103BB000012201246442E5175242E3E70040054038
:103BC000064A536A9942FCD807D1044B02E05A6A6C
:103BD000914202D19A6A9042F9D87047004005405C
:103BE000F8B5DE464E4645465746E0B505008B46DD
:103BF00018000A99914600F04FFB0A9B6C001E02C8
:103C00006419304BA400E418636880469E4200D9D2
:103C100066602F1FFBB29A46012B2FD9C02380224A
:103C2000294FAD009B0179591201E3181A60002950
:103C30001BD14B4622685B015340E0221340802297
:103C40005201A21813605346012B2FD980238022E2
:103C50009B01E31812011A60434666607B51F0BC79
:103C6000BB46B246A946A046F8BD786900F014FBF1
:103C7000013043001B18033BFDD2DAE75B46012B02
:103C8000CCD1C02303229B01E3181A60023AA36837
:103C90001A42FCD04A46236852015A40E02313409E
:103CA00080225201A218084F1360AD00584603232A
:103CB000216841400B40136001228240A3681A42F0
:103CC000FCD0C3E7008000407C1D0020F0B5D64644
:103CD0004F464646440098462418324BA400E41848
:103CE00063688A469146C0B5FF2B02D880235B00EB
:103CF0006360061FF6B2012E2FD9C02380222A4FFF
:103D000085009B0179591201E3181A6000291BD123
:103D10004B4622685B015340E0221340802252014F
:103D2000A2181360012E30D9802380229B01E31852
:103D300012011A6080235B00636043467B51E0BC44
:103D4000BA46B146A846F0BD786900F0A5FA013040
:103D500043001B18033BFDD2DAE75346012BCCD1BD
:103D6000C02303229B01E3181A60023AA3681A4297
:103D7000FCD04A46236852015A40E0231340802277
:103D80005201A218084F1360850050460323216892
:103D900041400B40136001228240A3681A42FCD0CC
:103DA000C2E7C046008000407C1D0020014B80001F
:103DB000C05870477C1D0020F0B5C646040000B511
:103DC0002348160098460D0000F066FA0100300006
:103DD00000F062FA4346069A1B04120313439C4602
:103DE00023680600002B22DB1A4B1B48E218531EE7
:103DF0009A4180235242120B9B011203D218174B97
:103E00001A60174B1A60130001688B43FBD1212203
:103E1000144B2560E318A6601A602268002AFCDAB9
:103E20006246E26008221A6080BCB846F0BD3F23BB
:103E300022681340AB42D7D1A3681B051B0D8342F8
:103E4000D2D1EE22E368D20213406345CCD1EBE736
:103E5000001BB7000040FDBF08C0004000E000406C
:103E600000F000400430000010B580241C4BE40535
:103E70001C6000281AD001231A4C18431A4BDC612D
:103E80001A4C44401C62596298628021144BC90547
:103E90001960174817490860E021C9041960002A11
:103EA00007D18022144B12061A6010BD0E4BD86148
:103EB000EBE753019B1A9B009A18802312015B04C5
:103EC0009A4209D213000D490B60074B5A608022B9
:103ED000094BD2051A60E8E7094B1A00F3E7C04620
:103EE00000B00540D3C007B0008005402D3FF84F1B
:103EF000FCFF01000820014000A005401022002026
:103F0000FFFFFF008023024A9B000B43D3627047F0
:103F100000800540002310B50100988A1B8B98474C
:103F200010BDC046162310B5010018885B8898475D
:103F300010BDC046F8B54746CE4680B50F1E18D016
:103F400014239946043304000025012698464B4665
:103F50001888434621681B88984701C4431E98412E
:103F600001350640AF42F2D13000C0BCB946B04680
:103F7000F8BD0126F8E7C046002370B504000D0027
:103F8000988A05491B8B984703000020002C01DB11
:103F90000130A0402900984755420000AA23064A54
:103FA0001B0113608D235B00D3600449044B19602F
:103FB0005368002BFCDA70470040024000B0FA0062
:103FC000006002407047C04610B50148FEF7CAFEC7
:103FD0004C9B001070B5074D074EB54209D2002426
:103FE000013E761BB608013608CD01349847B4422D
:103FF000FAD170BD90970010CC97001070B5074DA6
:10400000074EB54209D20024013E761BB6080136A0
:1040100008CD01349847B442FAD170BDC49700105E
:10402000CC970010054B064A06491A60064A074B12
:104030001A6010000B689843FBD1704700E0004005
:10404000BFCDFBFE08C00040FE7F3C0000F00040FA
:10405000044BDB6C002B03D18022034BD2021A608D
:104060007047C046000011504C201150044A054BC7
:104070001A60054A1368DB018033FBD17047C046E4
:10408000FFFFFF0100F0004008C000404022034B4A
:104090009A675A671A67DA667047C04600F00140AF
:1040A00010B5FEF7FFFE10BD70B52849284D294E0A
:1040B0006D1AAC102200302C00D930223000920052
:1040C00000F080FFBC2D3DD823002A3B224A052B5F
:1040D0001DD9302075196D07A446001BEB0F002D6C
:1040E00003DA611C8C46A1007250C01AE3189B00D1
:1040F0004108F318C900C9181A605A600833994278
:10410000FAD1012303421DD0984360440400A30068
:10411000F250631C2F2C15D09B00F250A31C2E2CA8
:1041200010D09B00F250E31C2D2C0BD09B00F250C2
:10413000231D2C2C06D09B00F250631D2B2C01D08C
:104140009B00F250054B9E6070BDC0460001001000
:10415000C001001000000020C101001000ED00E0CF
:10416000002310B5294C82B0A367FFF717FF012287
:10417000274B1A60636C012BFCD10322254B1A607C
:10418000224A936B012BFCD1013300930121224A77
:1041900022480433FFF710FE052301210093204A33
:1041A0002048FFF709FE0022022104201E4BFFF7E2
:1041B0008DFD0022012105201C4BFFF787FD002209
:1041C000002107201A4BFFF781FD00220021082063
:1041D000174BFFF77BFD8023DB00009300220021BB
:1041E0000920134BFFF7FCFC0022104B0021062096
:1041F000FFF76CFD0420FFF7D9FD0E4900F04CF8E5
:1042000001000020FFF77EFE02B010BD00800040DC
:104210003CB0004030B00040002F685900800240A0
:10422000008C864700C00240001BB700405973074E
:10423000006CDC0240420F0001480421014B18478A
:10424000A0120020353F0010124A936F9B0815D230
:104250009066D166002905D0FFE7FFE7FFE7516FC1
:10426000106F704704B580210906C217514000281D
:1042700000D0C84305F034FA002104BDF0B5146E37
:10428000556E576F166FFFF7E3FF14665566576755
:104290001667F0BD000000D0114A936F9B0813D23F
:1042A00010665166002905D0FFE7FFE7FFE7516F71
:1042B000106F704704B5002801D00020C04305F0FE
:1042C0000FFA002104BDC046F0B5146E556E576F4D
:1042D000166FFFF7E5FF1466556657671667F0BD62
:1042E000000000D094464A4A926F9208624601D27A
:1042F00028E0C046F0B5464E346E756E776F366F67
:1043000000F020F89446424A1466556657671667CF
:104310006246F0BD94463E4A926F9208624601D2D0
:1043200054E0C046F0B53A4E346E756E776F366F16
:1043300000F04CF89446364A14665566576716677F
:104340006246F0BD002B24DB11D000293EDA00B517
:10435000C943404200D1013100F038F8C94340421E
:1043600000D10131DB43524200D1013300BD002AAC
:10437000EBD1002801D1002905D00020C90FC907C1
:1043800001D1C043410800B505F0A2F90022002385
:1043900000BD00B500290ADBDB43524200D10133E6
:1043A00000F014F8C943404200D1013100BDC943B7
:1043B000404200D10131DB43524200D1013300F0D1
:1043C00005F8DB43524200D1013300BD002923D15F
:1043D000002B18D1002A0CD0BC460D4F38667A66E7
:1043E00000210023FFE7FFE7FFE77A6F386F67469A
:1043F0007047002801D00748010000B505F068F9B2
:104400000022002300BD02000B00002000217047A5
:10441000000000D0FFFFFFFF002B00D0BFE0130C17
:1044200028D1002AE7D080B4114F39667A66FFE7B9
:10443000FFE730B4040C7B6F396F1B0423433B66EA
:104440007A66FFE7FFE7FFE7C04684B27B6F3D6F08
:104450001B0423433B667A66FFE7FFE7C046002361
:104460002C042D0C7A6F386F00196941B0BC70476D
:10447000000000D0F0B594460025140E01D11202C0
:104480000835140F01D112010435940F01D19200A7
:104490000235D40F01D152000135D40B0134254F20
:1044A0007C66254C3C660E0C93B2FFE7FFE7FFE706
:1044B0003C6F6643360C7703BE467343DF0B5B04E9
:1044C000C01AB941130C7343DB18C91ACE086643EE
:1044D000360CB64493B273431F0F1B01C01AB94187
:1044E000130C73431F0B1B05C01AB941860D8F02B5
:1044F0003E436643360C092D24DB520A7243801A70
:104500007703460A6643360C16235B1BDE40DF400A
:10451000BF1964466643821B7046043506330100AA
:10452000D940A840C01900D30131A24206D20023CD
:10453000F0BD0000000000D0FFFFFFFF121B0130A4
:10454000F3D3F1E709277F1BFE406446A2B2724312
:10455000801A00D20139220C7243130C1204821A01
:1045600099410B007046043513370100F940A8400B
:10457000801900D30131002B02D1A2420AD2F0BD32
:10458000013000D30131121BFAD2013BF8D1A24213
:1045900000D2F0BD013000D30131121BF7E7F0B5B6
:1045A0001C0C00D080E00CB400251C0A04D11B02B6
:1045B000160E3343120208351C0B04D11B01160FD3
:1045C0003343120104359C0B04D19B00960F3343F7
:1045D00092000235DC0B02D192185B4101351C00C0
:1045E000971864410134464F7C66464C3C660E0C7D
:1045F000FFE7FFE7FFE7C0463C6F6643360C7703F3
:10460000BE4697B27743C01B00D20139C01B00D20F
:1046100001399FB27743C91BC91B170C77437E042E
:10462000FF0B801BB941CE086643360C0C2D33DBE3
:10463000B644120B1F053A431B0B97B27743C01BBE
:1046400000D201399FB27743C91B170C77433E0450
:104650003F0C801BB941860D8F023E4366432927DC
:104660007F1BFE400C3D7746AF40BF1930BCA2B265
:10467000ABB272437343801A9941220C7243130CFC
:104680001204801A994102000B000137001BA94156
:10469000F9D2781E0021F0BD0C277F1BFE40774623
:1046A0007F0BAF40FF19E0E700245D1C07D0144FDB
:1046B0007D663966FFE7FFE7FFE7FFE73C6F95B2EE
:1046C0009EB265436643401BB141150C1E0C654309
:1046D000664336042F0C3E432D04401BB1419942E2
:1046E00004D202000B0020000021F0BD01D1904255
:1046F000F7D3801A994101349942F2D3F6E70000CA
:10470000000000D0FFFFFFFF48404140484018B480
:104710001B4B5B68FC46019308BD04DFB3490010E6
:1047200018B4174B1B68FC46019308BD00DFBD4958
:1047300000109446134A926F920809D2624618B448
:104740000F4BDB68FC46019308BD0CDF754C001075
:104750000C4AF0B5146E556E576F166F6246FFF730
:10476000EEFF084A1466556657671667F0BD18B421
:10477000034B9B68FC46019308BD08DF194B0010F2
:1047800058150020000000D0FFB550404240504076
:1047900059404B40594000E0FFB5154F4C00640DA7
:1047A00003D0BC4204D10C0314D80020090D090524
:1047B0005C00640D03D0BC4204D11C030AD8002263
:1047C0001B0D1B0501264B4009D44B4003D58B42E2
:1047D00000D18242FFBD9942FCD19042FFBD0B4304
:1047E000DB1803431343F5D0C9434918FFBD00004C
:1047F000FF07000000B5FFF7CFFF804100BDC046B6
:1048000000B5FFF7C9FF01D9002000BD012000BDA0
:1048100000B5FFF7B9FF01D9002000BD012000BDA0
:1048200000B5FFF7B1FF804100BD012040054A00FF
:10483000121804D85A00121801D80020704701201D
:10484000704700000021002805D17047C11748407B
:10485000401AFAD0C90713B5064B1B6898470CBC21
:10486000441CA2401005120B0349091B09051943FA
:10487000114310BD702200201F04000010B54C0031
:10488000620D8023D218DB00D21A5B057E2A10DD70
:104890009E3A13DACC170903490819435242D14012
:1048A000640001341532202A05DAD0400843604301
:1048B00010BD002010BD0846604310BDC80FC018D1
:1048C000013810BD18B4044B5B6AFC46019308BD67
:1048D00024DF254E0010000058150020132370B56A
:1048E0001D78012D19D014DD1F48FFF71BFB0600B2
:1048F0001E48FFF717FB1E4C80223100200000F0FD
:1049000061FB022D2DD01B48FFF704FB1A4B1860EA
:1049100070BD1A4B164CA364F5E7184B144C23607A
:104920006360A360E36023616361A361E361236269
:104930006362A362E36223636363A363E363236449
:104940006364A364E36423656365A365E365236629
:104950006366A366E36623676367A367E367A3648D
:10496000D1E7064BA364CEE7534400005346000052
:10497000581500204C33000070220020814900109F
:1049800007B5604601880A0A0230DF2AFAD1C9B2A7
:10499000820804D3028840880004104300E00068C5
:1049A000014A5050039007BD581500200FB403BCB6
:1049B0000CBCF0B50124E407634000E0F0B50C0D39
:1049C000CF0F661E3605891B640503D3C9434042D9
:1049D00000D30131640D03D0661CF60A07D0E41B36
:1049E00000207F00791C89078912803C24031D0D5B
:1049F000DF0F6E1E36059B1B6D0503D3DB43524252
:104A000000D301336D0D03D06E1CF60A07D0ED1BE9
:104A100000227F007B1C9B079B12803D2D032F1BD8
:104A2000661B58D4A446202E46DA20371400BC401A
:104A30001D00BD40F24033412A4380185941CB0F3D
:104A400005D0C943C04300226442504151416246EF
:104A50004D0D28D10D0D07D100281FD0241940413C
:104A60004941013A0D0DF9D0640006D3013000D35D
:104A70000131002C01D140084000013A0BD4941CB4
:104A8000E40A04D112051144DB071944F0BDD9072B
:104A9000204B194300E0D9070020F0BD0029DDD1EB
:104AA000002CDBD1F0BD0132C6074008CD072843FA
:104AB0004908002EE1D0D9E73C2E29DA203E4037C4
:104AC0001400BC4000D00124F24014431A00BB4043
:104AD0001C43D317ACE7AC46202F08DA203604007D
:104AE000B4400D00B540F84039412843A5E73C2FBC
:104AF0000CDA203F40360400B44000D00124F840D6
:104B000004430800B1400C43C117EAE71000190044
:104B1000002494E70000F07FF0B50C0D661E36050A
:104B2000891BE60A6405640D02D0651CED0A04D0F9
:104B3000002001210905803C2403A4461C0D671EAA
:104B40003F05DB1BE70A6405640D02D0651CED0A16
:104B500004D0002201231B05803C240377406444D9
:104B600097B484B296B27443070C7E43150C6F431E
:104B700080B26843361802D3012000043F18300485
:104B8000350C00197D41844688B29AB250430C0C12
:104B900062431F0C7C438EB27E43921902D30126DE
:104BA0003604A4191604170C3618674101BC81B2EB
:104BB0009AB25143040C62431B0C5C4380B25843CD
:104BC000121802D30120000424181004130C4018FA
:104BD00063412D185E410020474106BC88B293B264
:104BE00058430C0C6343120C544389B251435B1875
:104BF00002D301210904641819041A0C091862412E
:104C00006D1856410020474118BCF902720D11433E
:104C1000F0026A0D1043ED020A0D03D16D194041F7
:104C20004941013B124E9B1B7600B3420ED26D00F0
:104C300007D30130002671416646354301D1400853
:104C400040001B05C918E4072144F0BD0BDA01330D
:104C500006D1013004D101314F0D01D04908F2E7EE
:104C6000E1070020F0BD013631050020EBE7000030
:104C7000FF030000F0B51C0D671E3F05DB1BE70AB4
:104C80006405640D02D0661CF60A04D000220123DC
:104C90001B05803C2403D0252D060026F6432E66F6
:104CA0001E096E66CE0FF619B44649004F0D02D0AC
:104CB0007E1CF60A03D000200021403F3F033E1B2C
:104CC000B600B444013F7F05C91B49082E6F013669
:104CD00076089C02950D25437543ED137543AD137E
:104CE00001356D10F603761B0CB4CC02450D2C4338
:104CF000A2B2B3B25A43270C7B43350C6F43A4B224
:104D00006C431B1902D3012424043F191C041D0CFD
:104D1000A4187D4124196D41009A91B2ACB261434F
:104D2000170C7C432B0C5F4392B25A43A41802D356
:104D300001221204BF182204230C52187B41019C4B
:104D40006C431B19520ED9010A434401A01A81B2C7
:104D5000B2B2514303145A43360C734387B27743BC
:104D6000D617D21900277E4136049B191704160C5A
:104D70007F185E417316ED18F301002680337541EC
:104D8000A90F06D16400690AE8055B0A184309D235
:104D90002FE00422944480337541A90AA8059B0A98
:104DA000184326D3404149412404009A019B0D0039
:104DB0005543641B4343E41A95B286B27543170CFE
:104DC0007E43030C5F4392B25A43B61802D30122CA
:104DD0001204BF183204330C52197B4152429C41D9
:104DE000002C02D40022013051414008CA07104370
:104DF000490802B06246D7079210084BD218084BF8
:104E00009A4203D212058918C919F0BD0020002A60
:104E100001DC3900F0BD01331905F5E7FD030000A1
:104E2000FE070000002200B5203200F004F8080060
:104E300000BD000000220B150AD410B5944600F006
:104E400031F81414013400DA0021CB17144C204738
:104E50000020002170476244343A0CD40C2A07DA4F
:104E600004009140904052422032D440214310BD72
:104E7000D843D94310BD203207D40C469440524247
:104E800020321141D040204310BD0800C917203204
:104E900003D452422032104110BD1800190010BD39
:104EA000574E00100A0DCC0F531E1B05C91A520590
:104EB00003D3C943404200D30131520D03D0531CE8
:104EC000DB0A07D0121B00206400611C89078912CD
:104ED000803A1203014BD21A70470000FF03000012
:104EE00051434343C9188C46110C83B24B4310B451
:104EF000040C614392B280B2504362431C041B0C09
:104F0000001910BC59411304120CC01851416144DE
:104F100070470000132310B51C781348FFF702F800
:104F2000012C0BD004DD01008022104800F04AF86B
:104F30000F48FEF7EFFF0F4B186010BD0B4C010040
:104F40005422200000F03EF80B4B6365A365E36537
:104F500023666366A366E36623676367A367E36705
:104F60002362E361E4E7C046534600005816002080
:104F70004C330000702200207D4F001007B56046C2
:104F800001880A0A0230DF2AFAD1C9B2820804D3A2
:104F9000028840880004104300E00068014A505035
:104FA000039007BD5816002001480421014B184703
:104FB000B0120020353F0010014B1B68184700005D
:104FC000B0120020014B5B6818470000B0120020AF
:104FD0009A4200D2885470477047C046F8B5DE4602
:104FE00057464E464546E0B599460D9B0700884614
:104FF00093469B0728D00B9B002B3CD016000B9CA4
:105000000A9D3619321B013C4B464146285DB84784
:10501000002CF7D135000D9B9B070ED55B46EC1A93
:105020000C9BA34209D91E002A004B464146202072
:105030000134B8470135B442F6D32800F0BCBB4672
:10504000B246A946A046F8BD0B9B0C9A934214D2D7
:1050500013005D460C000B9A9E1A76192A004B46E7
:10506000013521002020B847B542F7D10B9BA0465F
:10507000002BC4D1E1E71500CDE75E46002BBED181
:105080005D46DAE7F0B54F46D6464646C0B584B031
:105090009C460EAB1F78129B9146BA460D9C109E03
:1050A000119D9B074CD4002D41D1B44248D201231D
:1050B000129F1F40B8460C9B5F1E302303E0013453
:1050C0003B55A64201D9202CF9D14346002B00D1F3
:1050D00087E00C9B5F1E3023A54204D830E00134EA
:1050E0003B55AC422CD0202CF9D1129BDB060DD5C0
:1050F000129B5B0557D4A64267D0A54265D00F9B93
:10510000102B53D0022B5BD0202C36D12023129CA5
:1051100001930C9B4A460093039463460295FFF764
:105120005DFF04B0E0BCBA46B146A846F0BD01231D
:10513000129A13409846012313422DD1B442BAD398
:10514000129BDB061ED5129B5B05D8D4002CD2D156
:105150000F9B102B60D00F9B022B71D030230124AA
:105160000C9A13705346002B11D1129B5B0740D54C
:105170002B260C9A631C1655C9E7230001343026F0
:105180000C9AD654202CC1D05346002BEDD02D269E
:105190000C9A631C1655BAE7002F34D0013DB44277
:1051A00000D288E795E70F9B102BAFD1129B9B068F
:1051B0003CD5202CAAD058230C9A13550134A3E7D0
:1051C000202CA3D02300013407E0631E012CBFD0A4
:1051D0000F9A102A36D0022AD1D162260C9AD654C0
:1051E00092E7129BDB06CDD5129B5B0500D482E7CC
:1051F00085E7129A2300160700D488E720260C9A28
:105200000133165583E70C2313405F1EBB41ED1A93
:10521000B44200D24FE75CE7129B9B060ED4782382
:105220000C9A02241370302353709BE7202C00D17A
:105230006CE778230C9A1355013465E75823EFE7A0
:105240006033EDE70C9AA61EB618129A920602D5A4
:105250005822327093E77822327090E710B5002818
:1052600000D110BD01F00CFCFBE7C04610B50028D2
:1052700003D04A680B681100984710BDF0B54E4640
:10528000DE4657464546E0B595B083468946924688
:1052900098461E9A1F9B10001900209EFFF7C5FA22
:1052A000002800D0D2E11E981F990122C44B52421F
:1052B000FFF7A0FA002800D001E11E981F990122F3
:1052C000C04B5242FFF7ACFA002800D0D6E01E983F
:1052D0001F990022BC4BFFF7A3FA002800D0B5E0CD
:1052E0001E981F990022B94BFFF784FA002800D0BE
:1052F000ACE01E981F9900220023FFF77BFA0028DC
:1053000000D0D1E000230B93229B5B0500D406263E
:105310000024302306E006AA013417321355013E5B
:10532000202C01D0092EF6D81E981F99FFF7A6FA57
:10533000A74BF2009B180CCB050008920993FFF7CE
:1053400085FA02000B001E981F99FFF7E0F9089AF2
:10535000099BFFF70CFA06900791FFF7B3FA0700D5
:10536000FFF770FA02000B0006980799FFF7CFF9D4
:105370000022984B06900791FFF752FA002800D1BF
:10538000E9E001373800FFF75DFA02000B000898EA
:105390000999FFF735FA002801D000270135002EC2
:1053A00000D1B7E0069513E0172306AA9B180A213F
:1053B000380001341D19FEF76FFF303129703800B5
:1053C0000A21013EFEF768FF092F00D8E1E007003F
:1053D000202CE9D1069D20240CAB0693172706ABA1
:1053E000FF180DE028000A21FEF72EFF01343031AE
:1053F000280039550A21FEF727FF051E00D1B7E026
:10540000202CEFD10323229A1340012B17D1219B8B
:10541000002B14D00B9B002B00D1E3E0219B013B20
:105420002193202B0BD93023219A06E006A90134C1
:1054300017310B55944200D3A0E0202CF6D1229BCB
:1054400001940393219B0293069B21E0229B5246E9
:105450000493219B4946039358461E9B1F9C02962A
:1054600000930194434600F043F90400200015B076
:10547000F0BCBB46B246A946A046F0BD229B5B07E6
:105480000FD40322544B2299019203912199029146
:1054900000935246434649465846FFF79FFD040095
:1054A000E4E704224D4BEEE71E9A1F9B00200021EB
:1054B000FFF72DF901231E901F910B9324E7022380
:1054C000229A54461A40229B06929B0700D1ACE0D8
:1054D0002600434D08942F1F3200E8784346494682
:1054E000013DD8470136BD42F6D1089C069B0434E5
:1054F000002BBBD05746219AE31B9A42B6D9150020
:1055000022004346494620200134D847E31BAB42E2
:10551000F6D3ABE72800FFF799F902000B001E98BD
:105520001F99FFF7F4F82B4B002206000F00FFF73E
:1055300061F90CAB0693002800D04FE70022300041
:105540003900244BFFF76CF9002800D046E701230F
:1055500001359D4342E70022069807991D4BFFF74E
:1055600049F9002800D01AE7002F59D1013716E772
:105570000323229A1340012B00D1A6E0202C00D156
:105580005DE70B9B002B3AD02D23069A135501346F
:1055900055E7069D202C00D11DE73023361906E083
:1055A00006AA013417321355202C00D113E7A64266
:1055B000F6D12E230CAA0134069293550EE7C0466D
:1055C000FFFFEFFFFFFFEF7F65CDCD4165CDCDC183
:1055D000982F01100000E03FA09B0010989B001046
:1055E000A89B00100C23229A134257D0219B013B09
:1055F0002193A34200D916E7202C00D11FE7229B5C
:105600005B0704D52B23069A1355013417E7229B19
:105610001B0700D413E72023069A135501340EE725
:10562000FB0700D4BBE60137B9E6219B042B00D869
:105630004EE755464F46043CE4182A0043460135E0
:1056400039002020D847AC42F7D141E70227229BFE
:1056500055461F409B0726D006975F46234EEC1CFD
:105660002A00B078434649460135B847013EAC426E
:10567000F6D1069F002F00D1F8E65746219AE31B8A
:105680009A4200D8F2E615002200434649462020FF
:105690000134D847E31BAB42F6D3E7E6219BA34294
:1056A00000D9C0E6CBE6219B032BD5D906975446FB
:1056B0004F46033DED1822004346013439002020B7
:1056C000D847A542F7D1069FC6E7219B002B00D102
:1056D00054E70B9B002B85D0219B013B21939C42DF
:1056E00000D2A0E6202C00D04EE7A8E6A49B001034
:1056F000F0B54546DE4657464E46E0B59BB0249C85
:10570000259D824688469346994622002B0020001C
:105710002900FFF78AF8002800D0C1E0012220000C
:1057200029007C4B5242FFF77BF8002800D0B7E0FD
:10573000012220002900784B5242FFF75BF8002835
:1057400000D0ADE00022002320002900FFF752F82E
:10575000002800D0BBE10894099508980999802396
:10576000289ADB001A400F928022289E12011640D0
:1057700032000E96289E0F000A901E4200D0A4E030
:105780000B00034300D0CBE0002A00D012E232002D
:1057900006332693022313400C930223134200D0B6
:1057A0000AE2279B042B00D215E200270426043BC3
:1057B0000E930022002320002900FFF71BF8002889
:1057C00000D0C8E1554B289A134004930E9B0393D5
:1057D000269B0293089B099C0093019441464B46EB
:1057E0005A465046FFF74AFD02002020289B00251C
:1057F000034059424B415B421840531C08934146B9
:105800004B464530D047FB17FC185C40FB0F1F2769
:105810000A93731E0E930AABFF1806E020000A21BC
:10582000FEF73AFD0400202D08D00A212000FEF7E3
:1058300033FD013530317955092CEFD80523069316
:105840000E9B56460593002304930A3303930A9B49
:105850004146029312AB009330004B46089A0195E3
:10586000FFF710FC0C9B002B28D05F46279BC41B26
:10587000A34223D982461D003A194B4641462020B7
:105880000134B047A542F7D850465946279C421AE2
:1058900001320023944200D395E1013018180DE045
:1058A000289B009401950493279B0393269B0293C6
:1058B0004B465A4641465046FFF7E0FC1BB0F0BC51
:1058C000BB46B246A946A046F0BD01432AD10E9B75
:1058D0003200002B00D15DE70027269B0026BB424B
:1058E00000DD82E10022002320002900FEF782FF74
:1058F000002800D04BE1289B084A02961A408023DA
:10590000DB0013430493279B0393089B099C00939C
:105910000194CDE7FFFFEF7FFFFFEFFFFFF7FFFFF2
:1059200006232693B24B7800400DC018FEF78EFF79
:10593000B04AB14BFEF71BFFB04AB14BFEF7F0FE89
:105940003F03B04B3F0B3B430C900D9100220A9854
:105950001900AD4BFEF7DBFEAC4AAD4BFEF707FF7F
:1059600002000B000C980D99FEF7DAFEFEF786FF99
:105970000700FEF76BFFA74AA74B0A900B91FEF7B3
:10598000F6FE0022A54BFEF7CBFEFEF777FFA44AFA
:1059900006000A980B99A34BFEF7E9FE0A900B91BB
:1059A0003000FEF753FFA04AA04BFEF7E0FE0200D6
:1059B0000B000A980B99FEF7AAFE02000B000A9052
:1059C0000B91FEF7D4FE0C900D910A980B990200F2
:1059D0000B00FEF7A5FE0022109011910C980D9976
:1059E000934BFEF7A6FE0022924BFEF799FE0200B3
:1059F0000B000C980D99FEF79CFE00228E4BFEF7D3
:105A00008FFE02000B000C980D99FEF792FE0A9A89
:105A10000B9B0C900D9180210020C905FEF777FEAD
:105A200002000B000C980D99FEF77AFE02000B00A5
:105A300010981199FEF77DFE0022724BFEF770FE62
:105A40007E4B0022F6183305FEF791FE02000B0094
:105A50000A900B9108980999FEF7CCFE002808D00F
:105A60000A980B990022734BFEF763FE0A900B9184
:105A7000013F0A990B9A0B0011003A006332C62AC3
:105A800012D802222898042610400E9A0C90002A60
:105A900026D1279B042B05D9002800D0A1E0279B05
:105AA000043B0E93042642E00222289810400E9AEE
:105AB0000C90002A13D1279B052B00D889E00028E1
:105AC00000D084E0279B0526053B0E9332E080231F
:105AD0001B069C46AC446346089409933DE60526A4
