:020000041000EA
:1000000000B5324B212058609868022188439860DF
:10001000D860186158612E4B002199600221596106
:100020000121F02299502B49196001219960352056
:1000300000F044F80222904214D00621196600F024
:1000400034F8196E01211966002018661A6600F04E
:100050002CF8196E196E196E052000F02FF8012189
:100060000842F9D1002199601B49196000215960AB
:100070001A491B48016001219960EB211966A021F2
:10008000196600F012F800219960164914480160C1
:100090000121996001BC002800D000471248134993
:1000A000086003C880F30888084703B5996A0420EC
:1000B0000142FBD001200142F8D103BD02B5186610
:1000C0001866FFF7F2FF186E186E02BD00000240BE
:1000D000000000180000070000035F00212200005C
:1000E000F4000018222000A00001001008ED00E03C
:1000F00000000000000000000000000074B24E7A12
:1001000000200420F7010010CB010010CD010010E9
:10011000C9010010C9010010C9010010C901001077
:10012000C9010010C9010010C9010010CF01001061
:10013000C9010010C9010010D1010010D301001045
:10014000C1010010C1010010C1010010C101001067
:10015000C1010010C1010010C1010010C101001057
:10016000C1010010C1010010C1010010C101001047
:10017000C1010010C1010010C1010010C101001037
:10018000C1010010C1010010C1010010C101001027
:10019000C1010010C1010010C1010010C101001017
:1001A000C1010010C1010010C1010010C101001007
:1001B000C1010010C1010010C1010010C1010010F7
:1001C000EFF30580103800BE00BE00BE00BE00BECA
:1001D00000BE00BEF2EB88719C270110BC27011005
:1001E0003802001090A31AE71E481F49086006C88D
:1001F00081F3088810471D480068002801D019487D
:10020000F3E70DA40ECC002902D000F012F8F9E7B4
:100210001749184A002000E001C19142FCD116495B
:100220008847164988471649884700BEFDE701C937
:1002300001C29A42FBD37047BC270110C0000020C6
:1002400008110020043801100000042000000420E0
:1002500004380110001004200010042000000000E9
:10026000704700000000000008ED00E0000000D032
:100270000811002040A10020815F001085030010BC
:10028000795F0010F8B5C04606480749091A8B1077
:10029000C90FC91810B5491003D0044B002B00D06A
:1002A000984710BD08110020081100200000000030
:1002B000054B10B5002B03D00449054800E000BFF2
:1002C000FFF7E2FF10BDC04600000000182000202C
:1002D000FC8D00100123F0B5C646984600B5104EBF
:1002E000104D114F82B03378002B14D12C78631C41
:1002F0002B7043461C40FC236442DB003C40E41866
:1003000000F0DAFD0A2323227821B920009400F0BE
:10031000EFF900F0D9FDFA20400002F013FFE2E708
:100320003BA100203CA100203FF8FFFF10B500F0EA
:1003300085FA10BDF0B5C646002000B500F0B0F952
:100340000D4B002698460D4FB8443D003424200044
:100350002A883100013400F087F90235BB2CF6D130
:100360000F37FF3701364745EFD1054802F0EAFE67
:1003700080BCB846F0BDC046628E00009891001067
:10038000B80B000010B505F0F3FEFA20C00002F033
:10039000D9FE00F0C3F800F087FDFFF7CBFF1F2068
:1003A00000F07EF9642002F0CDFE064808F032FC31
:1003B00000F0D4FC0449054800F0E4FC00F004FD22
:1003C000002010BDD50200102D030010008E00107B
:1003D000F0B54E46DE4657464546E0B585B002AC20
:1003E000E61D8027D024802598462A2383462406AC
:1003F000AD027F0233708A4691463100A761012227
:10040000A561454808F0A8FC5B46180028306561E6
:100410000093031233700190310067610122A561DE
:100420003D4808F099FC009A65612832327031002D
:1004300067610122A561384808F08EFC4A46019B9D
:1004400065619B18013B1B1201923370310067619B
:100450000122A561304808F07FFC0198009A2730FE
:100460008318656131003370012267612A48A561F4
:1004700008F072FC2B236561310033700122A76103
:100480002548A56108F068FC53461A0035326561BD
:100490000093131233700192310067610122A5614C
:1004A0001D4808F059FC0098656135303070310006
:1004B00067610122A561184808F04EFC4246019B85
:1004C00065619B18013B1B1201923370310067611B
:1004D0000122A561104808F03FFC019B00983433CD
:1004E0001B18656131003370012267610A48A561FC
:1004F00008F032FC2C236561012233703100A761C2
:100500000548A56108F028FC656105B0F0BCBB4654
:10051000B246A946A046F0BD00C0034070B5D02445
:100520008025802682B04D494D4808F09FFA012170
:10053000122001F0DBFF012113202406AD0201F09F
:10054000D5FF1120760201F0FBFF1020656201F05B
:10055000F7FF1420666201F0F3FF80235B03636200
:100560006A466361012301A913713D480122A66116
:10057000A56108F0F1FB9620656102F0E3FD11230F
:100580006A4601A9137136480122A661A56108F0E7
:10059000E3FB3220656102F0D5FD3A236A4601A9EA
:1005A00013712F48A6610122A56108F0D5FB052330
:1005B0006A46656101A91371294866610122A56136
:1005C00008F0CAFB36236A46656101A91371244805
:1005D000A6610122A56108F0BFFB70236A46656130
:1005E00001A913711E4866610122A56108F0B4FBE0
:1005F00021236A46656101A913711948A661012288
:10060000A56108F0A9FB29236A46656101A9137158
:1006100013480122A661A56108F09EFB0A206561CE
:1006200002F090FD8723F02200210020FFF7D0FE8A
:1006300000236A466661A5610A4C9380022208483D
:1006400001A9013C08F088FB002CF7D1D0238022BF
:100650001B0692025A6102B070BDC046A0ACB9033D
:1006600000C00340907E000070B5012382B01600E8
:100670000122FFF7ADFED024802380256A462406A0
:100680005B026361AD0273BAA56101A9938003485F
:10069000022208F061FB656102B070BD00C003403A
:1006A00010B587230400F02282B000210020FFF75C
:1006B0008FFED02380221B0652025A6180229202B2
:1006C0009A616B4664BA9C80074C0222074801A9D4
:1006D000013C08F041FB002CF7D1D02380221B06FF
:1006E00092025A6102B010BD907E000000C003402B
:1006F00070B582B01D006B461C8B2B001600FFF7F7
:1007000067FED02380221B0652025A618022920289
:100710009A616B46754364BA9C80002D08DD002405
:100720000222074801A9013408F016FBAC42F7D1B8
:10073000D02380221B0692025A6102B070BDC046CF
:1007400000C00340F0B5DE4657464E464546E0B58C
:100750000378040085B0002B57D0334A334E9346BC
:1007600001229046324A039208E000235A4601379C
:100770001360376063780134002B46D037680A2B4A
:10078000F3D05A460398203B1568DAB281465E2AB8
:1007900001D8DB00994400F08FFB0823BA004B44DA
:1007A000D2199A46EF004B467F1902963E0052003E
:1007B000D31A204D00930194009F00244F443B0026
:1007C0004F4699463A78434622411A40013A1A4B1D
:1007D0002A40A0194946D2180134FFF745FF082CDA
:1007E000F0D1B94601239944CA45E5D1019C029E46
:1007F00000F06AFB5B461B680133192B0CDC5A4680
:10080000013413602378002BB8D105B0F0BCBB468F
:10081000B246A946A046F0BD00235A46136033688D
:1008200001333360A6E7C046A81B0020AC1B0020A4
:10083000FC1F01102000FFFFFFFF0000F0B5DE46A7
:100840004E4645465746E0B51F20BBB0FFF728FF90
:100850000023DF4ADF4C13602360DF4B089218004F
:100860001493FFF76FFFDD4D28000495FFF76AFF33
:10087000DB4A10001692FFF765FF2800FFF762FFC2
:10088000D84A10001792FFF75DFF2800FFF75AFFC4
:10089000D54A10001892FFF755FF2800FFF752FFC6
:1008A000D24B002518000593FFF74CFF2AAB994661
:1008B000CF4B0A93CF4B0B93CF4B0E93CF4B0F9352
:1008C000CF4B1093CF4B1193CF4B1293CF4B0C9335
:1008D000CF4B0D93CF4B1593CF4B1393CF4B199316
:1008E000CF4B1A93CF4B1E93CF4B1F93CF4B2093DD
:1008F000CF4B2193CF4B1B93CF4B1C93CF4B1D93CF
:10090000CF4B0993002005F037FC831CFAD00D284B
:100910004AD00A2848D07F2800D18BE03E2DF1DC58
:100920004B465855089B26681F680300203BDBB2E6
:100930005E2B00D948E1FF23099A03409246203BF1
:10094000DB009A44013500F0B7FA082353449B4674
:100950005346BA00D2195200D31A03930123984682
:10096000F200B84F0794069594190025039E56444B
:1009700053461A7843462A411A40013AB24B3A404C
:1009800028193100D2180135FFF76EFE082DEFD17E
:1009900001239A44DA45E8D1079C069D00F094FAB9
:1009A000236801332360ADE700234A46049853557A
:1009B000FFF7C8FE4B46A54A1B68934245D04B46FD
:1009C000A34A1B6893427CD04A46A24B12689A42C3
:1009D00000D1B5E04A46A04B12689A4200D1C2E06D
:1009E0004A469E4B12689A4200D141E14A469C4BCE
:1009F00012689A4200D15AE14A469A4B12689A42CA
:100A000000D17DE14B461B78002B0ED04A46964B19
:100A100012689A4200D19DE11D98FFF793FE484667
:100A2000FFF790FE0498FFF78DFE0598FFF78AFE0A
:100A3000002567E7089B26681F68002D4EDC4B46A3
:100A40005855099B01359A467DE74B461B79002B8B
:100A5000B5D10A98FFF776FE049D2800FFF772FED5
:100A60000B98FFF76FFE2800FFF76CFE0E98FFF75C
:100A700069FE2800FFF766FE0F98FFF763FE280067
:100A8000FFF760FE1098FFF75DFE2800FFF75AFEA3
:100A90001198FFF757FE2800FFF754FE1298FFF752
:100AA00051FE2800FFF74EFE0C98FFF74BFE280082
:100AB000FFF748FE0D98FFF745FE2800FFF742FEBE
:100AC000B3E74B469B88722B00D07DE700251F20A3
:100AD000FFF7E6FD089B25601D60A6E7013E266046
:100AE00000F0EAF9BA00099BD21952009B46D31ACA
:100AF00003930123F7009A46524B013DBF19069517
:100B000098465D46A3463C000026039B5F192A7861
:100B1000534632411A404346013A1A404A4BA01903
:100B20003900D2180136FFF79FFD082EEFD14F4B49
:100B30000135AB42E8D15C46069D00F0C5F9E1E61F
:100B40004B469B886F2B00D044E71598FFF7FAFDC2
:100B5000049D2800FFF7F6FD1398FFF7F3FD28002A
:100B6000FFF7F0FD61E74B469B88722B00D037E71B
:100B7000F8231B0200935022872300210020FFF757
:100B8000B7FDFC23DB000093502287230021502077
:100B9000FFF7AEFD1F23502200210093A0206833F1
:100BA000FFF7A6FDFA200025C00002F0CBFA1F20B7
:100BB000FFF776FD089B199825601D60FFF7C2FDC1
:100BC0000498FFF7BFFD30E7099B01359A46BAE666
:100BD000AC1B0020A81B00200C8E0010088E0010FB
:100BE0001C8E00102C8E0010448F0010408E0010C0
:100BF0004C8E0010588E00106C8E0010848E0010E9
:100C00009C8E0010B48E0010CC8E0010E88E001068
:100C1000008F00102C8F0010488F0010608F001084
:100C20007C8F00108C8F00109C8F0010B48F0010F0
:100C3000C48F0010E48F001004900010209000106A
:100C4000FC1F01102000FFFFFFFF000068656C70B3
:100C5000636C656168656C6C636F6C6F696E666F01
:100C60007461736B706F6E67696E7600042001109B
:100C70004B461B79002B00D0B8E61498FFF762FDB5
:100C8000049D2800FFF75EFD1A98FFF75BFD280022
:100C9000FFF758FD1E98FFF755FD2800FFF752FD9E
:100CA0001F98FFF74FFD2800FFF74CFDBDE64B46B0
:100CB0009B88732B00D09FE62098FFF743FD049E8E
:100CC0003000FFF73FFD2198FFF73CFD3000FFF7B4
:100CD00039FD1B98FFF736FD3000FFF733FD00F0BC
:100CE000DDF8082203002021009222A81C9A05F0BA
:100CF00015F922A8FFF726FD3000FFF723FD94E643
:100D00004B461D79002D00D07CE600F02DF91F2008
:100D1000FFF7C6FC089B14981D602560FFF712FDC5
:100D2000049D2800FFF70EFD1698FFF70BFD280025
:100D3000FFF708FD1798FFF705FD2800FFF702FDF4
:100D40001898FFF7FFFC2800FFF7FCFC0598FFF759
:100D5000F9FC6AE6002500F055FBD8E710B5054A16
:100D60000021054803F03AFD0022044B1A60044BB1
:100D70001A6010BDA0800000802000207C20002090
:100D8000A41B00208C460D4910B5040008680728F4
:100D900011DC020212189200094B12189200D05076
:100DA0009B1862469A6000225C60064C1A731A51C6
:100DB000431C0B6010BD01204042FBE77C2000205B
:100DC0008020002010100000F0B5D6464F46464661
:100DD0002D4BC0B59A461B68002B4FD02B4B2C4F88
:100DE0001E689946330298469B199B009B199B00ED
:100DF000FB181B7B012B25D9434600229B199B0026
:100E00009B199B00FB181A7353461D68701C290020
:100E100002F02CFE002D15DD002406E0481C0134F4
:100E2000290002F023FEA5420CD00A0253189B00B1
:100E30005B189B00FB181B7B002BEFD14B460E0071
:100E40009046196043469C190123A400A419A400EC
:100E50003C19104D2373A368AE6A9847FA21A86A1B
:100E60000D4B801B8900E41802F028FE2368C0188F
:100E70004B461E68206033029846BDE7E0BCBA4688
:100E8000B146A846F0BDC0467C200020A41B00202F
:100E9000802000200040054010100000014B186821
:100EA0007047C0467C20002010B5024801F022FEA9
:100EB00010BDC046D81B002010B5024807F06CFFDB
:100EC00010BDC046D81B002010B5024807F00CFF2B
:100ED00010BDC046D81B0020F0B583B0FFF7ECFF73
:100EE0000023F0220021002000930833FFF700FCCC
:100EF000FFF7EAFF194E5A2533680024002B12DD54
:100F0000174FFFF7D9FF062304220121280000977D
:100F1000FFF7EEFBFFF7D8FF33680134A34202DD91
:100F20000635092CEDD10F4E822533680024002BA5
:100F300012DD0B4FFFF7C0FF06230422012128001A
:100F40000097FFF7D5FBFFF7BFFF33680134A342DB
:100F500002DD0635092CEDD103B0F0BD6420002080
:100F6000FFFF000068200020F0B5DE464E465746E1
:100F700045460123E0B5E04E89B00C203370D02403
:100F800001F0DEFA802324065B01A3620022012126
:100F90000C2001F0C3FA0D2001F0D2FA80239B014E
:100FA000A362002201210D2001F0B8FA0E2001F009
:100FB000C7FA8023DB01A362002201210E2001F089
:100FC000ADFA0F2001F0BCFA80231B020121A362BD
:100FD00000220F2001F0A2FAFA20400002F0B2F83D
:100FE0003923C64AC64D13602B6000230392C54ABD
:100FF000C54C13600592C54A136078230692C44A13
:101000001360353B2360C34B02929B4602235A4632
:101010001360C14A13600492FFF74EFF0020FFF7F0
:101020003FFBFFF751FF08231F00BC4B9946FFF71A
:1010300043FF4B46390004227620009306370323F2
:10104000FFF756FBFFF740FF802FF0D1FFF744FF7B
:10105000D0231B06994607964B465B68DB0402D4F7
:101060002B68033B2B604B465B689B0402D42B68C8
:1010700003332B604B4680275B68FF013B4214D152
:101080004B4680265B68360233420ED196204000E4
:1010900002F058F84B465B683B4206D14B465B6812
:1010A0001A003240334200D15AE12B68072B00DD91
:1010B00043E108232B60039E5946336809681A00F0
:1010C0000A32002900DC2DE12168881E824200DB03
:1010D00039E102333360072B00DC2AE16B2B02DDA0
:1010E0006B23039A13600026FFF7E6FE77230422A2
:1010F000082108200096FFF7FBFAFFF7E5FEFFF74F
:10110000DBFE0821E420772304220096FFF7F0FAA3
:10111000FFF7DAFE029A276813689846FFF7CCFEBD
:1011200004230422390040460096FFF7E1FAFFF756
:10113000CBFE5B46029A1B6811680498C9181160BF
:10114000236802689B182360082B00DDCAE0022395
:101150000360063323600C294EDC2A68181D904278
:101160005CDB14329A4259DB02235A461360029A1E
:101170000B3313600826694FFFF79EFE31000323EF
:101180000422762000970636FFF7B2FAFFF79CFE9E
:10119000802EF1D12B689A46FFF78EFE604B5146A8
:1011A00098460422082000931423FFF7A1FAFFF7C2
:1011B0008BFE039B1B689A46FFF77EFE4346514613
:1011C0000422E42000931423FFF792FAFFF77CFE39
:1011D000029B26681B689A46FFF76EFE4346504600
:1011E0000422310000930423FFF782FAFFF76CFE1C
:1011F000102001F0A7FF2FE7DF29BBDD039A181DA0
:10120000126890423BDB14329A4238DB02235A4682
:101210005B421360029AE1331360ABE70029A9DA5D
:10122000069E0827336801333360FFF755FE7823A5
:10123000029AFA201360353B2360059B32681B68D5
:1012400040009B180322DB07DB1793435A46023307
:1012500013600223049A314E136001F073FFFFF70D
:101260002BFE390003230422762000960637FFF771
:101270003FFAFFF729FE802FF1D1029B1968F02970
:1012800000DC77E7059E0827336801333360FFF7FA
:1012900023FE7823029AFA201360069A353B1268DF
:1012A0002360336840009B180322DB07DB1793435E
:1012B0005A46023313600223049A136001F042FF7E
:1012C000164B9A46FFF7F8FD534639000422762064
:1012D000009306370323FFF70BFAFFF7F5FD802F86
:1012E000F0D147E77A2B00DC35E702235B4203604D
:1012F0007D3323602FE7C0463BA100203C20002027
:101300003820002064200020601A0020682000207F
:101310005C1A0020541A0020581A00201084000083
:10132000FFFF0000402A15DC01333360072B00DD8E
:10133000D9E60823039A1360D5E66B2B00DCBAE6E6
:101340006B232B60B7E602318A4200DCC3E6023B26
:101350003360C0E6452A00DCC5E6013B3360BDE6EC
:10136000079E327009B0F0BCBB46B246A946A04603
:10137000F0BDC046F0B583B0FFF79EFD0023F0221C
:101380000021002000930833FFF7B2F9FFF79CFD1E
:10139000184E082433680025002B17DD164F013541
:1013A000F02C11D8FFF788FD062306220121A01F8B
:1013B0000097FFF79DF9FFF787FD33689D4205DA37
:1013C00008340135F02CEDD99D42F9DB0B4B1C683C
:1013D0006400642C00DD6424FFF76EFD084B2200DE
:1013E0000221502000930423FFF782F9FFF76CFDE0
:1013F00003B0F0BD40200020FF0700006020002067
:10140000E0FF0000F0B5DE4657464E464546E0B5E3
:101410000C2093B001F094F8D024802324065B01C3
:10142000A362002201210C2001F078F80D2001F0C8
:1014300087F880239B01A362002201210D2001F087
:101440006DF80E2001F07CF88023DB01A3620022FE
:1014500001210E2001F062F80F2001F071F88023C5
:101460001B02A362002201210F2001F057F89620F1
:10147000400001F067FE7223CE4DCF4A2B6003235C
:10148000136000230F92CD4A13601192CC4A934609
:101490000A2259460A60CB4A92460C2251460A60FB
:1014A0000122C9490A60C8220C91C84952000A6049
:1014B000C74A099113600592C64A0021137004922D
:1014C000C54A13609146C54A13700792C44BC54A7A
:1014D0001360089253609360D36013615361C24BF1
:1014E00003221800039303F079F9FFF7E5FC0020CD
:1014F000FFF7D6F8FFF7E8FCFFF73CFF2C68E42C79
:101500000BD8FFF7D9FCB94B0C227A2120000093AD
:101510000623FFF7EDF8FFF7D7FCA84600265F4645
:101520005546089C2378002B01D000F0A9FE637873
:10153000002B01D000F084FEA378002B01D000F036
:101540005FFEE378002B01D000F03AFE2379002BF8
:1015500001D000F015FE6379002B01D000F0F0FD02
:10156000A379002B01D000F0CBFDE379002B01D053
:1015700000F0A6FD0A3608341E2ED3D1079BAA46DA
:101580001B784546002B00D00CE3994BD3460D93B6
:10159000984BCA460E93D8E0002A01D000F0D3FC45
:1015A0002E68934B063698461E607523914A752423
:1015B0001360743B06920B70EE2E01D900F07DFD96
:1015C000FFF77AFC0023210002223000009305334C
:1015D000FFF78EF8FFF778FC069B1C68069B043C1F
:1015E0001C60072C01DD00F0C3FC0023049A13707B
:1015F000534652461B68013313601E2B00DD01E188
:10160000039B1B78002B00D00CE1039B5B78002B25
:1016100042D0794E794C73689946636898464B4638
:10162000EE2B10D84346822B0DD8FFF745FC002344
:1016300041460222484600930533FFF759F8FFF769
:1016400043FC636898460223984443466360872BB3
:1016500001DD00F01CFD74682E68A64201DD00F07B
:10166000E7FC33000C33A34201DA00F0E1FC43460F
:10167000792B01DD00F0AFFEEE2C0DD8002B0BDB3B
:10168000FFF71AFC5E4B022241462000009305231F
:10169000FFF72EF8FFF718FC039B9B78002B42D036
:1016A000554E564CB3689946A36898464B46EE2B68
:1016B00010D84346822B0DD8FFF7FEFB002341468E
:1016C0000222484600930533FFF712F8FFF7FCFBB0
:1016D000A3689846022398444346A360872B01DD04
:1016E00000F0D0FCB4682E68B44201DA00F095FC3A
:1016F00033000C339C4201DD00F08FFC4346792B14
:1017000001DD00F034FEEE2C0DD8002B0BDBFFF7D3
:10171000D3FB3B4B02224146200000930523FEF7FA
:10172000E7FFFFF7D1FB059A136801331360099AAD
:101730001B011268934200DDBEE1102001F002FDA2
:10174000079B1B78002B00D02CE2D0248026240697
:1017500063683602334207D18022636852019046A3
:10176000134201D100F079FCD0231B065A68802374
:1017700016005B011E401A4200D151E1D0231B0626
:101780005A68802316009B011E401A4200D174E162
:10179000D0231B0604995B680A785B0400D4FBE63F
:1017A000002A00D124E7124B98461E68114B1C6892
:1017B0000693CEE34420002040200020602000203B
:1017C000341A0020381A0020281A00202C1A002071
:1017D000301A002035A10020EC1B002036A100208B
:1017E000010101013C1A0020E81B0020FF07000056
:1017F000641B0020681B0020F01B0020FC1B002045
:10180000E0FF000000225046039902600B78002B95
:101810004CD04B78002B01D100F048FE8B7802268B
:10182000002B44D0A04EA14C3368994623689846BB
:101830004B46EE2B10D84346822B0DD8FFF73CFBCE
:10184000002341460222484600930533FEF750FF2D
:10185000FFF73AFB236898460223984443462360E7
:10186000872B01DD00F009FC34682E68A64200DDFC
:10187000E9E333000C33A34200DAE4E34346792B77
:1018800001DD00F0DFFDEE2C00D9BEE6002B00DA12
:10189000BBE6FFF711FB864B022241462000009376
:1018A0000523FEF725FFFFF70FFBAEE60026072115
:1018B000059B089C1A68B318D817400F1B180B40DB
:1018C0001B1AE018047C002C01D000F0F2FD007A15
:1018D000002801D000F002FE089CE05C002800D047
:1018E0009BE0531C9B19D817400F1B180B401B1A69
:1018F000E018047C002C01D000F0DBFD007A002809
:1019000001D000F0EBFD089CE05C002800D084E0F2
:10191000931C9B19D817400F1B180B401B1AE0187B
:10192000047C002C01D000F0C4FD007A002801D016
:1019300000F0D4FD089CE05C00286ED1D01C80191A
:10194000C3175B0FC0180140CB1AE118097C0029AE
:1019500001D000F0AEFDE118097A002901D000F0B5
:10196000BDFDE15C002958D1131D9B19D817400F0C
:101970001B1807310B401B1AE018047C002C01D007
:1019800000F097FD007A002801D000F0A7FD089C28
:10199000E05C002841D1531D9B19D817400F1B183C
:1019A0000B401B1AE018047C002C01D000F081FDD4
:1019B000007A002801D000F091FD089CE05C00282E
:1019C0002BD1901D8019C3175B0FC0180140CB1A93
:1019D000E118087C002801D000F06BFD097A00298D
:1019E00001D000F07BFDE15C002916D1072307320E
:1019F0009219D117490F521813405B1AE218117C43
:101A0000002901D000F055FD127A002A01D000F023
:101A100065FDE25C002A00D1F2E5002200F04AFDFB
:101A20002C68E42C0BD8FFF747FA200006230C2281
:101A30007A210096FEF75CFEFFF746FA2C68033C1D
:101A40002C60002C00DA27E3E42C00DC27E3D02311
:101A50001B065B689B0400D59AE6E423E4242B6014
:101A6000FFF72AFA134B0C227A2120000093062359
:101A7000FEF73EFEFFF728FA8AE62C68E42C0BD826
:101A8000FFF71AFA200006230C227A210096FEF7AF
:101A90002FFEFFF719FA2C6803342C60E42CDCDCF1
:101AA000002C00DA74E6DBE7F01B0020FC1B0020B2
:101AB000E0FF0000FF0700000023059AB94613600D
:101AC0003B68069500261D005F46089C2378002B86
:101AD00000D01FE26378002B00D0FEE1A378002B3A
:101AE00000D0DDE1E378002B00D0BCE12379002BAE
:101AF00000D09BE16379002B00D07AE1A379002B21
:101B000000D059E1E379002B00D038E10A360834DF
:101B10001E2EDBD1A846BB464F460C99069D0A688F
:101B200053009B1843443B60053B762B0BD95B4627
:101B300052420A605A461B68043313605C2B02DD74
:101B40000123079A1370A84600265D46089C237857
:101B5000002B00D0F9E06378002B00D0D8E0A37808
:101B6000002B00D0B7E0E378002B00D096E023797B
:101B7000002B00D075E06379002B57D1A379002B9F
:101B800039D1E379002B1BD10A3608341E2EDED161
:101B9000102001F0D7FA079BAB461B784546002B77
:101BA00000D1D2E5FFF788F90020FEF779FDFFF7B5
:101BB0008BF913B0F0BCBB46B246A946A046F0BDB7
:101BC000622291463B6899444B46E62BDCD82B6851
:101BD0009B46B3445B46802BD6D8FFF76DF9FC23B8
:101BE000DB000A225946484600930723FEF780FD92
:101BF000FFF76AF9C8E7542291463B6899444B467F
:101C0000E62BBED82B689B46B3445B46802BB8D8E6
:101C1000FFF752F9FC23DB000A225946484600939D
:101C20000723FEF765FDFFF74FF9AAE74622914625
:101C30003B6899444B46E62BA0D82B689B46B3449F
:101C40005B46802B9AD8FFF737F9FC23DB000A228A
:101C50005946484600930723FEF74AFDFFF734F93B
:101C60008CE7382291463B6899444B46E62B00D9D5
:101C700081E72B689B46B3445B46802B00D97AE70B
:101C8000FFF71AF9FC23DB000A2259464846009365
:101C90000723FEF72DFDFFF717F96CE72A2291467F
:101CA0003B6899444B46E62B00D960E72B689B467E
:101CB000B3445B46802B00D959E7FFF7FDF8FC23BE
:101CC000DB000A225946484600930723FEF710FD21
:101CD000FFF7FAF84BE71C2291463B6899444B46C4
:101CE000E62B00D93FE72B689B46B3445B46802B2D
:101CF00000D938E7FFF7E0F8FC23DB000A22594659
:101D0000484600930723FEF7F3FCFFF7DDF82AE7C8
:101D10000E2291463B6899444B46E62B00D91EE7BC
:101D20002B689B46B3445B46802B00D917E7FFF72F
:101D3000C3F8FC23DB000A225946484600930723D8
:101D4000FEF7D6FCFFF7C0F809E73B689B46E62B99
:101D500000D900E72B689946B1444B46802B00D947
:101D6000F9E6FFF7A9F8FC23DB000A2249465846AA
:101D700000930723FEF7BCFCFFF7A6F8EBE662230F
:101D80009B46AB445B46E62B00D9BFE63B689846D2
:101D9000B0444346802B00D9B8E6FFF78DF8002306
:101DA0000A224146584600930733FEF7A1FCFFF78D
:101DB0008BF84B461D68A9E654239B46AB445B4613
:101DC000E62B00D99EE63B689846B0444346802BFC
:101DD00000D997E6FFF770F800230A2241465846DB
:101DE00000930733FEF784FCFFF76EF84B461D683F
:101DF00088E646239B46AB445B46E62B00D97DE64E
:101E00003B689846B0444346802B00D976E6FFF7FE
:101E100053F800230A224146584600930733FEF741
:101E200067FCFFF751F84B461D6867E638239B4671
:101E3000AB445B46E62B00D95CE63B689846B04471
:101E40004346802B00D955E6FFF736F800230A22D7
:101E50004146584600930733FEF74AFCFFF734F833
:101E60004B461D6846E62A239B46AB445B46E62B61
:101E700000D93BE63B689846B0444346802B00D9E6
:101E800034E6FFF719F800230A224146584600932A
:101E90000733FEF72DFCFFF717F84B461D6825E6C4
:101EA0001C239B46AB445B46E62B00D91AE63B68F5
:101EB0009846B0444346802B00D913E6FEF7FCFF5A
:101EC00000230A224146584600930733FEF710FCD0
:101ED000FEF7FAFF4B461D6804E60E239B46AB4413
:101EE0005B46E62B00D9F9E53B689846B04443468B
:101EF000802B00D9F2E5FEF7DFFF00230A224146DE
:101F0000584600930733FEF7F3FBFEF7DDFF4B4621
:101F10001D68E3E5E62D00D9DCE53B689846B04452
:101F20004346802B00D9D5E5FEF7C6FF00232800E5
:101F30000A22414600930733FEF7DAFBFEF7C4FF9F
:101F40004B461D68C6E50D9B98461E680E9B1C6897
:101F50000693EE2E01D9FFF741FB822C01D8FFF743
:101F60002FFB069B043C1C60072C01DCFFF73DFBAC
:101F7000089E00230B96D1463E000A93109500243C
:101F8000B2460B9D2B78002B16D053461F68434654
:101F90001B68E719BB420FDB3A000A3293420BDCA5
:101FA0005B461E680A9BF618069B1B68B34203DB60
:101FB000F21D934200DC80E10E340135702CE1D13A
:101FC0000A9B0B9A0A33083256460A930B921E2B31
:101FD000D5D1049B37001B78CA46109D002B01D138
:101FE000FFF706FB43461C68EE2C01D9FFF700FB08
:101FF000069B1E68822E01D9FFF7FAFAFEF75CFFF6
:10200000F8231B0202223100200000930523FEF773
:102010006FFBFEF759FFFFF7EBFAEE2C01D9FFF744
:1020200082FB4346822B01D8FFF771FBFFF77BFB56
:10203000EE2C01D9FFF730FB4346822B01D8FFF786
:102040001FFBFFF729FBEE2C01D9FFF7DEFA434611
:10205000822B00D81DE4FFF7D8FA9620400001F04B
:1020600071F86368334201D0FFF77EFB4246636834
:10207000134201D0FFF778FB9BE50023039A13700E
:10208000FFF7C3FA0023039A9370FFF74CFB00237A
:10209000039A5370FFF700FB002300242B60FEF728
:1020A0000BFFE74B0C227A21200000930623FEF75A
:1020B0001FFBFEF709FFFFF761FB7033136057E763
:1020C000622292463B689A445346E62B01D9FFF7B9
:1020D00051FA2B689B46B3445B46802B01D9FFF72E
:1020E00049FAFEF7E9FEFC23DB000A225946504676
:1020F00000930723FEF7FCFAFEF7E6FEFFF73AFA35
:10210000542292463B689A445346E62B01D9FFF786
:102110002CFA2B689B46B3445B46802B01D9FFF712
:1021200024FAFEF7C9FEFC23DB000A22594650467A
:1021300000930723FEF7DCFAFEF7C6FEFFF715FA59
:10214000462292463B689A445346E62B01D9FFF754
:1021500007FA2B689B46B3445B46802B01D9FFF7F7
:10216000FFF9FEF7A9FEFC23DB000A225946504680
:1021700000930723FEF7BCFAFEF7A6FEFFF7F0F97F
:10218000382292463B689A445346E62B01D9FFF722
:10219000E2F92B689B46B3445B46802B01D9FFF7DD
:1021A000DAF9FEF789FEFC23DB000A225946504685
:1021B00000930723FEF79CFAFEF786FEFFF7CBF9A4
:1021C0002A2292463B689A445346E62B01D9FFF7F0
:1021D000BDF92B689B46B3445B46802B01D9FFF7C2
:1021E000B5F9FEF769FEFC23DB000A22594650468A
:1021F00000930723FEF77CFAFEF766FEFFF7A6F9C9
:102200001C2292463B689A445346E62B01D9FFF7BD
:1022100098F92B689B46B3445B46802B01D9FFF7A6
:1022200090F9FEF749FEFC23DB000A22594650468E
:1022300000930723FEF75CFAFEF746FEFFF781F9ED
:102240000E2292463B689A445346E62B01D9FFF78B
:1022500073F92B689B46B3445B46802B01D9FFF78B
:102260006BF9FEF729FEFC23DB000A225946504693
:1022700000930723FEF73CFAFEF726FEFFF75CF912
:102280003B689B46E62B01D9FFF751F92B689A462C
:10229000B2445346802B01D9FFF749F9FEF70CFEF3
:1022A000FC23DB000A225146584600930723FEF721
:1022B0001FFAFEF709FEFFF73AF9E62F0DD8802E38
:1022C0000BD8FEF7F9FD00230A22310038000093F5
:1022D0000733FEF70DFAFEF7F7FD0023049A2B7083
:1022E0001370119A136801331360FFF743F80899CC
:1022F0004A780B789B188A789B18CA789B180A79B9
:102300009B184A799B188A799B18CA799B180A7A74
:102310009B184A7A9B188A7A9B18CA7A9B180A7B60
:102320009B184A7B9B188A7B9B18CA7B9B180A7C4C
:102330009B184A7C9B188A7C9B18CA7C9B180A7D38
:102340009B184A7D9B188A7D9B18CA7D09999B180A
:102350005A07D21A9200D21A52009132FF320A6002
:10236000002B00D028E6079A0133137024E60024DE
:10237000039B9C70E42E0AD8FEF79EFD06230C22D8
:102380007A2130000094FEF7B3F9FEF79DFD0F9A15
:102390001368013B1360FEF7EDFFFA20400000F0E8
:1023A000D1FE2C68E42C0BD8FEF786FD244B0C22C2
:1023B0007A21200000930623FEF79AF9FEF784FDA8
:1023C0000F9B1B68002B01DDFFF7ADF90123079A76
:1023D0001370FFF7A8F90024039B5C70E42E0AD861
:1023E000FEF76AFD06230C227A2130000094FEF7E6
:1023F0007FF9FEF769FD0F9A1368013B1360FEF742
:10240000B9FFFA20400000F09DFE2C68E42C0BD8A8
:10241000FEF752FD0A4B0C227A212000009306237E
:10242000FEF766F9FEF750FD0F9B1B68002B01DDE0
:10243000FFF732F90123079A1370FFF72DF9C04611
:10244000FF0700000024039B1C70E42E0AD8FEF74F
:1024500033FD06230C227A2130000094FEF748F960
:10246000FEF732FD0F9A1368013B1360FEF782FFFF
:10247000FA20400000F066FE2C68E42C0BD8FEF732
:102480001BFD174B0C227A21200000930623FEF738
:102490002FF9FEF719FD0F9B1B68002B01DDFFF7DD
:1024A000B4F80123079A1370FFF7AFF80126FFF77E
:1024B000FEF91422DC00E31A3C685B0009481B1992
:1024C000B10005330B5058460068074B121807320D
:1024D000CA500123039A9355FFF792F80A22E9E7BD
:1024E000FF070000F01B0020FC1B002010B540245B
:1024F000074A83009A181268C0005440C022224044
:10250000044C1B191A60044BC018416010BDC04632
:1025100004C0014004D0014000400140064B80004F
:10252000C3181B68C90092000A435A400C23134089
:10253000024A80180360704704C0014004D0014083
:102540000123D0228340120693629361084A8300DC
:102550009A1811684022514080320A400549C00053
:102560005B181A60044BC018052343607047C046CF
:1025700004C0014004D00140004001408023DB053D
:102580001868000F7047C0460FB400B5084883B004
:1025900003F088FE049B002B07D005A918000191C9
:1025A00003F0D0FC034803F07DFE012003F0E2FCC1
:1025B0002C900010088E001070B58C461600EFF3BA
:1025C000108472B60F490B68002BFCD0BFF35F8FED
:1025D0006346DB08C5180722C05C63461A40012326
:1025E00093401A000240034207D118432870BFF3FA
:1025F0005F8F0A6084F3108870BD61463000FFF77A
:10260000C3FFC0462C0100D0F8B5CE4647468C46E5
:1026100080B51C00EFF3108872B61C490B68002BC4
:10262000FCD0BFF35F8FA24221D80723994602E076
:102630000132944218D34946012611408E40D308F6
:10264000C718C35C1E42F3D1100033433B70BFF385
:102650005F8F00220D4B1A6088F3108800280EDB74
:10266000C0BCB946B046F8BD01204042EFE7BFF319
:102670005F8F00230B6088F310880120404263467F
:10268000002BEDD00898FFF77FFFC0462C0100D04B
:10269000044A1078431CDBB2172B00D910231370A7
:1026A0007047C0463010002000B5054B83B00100D4
:1026B000009318221F230348FFF7A6FF03B000BDB5
:1026C0003C900010741B00200021044B044ABFF30F
:1026D0005F8F02C39342FAD17047C046000100D019
:1026E000800100D0084B094A1360094A1360094A67
:1026F0001360094A1360094A1360094A1360094AC2
:102700001360094A136070478080808000E400E015
:1027100004E400E008E400E00CE400E010E400E081
:1027200014E400E018E400E01CE400E01F2318407B
:102730001E3B8340002905D0C021044A4900535064
:1027400013607047802201498B50FAE700E100E0F6
:1027500001228240034B1B6813405A1E9341D8B29A
:102760007047C04600E100E001238340014A136046
:102770007047C04600E200E0054B10309B688000C7
:10278000C358044A00209B1A2F229A4240417047A6
:1027900000ED00E03410002070B50D00EFF310865E
:1027A00072B60F4A1368002BFCD0BFF35F8F0D4B3E
:1027B00010309B6884001B590B4A934203D09D4202
:1027C00001D001F013F8074B9B681D51BFF35F8FD9
:1027D000BFF35F8F0022024B1A6086F3108870BD32
:1027E000240100D000ED00E0C1010010F0B5DE468C
:1027F00057464E464546E0B5824683B08B461700A5
:10280000EFF3108872B6604A1368002BFCD0BFF358
:102810005F8F00255D4B5D579946002D00DA9AE0E9
:102820004A466B005A4C5E19B6000193A3190093F7
:102830009B791370574B9A68534610339B00D158BD
:1028400099460B1B2F2B32D9534B994200D098E05D
:10285000019B0236ED18514BAD006353504BA61946
:10286000043B9B1B4F4A1B055B0D651913436B8093
:102870004D4B0121AB80FF23AB715B46AB60009BEE
:10288000EF710B4319004A46424B9B689950BFF3C6
:102890005F8FBFF35F8F00223B4B1A6088F3108875
:1028A00003B0F0BCBB46B246A946A046F0BD01202D
:1028B0000A008243D379B446BB422DD83B4BB51CAA
:1028C000190013001B1B5B415943090D8C46334B08
:1028D0006519A353324B0099043B5B1B1B05314D1B
:1028E0005B0D2B4304364B80A619131F9B1B1B0546
:1028F0005B0D1D4363468B715B468B602C4B8D805B
:10290000CF7113600143BEE75800C0188000201843
:10291000C679BE4225D902000623D356002BF3DA2E
:102920009A46131D9C4623486346009E9571043EBB
:10293000F61A36051B4B760D1E43019B96805A19DD
:1029400053469200A418A3715B46194AA0802260E6
:10295000E771A36097E700F049FF00254B465D57FC
:102960005EE766469A46131D9C46908804364005ED
:102970000015A6196044801B00050A4E400D304327
:10298000D2E700F033FF63E7240100D037A1002035
:102990003410002000ED00E0C101001000A1FFFF95
:1029A0006410002000E0FFFF01BDFFFFAAAA0000A5
:1029B0000148804701BD00000123034370B59C46D8
:1029C000EFF30581EFF3108572B6214A1368002BEF
:1029D000FCD0BFF35F8F1F4B04001F4AE41A644111
:1029E0006243120D1D4C8900A66852B276586645A6
:1029F0001CD00621595691421CD0122159569142A1
:102A000022D01E215956914220D02A215956032402
:102A1000914210D0124B19781A708171BFF35F8FF9
:102A200000220B4B1A6085F3108870BDA3680D4C13
:102A30005C50EFE700246100091989005B18FF2151
:102A4000997109499980E5E70124F4E70224F2E746
:102A5000240100D034100020AAAA000000ED00E0FC
:102A600037A10020C101001001BDFFFF00B5074BD9
:102A700083B001000093002205230548FFF7C4FD41
:102A8000002801DB1F23181A03B000BD5890001066
:102A90003DA10020024BC918890001607047C04663
:102AA0004000003470B5114C114DAC420FD2FF26DE
:102AB0002368002B0CD0FFF7EBFD01002000FFF78F
:102AC000E9FFA680BFF35F8F0834AC42F0D370BD3E
:102AD000FFF7DEFD01002000FFF7DCFF2671BFF3EA
:102AE0005F8F0834AC42E3D3F1E7C046F810002012
:102AF0000811002010B50400FFF7CAFD01002000F6
:102B0000FFF7C8FFFF232371BFF35F8F10BDC046DF
:102B100010B504000120FFF7C7FD034BC01880006B
:102B20002060BFF35F8F10BD40000034034BC91815
:102B300089000160BFF35F8F7047C04640000034DA
:102B40000A4B1968EFF3108072B60A68002AFCD0AD
:102B5000BFF35F8F1B68BFF35F8F00221A6080F3A3
:102B6000108840BF002000217047C0467020002020
:102B7000F0B5DE4657464E464546E0B585B0EFF324
:102B8000058303221A40B34B91005F580123934001
:102B90009B4602925A468846AF4B1A60AF4B03934E
:102BA0005B46AF4843630823FE5E002E37DABB88DE
:102BB0001BB2002B00DBA4E0BB79002B00D0E5E0CA
:102BC0000823F95E002920DB4B007A695B18DB00E3
:102BD000D3189D68DC686B1C00D104E1A04801009B
:102BE0004144826A0B69AE1A9B1A9E4215D3012397
:102BF000026A029883401A420FD0994800F0AAFB5B
:102C00008C4202DCCCD18542CAD940BF05B0F0BCB1
:102C1000BB46B246A946A046F0BD0D61EDE77A6914
:102C2000730091469B19DB0099444B469C68DD6814
:102C300000F090FB8D42BADC00D1F6E0002D00DA06
:102C4000DBE04A464B4652691B699246039A93421F
:102C500000D1CCE04A460821785E528800045146F3
:102C600010439847009001910099019A0B0013437B
:102C700000D1C2E013000A00002B00DBD9E02000E5
:102C80002900801A99414B469860D96000229B5ECA
:102C9000002B00DA8BE75D007C69EA18D200A218ED
:102CA00000949468D268A2468A4200DD7FE702D190
:102CB000844200D97BE70824A4463B81BC44009CA5
:102CC00000972F006546B4463E0006E05E00F2180D
:102CD000D200A2189768D268BA468A4207DC00D1AF
:102CE000B4E0F318DB00E518E35E002BEEDA66468D
:102CF0004A46009F13802E80BB881BB2002B00DA4F
:102D00005AE73A69EFF3108172B61368002BFCD0D2
:102D1000BFF35F8F0123BE885B42BB8036B23B6945
:102D2000BFF35F8F00221A6081F31088002E00DA53
:102D300042E73B0008333A0099467D6973009B19CE
:102D40000824115FDB004846EB18002913DB9C6860
:102D50000093A446DC6806E0A34240D00023F95E5D
:102D60003800002906DB4F007F18FF00EF19FB68D1
:102D7000A342F1DD009B068000201E5E1980002E1C
:102D8000DCDA1700BB79002B00D119E70023BB71F7
:102D90000823F95E4B1C00D137E73D000835AC46EF
:102DA0007C6903E084464B1C00D109E74B005B18AB
:102DB000DB00E0180A00E15E43881BB2002BF1DA69
:102DC00001256D42EE178560C66008257B5F934242
:102DD000E9D0634619803B8903803A81E3E7BB6809
:102DE0006345BBD9C6E7631C00D0F7E605E7534649
:102DF00050461B699847002823D14B461B883A69E7
:102E00003B81EFF3108372B611680029FCD0BFF349
:102E10005F8F49467A880A803A697E80BFF35F8F68
:102E20000021116083F31088C1E6844200D805E7D1
:102E3000BDE60B4800F08EFA009B019CC018614172
:102E400021E753460CCB009201930DE7824500D851
:102E500047E74CE7482000203C700540712B0010EC
:102E60000040054070B52D4C2569002D04D00A2185
:102E70002B48FFF70FFE70BD2A4E0321294800F0B2
:102E80005FFAE660FFF704FC274B0322C018D0234B
:102E900022701B061B6801216370244B8000A36015
:102EA0000F2320610220638063694942A180198059
:102EB0000231198647311D83585218315A527532E2
:102EC0005C399952183201319952183201319952B4
:102ED000183201319952083518329D520231183298
:102EE00099521832013199521832013199521832DF
:102EF00001319952183201319952183201319952E7
:102F00000B4B0C49DC6001303562FFF745FC0121B9
:102F10000320FFF70BFC084B1D60A8E77C10002086
:102F2000702000200040054040000034FFFF1000EA
:102F300048200020712B0010386005400048704781
:102F40007C100020F8B51F0008AB1B7804001600A9
:102F5000002B07D100F006FA32003B00121A8B4119
:102F6000002B51DB2269EFF3108C72B61368002B33
:102F7000FCD0BFF35F8F0223E15E256900293ADBB5
:102F80004B0060695B18DB00C218C35A6380BFF353
:102F90005F8F00232B608CF31088069B9660D760B0
:102FA0001361079B5361538801335B045B0C181C4E
:102FB000002B1ED083B25080080418432569EFF31C
:102FC000108672B62B68002BFCD0BFF35F8FA388EE
:102FD0001380A1802369BFF35F8F00221A6086F3FC
:102FE0001088237801329A400849E3685B181A6018
:102FF000F8BD0120DEE7BFF35F8F00232B608CF369
:10300000108801204042F3E70020F1E73C20000057
:1030100070B582B00092019301000269EFF3108451
:1030200072B61368002BFCD0BFF35F8F0223C85E1B
:103030000D6900283FDB4A69430016001B18DB00BE
:10304000D218F35A4B80BFF35F8F00232B6084F3B9
:103050001088069B1361079B5361009B019C936042
:10306000D460538801335B045B0C1D1C002B20D003
:10307000ACB20304558023430D69EFF3108C72B694
:103080002C68002CFCD0BFF35F8F8C881480888064
:103090000A69BFF35F8F002010608CF310880A78F4
:1030A00001309040CA68084952181060180002B0F8
:1030B00070BD0125DCE7BFF35F8F00232B6084F335
:1030C0001088013BF2E7C0463C20000010B5438960
:1030D0000A1493421ADD53009B184269DB00D3188F
:1030E0000469EFF3108C72B62268002AFCD0BFF39B
:1030F0005F8F5A88090494B2090C8A4208D0036988
:10310000BFF35F8F00221A608CF31088002010BD7F
:10311000094A22435A80012302698371BFF35F8FFA
:10312000002111608CF31088027804499340C26832
:10313000012052181360EAE70080FFFF3C200000E6
:1031400040787047F0B5C64600B582B0040000F084
:1031500009F9FA2206000F00200000230021920046
:1031600001F0D0FA8019794104000D1E02DA012421
:103170002E4D644206267642F71736196F41AF424C
:1031800014D811D000F0EEF832003B00121A8B4137
:10319000002B15DC002B46D02000290000F022F97E
:1031A00002B080BCB846F0BDA642EBD9002600278D
:1031B00000F0D8F832003B00121A8B41002BE9DDF9
:1031C00000F0D0F832003B00121A8B41002B0ADBD2
:1031D00000230193164B3200009316483B00FFF783
:1031E00017FF0130D8D000233900B0469C46124A60
:1031F0001248536A994204D8966A4645CCD29942FD
:10320000CAD10668EFF3108772B63368002BFCD082
:10321000BFF35F8F0368BFF35F8F66461E6087F35F
:10322000108820BFE5E7002AB6D0C9E7FFFFFF7F7F
:10323000412B00107C100020004005407020002031
:10324000F0B5CE46474680B504000D0085B0EFF3DB
:1032500005868946002E10D0364900204B6AAB42C5
:1032600006D38A6A5B1B591E8B41A2424041184318
:1032700005B0C0BCB946B046F0BD2F4FFB683A78E8
:1032800098461800039200F065F8039A131D424611
:103290009B009B5822001B1A9C462B00121A8B4144
:1032A0009E4210DC0DD020BF224A0020536A4B45BD
:1032B000DED3926A5B1B591E8B41A24240411843E8
:1032C000D6E79445EFD900F04DF822002B00121AF2
:1032D0008B41002B1BDB00230193184B2200009332
:1032E00038002B00FFF794FE002810DD114B5A6ABE
:1032F0004A451CD39B6AA34217D301003800FFF74D
:10330000E5FE0C4A0020536A4B45B1D3D1E7094A88
:103310000020536A4B45ABD30020926A5B1BA2424C
:1033200040415A1E93411843A2E74A45E5D120BFC8
:10333000E3E7C046004005407C100020412B001010
:1033400010B5024A0248FFF737F910BD749000101B
:10335000781B00200300416A0A00986A596A8A4271
:10336000FAD17047034B596A0A00986A596A914228
:10337000FAD170470040054070B505000E00184AAC
:10338000536A1900946A536A8B42FAD120001900DB
:103390002C00350024184D41AB4216D813D0104BE9
:1033A0002A005B6A9D4203D90D494B6A9342FCD3C4
:1033B000934207D10A4A02E0516A994202D1916AC6
:1033C000A142F9D370BDA042E9D9054B5B6A1C004C
:1033D0005A1CEFD0012201246442E5175242E3E770
:1033E00000400540064A536A9942FCD807D1044B75
:1033F00002E05A6A914202D19A6A9042F9D8704723
:1034000000400540F8B5DE464E4645465746E0B515
:1034100005008B4618000A99914600F04FFB0A9B65
:103420006C001E026419304BA400E41863688046E7
:103430009E4200D966602F1FFBB29A46012B2FD9FE
:10344000C0238022294FAD009B0179591201E31856
:103450001A6000291BD14B4622685B015340E022D1
:10346000134080225201A21813605346012B2FD91A
:10347000802380229B01E31812011A604346666094
:103480007B51F0BCBB46B246A946A046F8BD786960
:1034900000F014FB013043001B18033BFDD2DAE7B8
:1034A0005B46012BCCD1C02303229B01E3181A6099
:1034B000023AA3681A42FCD04A46236852015A4095
:1034C000E023134080225201A218084F1360AD0080
:1034D00058460323216841400B401360012282407B
:1034E000A3681A42FCD0C3E7008000407C1B002088
:1034F000F0B5D6464F464646440098462418324B0F
:10350000A400E41863688A469146C0B5FF2B02D830
:1035100080235B006360061FF6B2012E2FD9C02303
:1035200080222A4F85009B0179591201E3181A6005
:1035300000291BD14B4622685B015340E022134017
:1035400080225201A2181360012E30D980238022DC
:103550009B01E31812011A6080235B0063604346FD
:103560007B51E0BCBA46B146A846F0BD786900F090
:10357000A5FA013043001B18033BFDD2DAE753469E
:10358000012BCCD1C02303229B01E3181A60023A1D
:10359000A3681A42FCD04A46236852015A40E023ED
:1035A000134080225201A218084F13608500504634
:1035B0000323216841400B40136001228240A3682D
:1035C0001A42FCD0C2E7C046008000407C1B0020AD
:1035D000014B8000C05870477C1B0020F0B5C646E8
:1035E000040000B52348160098460D0000F066FA66
:1035F0000100300000F062FA4346069A1B041203F1
:1036000013439C4623680600002B22DB1A4B1B4801
:10361000E218531E9A4180235242120B9B0112035F
:10362000D218174B1A60174B1A60130001688B43AE
:10363000FBD12122144B2560E318A6601A60226892
:10364000002AFCDA6246E26008221A6080BCB846B2
:10365000F0BD3F2322681340AB42D7D1A3681B05BE
:103660001B0D8342D2D1EE22E368D20213406345A0
:10367000CCD1EBE7001BB7000040FDBF08C0004005
:1036800000E0004000F000400430000010B580244D
:103690001C4BE4051C6000281AD001231A4C184367
:1036A0001A4BDC611A4C44401C62596298628021BA
:1036B000144BC9051960174817490860E021C9046F
:1036C0001960002A07D18022144B12061A6010BD1F
:1036D0000E4BD861EBE753019B1A9B009A1880238D
:1036E00012015B049A4209D213000D490B60074B8B
:1036F0005A608022094BD2051A60E8E7094B1A008C
:10370000F3E7C04600B00540D3C007B000800540D5
:103710002D3FF84FFCFF01000820014000A00540AC
:1037200010200020FFFFFF008023024A9B000B4374
:10373000D362704700800540002310B50100988ACD
:103740001B8B984710BDC046162310B50100188882
:103750005B88984710BDC046F8B54746CE4680B551
:103760000F1E18D0142399460433040000250126A7
:1037700098464B461888434621681B88984701C4E1
:10378000431E984101350640AF42F2D13000C0BC23
:10379000B946B046F8BD0126F8E7C046002370B52B
:1037A00004000D00988A05491B8B984703000020F0
:1037B000002C01DB0130A040290098475542000051
:1037C000AA23064A1B0113608D235B00D3600449C2
:1037D000044B19605368002BFCDA7047004002402C
:1037E00000B0FA00006002407047C04610B50148C2
:1037F000FEF7CAFE9890001070B5074D074EB5420F
:1038000009D20024013E761BB608013608CD0134EA
:103810009847B442FAD170BDB88D0010F48D0010F5
:1038200070B5074D074EB54209D20024013E761B04
:10383000B608013608CD01349847B442FAD170BDBC
:10384000EC8D0010F48D0010054B064A06491A60F5
:10385000064A074B1A6010000B689843FBD170476B
:1038600000E00040BFCDFBFE08C00040FE7F3C00F2
:1038700000F00040044BDB6C002B03D18022034B93
:10388000D2021A607047C046000011504C201150FF
:10389000044A054B1A60054A1368DB018033FBD1EB
:1038A0007047C046FFFFFF0100F0004008C0004025
:1038B0004022034B9A675A671A67DA667047C04618
:1038C00000F0014010B5FEF7FFFE10BD70B52849AD
:1038D000284D294E6D1AAC102200302C00D9302210
:1038E0003000920000F080FFBC2D3DD823002A3B21
:1038F000224A052B1DD9302075196D07A446001BDF
:10390000EB0F002D03DA611C8C46A1007250C01A27
:10391000E3189B004108F318C900C9181A605A60DF
:1039200008339942FAD1012303421DD098436044E1
:103930000400A300F250631C2F2C15D09B00F25002
:10394000A31C2E2C10D09B00F250E31C2D2C0BD06E
:103950009B00F250231D2C2C06D09B00F250631DBF
:103960002B2C01D09B00F250054B9E6070BDC046D1
:1039700000010010C001001000000020C101001073
:1039800000ED00E0002310B5294C82B0A367FFF7DB
:1039900017FF0122274B1A60636C012BFCD1032215
:1039A000254B1A60224A936B012BFCD10133009303
:1039B0000121224A22480433FFF710FE052301218A
:1039C0000093204A2048FFF709FE0022022104202C
:1039D0001E4BFFF78DFD0022012105201C4BFFF738
:1039E00087FD0022002107201A4BFFF781FD0022EE
:1039F00000210820174BFFF77BFD8023DB0000939D
:103A0000002200210920134BFFF7FCFC0022104B81
:103A100000210620FFF76CFD0420FFF7D9FD0E49B9
:103A200000F04CF801000020FFF77EFE02B010BD50
:103A3000008000403CB0004030B00040002F68598A
:103A400000800240008C864700C00240001BB70087
:103A500040597307006CDC0240420F00014804210A
:103A6000014B1847A010002059370010124A936FDD
:103A70009B0815D29066D166002905D0FFE7FFE7C5
:103A8000FFE7516F106F704704B580210906C21718
:103A90005140002800D0C84305F03EF9002104BD84
:103AA000F0B5146E556E576F166FFFF7E3FF14668F
:103AB000556657671667F0BD000000D0114A936F36
:103AC0009B0813D210665166002905D0FFE7FFE777
:103AD000FFE7516F106F704704B5002801D0002038
:103AE000C04305F019F9002104BDC046F0B5146EBD
:103AF000556E576F166FFFF7E5FF146655665767EB
:103B00001667F0BD000000D094464A4A926F9208B2
:103B1000624601D228E0C046F0B5464E346E756E5E
:103B2000776F366F00F020F89446424A1466556667
:103B3000576716676246F0BD94463E4A926F9208F8
:103B4000624601D254E0C046F0B53A4E346E756E0E
:103B5000776F366F00F04CF89446364A1466556617
:103B6000576716676246F0BD002B24DB11D0002991
:103B70003EDA00B5C943404200D1013100F038F8C7
:103B8000C943404200D10131DB43524200D10133ED
:103B900000BD002AEBD1002801D1002905D000206A
:103BA000C90FC90701D1C043410800B505F0A4F809
:103BB0000022002300BD00B500290ADBDB4352428E
:103BC00000D1013300F014F8C943404200D1013163
:103BD00000BDC943404200D10131DB43524200D114
:103BE000013300F005F8DB43524200D1013300BD40
:103BF000002923D1002B18D1002A0CD0BC460D4F30
:103C000038667A6600210023FFE7FFE7FFE77A6F57
:103C1000386F67467047002801D00748010000B59B
:103C200005F06AF80022002300BD02000B0000200E
:103C300000217047000000D0FFFFFFFF002B00D0E5
:103C4000BFE0130C28D1002AE7D080B4114F3966A9
:103C50007A66FFE7FFE730B4040C7B6F396F1B0413
:103C600023433B667A66FFE7FFE7FFE7C04684B27F
:103C70007B6F3D6F1B0423433B667A66FFE7FFE7DC
:103C8000C04600232C042D0C7A6F386F001969414F
:103C9000B0BC7047000000D0F0B594460025140E6B
:103CA00001D112020835140F01D112010435940F0D
:103CB00001D192000235D40F01D152000135D40B4D
:103CC0000134254F7C66254C3C660E0C93B2FFE711
:103CD000FFE7FFE73C6F6643360C7703BE4673434E
:103CE000DF0B5B04C01AB941130C7343DB18C91A0C
:103CF000CE086643360CB64493B273431F0F1B01C4
:103D0000C01AB941130C73431F0B1B05C01AB941EC
:103D1000860D8F023E436643360C092D24DB520A82
:103D20007243801A7703460A6643360C16235B1BE0
:103D3000DE40DF40BF1964466643821B704604358F
:103D400006330100D940A840C01900D30131A24276
:103D500006D20023F0BD0000000000D0FFFFFFFFEF
:103D6000121B0130F3D3F1E709277F1BFE406446A5
:103D7000A2B27243801A00D20139220C7243130C92
:103D80001204821A99410B00704604351337010062
:103D9000F940A840801900D30131002B02D1A24282
:103DA0000AD2F0BD013000D30131121BFAD2013B1F
:103DB000F8D1A24200D2F0BD013000D30131121B74
:103DC000F7E7F0B51C0C00D080E00CB400251C0A0D
:103DD00004D11B02160E3343120208351C0B04D10A
:103DE0001B01160F3343120104359C0B04D19B00B9
:103DF000960F334392000235DC0B02D192185B41DF
:103E000001351C00971864410134464F7C66464CCE
:103E10003C660E0CFFE7FFE7FFE7C0463C6F6643DA
:103E2000360C7703BE4697B27743C01B00D20139E8
:103E3000C01B00D201399FB27743C91BC91B170CA5
:103E400077437E04FF0B801BB941CE086643360CD6
:103E50000C2D33DBB644120B1F053A431B0B97B2F4
:103E60007743C01B00D201399FB27743C91B170C9F
:103E700077433E043F0C801BB941860D8F023E43C1
:103E8000664329277F1BFE400C3D7746AF40BF1994
:103E900030BCA2B2ABB272437343801A9941220C78
:103EA0007243130C1204801A994102000B0001376F
:103EB000001BA941F9D2781E0021F0BD0C277F1B01
:103EC000FE4077467F0BAF40FF19E0E700245D1C02
:103ED00007D0144F7D663966FFE7FFE7FFE7FFE78E
:103EE0003C6F95B29EB265436643401BB141150CD1
:103EF0001E0C6543664336042F0C3E432D04401BC5
:103F0000B141994204D202000B0020000021F0BD13
:103F100001D19042F7D3801A994101349942F2D3EA
:103F2000F6E70000000000D0FFFFFFFF48404140DF
:103F3000484018B41B4B5B68FC46019308BD04DF86
:103F4000D741001018B4174B1B68FC46019308BDFD
:103F500000DFE14100109446134A926F920809D2A3
:103F6000624618B40F4BDB68FC46019308BD0CDFBA
:103F7000994400100C4AF0B5146E556E576F166FC9
:103F80006246FFF7EEFF084A1466556657671667E4
:103F9000F0BD18B4034B9B68FC46019308BD08DFD5
:103FA0003D43001058130020000000D0FFB55040E2
:103FB0004240504059404B40594000E0FFB5154F3A
:103FC0004C00640D03D0BC4204D10C0314D8002073
:103FD000090D09055C00640D03D0BC4204D11C032B
:103FE0000AD800221B0D1B0501264B4009D44B406B
:103FF00003D58B4200D18242FFBD9942FCD1904251
:10400000FFBD0B43DB1803431343F5D0C9434918E5
:10401000FFBD0000FF07000000B5FFF7CFFF8041A4
:1040200000BDC04600B5FFF7C9FF01D9002000BDA3
:10403000012000BD00B5FFF7B9FF01D9002000BD88
:10404000012000BD00B5FFF7B1FF804100BD012098
:1040500040054A00121804D85A00121801D800204E
:1040600070470120704700000021002805D17047EB
:10407000C1174840401AFAD0C90713B5064B1B6850
:1040800098470CBC441CA2401005120B0349091BA5
:1040900009051943114310BD6C2000201F040000C6
:1040A00010B54C00620D8023D218DB00D21A5B05DC
:1040B0007E2A10DD9E3A13DACC170903490819430A
:1040C0005242D140640001341532202A05DAD04032
:1040D0000843604310BD002010BD0846604310BD7A
:1040E000C80FC018013810BD18B4044B5B6AFC46F9
:1040F000019308BD24DF494600100000581300203A
:10410000132370B51D78012D19D014DD1F48FFF75A
:104110001BFB06001E48FFF717FB1E4C80223100D8
:10412000200000F061FB022D2DD01B48FFF704FB9F
:104130001A4B186070BD1A4B164CA364F5E7184B68
:10414000144C23606360A360E36023616361A36137
:10415000E36123626362A362E36223636363A36335
:10416000E36323646364A364E36423656365A36515
:10417000E36523666366A366E36623676367A367F5
:10418000E367A364D1E7064BA364CEE75344000082
:1041900053460000581300204C3300006C200020D0
:1041A000A541001007B5604601880A0A0230DF2ADF
:1041B000FAD1C9B2820804D30288408800041043AF
:1041C00000E00068014A5050039007BD58130020DA
:1041D0000FB403BC0CBCF0B50124E407634000E05D
:1041E000F0B50C0DCF0F661E3605891B640503D391
:1041F000C943404200D30131640D03D0661CF60A66
:1042000007D0E41B00207F00791C89078912803CBD
:1042100024031D0DDF0F6E1E36059B1B6D0503D39A
:10422000DB43524200D301336D0D03D06E1CF60AFE
:1042300007D0ED1B00227F007B1C9B079B12803D5B
:104240002D032F1B661B58D4A446202E46DA203798
:104250001400BC401D00BD40F24033412A43801889
:104260005941CB0F05D0C943C0430022644250419D
:10427000514162464D0D28D10D0D07D100281FD0A8
:10428000241940414941013A0D0DF9D0640006D38B
:10429000013000D30131002C01D140084000013A27
:1042A0000BD4941CE40A04D112051144DB07194411
:1042B000F0BDD907204B194300E0D9070020F0BD1D
:1042C0000029DDD1002CDBD1F0BD0132C60740084A
:1042D000CD0728434908002EE1D0D9E73C2E29DA42
:1042E000203E40371400BC4000D00124F24014436B
:1042F0001A00BB401C43D317ACE7AC46202F08DAAA
:1043000020360400B4400D00B540F8403941284340
:10431000A5E73C2F0CDA203F40360400B44000D023
:104320000124F84004430800B1400C43C117EAE7F8
:1043300010001900002494E70000F07FF0B50C0D88
:10434000661E3605891BE60A6405640D02D0651CED
:10435000ED0A04D0002001210905803C2403A44675
:104360001C0D671E3F05DB1BE70A6405640D02D0C8
:10437000651CED0A04D0002201231B05803C2403A8
:104380007740644497B484B296B27443070C7E437A
:10439000150C6F4380B26843361802D30120000425
:1043A0003F183004350C00197D41844688B29AB21A
:1043B00050430C0C62431F0C7C438EB27E43921917
:1043C00002D301263604A4191604170C36186741C7
:1043D00001BC81B29AB25143040C62431B0C5C4392
:1043E00080B25843121802D301200004241810048C
:1043F000130C401863412D185E410020474106BC54
:1044000088B293B258430C0C6343120C544389B2E4
:1044100051435B1802D301210904641819041A0CD2
:10442000091862416D1856410020474118BCF90235
:10443000720D1143F0026A0D1043ED020A0D03D113
:104440006D1940414941013B124E9B1B7600B3421E
:104450000ED26D0007D30130002671416646354308
:1044600001D1400840001B05C918E4072144F0BDF4
:104470000BDA013306D1013004D101314F0D01D0E7
:104480004908F2E7E1070020F0BD013631050020C0
:10449000EBE70000FF030000F0B51C0D671E3F05B1
:1044A000DB1BE70A6405640D02D0661CF60A04D023
:1044B000002201231B05803C2403D0252D06002665
:1044C000F6432E661E096E66CE0FF619B4464900F5
:1044D0004F0D02D07E1CF60A03D000200021403F81
:1044E0003F033E1BB600B444013F7F05C91B49088A
:1044F0002E6F013676089C02950D25437543ED130A
:104500007543AD1301356D10F603761B0CB4CC0268
:10451000450D2C43A2B2B3B25A43270C7B43350C52
:104520006F43A4B26C431B1902D3012424043F1926
:104530001C041D0CA4187D4124196D41009A91B2F0
:10454000ACB26143170C7C432B0C5F4392B25A43CD
:10455000A41802D301221204BF182204230C5218FB
:104560007B41019C6C431B19520ED9010A43440143
:10457000A01A81B2B2B2514303145A43360C7343AA
:1045800087B27743D617D21900277E4136049B198C
:104590001704160C7F185E417316ED18F301002600
:1045A00080337541A90F06D16400690AE8055B0AEA
:1045B000184309D22FE00422944480337541A90A9C
:1045C000A8059B0A184326D3404149412404009A78
:1045D000019B0D005543641B4343E41A95B286B218
:1045E0007543170C7E43030C5F4392B25A43B618CF
:1045F00002D301221204BF183204330C52197B413A
:1046000052429C41002C02D400220130514140080A
:10461000CA071043490802B06246D7079210084BF8
:10462000D218084B9A4203D212058918C919F0BD55
:104630000020002A01DC3900F0BD01331905F5E73F
:10464000FD030000FE070000002200B5203200F04C
:1046500004F8080000BD000000220B150AD410B5B4
:10466000944600F031F81414013400DA0021CB171D
:10467000144C20470020002170476244343A0CD487
:104680000C2A07DA04009140904052422032D44074
:10469000214310BDD843D94310BD203207D40C4666
:1046A0009440524220321141D040204310BD0800B6
:1046B000C917203203D452422032104110BD1800D5
:1046C000190010BD7B4600100A0DCC0F531E1B05B0
:1046D000C91A520503D3C943404200D30131520DD8
:1046E00003D0531CDB0A07D0121B00206400611C9E
:1046F00089078912803A1203014BD21A70470000D1
:10470000FF03000051434343C9188C46110C83B288
:104710004B4310B4040C614392B280B250436243E5
:104720001C041B0C001910BC59411304120CC018B6
:104730005141614470470000132310B51C781348A1
:10474000FFF702F8012C0BD004DD01008022104895
:1047500000F04AF80F48FEF7EFFF0F4B186010BD4E
:104760000B4C01005422200000F03EF80B4B636517
:10477000A365E36523666366A366E36623676367F1
:10478000A367E3672362E361E4E7C04653460000A2
:10479000581400204C3300006C200020A14700106A
:1047A00007B5604601880A0A0230DF2AFAD1C9B289
:1047B000820804D3028840880004104300E00068A7
:1047C000014A5050039007BD5814002001480421AD
:1047D000014B1847B010002059370010014B1B68DF
:1047E00018470000B0100020014B5B68184700001C
:1047F000B01000209A4200D2885470477047C046DB
:10480000F8B5DE4657464E464546E0B599460D9BFF
:104810000700884693469B0728D00B9B002B3CD073
:1048200016000B9C0A9D3619321B013C4B46414633
:10483000285DB847002CF7D135000D9B9B070ED59E
:104840005B46EC1A0C9BA34209D91E002A004B467A
:10485000414620200134B8470135B442F6D3280040
:10486000F0BCBB46B246A946A046F8BD0B9B0C9ACD
:10487000934214D213005D460C000B9A9E1A7619CF
:104880002A004B46013521002020B847B542F7D118
:104890000B9BA046002BC4D1E1E71500CDE75E4697
:1048A000002BBED15D46DAE7F0B54F46D646464608
:1048B000C0B584B09C460EAB1F78129B9146BA4699
:1048C0000D9C109E119D9B074CD4002D41D1B442EC
:1048D00048D20123129F1F40B8460C9B5F1E302315
:1048E00003E001343B55A64201D9202CF9D14346BF
:1048F000002B00D187E00C9B5F1E3023A54204D81B
:1049000030E001343B55AC422CD0202CF9D1129B25
:10491000DB060DD5129B5B0557D4A64267D0A54296
:1049200065D00F9B102B53D0022B5BD0202C36D19F
:104930002023129C01930C9B4A46009303946346E8
:104940000295FFF75DFF04B0E0BCBA46B146A84649
:10495000F0BD0123129A13409846012313422DD132
:10496000B442BAD3129BDB061ED5129B5B05D8D48A
:10497000002CD2D10F9B102B60D00F9B022B71D03B
:10498000302301240C9A13705346002B11D1129B33
:104990005B0740D52B260C9A631C1655C9E72300EC
:1049A000013430260C9AD654202CC1D05346002B0B
:1049B000EDD02D260C9A631C1655BAE7002F34D083
:1049C000013DB44200D288E795E70F9B102BAFD191
:1049D000129B9B063CD5202CAAD058230C9A135529
:1049E0000134A3E7202CA3D02300013407E0631E89
:1049F000012CBFD00F9A102A36D0022AD1D16226BC
:104A00000C9AD65492E7129BDB06CDD5129B5B0520
:104A100000D482E785E7129A2300160700D488E7BE
:104A200020260C9A0133165583E70C2313405F1E92
:104A3000BB41ED1AB44200D24FE75CE7129B9B06E4
:104A40000ED478230C9A02241370302353709BE702
:104A5000202C00D16CE778230C9A1355013465E7BC
:104A60005823EFE76033EDE70C9AA61EB618129AAA
:104A7000920602D55822327093E77822327090E77E
:104A800010B5002800D110BD01F0C2FBFBE7C04605
:104A9000F0B54E46DE4657464546E0B595B08346EE
:104AA0008946924698461E9A1F9B10001900209E28
:104AB000FFF7CDFA002800D0D2E11E981F990122FD
:104AC000C44B5242FFF7A8FA002800D001E11E981B
:104AD0001F990122C04B5242FFF7B4FA002800D0C0
:104AE000D6E01E981F990022BC4BFFF7ABFA0028B6
:104AF00000D0B5E01E981F990022B94BFFF78CFA41
:104B0000002800D0ACE01E981F9900220023FFF778
:104B100083FA002800D0D1E000230B93229B5B0591
:104B200000D406260024302306E006AA01341732FA
:104B30001355013E202C01D0092EF6D81E981F993E
:104B4000FFF7AEFAA74BF2009B180CCB05000892BA
:104B50000993FFF78DFA02000B001E981F99FFF7CB
:104B6000E8F9089A099BFFF714FA06900791FFF7F6
:104B7000BBFA0700FFF778FA02000B0006980799C6
:104B8000FFF7D7F90022984B06900791FFF75AFAE2
:104B9000002800D1E9E001373800FFF765FA02008C
:104BA0000B0008980999FFF73DFA002801D000276B
:104BB0000135002E00D1B7E0069513E0172306AAB1
:104BC0009B180A21380001341D19FEF777FF303198
:104BD000297038000A21013EFEF770FF092F00D826
:104BE000E1E00700202CE9D1069D20240CAB0693C0
:104BF000172706ABFF180DE028000A21FEF736FF45
:104C000001343031280039550A21FEF72FFF051EE7
:104C100000D1B7E0202CEFD10323229A1340012BBF
:104C200017D1219B002B14D00B9B002B00D1E3E06C
:104C3000219B013B2193202B0BD93023219A06E0A5
:104C400006A9013417310B55944200D3A0E0202C63
:104C5000F6D1229B01940393219B0293069B21E0B2
:104C6000229B52460493219B4946039358461E9B20
:104C70001F9C029600930194434600F043F9040000
:104C8000200015B0F0BCBB46B246A946A046F0BD18
:104C9000229B5B070FD40322544B2299019203916C
:104CA0002199029100935246434649465846FFF7E0
:104CB000A7FD0400E4E704224D4BEEE71E9A1F9B7C
:104CC00000200021FFF735F901231E901F910B935F
:104CD00024E70223229A54461A40229B06929B07FD
:104CE00000D1ACE02600434D08942F1F3200E87835
:104CF00043464946013DD8470136BD42F6D1089C9E
:104D0000069B0434002BBBD05746219AE31B9A42E2
:104D1000B6D9150022004346494620200134D84721
:104D2000E31BAB42F6D3ABE72800FFF7A1F9020083
:104D30000B001E981F99FFF7FCF82B4B0022060072
:104D40000F00FFF769F90CAB0693002800D04FE77E
:104D5000002230003900244BFFF774F9002800D0FE
:104D600046E7012301359D4342E700220698079953
:104D70001D4BFFF751F9002800D01AE7002F59D139
:104D8000013716E70323229A1340012B00D1A6E036
:104D9000202C00D15DE70B9B002B3AD02D23069AE7
:104DA0001355013455E7069D202C00D11DE7302313
:104DB000361906E006AA013417321355202C00D10B
:104DC00013E7A642F6D12E230CAA0134069293557E
:104DD0000EE7C046FFFFEFFFFFFFEF7F65CDCD4140
:104DE00065CDCDC1E82401100000E03FEC9000103B
:104DF000E4900010F49000100C23229A134257D034
:104E0000219B013B2193A34200D916E7202C00D11E
:104E10001FE7229B5B0704D52B23069A1355013409
:104E200017E7229B1B0700D413E72023069A13558C
:104E300001340EE7FB0700D4BBE60137B9E6219B3E
:104E4000042B00D84EE755464F46043CE4182A0090
:104E50004346013539002020D847AC42F7D141E71D
:104E60000227229B55461F409B0726D006975F4688
:104E7000234EEC1C2A00B078434649460135B8471A
:104E8000013EAC42F6D1069F002F00D1F8E657460E
:104E9000219AE31B9A4200D8F2E61500220043460D
:104EA000494620200134D847E31BAB42F6D3E7E65E
:104EB000219BA34200D9C0E6CBE6219B032BD5D989
:104EC000069754464F46033DED18220043460134F1
:104ED00039002020D847A542F7D1069FC6E7219B7D
:104EE000002B00D154E70B9B002B85D0219B013B6D
:104EF00021939C4200D2A0E6202C00D04EE7A8E6E9
:104F0000F0900010F0B54546DE4657464E46E0B5F7
:104F10009BB0249C259D8246884693469946220054
:104F20002B0020002900FFF792F8002800D0C1E0F4
:104F30000122200029007C4B5242FFF783F8002811
:104F400000D0B7E0012220002900784B5242FFF741
:104F500063F8002800D0ADE00022002320002900E3
:104F6000FFF75AF8002800D0BBE10894099508988B
:104F700009998023289ADB001A400F928022289EEC
:104F80001201164032000E96289E0F000A901E4213
:104F900000D0A4E00B00034300D0CBE0002A00D0F7
:104FA00012E2320006332693022313400C930223AD
:104FB000134200D00AE2279B042B00D215E20027FF
:104FC0000426043B0E930022002320002900FFF753
:104FD00023F8002800D0C8E1554B289A13400493C9
:104FE0000E9B0393269B0293089B099C00930194BC
:104FF00041464B465A465046FFF74AFD02002020E4
:10500000289B0025034059424B415B421840531CEA
:10501000089341464B464530D047FB17FC185C408F
:10502000FB0F1F270A93731E0E930AABFF1806E0AF
:1050300020000A21FEF742FD0400202D08D00A219D
:105040002000FEF73BFD013530317955092CEFD8B2
:10505000052306930E9B56460593002304930A33BB
:1050600003930A9B4146029312AB009330004B46D8
:10507000089A0195FFF718FC0C9B002B28D05F467F
:10508000279BC41BA34223D982461D003A194B46D5
:10509000414620200134B047A542F7D85046594632
:1050A000279C421A01320023944200D395E101303B
:1050B00018180DE0289B009401950493279B0393F7
:1050C000269B02934B465A4641465046FFF7E0FC6A
:1050D0001BB0F0BCBB46B246A946A046F0BD01439A
:1050E0002AD10E9B3200002B00D15DE70027269BC2
:1050F0000026BB4200DD82E10022002320002900BF
:10510000FEF78AFF002800D04BE1289B084A029650
:105110001A408023DB0013430493279B0393089BCF
:10512000099C00930194CDE7FFFFEF7FFFFFEFFFA6
:10513000FFF7FFFF06232693B24B7800400DC018FF
:10514000FEF796FFB04AB14BFEF723FFB04AB14BD2
:10515000FEF7F8FE3F03B04B3F0B3B430C900D9125
:1051600000220A981900AD4BFEF7E3FEAC4AAD4BA6
:10517000FEF70FFF02000B000C980D99FEF7E2FE00
:10518000FEF78EFF0700FEF773FFA74AA74B0A90B2
:105190000B91FEF7FEFE0022A54BFEF7D3FEFEF7B5
:1051A0007FFFA44A06000A980B99A34BFEF7F1FE75
:1051B0000A900B913000FEF75BFFA04AA04BFEF770
:1051C000E8FE02000B000A980B99FEF7B2FE0200FF
:1051D0000B000A900B91FEF7DCFE0C900D910A98E3
:1051E0000B9902000B00FEF7ADFE0022109011910A
:1051F0000C980D99934BFEF7AEFE0022924BFEF7F2
:10520000A1FE02000B000C980D99FEF7A4FE0022EF
:105210008E4BFEF797FE02000B000C980D99FEF7DF
:105220009AFE0A9A0B9B0C900D9180210020C905D3
:10523000FEF77FFE02000B000C980D99FEF782FE30
:1052400002000B0010981199FEF785FE0022724BA8
:10525000FEF778FE7E4B0022F6183305FEF799FE26
:1052600002000B000A900B9108980999FEF7D4FEF2
:10527000002808D00A980B990022734BFEF76BFEAA
:105280000A900B91013F0A990B9A0B0011003A000A
:105290006332C62A12D802222898042610400E9A99
:1052A0000C90002A26D1279B042B05D9002800D07A
:1052B000A1E0279B043B0E93042642E0022228989B
:1052C00010400E9A0C90002A13D1279B052B00D872
:1052D00089E0002800D084E0279B0526053B0E933B
:1052E00032E080231B069C46AC4463460894099335
:1052F0003DE605260B4300D1F9E608980999554A81
:10530000554BFEF797FE002808D00898099900220F
:10531000524BFEF781FE002800D0E8E6269B002BCA
:1053200034D00F9B002B31D0269B013B2693279B2B
:10533000B34204D90C9B002B59D002230C930023B9
:105340000E93002F00D13EE60A9A0B9B089809990C
:10535000FEF701FE00220890099100232000290099
:10536000FEF75AFE002800D136E6089C099D289ACF
:1053700080203B4B00061340220004930E9B0393B6
:10538000269B02932B180092019331E6279BB34290
:10539000D5D90C9B002B2AD000230E9302330C93FB
:1053A000CFE7289B2E4A8020089C099D1A40802325
:1053B000DB00134322000493279B000603932B1862
:1053C0000092019302967DE6052695E600230E9352
:1053D0000233002704260C93F5E54B1E1B191B1AFC
:1053E00065E602230C930526AEE70423E7E5279B39
:1053F0009B1B0E93A5E7022304260C93A1E7DB1B5E
:105400005E1E79E601FCFFFFFB799F501344D33FFA
:10541000B3C8608B288AC63F0000F03F0000F83F09
:1054200061436F63A787D23F71A379094F930A4005
:105430000000E03F1655B5BBB16B0240EF39FAFEF4
:10544000422EE63F00002C4000002440000018409F
:10545000FF0300002D431CEBE2361A3F80842E41EF
:10546000FFF7FFFFF0B55746DE464E464546E0B52E
:10547000A3B01F002C9B92460C93C94AC94B8B4684
:105480000B901A60002900D1BFE1002338789946BB
:10549000002800D1C1E1C44B4C460993C34B0E9385
:1054A0005B460A9308E0220053460A990B9DA847E1
:1054B00001343878002876D001372528F3D110231D
:1054C0009B46083B9946043B9846033B0026022531
:1054D0009C463878791C0300203BDBB2102B03D8A4
:1054E000099A9B00D3589F460300303B092B36D9BD
:1054F00000252A2800D1A7E000230D932E283FD0B5
:105500000300683BDBB2122B1BD80E9A9B00D358CA
:105510009F4663460F001E43DBE70F002E43D8E78C
:1055200043460F001E43D4E75B460F001E43D0E7FF
:105530004B460F001E43CCE7802378785B001E4368
:1055400001310F00672845D82428ACD90300253B3A
:10555000DBB2422BA7D896499B00CB589F4600252B
:10556000AB005D196D002D1808780F000300303B6B
:10557000303D0131092BF3D900230D932E28BFD1E3
:105580003022802052429046C000064378780B00BB
:1055900080444246092A00D851E12A2800D15EE120
:1055A0000F000131ACE70A9BA1469B46CA4503D8D0
:1055B00001235B425344994653464A4659460020CC
:1055C0000B9DA847200023B0F0BCBB46B246A946BD
:1055D000A046F0BD0300693BDBB20F2B00D962E7A8
:1055E000012199408846734A11408B46110042467A
:1055F0000A4200D013E10A2B2FD0072B00D052E72C
:105600000C9D01CD002800D134E121231E43B0467A
:105610001F260D9A12ABF618A1469446594634003F
:1056200002E0000920290AD00F2606403200373256
:10563000092E00D8073A013162540F28F1D8634689
:105640004C468B460D9322E10C9B20CB002D52DB68
:1056500078780C930F0001314EE70C9B0D9904CB29
:1056600090469B46002900D128E1434618784144E2
:10567000002801D100F029FC0D9A94460A0004E0AC
:1056800059780133002900D195E19A42F8D1634657
:105690000D934346D31A0F93730500D46CE10F9B0F
:1056A0000D9A934200D90F9202231A0032400C92B5
:1056B000334200D191E20C930D9BB9461E1943462B
:1056C0001B1BA84622001F000B9D08E0541C5346DC
:1056D0000A99A847385D002800D163E1220096426C
:1056E000F4D145464F4634000C9B002B00D097E187
:1056F0005B460C93DDE60222787816430F006D427C
:105700000C930131F8E678786C2800D159E18023B8
:105710005B001E43013114E780239B0078781E4311
:1057200001310EE77878682800D150E180230131FB
:105730001E4306E7672800D1C2E0472800D134E1C4
:10574000452800D134E107210C9B0D9A07338B4388
:1057500019000496039502920CC90B9800920193CC
:105760000C91220053460A99FFF7CCFB0400A0E6F7
:10577000462800D1A8E007210C9B0D9A07338B43E4
:1057800019000496039502920CC90B98009201939C
:105790000C91220053460A99FFF77AF9040088E633
:1057A000655400100C200020482301108C230110A8
:1057B000D8230110419000002200534625200A9969
:1057C0000B9DA847013474E60C9B04339B46631C75
:1057D0009846B60700D4FFE00C9B220018780A997F
:1057E00053460B9EB0476419012D00D849E2454647
:1057F0000B9EB8460A9F2A005346013539002020E7
:10580000B047A542F7D1474672E7DB4B38780B9398
:1058100000239946002800D03DE60024C6E66F2804
:1058200055D000D8BCE21023782800D19EE09E43DA
:105830000A239C4600230F930A339B464DE0002128
:105840008A005218520001331118187830390200BA
:10585000303A092AF4D90D911F00591C50E60C9BCF
:10586000B87804CB0237D143C9170A400D920C9384
:10587000791C45E6102330009843113318438023E8
:1058800080463000DB0018401E4200D1C0E643468F
:105890000693082305930D9B220004931023039382
:1058A000002302935B4601931AAB00930A99534677
:1058B0000B98FEF7F9FF0C950400FAE50139D4E6E0
:1058C00080231B011E433EE720231E4353E708238A
:1058D0009C4600230F9308339B4680233000DB0057
:1058E00018401E4200D11AE10D2331009943802354
:1058F0000A009B001A409146194200D0C3E1802360
:105900000A005B001A4090460C9A04320F9219422A
:1059100000D08FE24B0600D597E10B0600D4E5E2FC
:105920000C9B1B8899464B46002B00D005E2103398
:105930009943002800D100E2002398460D9B069170
:1059400004935B4603930023059502934346D9E0F5
:10595000582808D0622878D102239C4600230F9350
:1059600002339B46B9E720231E43103B9C4600238D
:105970000F9310339B46B0E702231A0032400C927B
:10598000334200D105E20C934346B9460B9E0A9F71
:10599000A8461D1B2200534639000134B047285D3C
:1059A0000028F7D145464F469EE680231B011E4343
:1059B00020231E43C7E662460D9242469B1A0F9370
:1059C0006AE6C0239B00B8781E43F91CB9E5C023E2
:1059D000B8781E43F91CB4E5012D00D84AE1631ED6
:1059E0009946A9444B4652462600A146BA461C0099
:1059F0001700A8460B9D32003B00013620200A9973
:105A0000A847A642F7D13B0057469A464C460C9B06
:105A1000320018780A9953460B9D4444A84767E61C
:105A2000A0460F9B9D4200D862E62C190B9E45466E
:105A3000B8460A9FE41A2A0053460135390020204F
:105A4000B047A542F7D1474652E680233200DB003B
:105A50001A4090461E4200D1F3E011218E43B44615
:105A60009846802362469B001A40934662461A423B
:105A700059D180235B001A4091460C9A04320F9250
:105A800062461A4200D0A0E163465B0600D5D4E02E
:105A900063461B0600D412E20C9B00229B5ED817C3
:105AA0001918414089B2DA0F0C92002B00D187E11E
:105AB00088461F2612ABBB461495F71845464E463E
:105AC000E046A14606E028000A21FDF7F7FF0500A1
:105AD000202E08D00A212800FDF7F0FF01363031D2
