:020000041000EA
:1000000000B5324B212058609868022188439860DF
:10001000D860186158612E4B002199600221596106
:100020000121F02299502B49196001219960352056
:1000300000F044F80222904214D00621196600F024
:1000400034F8196E01211966002018661A6600F04E
:100050002CF8196E196E196E052000F02FF8012189
:100060000842F9D1002199601B49196000215960AB
:100070001A491B48016001219960EB211966A021F2
:10008000196600F012F800219960164914480160C1
:100090000121996001BC002800D000471248134993
:1000A000086003C880F30888084703B5996A0420EC
:1000B0000142FBD001200142F8D103BD02B5186610
:1000C0001866FFF7F2FF186E186E02BD00000240BE
:1000D000000000180000070000035F00212200005C
:1000E000F4000018222000A00001001008ED00E03C
:1000F00000000000000000000000000074B24E7A12
:1001000000200420F7010010CB010010CD010010E9
:10011000C9010010C9010010C9010010C901001077
:10012000C9010010C9010010C9010010CF01001061
:10013000C9010010C9010010D1010010D301001045
:10014000C1010010C1010010C1010010C101001067
:10015000C1010010C1010010C1010010C101001057
:10016000C1010010C1010010C1010010C101001047
:10017000C1010010C1010010C1010010C101001037
:10018000C1010010C1010010C1010010C101001027
:10019000C1010010C1010010C1010010C101001017
:1001A000C1010010C1010010C1010010C101001007
:1001B000C1010010C1010010C1010010C1010010F7
:1001C000EFF30580103800BE00BE00BE00BE00BECA
:1001D00000BE00BEF2EB88717058001090580010FD
:1001E0003802001090A31AE71E481F49086006C88D
:1001F00081F3088810471D480068002801D019487D
:10020000F3E70DA40ECC002902D000F012F8F9E7B4
:100210001749184A002000E001C19142FCD116495B
:100220008847164988471649884700BEFDE701C937
:1002300001C29A42FBD3704790580010C0000020C2
:10024000B01000208068001000000420000004208E
:10025000806800100010042000100420000000003E
:10026000704700000000000008ED00E0000000D032
:10027000B0100020B41F0020A5220010D5020010ED
:100280009D220010F8B5C04606480749091A8B1090
:10029000C90FC91810B5491003D0044B002B00D06A
:1002A000984710BDB0100020B010002000000000E2
:1002B000054B10B5002B03D00449054800E000BFF2
:1002C000FFF7E2FF10BDC04600000000501F0020F5
:1002D0000C50001010B502F0DDF8FA20C00001F05B
:1002E00035FA00F0ABF800F02FFA002010BDC04640
:1002F000F0B54E46DE4657464546E0B585B002AC01
:10030000E61D8027D024802598462A23834624068C
:10031000AD027F0233708A4691463100A761012207
:10032000A561454804F028FE5B4618002830656149
:100330000093031233700190310067610122A561BF
:100340003D4804F019FE009A656128323270310090
:1003500067610122A561384804F00EFE4A46019B00
:1003600065619B18013B1B1201923370310067617C
:100370000122A561304804F0FFFD0198009A273062
:100380008318656131003370012267612A48A561D5
:1003900004F0F2FD2B236561310033700122A76167
:1003A0002548A56104F0E8FD53461A003532656121
:1003B0000093131233700192310067610122A5612D
:1003C0001D4804F0D9FD009865613530307031006A
:1003D00067610122A561184804F0CEFD4246019BE9
:1003E00065619B18013B1B120192337031006761FC
:1003F0000122A561104804F0BFFD019B0098343331
:100400001B18656131003370012267610A48A561DC
:1004100004F0B2FD2C236561012233703100A76125
:100420000548A56104F0A8FD656105B0F0BCBB46B8
:10043000B246A946A046F0BD00C0034070B5D02426
:100440008025802682B04D494D4804F0A1FC012151
:10045000122000F061FB012113202406AD0200F000
:100460005BFB1120760200F06FFB1020656200F04C
:100470006BFB1420666200F067FB80235B03636202
:100480006A466361012301A913713D480122A661F7
:10049000A56104F071FD9620656101F057F9112303
:1004A0006A4601A9137136480122A661A56104F0CC
:1004B00063FD3220656101F049F93A236A4601A9DA
:1004C00013712F48A6610122A56104F055FD052393
:1004D0006A46656101A91371294866610122A56117
:1004E00004F04AFD36236A46656101A91371244868
:1004F000A6610122A56104F03FFD70236A46656193
:1005000001A913711E4866610122A56104F034FD42
:1005100021236A46656101A913711948A661012268
:10052000A56104F029FD29236A46656101A91371BB
:1005300013480122A661A56104F01EFD0A20656131
:1005400001F004F98723F02200210020FFF7D0FEFC
:1005500000236A466661A5610A4C9380022208481E
:1005600001A9013C04F008FD002CF7D1D023802222
:100570001B0692025A6102B070BDC046A0ACB9031E
:1005800000C00340907E000070B5012382B01600C9
:100590000122FFF7ADFED024802380256A46240681
:1005A0005B026361AD0273BAA56101A99380034840
:1005B000022204F0E1FC656102B070BD00C003409E
:1005C00010B587230400F02282B000210020FFF73D
:1005D0008FFED02380221B0652025A618022920293
:1005E0009A616B4664BA9C80074C0222074801A9B5
:1005F000013C04F0C1FC002CF7D1D02380221B0663
:1006000092025A6102B010BD907E000000C003400B
:1006100070B582B01D006B461C8B2B001600FFF7D7
:1006200067FED02380221B0652025A61802292026A
:100630009A616B46754364BA9C80002D08DD0024E6
:100640000222074801A9013404F096FCAC42F7D11C
:10065000D02380221B0692025A6102B070BDC046B0
:1006600000C00340F0B5DE4657464E464546E0B56D
:10067000027885B0002A50D00600012080462D481F
:100680002D4B2E49039007E0002201300A601860CC
:1006900072780136002A40D018680A2AF4D0203A2D
:1006A000D7B20C68039D5E2F01D8D200AD18AB46BF
:1006B00008225A449246820012185200E700521B48
:1006C0003F19009691463E001D4D019302914F4601
:1006D0005F443B0000245F469B463A7843462241F4
:1006E0001A40013A174B2A40A0195946D218013432
:1006F000FFF74AFF082CF0D1BB4601239B44DA45A3
:10070000E5D10299009E0A68019B0132192A0BDC8F
:1007100001360A603278002ABED105B0F0BCBB4673
:10072000B246A946A046F0BD00220A601A6801320E
:100730001A60ADE7C05200100C1B0020081B0020FF
:100740002000FFFFFFFF0000F0B5DE46454657469C
:100750004E46E0B51F20A9B0FFF732FF0023D04A74
:10076000D04C13602360D04B089218001293FFF70F
:1007700079FFCE4D28000495FFF774FFCC48FFF7B2
:1007800071FF2800FFF76EFFCA48FFF76BFF2800D4
:10079000FFF768FFC848FFF765FF2800FFF762FF13
:1007A000C64B002518000793FFF75CFF18AB9B466C
:1007B000C34B0B93C34B0D93C34B0A93C34B0C9387
:1007C000C34B0E93C34B0F93C34B1093C34B119367
:1007D000C34B1493C34B1393C34B1593C34B169343
:1007E000C34B1793C34B0993002001F057FE831CA2
:1007F000FAD00D2848D00A2846D07F2870D03E2D48
:10080000F2DC5B465855089B21681E680300203BBC
:10081000DBB25E2B00D917E1FF230340099A203B8E
:10082000DB00D3180135994608234B449A464B46C2
:10083000B20092195200D31A039301239846CE00B6
:10084000AD4F069405957418039E00254E44330061
:100850004E469946327843462A411A40013AA74B00
:100860003A4028194946D2180135FFF78DFE082D68
:10087000F0D1B14601239944D145E5D1069C059DAF
:10088000236801332360AFE700235A460498535589
:10089000FFF7E8FE5B469A4A1B6893422AD05B4604
:1008A000984A1B6893424FD05A46974B12689A4217
:1008B00000D185E05A46954B12689A4200D192E0E9
:1008C0005A46934B12689A4200D1C0E05B461B78AF
:1008D000002B00D0DAE00798FFF7C4FE002583E77D
:1008E000089B21681E68002D3ADC5B465855099B21
:1008F000013598E75B461B79002BD0D10B98FFF7A9
:10090000B1FE049D2800FFF7ADFE0D98FFF7AAFE8B
:100910002800FFF7A7FE0A98FFF7A4FE2800FFF7BC
:10092000A1FE0C98FFF79EFE2800FFF79BFE0E9895
:10093000FFF798FE2800FFF795FE0F98FFF792FE4D
:100940002800FFF78FFEC6E75B469B88722BABD172
:1009500000251F20FFF734FE089B25601D60BAE7C5
:10096000B200099B921952001F00D31A039301236E
:1009700001399A46CA00604B904699462300013DD2
:1009800088442160059544463D0098460026039B17
:100990005F192A78534632411A404B46013A1A40B1
:1009A000564BA0193900D2180136FFF7EDFD082E7D
:1009B000EFD1584B0135AB42E8D14446059D13E7D2
:1009C0005B469B886F2B00D074E71098FFF74AFEB8
:1009D000049D2800FFF746FE1198FFF743FE28000C
:1009E000FFF740FE77E75B469B88722B00D067E7F6
:1009F000F8231B0200935022872300210020FFF7D9
:100A000007FEFC23DB0000935022872300215020A7
:100A1000FFF7FEFD1F23502200210093A020683322
:100A2000FFF7F6FDFA200025C00000F08FFE1F2022
:100A3000FFF7C6FD089B149825601D60FFF712FEA6
:100A40000498FFF70FFE46E7099B0135EBE65B468E
:100A50001B79002B00D039E71298FFF703FE049DA5
:100A60002800FFF7FFFD1398FFF7FCFD2800FFF7B4
:100A7000F9FD1598FFF7F6FD2800FFF7F3FD16982E
:100A8000FFF7F0FD2800FFF7EDFD24E71798FFF7CB
:100A9000E9FD5846FFF7E6FD0498FFF7E3FD1AE786
:100AA0000C1B0020081B0020105000100C500010E0
:100AB0002050001030500010F8500010445000102A
:100AC000505000105C500010705000108850001002
:100AD000A0500010B8500010E0500010FC50001062
:100AE00014510010305100104051001050510010AE
:100AF00060510010C05200102000FFFFFFFF0000F7
:100B000068656C70636C656168656C6C636F6C6F55
:100B1000696E666FC852001010B54024074A830002
:100B20009A181268C0005440C0222240044C1B197D
:100B30001A60044BC018416010BDC04604C001409B
:100B400004D00140004001400123D022834012061E
:100B500093629361084A83009A18116840225140B9
:100B600080320A400549C0005B181A60044BC01867
:100B7000052343607047C04604C0014004D00140D3
:100B8000004001408023DB051868000F7047C04615
:100B90000FB400B5084883B001F016FD049B002B8C
:100BA00007D005A91800019101F05EFB034801F090
:100BB0000BFD012001F070FB6C5100100C50001077
:100BC00070B58C461600EFF3108472B60F490B68AF
:100BD000002BFCD0BFF35F8F6346DB08C5180722EC
:100BE000C05C63461A40012393401A00024003424E
:100BF00007D118432870BFF35F8F0A6084F3108811
:100C000070BD61463000FFF7C3FFC0462C0100D025
:100C1000F8B5CE4647468C4680B51C00EFF31088E9
:100C200072B61C490B68002BFCD0BFF35F8FA24249
:100C300021D80723994602E00132944218D349464D
:100C4000012611408E40D308C718C35C1E42F3D161
:100C5000100033433B70BFF35F8F00220D4B1A60CF
:100C600088F3108800280EDBC0BCB946B046F8BD3A
:100C700001204042EFE7BFF35F8F00230B6088F352
:100C80001088012040426346002BEDD00898FFF702
:100C90007FFFC0462C0100D0044A1078431CDBB211
:100CA000172B00D9102313707047C046E80F00209F
:100CB00000B5054B83B00100009318221F230348A1
:100CC000FFF7A6FF03B000BD7C510010D81A00202A
:100CD0000021044B044ABFF35F8F02C39342FAD151
:100CE0007047C046000100D0800100D0084B094A7F
:100CF0001360094A1360094A1360094A1360094ADC
:100D00001360094A1360094A1360094A1360704767
:100D10008080808000E400E004E400E008E400E07B
:100D20000CE400E010E400E014E400E018E400E06B
:100D30001CE400E01F2318401E3B8340002905D01F
:100D4000C021044A49005350136070478022014972
:100D50008B50FAE700E100E001228240034B1B6860
:100D600013405A1E9341D8B27047C04600E100E0DC
:100D700001238340014A13607047C04600E200E04F
:100D8000054B10309B688000C358044A00209B1A12
:100D90002F229A424041704700ED00E0EC0F002006
:100DA00070B50D00EFF3108672B60F4A1368002B72
:100DB000FCD0BFF35F8F0D4B10309B6884001B5934
:100DC0000B4A934203D09D4201D001F013F8074B28
:100DD0009B681D51BFF35F8FBFF35F8F0022024BF3
:100DE0001A6086F3108870BD240100D000ED00E089
:100DF000C1010010F0B5DE4657464E464546E0B507
:100E0000824683B08B461700EFF3108872B6604AB3
:100E10001368002BFCD0BFF35F8F00255D4B5D573F
:100E20009946002D00DA9AE04A466B005A4C5E194A
:100E3000B6000193A31900939B791370574B9A68DE
:100E4000534610339B00D15899460B1B2F2B32D998
:100E5000534B994200D098E0019B0236ED18514B5C
:100E6000AD006353504BA619043B9B1B4F4A1B0517
:100E70005B0D651913436B804D4B0121AB80FF2344
:100E8000AB715B46AB60009BEF710B4319004A46A8
:100E9000424B9B689950BFF35F8FBFF35F8F002277
:100EA0003B4B1A6088F3108803B0F0BCBB46B246D7
:100EB000A946A046F0BD01200A008243D379B4467A
:100EC000BB422DD83B4BB51C190013001B1B5B41CB
:100ED0005943090D8C46334B6519A353324B009986
:100EE000043B5B1B1B05314D5B0D2B4304364B80D4
:100EF000A619131F9B1B1B055B0D1D4363468B71BE
:100F00005B468B602C4B8D80CF7113600143BEE735
:100F10005800C01880002018C679BE4225D90200AA
:100F20000623D356002BF3DA9A46131D9C4623481A
:100F30006346009E9571043EF61A36051B4B760DEE
:100F40001E43019B96805A1953469200A418A37120
:100F50005B46194AA0802260E771A36097E700F022
:100F600049FF00254B465D575EE766469A46131DCE
:100F70009C469088043640050015A6196044801BE5
:100F800000050A4E400D3043D2E700F033FF63E71F
:100F9000240100D0AD1F0020EC0F002000ED00E088
:100FA000C101001000A1FFFF1C10002000E0FFFFA6
:100FB00001BDFFFFAAAA00000148804701BD000053
:100FC0000123034370B59C46EFF30581EFF31085D1
:100FD00072B6214A1368002BFCD0BFF35F8F1F4B02
:100FE00004001F4AE41A64416243120D1D4C89003B
:100FF000A66852B2765866451CD0062159569142D1
:101000001CD012215956914222D01E21595691428C
:1010100020D02A2159560324914210D0124B19781E
:101020001A708171BFF35F8F00220B4B1A6085F33A
:10103000108870BDA3680D4C5C50EFE70024610080
:10104000091989005B18FF21997109499980E5E721
:101050000124F4E70224F2E7240100D0EC0F002081
:10106000AAAA000000ED00E0AD1F0020C1010010A1
:1010700001BDFFFF00B5074B83B0010000930022C4
:1010800005230548FFF7C4FD002801DB1F23181ABC
:1010900003B000BD98510010B11F0020024BC918C9
:1010A000890001607047C0464000003470B5114CA3
:1010B000114DAC420FD2FF262368002B0CD0FFF756
:1010C000EBFD01002000FFF7E9FFA680BFF35F8F73
:1010D0000834AC42F0D370BDFFF7DEFD0100200004
:1010E000FFF7DCFF2671BFF35F8F0834AC42E3D318
:1010F000F1E7C046A8100020B010002010B5040091
:10110000FFF7CAFD01002000FFF7C8FFFF2323718E
:10111000BFF35F8F10BDC04610B504000120FFF77C
:10112000C7FD034BC01880002060BFF35F8F10BD68
:1011300040000034034BC91889000160BFF35F8F82
:101140007047C046400000340A4B1968EFF3108026
:1011500072B60A68002AFCD0BFF35F8F1B68BFF32A
:101160005F8F00221A6080F3108840BF00200021AA
:101170007047C0468C1F0020F0B5DE4657464E46ED
:101180004546E0B585B0EFF3058303221A40B34B23
:1011900091005F58012393409B4602925A4688462D
:1011A000AF4B1A60AF4B03935B46AF4843630823D2
:1011B000FE5E002E37DABB881BB2002B00DBA4E0FA
:1011C000BB79002B00D0E5E00823F95E002920DB85
:1011D0004B007A695B18DB00D3189D68DC686B1CD8
:1011E00000D104E1A04801004144826A0B69AE1AB3
:1011F0009B1A9E4215D30123026A029883401A4229
:101200000FD0994800F0AAFB8C4202DCCCD1854279
:10121000CAD940BF05B0F0BCBB46B246A946A046FD
:10122000F0BD0D61EDE77A69730091469B19DB0013
:1012300099444B469C68DD6800F090FB8D42BADC17
:1012400000D1F6E0002D00DADBE04A464B46526959
:101250001B699246039A934200D1CCE04A4608218A
:10126000785E5288000451461043984700900191DF
:101270000099019A0B00134300D1C2E013000A0049
:10128000002B00DBD9E020002900801A99414B4651
:101290009860D96000229B5E002B00DA8BE75D002E
:1012A0007C69EA18D200A21800949468D268A24619
:1012B0008A4200DD7FE702D1844200D97BE708241F
:1012C000A4463B81BC44009C00972F006546B44671
:1012D0003E0006E05E00F218D200A2189768D268BD
:1012E000BA468A4207DC00D1B4E0F318DB00E51807
:1012F000E35E002BEEDA66464A46009F13802E809E
:10130000BB881BB2002B00DA5AE73A69EFF3108171
:1013100072B61368002BFCD0BFF35F8F0123BE8829
:101320005B42BB8036B23B69BFF35F8F00221A601D
:1013300081F31088002E00DA42E73B0008333A00C0
:1013400099467D6973009B190824115FDB004846AC
:10135000EB18002913DB9C680093A446DC6806E0C8
:10136000A34240D00023F95E3800002906DB4F007D
:101370007F18FF00EF19FB68A342F1DD009B068098
:1013800000201E5E1980002EDCDA1700BB79002BCE
:1013900000D119E70023BB710823F95E4B1C00D173
:1013A00037E73D000835AC467C6903E084464B1CBA
:1013B00000D109E74B005B18DB00E0180A00E15E92
:1013C00043881BB2002BF1DA01256D42EE178560D0
:1013D000C66008257B5F9342E9D0634619803B894C
:1013E00003803A81E3E7BB686345BBD9C6E7631C6A
:1013F00000D0F7E605E7534650461B69984700289A
:1014000023D14B461B883A693B81EFF3108372B6B8
:1014100011680029FCD0BFF35F8F49467A880A80A3
:101420003A697E80BFF35F8F0021116083F31088DB
:10143000C1E6844200D805E7BDE60B4800F08EFA0D
:10144000009B019CC018614121E753460CCB0092E0
:1014500001930DE7824500D847E74CE7701F002055
:101460003C700540791100100040054070B52D4CCE
:101470002569002D04D00A212B48FFF70FFE70BD0F
:101480002A4E0321294800F05FFAE660FFF704FCCA
:10149000274B0322C018D02322701B061B68012192
:1014A0006370244B8000A3600F23206102206380BF
:1014B00063694942A18019800231198647311D8331
:1014C000585218315A5275325C39995218320131DA
:1014D0009952183201319952183201319952083516
:1014E00018329D52023118329952183201319952F4
:1014F00018320131995218320131995218320131A2
:1015000099521832013199520B4B0C49DC60013071
:101510003562FFF745FC01210320FFF70BFC084B68
:101520001D60A8E7341000208C1F002000400540FB
:1015300040000034FFFF1000701F002079110010E0
:10154000386005400048704734100020F8B51F008F
:1015500008AB1B7804001600002B07D100F006FA38
:1015600032003B00121A8B41002B51DB2269EFF352
:10157000108C72B61368002BFCD0BFF35F8F022370
:10158000E15E256900293ADB4B0060695B18DB00EE
:10159000C218C35A6380BFF35F8F00232B608CF3A4
:1015A0001088069B9660D7601361079B5361538830
:1015B00001335B045B0C181C002B1ED083B25080DF
:1015C000080418432569EFF3108672B62B68002BC8
:1015D000FCD0BFF35F8FA3881380A1802369BFF382
:1015E0005F8F00221A6086F31088237801329A40B8
:1015F0000849E3685B181A60F8BD0120DEE7BFF315
:101600005F8F00232B608CF3108801204042F3E7AA
:101610000020F1E73C20000070B582B000920193F9
:1016200001000269EFF3108472B61368002BFCD03E
:10163000BFF35F8F0223C85E0D6900283FDB4A6954
:10164000430016001B18DB00D218F35A4B80BFF37F
:101650005F8F00232B6084F31088069B1361079B28
:101660005361009B019C9360D460538801335B04F9
:101670005B0C1D1C002B20D0ACB20304558023430F
:101680000D69EFF3108C72B62C68002CFCD0BFF300
:101690005F8F8C88148088800A69BFF35F8F002079
:1016A00010608CF310880A7801309040CA680849AD
:1016B00052181060180002B070BD0125DCE7BFF3BE
:1016C0005F8F00232B6084F31088013BF2E7C04654
:1016D0003C20000010B543890A1493421ADD5300E0
:1016E0009B184269DB00D3180469EFF3108C72B6C3
:1016F0002268002AFCD0BFF35F8F5A88090494B295
:10170000090C8A4208D00369BFF35F8F00221A6078
:101710008CF31088002010BD094A22435A8001230F
:1017200002698371BFF35F8F002111608CF3108811
:10173000027804499340C268012052181360EAE716
:101740000080FFFF3C20000040787047F0B5C6469F
:1017500000B582B0040000F009F9FA2206000F007B
:10176000200000230021920000F0FEFC8019794146
:1017700004000D1E02DA01242E4D64420626764234
:10178000F71736196F41AF4214D811D000F0EEF8B8
:1017900032003B00121A8B41002B15DC002B46D087
:1017A0002000290000F022F902B080BCB846F0BD4C
:1017B000A642EBD90026002700F0D8F832003B0003
:1017C000121A8B41002BE9DD00F0D0F832003B000B
:1017D000121A8B41002B0ADB00230193164B3200B7
:1017E000009316483B00FFF717FF0130D8D00023C5
:1017F0003900B0469C46124A1248536A994204D8AE
:10180000966A4645CCD29942CAD10668EFF3108752
:1018100072B63368002BFCD0BFF35F8F0368BFF351
:101820005F8F66461E6087F3108820BFE5E7002AB9
:10183000B6D0C9E7FFFFFF7F491100103410002028
:10184000004005408C1F0020F0B5CE46474680B5CD
:1018500004000D0085B0EFF305868946002E10D0F8
:10186000364900204B6AAB4206D38A6A5B1B591E7D
:101870008B41A2424041184305B0C0BCB946B046B6
:10188000F0BD2F4FFB683A7898461800039200F09D
:1018900065F8039A131D42469B009B5822001B1AB1
:1018A0009C462B00121A8B419E4210DC0DD020BFAB
:1018B000224A0020536A4B45DED3926A5B1B591EB5
:1018C0008B41A24240411843D6E79445EFD900F03E
:1018D0004DF822002B00121A8B41002B1BDB00233A
:1018E0000193184B2200009338002B00FFF794FE61
:1018F000002810DD114B5A6A4A451CD39B6AA3424B
:1019000017D301003800FFF7E5FE0C4A0020536AA8
:101910004B45B1D3D1E7094A0020536A4B45ABD3BD
:101920000020926A5B1BA24240415A1E9341184319
:10193000A2E74A45E5D120BFE3E7C04600400540A5
:10194000341000204911001010B5024A0248FFF778
:1019500037F910BDB4510010DC1A00200300416AB1
:101960000A00986A596A8A42FAD17047034B596A49
:101970000A00986A596A9142FAD1704700400540BE
:1019800070B505000E00184A536A1900946A536A2C
:101990008B42FAD1200019002C00350024184D414B
:1019A000AB4216D813D0104B2A005B6A9D4203D974
:1019B0000D494B6A9342FCD3934207D10A4A02E095
:1019C000516A994202D1916AA142F9D370BDA042F5
:1019D000E9D9054B5B6A1C005A1CEFD00122012497
:1019E0006442E5175242E3E700400540064A536A65
:1019F0009942FCD807D1044B02E05A6A914202D1C5
:101A00009A6A9042F9D8704700400540F8B5DE4622
:101A10004E4645465746E0B505008B4618000A99E4
:101A2000914600F013FB0A9B6C001E026419304BB8
:101A3000A400E418636880469E4200D966602F1FA8
:101A4000FBB29A46012B2FD9C0238022294FAD002B
:101A50009B0179591201E3181A6000291BD14B46EA
:101A600022685B015340E022134080225201A218F9
:101A700013605346012B2FD9802380229B01E3184A
:101A800012011A60434666607B51F0BCBB46B24609
:101A9000A946A046F8BD786900F0D8FA01304300A5
:101AA0001B18033BFDD2DAE75B46012BCCD1C023E8
:101AB00003229B01E3181A60023AA3681A42FCD081
:101AC0004A46236852015A40E023134080225201C3
:101AD000A218084F1360AD00584603232168414007
:101AE0000B40136001228240A3681A42FCD0C3E776
:101AF00000800040E01A0020F0B5D6464F4646462A
:101B0000440098462418324BA400E41863688A46BF
:101B10009146C0B5FF2B02D880235B006360061F8F
:101B2000F6B2012E2FD9C02380222A4F85009B01B7
:101B300079591201E3181A6000291BD14B4622681B
:101B40005B015340E022134080225201A21813602F
:101B5000012E30D9802380229B01E31812011A60E4
:101B600080235B00636043467B51E0BCBA46B146CC
:101B7000A846F0BD786900F069FA013043001B18EF
:101B8000033BFDD2DAE75346012BCCD1C02303221D
:101B90009B01E3181A60023AA3681A42FCD04A4635
:101BA000236852015A40E023134080225201A218B8
:101BB000084F1360850050460323216841400B40C5
:101BC000136001228240A3681A42FCD0C2E7C046DB
:101BD00000800040E01A0020014B8000C058704790
:101BE000E01A0020F0B5C646040000B523481600F0
:101BF00098460D0000F02AFA0100300000F026FAA5
:101C00004346069A1B04120313439C4623680600AE
:101C1000002B22DB1A4B1B48E218531E9A418023EB
:101C20005242120B9B011203D218174B1A60174B2A
:101C30001A60130001688B43FBD12122144B2560ED
:101C4000E318A6601A602268002AFCDA6246E260A5
:101C500008221A6080BCB846F0BD3F2322681340BA
:101C6000AB42D7D1A3681B051B0D8342D2D1EE2214
:101C7000E368D20213406345CCD1EBE7001BB70009
:101C80000040FDBF08C0004000E0004000F0004000
:101C90000430000010B580241C4BE4051C600028B3
:101CA0001AD001231A4C18431A4BDC611A4C4440D9
:101CB0001C62596298628021144BC905196017484B
:101CC00017490860E021C9041960002A07D1802261
:101CD000144B12061A6010BD0E4BD861EBE753018E
:101CE0009B1A9B009A18802312015B049A4209D226
:101CF00013000D490B60074B5A608022094BD20537
:101D00001A60E8E7094B1A00F3E7C04600B0054047
:101D1000D3C007B0008005402D3FF84FFCFF010005
:101D20000820014000A00540481F0020FFFFFF00E1
:101D30008023024A9B000B43D3627047008005401A
:101D4000002310B50100988A1B8B984710BDC04630
:101D5000162310B5010018885B88984710BDC0464F
:101D6000F8B54746CE4680B50F1E18D014239946C5
:101D7000043304000025012698464B461888434644
:101D800021681B88984701C4431E984101350640CD
:101D9000AF42F2D13000C0BCB946B046F8BD012612
:101DA000F8E7C046002370B504000D00988A054985
:101DB0001B8B984703000020002C01DB0130A04062
:101DC0002900984755420000AA23064A1B011360C8
:101DD0008D235B00D3600449044B19605368002BCA
:101DE000FCDA70470040024000B0FA000060024098
:101DF0007047C04610B50148FEF7CAFED851001022
:101E000070B5074D074EB54209D20024013E761B3E
:101E1000B608013608CD01349847B442FAD170BDF6
:101E2000C84F001004500010054B064A06491A60BE
:101E3000064A074B1A6010000B689843FBD17047A5
:101E400000E00040BFCDFBFE08C00040FE7F3C002C
:101E500000F00040044BDB6C002B03D18022034BCD
:101E6000D2021A607047C046000011504C20115039
:101E7000044A054B1A60054A1368DB018033FBD125
:101E80007047C046FFFFFF0100F0004008C000405F
:101E90004022034B9A675A671A67DA667047C04652
:101EA00000F0014010B5FEF713FF10BD70B52849D2
:101EB000284D294E6D1AAC102200302C00D930224A
:101EC0003000920000F0C2F9BC2D3DD823002A3B1F
:101ED000224A052B1DD9302075196D07A446001B19
:101EE000EB0F002D03DA611C8C46A1007250C01A62
:101EF000E3189B004108F318C900C9181A605A601A
:101F000008339942FAD1012303421DD0984360441B
:101F10000400A300F250631C2F2C15D09B00F2503C
:101F2000A31C2E2C10D09B00F250E31C2D2C0BD0A8
:101F30009B00F250231D2C2C06D09B00F250631DF9
:101F40002B2C01D09B00F250054B9E6070BDC0460B
:101F500000010010C001001000000020C1010010AD
:101F600000ED00E0002310B5294C82B0A367FFF715
:101F70002BFF0122274B1A60636C012BFCD103223B
:101F8000254B1A60224A936B012BFCD1013300933D
:101F90000121224A22480433FFF724FE05230121B0
:101FA0000093204A2048FFF71DFE00220221042052
:101FB0001E4BFFF7A1FD0022012105201C4BFFF75E
:101FC0009BFD0022002107201A4BFFF795FD002200
:101FD00000210820174BFFF78FFD8023DB000093C3
:101FE000002200210920134BFFF710FD0022104BA7
:101FF00000210620FFF780FD0420FFF7EDFD0E49CC
:1020000000F024F801000020FFF792FE02B010BD9E
:10201000008000403CB0004030B00040002F6859C4
:1020200000800240008C864700C00240001BB700C1
:1020300040597307006CDC0240420F000148042144
:10204000014B184750100020611D0010114A936F7A
:102050009B0813D210665166002905D0FFE7FFE701
:10206000FFE7516F106F704704B5002801D00020C2
:10207000C04302F069FF002104BDC046F0B5146EF4
:10208000556E576F166FFFF7E5FF14665566576775
:102090001667F0BD000000D0132370B51D78012D28
:1020A00019D014DD1F48FFF753FE06001E48FFF746
:1020B0004FFE1E4C80223100200000F0C7F8022D98
:1020C0002DD01B48FFF73CFE1A4B186070BD1A4B11
:1020D000164CA364F5E7184B144C23606360A360AF
:1020E000E36023616361A361E36123626362A362CE
:1020F000E36223636363A363E36323646364A364AE
:10210000E36423656365A365E36523666366A3668D
:10211000E36623676367A367E367A364D1E7064BBE
:10212000A364CEE753440000534600000013002090
:102130004C330000881F00203D21001007B5604689
:1021400001880A0A0230DF2AFAD1C9B2820804D310
:10215000028840880004104300E00068014A5050A3
:10216000039007BD0013002051434343C9188C4618
:10217000110C83B24B4310B4040C614392B280B291
:10218000504362431C041B0C001910BC594113043A
:10219000120CC0185141614470470000132310B560
:1021A0001C781348FFF7D4FD012C0BD004DD01008F
:1021B0008022104800F04AF80F48FFF7C1FD0F4B8E
:1021C000186010BD0B4C01005422200000F03EF8B6
:1021D0000B4B6365A365E36523666366A366E366ED
:1021E00023676367A367E3672362E361E4E7C046AD
:1021F00053460000001400204C330000881F0020CC
:102200000522001007B5604601880A0A0230DF2A5D
:10221000FAD1C9B2820804D302884088000410436E
:1022200000E00068014A5050039007BD00140020F0
:1022300001480421014B184760100020611D001067
:10224000014B1B681847000060100020014B5B68C1
:10225000184700006010002010B5002800D110BD04
:1022600000F068F9FBE7C04610B5094A030014689E
:1022700084B0002C08D0012200910648524203A9E4
:10228000A047012004B010BD00F09EF90020F9E73E
:10229000441F00205922001000BEFDE710B5FFF7D3
:1022A000FBFFC04670B5FFF7ABFD074D074EB542CB
:1022B00009D20024013E761BB608013608CD013450
:1022C0009847B442FAD170BD045000100C50001071
:1022D000030010B5080011001B68984710BDC046E8
:1022E000F8B5437D07000D001600002B38D0002AFA
:1022F0001ADD0B780A2B18D00020012E09D00124FA
:1023000021006B5C01340A2B1AD0B442F8D186420A
:1023100003DD311A3B6828189847AD19013D2B7829
:102320000D3B5A4253413B75F8BD037D002BE3D171
:1023300002210E483B689847012EEED00120DEE7CF
:102340006B1E5B5C0D2BE0D0884203DA091A3B68F8
:1023500028189847054802213B6898472000D4E791
:102360000368110028009847DEE7C0460C560010AD
:10237000F0B54646D6464F46C0B582B090461C00E2
:1023800006000D00FFF7F2FA00232F4A12184B4106
:10239000002B02DA01222D4B52422D4908008A46B9
:1023A00002F0F2FD81466B1C03D1300002F078FD93
:1023B0000500002C27D0274F274B1C68002C18D075
:1023C0004346002B21D1254B984602E02469002C7E
:1023D0000FD02368002BF9D043461B68002B01D097
:1023E0009C42F3D120002A003100B8472469002C18
:1023F000EFD14B46002B23D1280002B0E0BCBA46F7
:10240000B146A846F0BD164FD6E7144B984602E0F9
:102410002469002CEDD02368002BF9D043461B68BB
:10242000002B01D0A342F3D12A0031002000B8478D
:102430006B460A222000DA71D91D093AB847E7E74E
:10244000504602F069FDD7E740420F00FFFFFF7FD3
:10245000A8100020E1220010381B0020401B0020A3
:10246000D12200100A4A1368002B05D10CE01A0093
:102470001B691032002B07D08342F8D1002902D10A
:1024800018691060196170470029FCD01060FAE7E4
:10249000381B002010B500F0C7FA10BDF0B5CE46CD
:1024A0004746040080B583B0FFF760FA2600002796
:1024B00036184F41002F02DA01261A4F76421A4B86
:1024C0001A4D994601AB98464B461C68002C03D127
:1024D00016E02469002C13D02B68002B01D09C42FD
:1024E000F7D1A368002BF4D001214046984700287B
:1024F000EFDD4346187803B0C0BCB946B046F0BD26
:102500000B4B5A6A974207D89B6AB34202D3022008
:102510004042F0E79742FAD101200021FFF730FA5C
:10252000D2E7C046FFFFFF7F381B0020401B002082
:1025300000400540F0B5CE46474680B583B06B46B7
:102540000600DD1D2870FFF711FA0023194A121842
:102550004B41002B02DA0122174B52421749080067
:10256000894602F011FD164B80461C68002C14D0E1
:10257000144F02E02469002C0FD02368002BF9D0FF
:102580003B68002B01D09C42F4D12000012229009D
:10259000FFF7A6FE2469002CEFD14346002B05D19E
:1025A000300003B0C0BCB946B046F0BD484602F0AA
:1025B000B3FCF5E740420F00FFFFFF7FA8100020AB
:1025C000381B0020401B002070B5040002F068FC9E
:1025D00001230100050001222000FFF7C9FE084B7E
:1025E0001C68002C06D06368002B05D0984724692E
:1025F000002CF8D1280070BD2469002CF3D1F9E734
:10260000381B00207047C0460022014B1A707047EB
:10261000AE1F00204B790020FF2B0BD18B79002BB4
:1026200008D1CB79012B05D1082A03D9024B8A782E
:1026300009301A707047C046AE1F00200120704755
:1026400010B5012913D112495379107909781B0269
:1026500003430020994200D010BD5378012B08D0CD
:10266000022BF9D1642200210020FFF713FB012087
:10267000F2E7D37891781B021943480ADB0501D4AD
:10268000012040427F238A05D20F1940FFF78AFBC1
:10269000AE1F002000487047D85600109446012312
:1026A00010B501290AD152780023012A06D16246C9
:1026B0001179527912020A43072A01D0180010BD7D
:1026C000A6336146024A01F063FA0300F6E7C0460A
:1026D0003056001001230370004870471056001058
:1026E0004B780A781B0213438A7810B512041A43F8
:1026F000CB781B0613439622D200934200D010BD24
:102700000022012011004042FFF74CFB024B1860F1
:10271000024B19607047C046D01A0020D41A00201E
:1027200010B5024B1878FEF723FB10BDAF1F002039
:10273000154B70B51A68002A22D0EFF3108172B6DB
:1027400010680028FCD0BFF35F8F00200F4A59604B
:1027500010701B68BFF35F8F186081F3108800242E
:1027600000250B4E3078FEF7F7FA002804D100243C
:1027700000252900200070BD3078FEF7F9FAF8E74F
:10278000FA240025A400ECE7681F0020B01F0020F9
:10279000AF1F002070B5050000200E0001F010FBF7
:1027A000002834D0002001F021FB00282FD0FFF7B3
:1027B000DDF80023174A12184B41002B16DB164C8C
:1027C000200002F0E1FB002821D0002001F0F8FAFF
:1027D00000280FD101200021404200F00FFD032509
:1027E0006D42200002F098FB280070BD01220B4BC7
:1027F0005242E4E7002001F0F9FA0028EAD029006B
:102800003200002001F0FCFA051EEAD1E7E70325BB
:102810006D42E9E740420F00901F0020FFFFFF7F5D
:1028200010B5FFF7A3F800230D4A12184B41002BF7
:1028300002DA01220B4B52420B4802F0A5FB0028A2
:102840000CD001200021404200F0D8FC002001F013
:102850001BFB0028F5D1044802F05EFB10BDC0460A
:1028600040420F00FFFFFF7F901F0020F8B5CE46CB
:10287000474680B505000C00FFF778F80023344A7E
:1028800012184B41002B02DA0122324B52423249DC
:102890000800884602F078FB002803D1C0BCB94686
:1028A000B046F8BD002001F08BFA002848D0002681
:1028B000002C41DD294B994613E0A919002001F0B5
:1028C0001FFB070001200021404200F097FC002080
:1028D00001F0DAFAFFF74AF8204BF61903C3B442C5
:1028E0002ADD002001F02CFBA71B0200B84200DD0E
:1028F0003A00002AE1D101200021404200F07EFC94
:10290000002001F0C1FA002001F05AFA002813D08B
:10291000002001F015FB0028E1D1FFF727F84B4616
:102920000F000CCB002184460D4812184B419F42EA
:1029300002D8D4D19445D2D9404602F0EDFAADE7A1
:1029400000200021054B03C3404602F0E5FAA5E74D
:1029500040420F00FFFFFF7F901F0020F812002071
:1029600020A1070030B5002185B0284802F0F4FA14
:1029700000281CD1264B1A68002A16D0EFF31081CC
:1029800072B610680028FCD0BFF35F8F0124214885
:10299000596002781B68D2B20470BFF35F8F0020C9
:1029A000186081F31088002A17D005B030BD0120CF
:1029B0000021404200F022FC002001F017FA05003F
:1029C000124802F0A9FA002DEFD0134B1B68002B20
:1029D000EBD0124A10689847E7E7FEF7B3FD040012
:1029E000FEF7C4FFFA220023920012184B41002B7D
:1029F00002DA01220A4B5242012102910021019187
:102A0000084920000091FEF7A1FDCEE7901F0020AD
:102A1000681F0020B01F0020D01A0020D41A002008
:102A2000FFFFFF7F31270010D02310B51B0684B0B5
:102A30001C68FEF787FDFEF787FEA04202D000204B
:102A400004B010BD284B002100201B7801F060FD70
:102A500026480368002B44D00120FEF70BFBFF2320
:102A6000234C244920701840FEF79AF92078012160
:102A7000FEF760F90520FEF783F9002824D108222B
:102A800000211D48FFF7DCFBFEF75CFD0400FEF7AC
:102A90006DFFFA220023920012184B41002B02DA3C
:102AA0000122164B52420121029100210191144949
:102AB00020000091FEF74AFD0028C0DB11480121EB
:102AC000FFF7D0FC0120BBE70120FEF7F1F8010081
:102AD0000948FEF72FFB002205200B49FEF78AF973
:102AE000ECE7FEF70BFBB7E78C580010901F0020B7
:102AF000AF1F002065290010681F0020FFFFFF7F27
:102B00003127001070100020212700100048704766
:102B100074570010004870472057001010B504008B
:102B200016480378002B20D0002C06D1144B1548F2
:102B30004380063BFF3B038010BD052C1CD8124B85
:102B4000A400E4580F480123811C013C04E0013338
:102B50000A800231142B0CD0E25C002AF7D1C0228B
:102B6000DBB25B0092001343E5E7112100F016F899
:102B7000DAE7CA239B00DEE70020DDE7981F00208C
:102B800009040000101B00200857001010B502486F
:102B900000F0F4F810BDC046801F002030B50129B8
:102BA00000D1BBE0744B01391A7812111400303493
:102BB000092A00DDB5E00470012900D1DAE00F2216
:102BC0001C78224014003034092A00D9ACE044704B
:102BD000022900D1CEE05A78944612111400303404
:102BE000092A00DDA3E08470032900D1C2E0644615
:102BF0000F22224014003034092A00D99AE0C47010
:102C0000042900D1B6E09A789446121114003034A9
:102C1000092A00DD91E00471052900D1AAE064468B
:102C20000F22224014003034092A00D988E0447170
:102C3000062900D19EE03025AC46DC782211944470
:102C4000092A00DD7FE062468271072900D191E008
:102C50000F22224014003034092A00D977E0C471D1
:102C6000082900D186E03025AC461C792211944415
:102C7000092A00DD6EE062460272092900D179E07E
:102C80000F22224014003034092A67D844720A29DE
:102C900000D16FE03025AC465C7922119444092ABA
:102CA0005FDC624682720B2964D00F22224014003E
:102CB0003034092A59D8C4720C295BD03025AC466F
:102CC0009C7922119444092A02DD0735AC469444CC
:102CD000624602730D294DD00F2222401400303479
:102CE000092A01D93732140044730E2942D0DA7907
:102CF00013111C003034092B01DD37331C008473A1
:102D00000F2937D00F2313401A003732092B01D86F
:102D100030331A00C27310292CD0103000230370F6
:102D200030BD3732140046E7373214004FE73732F0
:102D3000140058E73732140061E7373214006AE7AD
:102D40003732140073E70735AC4694447BE73732DB
:102D5000140084E70735AC4694448CE737321400FE
:102D600094E70735AC4694449BE737321400C472AD
:102D70000C29A3D14018D1E7801F002010B588B0DE
:102D800004000D2200216846FFF75AFA0D220021A7
:102D900004A8FFF755FA4B236A466846137004A946
:102DA0000D2202F0B1F81521082220006944FFF736
:102DB0004DFA08B010BDC046F8B500F047F90C2335
:102DC000194DFF22AB6705201849FEF713F8184C80
:102DD000402200212000FFF733FA4027002301267C
:102DE0002121144A66702783A260136063545F3107
:102DF000618445396354104A10496360E260278753
:102E0000A1620B606362E26202F0CEF880239B0550
:102E10002E64EB6490230A4A0120EA508022094B79
:102E20005202DA64F8BDC0460000115015050020BA
:102E3000441B0020840010500001105080001050EE
:102E400010D001000020115010B501210520FDF720
:102E500071FF10BD10B500220021024800F016F9E4
:102E600010BDC046641B0020044B1970002904D01B
:102E700080219023024A8902D1507047AA1F002066
:102E8000002011500B785B0600D070474B78052B63
:102E9000FBD18A78014B1A60F7E7C0460000115059
:102EA000F8B5CE464746C87880B58007830F18002E
:102EB000012B61D08B780A799C464B797F211B02CC
:102EC00013435B055E0D63461940DC094B001A197C
:102ED0001F0063462F4D5201AA18937001236340CF
:102EE000537000231683D370D076B146CA00012CEC
:102EF00031D0294E92198E01B446AC446646B26078
:102F00001360002931D0254BC900C91871604B46A8
:102F10003F339B09022836D09B01214839190268AA
:102F2000490169180E00CA601E49D31803608B421C
:102F30002BD83B195B01ED18EB7E1B499B064A40E1
:102F400013438022120613436A6813600120C0BC39
:102F5000B946B046F8BD154E92198E01B446AC4440
:102F60006646B2621360002908D1002364012C195F
:102F700063600F4BE360E9E70020E8E70A4BC90014
:102F8000C9187162C3E7DB01C7E7FEF733FFF268D8
:102F9000CFE7C046441B00208400105004001050AE
:102FA0004C1F0020FF0F10500000105080001050E8
:102FB0000001105010B501F0F7FF10BD7F2010B5D3
:102FC00008404000C90940181100044A4001801817
:102FD0001A0000F05BF8012010BDC046441B002021
:102FE0007F23180000B5084083B00B4204D14B4248
:102FF0004B41084A013393668022C9094000064BC1
:10300000401840010021C018120101F0D5FF03B0A3
:1030100000BDC04600201150441B00207F22130039
:1030200010B50B400A4200D110BDC9095B005B1806
:1030300004485B01C018002300220349C37001F05B
:10304000BBFFF1E7441B0020FFF7FFFF80220A4B84
:10305000520410B51A60094B09491A6010000B6838
:103060009843FBD18022002152010648FFF7E8F87F
:103070000922054B5A6710BD00E0004000F00040F7
:1030800008C000400000105000001150002310B58F
:10309000C3820133828283760161040001F044FF20
:1030A000002804D080219023074A8902D1502000B3
:1030B00001F042FF002802D00123237710BD200039
:1030C00001F06AFFFAE7C046002011507047C04681
:1030D0007047C04600207047002070477047C046C8
:1030E0007047C0467047C0467047C046024B58788C
:1030F000431E9841C0B27047E8150020024B187873
:103100004007C00F7047C046E8150020F0B5D6460E
:103110004F464646C0B52E4B814698461B788A4698
:10312000FF2B4ED100293ED0002154222948FFF721
:1031300087F80022284C294B20001A70FDF7DEFF8B
:10314000274B1C60274C2000143CFDF7E5FF2000B6
:1031500001F0DAFD244B254D1C60254B002B04D0DB
:103160002800FFF7B7FA234B1860002400232A78C1
:10317000214F204E0FE0336862019B18002B12D0C4
:103180005B68002B0FD098472A780134E4B2511CB9
:103190002300A14209DBA242EDD89B1A5B01DB1997
:1031A0005B68002BEFD100200CE042464B465146B5
:1031B00048461370FFF700FE0028F4D04846FFF79A
:1031C00043FE0120E0BCBA46B146A846F0BDC04669
:1031D000A4100020E8150020E0150020AB1F0020FF
:1031E0003C1600209C10002040160020A91F002043
:1031F000D52600100015002030580010F0B5DE462E
:1032000057464E464546E0B5C64B91B002931B78F3
:10321000FF2B00D13BE1C44BC44E1F00C44B0DAC8F
:103220000193C44B009335686A69EFF3108172B65D
:103230001368002BFCD0BFF35F8FA9612800210029
:1032400001F098FB6A69AB69BFF35F8F00211160E1
:1032500083F31088002800D119E16378082BE2D8A5
:103260009B00FB589F466368002BDCD0A068984702
:10327000D9E77F222179AE4D0A405300EB189846DA
:10328000C809804440460123303005799D430571CB
:10329000057903339D430571002A00D1FEE04346C2
:1032A000A54A1B7D1278934200D3EDE0A34A5B014F
:1032B0001568ED18002D00D1E9E0A3686279207847
:1032C000AD69A847AFE79E4B1A78002A00D1DEE02F
:1032D0001A78013A1A701B78002BA4D10122944D60
:1032E00001212B78042013432B703423EA5C8A439A
:1032F000EA54EA5C8243EA540133EA5C8A43EA54C2
:10330000EA5C8243EA54237800209B4600F09AFC52
:10331000602223791A40602A00D1EEE0402A00D1D1
:10332000F4E0DB06DB0E012B00D111E1022B00D112
:10333000C6E0002B00D0E0E0202A00D11CE2002AE9
:1033400000D0DAE06379092B00D9D6E07D4A9B00F2
:10335000D3589F46764D2B78DB0700D463E7FFF701
:10336000C3FE60E7019BDB78DB0700D45BE76068A6
:10337000FFF7AEFE57E76E4D2B78DB0700D452E720
:1033800028780007C00FFFF7ADFE4CE723786949A6
:1033900099468B46684B694998468A4639001A789F
:1033A00047460023B04600254E46894610E0534666
:1033B0001B686A019B18002B00D175E0DB683000A8
:1033C00098473A780135EDB2511C2B008D4243DC11
:1033D0009542ECD39B1A5B015B44EFE72378574996
:1033E0009946554B8A4698463100BB464E461A7858
:1033F00000250023474689460FE053461B686A01B3
:103400009B18002B54D0DB68300098473A78013580
:10341000EDB2511C2B008D4206DC9542EDD39B1A78
:10342000009A5B01D318EEE7019D54220021280089
:10343000FEF706FF1022FF214348FEF701FF280098
:103440002022FF2114304E465F46FEF7F9FE00F0C1
:10345000EFFBFFF745FEE6E6354D5422002128003C
:10346000FEF7EEFE1022FF21281DFEF7E9FE2800E0
:103470002022FF21143046464F46FEF7E1FE00F0C1
:10348000D7FB2379AB70CEE6501C984213DA11B00B
:10349000F0BCBB46B246A946A046F0BDA36862791F
:1034A000207800F0E3FBBEE646464F46204DE6E7B7
:1034B0004E465F46CBE71F4D9B1A5B015D19FCE64C
:1034C0007023217A0B4218D1C80982460F330B4072
:1034D0005B0098461848EB1853441B7D00789946CA
:1034E000834268D215485B01006881469944002AEE
:1034F00000D163E14B46002B6AD120780021FFF711
:103500006FFD80212078FFF76BFD8CE60F4800F0FF
:1035100099FB012158460EAAFFF7C0F8002800D0F9
:1035200081E6EAE7A410002088570010401600202A
:10353000E815002030580010A91F002000150020B9
:10354000AB1F0020AC570010EC1500209D2600108A
:10355000237A22890F2BD0D8FF231340CF4AEB18B0
:103560001B791578AB423ED3691C9942C5DB5D1BC4
:10357000CB4B6D01ED18686900F064FB01215846E2
:103580006B690EAA9847002800D04CE6602215000F
:1035900023791D401A42B0D163790A3B012BACD884
:1035A00000F050FB63790A2B00D199E158460EA92F
:1035B00000F0D8FA37E6431C4B4500DAF9E04B46F9
:1035C0001B1A5B019946B6488144002A00D1F5E0F8
:1035D0004B46586900F036FB4B46012158465B6963
:1035E0000EAA98479AE7AF4A5B011568ED18002DBF
:1035F000C1D182E7A37999466B789945D6D06B788B
:10360000002B00D035E14B466B70002B00D12DE133
:1036100048460138C0B2FFF77DFA002800D17EE1AC
:1036200043780793022B00D079E10122C179B1469A
:103630008B11491113400A40302112015B011343E1
:103640002A78A8468A4313432B7009239A4682445A
:103650005646BA46C37882781B021343C3180593B3
:103660008E4B04938E4B08938E4B09938E4B0A938B
:10367000059BB34200D855E1737801220B2B03D18F
:103680003378F278F6187378042B00D044E1059B68
:1036900000279B1B9BB20693049B0B921D78002373
:1036A00003931BE0099A7B011568ED18002D00D1EA
:1036B00032E1310058462B69069A9847844608281B
:1036C00003D9069A824200D313E1049B01371D7887
:1036D000FFB26B1C03979F4200DD1DE1BD42E1D8A4
:1036E000039B5D1B089B6D015D19E2E76B780CAADB
:1036F00002321370584601230EA900F049FA92E5F0
:10370000E088030AC0B20F2B00D9F6E667499A0099
:103710008A5897460EA800F09BFA5846A179FFF701
:1037200099FB02222B7813432B707CE5E388012B55
:1037300000D0E2E608222B78584693430EA92B705E
:1037400000F010FA6FE5022029780CAB9A1C8B066A
:103750008908DB0F01400B431380584602230EA952
:1037600000F016FA5FE5E388012B00D0C5E60822D9
:103770002B7813432B7019E7237A22890F2B00D95A
:10378000BBE6FF231340EB181D79444B1B789D4289
:1037900028D2444B6D011B685D19002D00D1ACE6A9
:1037A000686900F04FFA012158466B690EAA9847E4
:1037B000B4E6002A00D0A0E60023994662790220F0
:1037C000130003928343012B15D0002A00D094E606
:1037D0002B004344534430331B790CAA9B07DB0F67
:1037E0000232B9E75A1CAA4200DA86E6ED1A2C4BDF
:1037F0006D01ED18D4E7E388002B12D1029B1878F5
:10380000039B012B23D0FFF7EBFB43460221EB1870
:10381000534430331A790A4301211A711A790A4341
:103820001A714B46002B00D1FDE4586900F00AFAEA
:103830004B4601215B690EAA58469847002000F0CC
:1038400001FA3523EB5CDB0700D5ECE4AEE6FFF7CD
:10385000E5FB43460221EB18534430331A798A437F
:103860001A711A7903998A431A71DAE7FFF738FC5B
:103870009CE600215846FFF7F7FA5846FFF79AFBF7
:10388000AB7807490393054B049198461A780023B7
:103890000449AA4605911D001BE0C046A91F00204F
:1038A0003058001000150020FC150020D4570010DF
:1038B000059B6A011B689B18002B4CD0DB6858469F
:1038C000984743461A780135EDB2511C2B008D42C2
:1038D0002DDC9542ECD39B1A049A5B01D318EDE7DB
:1038E0000CAB9A1C584601230EA9157000F050F934
:1038F00099E40B9A012A4ED0002A3CD00023B078DC
:1039000004E00133DBB20F71934234D2C118C9B263
:1039100041440D79FF2DF4D04E46454657460023CD
:103920006B70EAE54E465746FFF7D8FB3EE6554634
:10393000542200212800FEF783FC1022FF21281DBD
:10394000FEF77EFC28002022FF211430FEF778FCD1
:10395000039BAB7057E65546FAE7FEF79BFE021E47
:1039600000D1CAE5D37891781B020B4358460EA9C3
:1039700000F00EF9D2E565463B002A0031000A98B6
:1039800000F06AFE049B039A1B7876190133934278
:1039900000DB6DE6C0E7174B29699942AED1079A63
:1039A000ACE7FFF797FB021E00D1A6E55846137857
:1039B0000EA900F0EDF8B1E52189FFF7AFF8021E7E
:1039C000F4D19AE5022B0FD0FFF786FB021EC9D176
:1039D00093E5FFF79BF8021E00D18EE512235846AF
:1039E0000EA900F0D5F899E5FFF794F8021EB9D1B9
:1039F00083E5C0463D400010F0B54F464646D646EA
:103A0000C0B50C0016001F0082B0002A3AD0702307
:103A100098461D4B002599461C4B9A461AE04B468A
:103A20001B78200001935346997800F0DBFD0028B5
:103A30001CD021000198FFF733FA002816D0A37894
:103A4000DA09012A19D00A9A01351370B54219DA38
:103A50002378E4186378052B08D1E3789B079B0F44
:103A6000BB4203D14246A3781A42D8D0002002B00C
:103A7000E0BCBA46B146A846F0BD0B9A01351370BA
:103A8000B542E5DB0120F2E7A4100020E815002094
:103A9000702270B58B780C001A4201D0002070BDE6
:103AA000064B20001D78064B997800F09BFD0028FE
:103AB000F4D021002800FFF7F3F9F0E7A41000206C
:103AC000E81500207F20074B10B51A680840CB0985
:103AD00034334000C018044B1100C01800F03EFD04
:103AE00010BDC0463C160020E81500207F20074B83
:103AF00010B51A680840CB0934334000C018044B95
:103B00001100C01800F052FD10BDC0463C16002048
:103B1000E815002070B57F24C80984460C400F4882
:103B200064000419644430342079C00701D50020B2
:103B300070BD0B4801250078844620792843207108
:103B40006046FFF73BFA0028F2D101222379934324
:103B500023712379033293432371E8E7E8150020AA
:103B6000A410002070B5094C0600082220000D00AA
:103B7000FEF76CFB00238021E360A3602B7830000C
:103B8000994300220023FFF7C5FF70BDC815002030
:103B9000F0B5C646244C170080460822200000B528
:103BA0000D001E00FEF752FB0023A760E381EB79B6
:103BB000AA791B0213431A1CB34200D9321C96B2D5
:103BC000A281002B0CD0002E15D0002F2AD0402E21
:103BD0001AD8237896B27F2B1BD80021134A0EE007
:103BE00080212B780022994340460023FFF792FF63
:103BF00080BCB846F0BD7F23002221789943330072
:103C00004046FFF787FFF3E74022237896B27F2BE9
:103C1000E3D9064C320039002000FEF717FB802163
:103C20002200ECE70020E3E7C815002088150020FB
:103C300010B5142200210248FEF702FB10BDC04659
:103C4000C8150020014B18617047C046C8150020F8
:103C500010B5054C010008222000FEF7F7FA0023FA
:103C6000A360E36010BDC046C815002070B5374C96
:103C70001D0023780600DA09C9098A4210D0002005
:103C8000002D00D070BD21003000FFF7FBF8236944
:103C9000002B03D022000321300098470120F1E7D8
:103CA0007F2B06D8A0680028ECD02A002849FEF710
:103CB000CDFAE289A1685219E38892B24919E281EA
:103CC000A160934214D03F2D12D9A389981A051CE4
:103CD00080B2402828D82078ADB27F2826D800218D
:103CE0009A4230D01A4A2B003000FFF713FFC9E781
:103CF0002369002B05D022000221300098470028BC
:103D000008D0802123780022994330000023FFF758
:103D100001FFB7E700213000FFF762F93000802192
:103D2000FFF75EF90120ADE74025D4E79A4207D0BE
:103D3000074C2A002000FEF789FA80212200D2E7F2
:103D400080210022CFE70022CDE7C046C815002021
:103D50008815002070B50400FFF7C8F9002800D1CD
:103D600070BDFFF7CBF90028FAD1C8236343124A8C
:103D70002500D418E1780029F2D010339E183000C5
:103D800000F0E2FD3F28EBD90020E178FFF79AFE32
:103D90000028E5D0300000F0D7FDE1783F2807D9B2
:103DA000064BEA01D21800204023FFF7B3FED7E705
:103DB0000020FFF79BFED3E7B01000200415002081
:103DC00010B50400FFF792F9002801D1002010BDC2
:103DD000FFF794F90028F9D1C8226243024B013061
:103DE0009B181B791840F2E7B0100020C82310B5CB
:103DF00043430248181800F089FD10BDC010002090
:103E0000F8B5C82343431D4D1033EE18802304003A
:103E10005B029A4200D31A4A300092B200F0F8FDD9
:103E20000700FFF763F9002801D13800F8BDFFF75C
:103E300065F90028F9D1C8236343ED18EB78002B0E
:103E4000F3D0300000F080FD3F28EED90020E97863
:103E5000FFF738FE0028E8D0300000F075FDE97863
:103E60003F2807D9074BE201D21800204023FFF773
:103E700051FEDAE70020FFF739FED6E7B010002048
:103E8000FFFF000004150020F8B50400FFF72EF92D
:103E9000002801D10020F8BDFFF730F90028F9D142
:103EA000C82325005D432B00134E2433F718380038
:103EB00000F02CFD0028EDD075190020A978FFF73F
:103EC00001FE0028E6D00D4AE3019C1821004022A3
:103ED000380000F09DFDA9780300051E07D02200E0
:103EE0000020FFF717FE0028D4D02800D3E70020D9
:103EF000FFF7FCFDCEE7C046B010002044150020BF
:103F000070B5C82444430C4B0500E41880235B02C1
:103F10009A4200D3094A200092B200F041FE060006
:103F2000200000F0F3FC3F2801D8300070BD2800CD
:103F3000FFF7AAFFF9E7C046D4100020FFFF0000FA
:103F4000C82310B543430248181800F0FDFC10BD0B
:103F5000D4100020F0B50025184C83B0C8220021F1
:103F60002000FEF76DF9164B21001D70FF236371D1
:103F7000E1235B02A360200008234022A3733831B1
:103F80000095073B103000F08BFC27000123210037
:103F900020002600402278310093B837243000F00A
:103FA0007FFCC0363800FDF7A9F83000FDF7A6F811
:103FB000E56127622663656303B0F0BDB0100020A1
:103FC000841500200A4B196B1A6A00290CD0002AAC
:103FD00007D00022DA615A631A6300221A620120B4
:103FE00070475A631A63FAE7002AF8D0D961F4E7F8
:103FF000B010002070B5052200210D48FEF720F911
:104000000C4D2B78DA0707D50B4C9B070CD50121FB
:10401000200000F099FE70BD0548103000F074FEDD
:104020002B78054C9B07F2D4200000F06DFEEEE7E4
:10403000B010002084150020D4100020F0B54B797A
:10404000070083B0022B02D18B79022B03D000240E
:10405000200003B0F0BD214B1E009B78002BF6D151
:104060008B78092433700D784D196B78242B07D089
:104070000CE02B78ED181C196B78A4B2242B05D119
:10408000A242F6D20020FFF765FEE1E71A00052BF9
:1040900015D0042AF6D16B790A2BF3D1104B2E7868
:1040A00001930133009338000223A919023AFFF764
:1040B000A3FC0028CBD00E34A419A4B2E2E7290057
:1040C0003800FFF7E5FC0028C1D0AB7873702B787F
:1040D0001C19ED186A78A4B2DBE7C046B0100020C6
:1040E000B210002060238C461100127870B5134086
:1040F0000022202B08D1324C4B7926000D792478F0
:104100001B022B439C4201D0100070BD4B78222B28
:104110001CD008D8202B39D0212BF5D16346012B98
:1041200043D00122F0E7232BEED16346012B42D08E
:10413000032BF6D1234B002BF3D08B78C9780020CA
:104140000902194300E000BF0122DDE76346012BAD
:1041500031D0032BE5D10125CB788A781B0213439C
:104160001C001D40330001212433180069403471C4
:1041700000F0EAFD144B002BD3D0012362081A4053
:104180002900002000E000BF0122BDE76346012BAB
:104190000BD0032BC5D10D4B002BC2D0310000201A
:1041A0000831FEF79DFA0122AEE7094A0723FFF71F
:1041B000EFFC0122A8E7FFF7D5FC0122A4E7C046E7
:1041C000B01000200000000000000000E1260010F8
:1041D000B8100020F8B54746CE4680B5344C1F00D5
:1041E000E37880460D008B423BD0A37800208B42C1
:1041F00011D0C0BCB946B046F8BD2E4B002B04D040
:104200002D4800F099FB00284FD00020FFF7A2FDB9
:10421000A378AB420AD1294B002B02D0002000E04A
:1042200000BF0020FFF730FE002801D00120E0E7AA
:10423000234C200000F06AFB0028F7D1002FF5D0B6
:10424000BB06F3D1243C4046A178FFF73BFC002895
:10425000ECD0002300224046A178FFF75BFC012050
:10426000C7E7184E14483100BAB200F099FC164B5B
:10427000002BC2D06379FF2BBFD0002FBDD0BC462E
:10428000B444E14603E001364E45B6D06379327856
:104290009A42F8D1084800F04FFB0028F3D1064BB2
:1042A000103B597900E000BFEDE700E000BFACE74C
:1042B000B010002000000000C0100020000000002E
:1042C000D410002004150020000000009322F0B557
:1042D000134C85B0002120009200FDF7B1FF2300B0
:1042E0002000802640270F4D4D337600FF332930C4
:1042F0000295009300220023002103970196FF30CE
:1043000000F0C4F94035201D28340023012200218B
:10431000039702950196009400F0B8F905B0F0BD3E
:10432000841700200417002010B5054C200000F071
:10433000E1F920002538FF3800F0DCF9012010BD3C
:10434000AC18002070B5084C002520003130FF303B
:10435000257000F0D9FC20000C3000F0D5FC2A2399
:10436000FF33E554657170BD84170020F8B5CE4663
:10437000474680B54B7980468946FF2B06D12A23D4
:10438000374FFF337E79FB5C1E4304D00020C0BC56
:10439000B946B046F8BD8B780C783B700B790C1998
:1043A000002B3CD0A51803E0AC4238D22378E418A7
:1043B0006378052BF8D1AC4231D221004046FFF79B
:1043C00067FB0028E2D0A378DB09012B2BD025481E
:1043D00000F09AFC2A23A278FF33FA5463792279F9
:1043E0001B0213439421204A5B055B0D9B185A4224
:1043F0005341022049007A5C5B00824313437B54A3
:1044000018494046083900F0DFF90028BED023786B
:104410000136E4184B461B79F6B2B342C8D84B4676
:10442000E01A80B2B3E7114800F06EFC0F4AA3789F
:104430000C3A5371637921791B020B435B050A49DE
:104440005B0D5B1859424B41022011795B0081439F
:104450000B43064900200839137100F07FF9D6E7B5
:1044600084170020B418002000FEFFFF90170020E2
:1044700070B51D002A2304001F48FF33C35C8B4224
:1044800016D04079884201D0002070BD1B4B002B14
:1044900004D029040020090C00E000BF184B2000C4
:1044A00019001E0000F05AF900281DD00120ECE789
:1044B0009A235B00C35A002B0DD1124B002B04D062
:1044C00000201149AAB200E000BF20000F4900F00F
:1044D0007BF90120D9E796235B00C1583130AAB29D
:1044E000FF3000F05DFBE8E72A003100200000F01B
:1044F00003F90120C9E7C04684170020000000002E
:10450000881700200000000004170020AC180020CD
:1045100000B5030083B0002910D00020012B07D87C
:104520000A78002A04D00C48C2540120012A01D084
:1045300003B000BD1800FEF7E9FDF9E701236A4664
:10454000002001A99380FEF7E1FD0028F0D00122B0
:10455000014B1A70ECE7C046DC15002070B5040072
:1045600023780800DB070E00DD0F002B16D123781F
:104570005B0701D5280070BD0121494200F0F4FC21
:104580002378DB07DD0F002B0AD123785B0708D4E3
:104590000422237801251343237002E00025E9E774
:1045A0000025300000F0B8FCE4E7C04670B50D000F
:1045B000012104004942280000F0D6FC23785B0763
:1045C000DE0F002B04DB280000F0A6FC300070BDDD
:1045D0002378DB0704D40422237893432370F2E783
:1045E0000026F0E7437902791B021343C2785B058A
:1045F00092075B0D920F022A1AD0032A0BD00020DB
:10460000012A07D102394A425141104A8918994278
:104610004041C0B2704702394A1E91410C4A49429A
:10462000114080220020D200891899424041F1E7D0
:10463000022904D0002040229A424041EAE7054A7C
:10464000981843425841C0B2E4E7C046FF03000057
:1046500040FCFFFF00FEFFFF8446881830B51C00B9
:10466000814206D24A78052A04D00A7889188842FD
:10467000F8D830BD7F228B781A4052006244DB09A3
:10468000D4540A7889188842ECD8F2E7F0B5C646C7
:1046900000B582B0904608AA20CA040016886A466F
:1046A0000120978D0A0021780240814320001143A8
:1046B00021703200009329000123083000F0F0F847
:1046C000002D01D0002E07D101200A9B6780636076
:1046D00002B080BCB846F0BD25001C352800FCF7B0
:1046E0000DFD42460023002A01D02B000025636106
:1046F000A561E9E701207047F8B502240B780700AF
:104700001C4063425C410800124B64421C40124B47
:1047100008300D001600E41800F0F8F8002807D162
:10472000002E05D0344203D101242B781C4201D045
:104730000020F8BD38006978FFF7C4F90028F7D0E9
:104740002B781C42F4D10023002238006978FFF74F
:10475000E1F9EEE740FEFFFFFF01000008239C4661
:104760008C4470B5050060460C00664600F0CEF83B
:10477000002803D0012223781A4201D0002070BD06
:1047800028006178FFF79EF90028F7D06288300092
:10479000616800F03DF901222378134000280CD015
:1047A000002BEBD103006268617804002800FFF75A
:1047B000B1F90028E2D02000E1E7002BDED128008B
:1047C0006178FFF793F9D9E7F0B5C64600B58A8955
:1047D00006000C000B78002A06D101321A4240D0A4
:1047E000002080BCB846F0BD9B0734D42B4B40253D
:1047F000984608239C46A4446046674600F0A4F807
:104800008542EDD8012223781A42E9D1300061783F
:10481000FFF758F90028E3D0380000F095F801229E
:1048200023781340854232D8002BD9D14146628883
:104830000140131C8A4200D90B1C9BB200226178F4
:10484000002B00D0626830001C00FFF763F90028DD
:10485000C6D02000C5E7FE2380251B029846AD0088
:10486000C7E74978FFF72EF90028B9D0012223784D
:104870001A42B5D1638800226178002B00D06268AB
:104880003000FFF747F90028AAD06088A9E7002B7D
:10489000A6D130006178FFF729F9A1E7C0FF000039
:1048A000F0B5C64600B598466B461E7E80230400D0
:1048B0000F0015001B029A4226D8C068002803D0BA
:1048C0000121494200F050FB2069002803D001215A
:1048D000494200F049FB42465204F303520C134391
:1048E000E3800023E06863812760A580238100289E
:1048F00001D000F011FB2069002801D000F00CFB72
:10490000012080BCB846F0BD0020FAE70389418948
:104910009C4682889BB288B28C4507D31B1A9BB2F7
:10492000101C9A4200D9181C80B270475100091A15
:104930005B189BB2F4E7C04603894089181A4342CA
:104940005841C0B27047C046038941899C4682885D
:104950009BB288B28C4507D31B1A9BB200209A42A7
:1049600001D9D21A90B270475100091A5B189BB254
:10497000F4E7C04670B5040000690D00002803D0BC
:104980000121494200F0F0FA238962899C4698B2DD
:1049900091B2A388944532D3421A92B2002A27D00A
:1049A000934208D298422FD3C01A81B261818B42C0
:1049B00003D8C91A89B28B42FBD9E2882368520412
:1049C000520C514328005918FDF740FC618901251C
:1049D0004A1C92B2A38891420DD900225B00D21AE0
:1049E00020696281002801D000F096FA280070BD8D
:1049F0000025628992B25B009A42F1DBEFE75A0030
:104A0000521A821892B2C9E7C01881B26181CEE70A
:104A1000F0B54646D6464F46C0B5060000698A4600
:104A2000904682B0002803D00121494200F09CFA50
:104A300031897289B5888BB294B2914255D31F1BCC
:104A4000BFB2002F4BD0BD4205D2AB4252D25B1950
:104A50009CB22F0074814346B8453ED89FB2A54210
:104A600003D8641BA4B2A542FBD9F2883168520472
:104A7000500C020062432B1B9BB28918019002006C
:104A80009F4225D943439BB21A0050469946FDF7F1
:104A9000DDFB5046019A7D1B64195443316848443C
:104AA000A2B2FDF7D3FB7189B588CB199BB26A001E
:104AB000994216D99B1A30697381002801D000F001
:104AC0002BFA380002B0E0BCBA46B146A846F0BDA9
:104AD00050467A43FDF7BAFBE5E73B1CBEE7738916
:104AE0009BB26A009342E6DBE4E76F003F1BDF19ED
:104AF000BFB2A6E75B1B9CB2ABE7C046F8B50400AB
:104B0000C0680F00002803D00121494200F02CFAB0
:104B1000258920896189A288ADB283B28EB288428C
:104B200028D39B1B9BB29A4209D8E679F60906D195
:104B3000E068002801D000F0EFF93000F8BD2B004C
:104B400095421CD39B1A9BB29342FBD2E288206809
:104B50005204520C53433900C018FDF777FB6B1C0D
:104B60009BB2A2889D4216D9002352009B1A0126AF
:104B70002381DDE75100891B5B189BB2D3E7E288F4
:104B800020685204520C53433900C018FDF75EFBF5
:104B90000135A288ABB252009342E8DBE6E7C0469B
:104BA000F0B54E464546DE465746E0B58946050017
:104BB000160083B0002A6BD0C068002803D0012102
:104BC000494200F0D1F92F89EA79BBB298466B8946
:104BD000AF889BB2D2093DD1984562D27A00D31AF0
:104BE00043449BB2BB4261D2FB1A1A1C9BB2B34234
:104BF00000D9321C96B2F31B01934346F3189BB2C3
:104C00009B46EA884446B84503D3E41BA4B2BC42A1
:104C1000FBD252043B1B570C3A00624328689BB2FC
:104C20008018B34256D33A0049467243FDF70EFB53
:104C3000AB885B00D84501D89B4502DB5A46D31AA6
:104C40009B465B4637002B81E868002821D000F0A6
:104C500063F91EE0BE422BD298454CD34246D21A8D
:104C600092B27900F01B921901908A42C5DBDA19E1
:104C700092B29346921B92B29046934240D94346D9
:104C8000591A8BB29846F3189BB29B46EA88B9E74B
:104C90000027380003B0F0BCBB46B246A946A04688
:104CA000F0BD4246D31A9BB2BB429DD30027CBE74F
:104CB000002FC9D0CC46EA88F61B5104490C714339
:104CC00098468C44D919002389B2E1468B463E00B0
:104CD000019397E77B439BB21A0049469A46FDF73A
:104CE000B5FA4946019B2868E2187A43514492B2CA
:104CF000FDF7ACFA9CE77900CA1A424492B2B1E7D8
:104D00009142BCDDC2E7C04610B50400C06800286F
:104D100003D00121494200F027F92069002803D07F
:104D20000121494200F020F90023E06863812381DA
:104D3000002801D000F0F0F82069002801D000F030
:104D4000EBF8012010BDC04670B50400C0680D002E
:104D5000002803D00121494200F006F9206900280B
:104D600003D00121494200F0FFF87F21E279EB01F5
:104D70001140E0681943E171002801D000F0CCF83F
:104D80002069002801D000F0C7F8012070BDC0469E
:104D9000F0B5454680463B4A4E46DE4657464244BD
:104DA000531E9A418023E0B55B021204D218364BA1
:104DB00083B01A60354B894635491A6015000B6877
:104DC0009D43FBD10620FCF707FF43465A680223A8
:104DD0001A4000922F4A8026424413604B46824676
:104DE000D90D580201920B0002000224760006E061
:104DF000924506D3023412184B41B44201D0002B25
:104E0000F6D080272602361B7F0002E0361B012FDA
:104E100036D031005046BB46013FFDF717F98145BA
:104E2000F4D2594661433D0243461C611B68FF2290
:104E30006B40802512026D0113404544164A2B60D9
:104E4000009B4244136002204346019C5B68206043
:104E50004446266807246640C83434402C60032446
:104E6000034013600D4B43441C6010605046FDF737
:104E7000EDF803B0F0BCBB46B246A946A046F0BD73
:104E80002100D1E70040FCBF00E0004000F00040FE
:104E900008C000400430000004200000242000006E
:104EA000030084469B070BD00300032102E001337B
:104EB0000B4206D01A78002AF9D16246981A704738
:104EC000030019680C4A0D488A188A4302420FD120
:104ED0005968094A04338A188A43024208D159683A
:104EE000054A04338A188A430242F1D000E00133B4
:104EF0001A78002AFBD1E0E7FFFEFEFE808080806A
:104F0000F8B5C0460000000001B40248844601BC68
:104F1000604700BF0103002001B40248844601BC81
:104F2000604700BF2502002001B40248844601BC4E
:104F3000604700BFDD0B002001B40248844601BC7D
:104F4000604700BF050C002001B40248844601BC44
:104F5000604700BF610F002001B40248844601BCD5
:104F6000604700BFC100002001B40248844601BC74
:104F7000604700BF9901002001B40248844601BC8B
:104F8000604700BF110F002001B40248844601BCF5
:104F9000604700BF0101002001B40248844601BC03
:104FA000604700BF910C002001B40248844601BC58
:104FB000604700BF2504002001B40248844601BCBC
:104FC000604700BF410C0020291E0010551E001034
:104FD0003D20001031220010992000109D2100106A
:104FE000651F0010711E0010911E0010A51E0010FC
:104FF000AD100010AD1E00106D140010F11D00105A
:0C500000ED0C00108D2B0010B102001010
:10500C000A0000005069636F4B65726E656C207608
:10501C00302E31002D2D2D2D2D2D2D2D2D2D2D2DD9
:10502C002D2D2D002768656C702720667565722004
:10503C0048696C66650000003E20000068656C7075
:10504C000000000042656665686C653A000000006F
:10505C00202068656C70202020202D2048696C660B
:10506C00650000002020636C6561722020202D20DB
:10507C0042696C6473636869726D00002020686516
:10508C006C6C6F2020202D204265677275657373E0
:10509C00696E67002020636F6C6F722020202D20BA
:1050AC00466172622D546573740000002020696E95
:1050BC00666F202020202D2053797374656D204954
:1050CC006E666F00636C65617200000068656C6CE5
:1050DC006F00000048616C6C6F20766F6E2053611E
:1050EC007373616E6964427974657321000000000A
:1050FC005250323034302040203132354D487A0015
:10510C00636F6C6F72000000466172622D546573A0
:10511C00742066657274696721000000696E666FA1
:10512C0000000000446973706C61793A2053543765
:10513C0037383900323430783133352052474235E4
:10514C003635000053504920402036322E354D481C
:10515C007A000000556E62656B616E6E743A2000C9
:10516C000A2A2A2A2050414E4943202A2A2A0A0078
:10517C004E6F207370696E6C6F636B732061726518
:10518C0020617661696C61626C6500004E6F207500
:10519C00736572204952517320617265206176618A
:1051AC00696C61626C65000048617264776172655C
:1051BC0020616C61726D20256420616C7265616484
:1051CC007920636C61696D656400000048617264EC
:1051DC00206173736572740052656C656173650050
:1051EC00626F6F74325F7732357130383000000087
:1051FC00322E322E300000007069636F0000000008
:10520C007069636F5F6B65726E656C004D617920C0
:10521C003231203230323600555342207374646977
:10522C006E202F207374646F75740000526173705C
:10523C006265727279205069000000005069636FDA
:10524C0000000000426F6172642043444300000080
:10525C005265736574000000556E68616E646C6510
:10526C00642049525120307825780A006570202539
:10527C003032582077617320616C726561647920DB
:10528C00617661696C61626C6500000043616E2738
:10529C007420636F6E74696E756520786665722014
:1052AC006F6E20696E616374697665206570202568
:1052BC00303258000000000000000000183C3C1880
:1052CC0018001800363600000000000036367F3615
:1052DC007F3636000C3E031E301F0C000063331863
:1052EC000C6663001C361C6E3B336E000606030016
:1052FC0000000000180C0606060C1800060C181806
:10530C00180C060000663CFF3C660000000C0C3FCD
:10531C000C0C000000000000000C0C060000003F0C
:10532C000000000000000000000C0C006030180CA5
:10533C00060301003E63737B6F673E000C0E0C0C82
:10534C000C0C3F001E33301C06333F001E33301C48
:10535C0030331E00383C36337F3078003F031F302B
:10536C0030331E001C06031F33331E003F3330182E
:10537C000C0C0C001E33331E33331E001E33333E15
:10538C0030180E00000C0C00000C0C00000C0C0073
:10539C00000C0C06180C0603060C180000003F004D
:1053AC00003F0000060C1830180C06001E33301895
:1053BC000C000C003E637B7B7B031E000C1E333306
:1053CC003F3333003F66663E66663F003C66030330
:1053DC0003663C001F36666666361F007F46161E47
:1053EC0016467F007F46161E16060F003C6603030A
:1053FC0073667C003333333F333333001E0C0C0C99
:10540C000C0C1E007830303033331E006766361EAD
:10541C00366667000F06060646667F0063777F7F59
:10542C006B63630063676F7B736363001C3663633A
:10543C0063361C003F66663E06060F001E33333390
:10544C003B1E38003F66663E366667001E33070E0D
:10545C0038331E003F2D0C0C0C0C1E003333333331
:10546C0033333F0033333333331E0C006363636BCE
:10547C007F7763006363361C1C3663003333331E43
:10548C000C0C1E007F6331184C667F001E0606064E
:10549C0006061E0003060C18306040001E18181873
:1054AC0018181E00081C36630000000000000000E5
:1054BC00000000FF0C0C18000000000000001E3063
:1054CC003E336E000706063E66663B0000001E3348
:1054DC0003331E003830303E33336E0000001E3371
:1054EC003F031E001C36060F06060F0000006E332D
:1054FC00333E301F0706366E666667000C000E0CD6
:10550C000C0C1E00300030303033331E070666366C
:10551C001E3667000E0C0C0C0C0C1E000000337FAA
:10552C007F6B630000001F333333330000001E33E6
:10553C0033331E0000003B66663E060F00006E33E0
:10554C00333E307800003B6E66060F0000003E03D1
:10555C001E301F00080C3E0C0C2C180000003333BE
:10556C0033336E0000003333331E0C000000636BCA
:10557C007F7F3600000063361C3663000000333337
:10558C00333E301F00003F190C263F00380C0C072F
:10559C000C0C38001818180018181800070C0C38C8
:1055AC000C0C07006E3B000000000000060052507F
:1055BC00D3F07542E451001006005250E182887F0E
:1055CC00EC51001006005250ABB36053FC5100106C
:1055DC0006005250BBFF3CB604520010060052505D
:1055EC00861C03020C520010060052505422A29D3D
:1055FC001852001005005250DE65F46880680010E7
:10560C000D0A00000000000005260010000000003C
:10561C000926001015260010412600103D2600100A
:10562C00000000000A00000000000306A6000800AD
:10563C00020002009C001400030057494E555342CF
:10564C0000000000000000000000800004000100C9
:10565C00280044006500760069006300650049007D
:10566C006E007400650072006600610063006500E6
:10567C00470055004900440000004E007B006200CA
:10568C0063003700330039003800630031002D000F
:10569C0037003300630064002D00340063006200A7
:1056AC0037002D0039003800620038002D00390019
:1056BC003100330061003800660063006100370080
:1056CC006200660036007D0000000000050F21001E
:1056DC00011C100500DF60DDD88945C74C9CD265E4
:1056EC009D9E648A9F00000306A600010000000036
:1056FC000600525053B4F4A12452001000000000D4
:10570C003852001048520010981F002050520010C0
:10571C005C52001009025400030100807D080B004C
:10572C000202020000090400000102020004052428
:10573C0000200105240100010424020605240600B2
:10574C00010705810308001009040100020A00008A
:10575C000007050202400000070582024000000914
:10576C0004020000FF00010512011002EF020140CB
:10577C008A2E0A00000101020301000026320010EB
:10578C008C330010DC3300106433001076330010BF
:10579C0054330010C6320010723200106632001002
:1057AC00463700102C370010FA3400106637001002
:1057BC00FA3400101437001000370010FA340010BF
:1057CC00EC360010F4350010FA340010D239001009
:1057DC00C4390010B8390010FA340010FA34001033
:1057EC00A2390010C4390010FA340010FA34001039
:1057FC00FA340010FA340010FA340010FA340010A5
:10580C00FA3400105A3900105C0D00205C0D002099
:10581C00A60D0020C60D00200C0E00201E0E002030
:10582C00540D002000000000553F0010C53F001033
:10583C00F53F00103D400010E5400010D541001030
:10584C000000000000000000CD42001029430010B1
:10585C00454300106D4300109D260010714400104C
:04586C000000000038
:10587000B8550010C4550010D0550010DC5500106C
:10588000E8550010F455001000560010FC560010AA
:1058900003000068EFF3108C72B60268002AFCD097
:1058A000BFF35F8F04229A56002A0BDB002900D039
:1058B0000A6000201B68BFF35F8F00221A608CF320
:1058C00010887047D0221206126801201A71F1E781
:1058D000F0B5C646160000B504001F000268EFF3DD
:1058E000108172B61368002BFCD0BFF35F8F0423C6
:1058F000E3562268002B2BDBBFF35F8F0020106084
:1059000081F31088D02212061278002552B29046F8
:105910009A420ED1002080BCB846F0BDBFF35F8F25
:10592000156081F310883000390000F015FF002861
:10593000F0D12268EFF3108172B61368002BFCD00F
:10594000BFF35F8F237922687F2BE7D9434602E0BC
:10595000D0231B061B682371BFF35F8F00231360E6
:1059600081F310880120D6E7F0B5C64600B50F00D8
:10597000040000F0F9FEFA220E00050000233800B2
:105980000021920000F000FF4019714106000F1E37
:1059900002DA0126164F7642D0231B061B6800252B
:1059A00098460AE0BFF35F8F156081F310883000DE
:1059B000390000F0D1FE002818D12268EFF31081E1
:1059C00072B61368002BFCD0BFF35F8F2379226877
:1059D0007F2BE7D943462371BFF35F8F002313600A
:1059E00081F31088012080BCB846F0BD0020FAE7A2
:1059F000FFFFFF7F0268EFF3108172B61368002B80
:105A0000FCD0BFF35F8FFF2303710368BFF35F8F89
:105A100000221A6081F3108840BF7047084B9C46F3
:105A20001B78002B0BD18023064807495B051A68B9
:105A3000C25004338B42FAD101236246137070477F
:105A4000AC1F0020D01900100001001010B5014B50
:105A5000984710BDD1190020064B5A6802609A6819
:105A60004260DA6882601A69C2605A6902619B69A1
:105A700043617047000002400268064B5A6042686A
:105A80009A608268DA60C2681A6102695A61426982
:105A90009A61704700000240034B1A68C0239B00C4
:105AA0009343024A136070470C8001400C90014000
:105AB000054B1A6880239B005340C022920013407C
:105AC000024A13607047C0460C8001400C900140B0
