:020000041000EA
:1000000000B5324B212058609868022188439860DF
:10001000D860186158612E4B002199600221596106
:100020000121F02299502B49196001219960352056
:1000300000F044F80222904214D00621196600F024
:1000400034F8196E01211966002018661A6600F04E
:100050002CF8196E196E196E052000F02FF8012189
:100060000842F9D1002199601B49196000215960AB
:100070001A491B48016001219960EB211966A021F2
:10008000196600F012F800219960164914480160C1
:100090000121996001BC002800D000471248134993
:1000A000086003C880F30888084703B5996A0420EC
:1000B0000142FBD001200142F8D103BD02B5186610
:1000C0001866FFF7F2FF186E186E02BD00000240BE
:1000D000000000180000070000035F00212200005C
:1000E000F4000018222000A00001001008ED00E03C
:1000F00000000000000000000000000074B24E7A12
:1001000000200420F7010010CB010010CD010010E9
:10011000C9010010C9010010C9010010C901001077
:10012000C9010010C9010010C9010010CF01001061
:10013000C9010010C9010010D1010010D301001045
:10014000C1010010C1010010C1010010C101001067
:10015000C1010010C1010010C1010010C101001057
:10016000C1010010C1010010C1010010C101001047
:10017000C1010010C1010010C1010010C101001037
:10018000C1010010C1010010C1010010C101001027
:10019000C1010010C1010010C1010010C101001017
:1001A000C1010010C1010010C1010010C101001007
:1001B000C1010010C1010010C1010010C1010010F7
:1001C000EFF30580103800BE00BE00BE00BE00BECA
:1001D00000BE00BEF2EB8871602D0010882D00106B
:1001E0003802001090A31AE71E481F49086006C88D
:1001F00081F3088810471D480068002801D019487D
:10020000F3E70DA40ECC002902D000F012F8F9E7B4
:100210001749184A002000E001C19142FCD116495B
:100220008847164988471649884700BEFDE701C937
:1002300001C29A42FBD37047882D0010C0000020F5
:1002400090020020582F001000000420000004201D
:10025000582F00100010042000100420000000009F
:10026000704700000000000008ED00E0000000D032
:100270009002002094060020A9200010D502001052
:10028000A1200010F8B5C04606480749091A8B108E
:10029000C90FC91810B5491003D0044B002B00D06A
:1002A000984710BD9002002090020020000000003E
:1002B000054B10B5002B03D00449054800E000BFF2
:1002C000FFF7E2FF10BDC046000000005806002006
:1002D000E827001010B501F0DFFFFA20C00001F0A0
:1002E0000FF900F0ABF800F02FFA002010BDC04667
:1002F000F0B54E46DE4657464546E0B585B002AC01
:10030000E61D8027D024802598462A23834624068C
:10031000AD027F0233708A4691463100A761012207
:10032000A561454802F030FA5B4618002830656147
:100330000093031233700190310067610122A561BF
:100340003D4802F021FA009A65612832327031008E
:1003500067610122A561384802F016FA4A46019BFE
:1003600065619B18013B1B1201923370310067617C
:100370000122A561304802F007FA0198009A27305F
:100380008318656131003370012267612A48A561D5
:1003900002F0FAF92B236561310033700122A76165
:1003A0002548A56102F0F0F953461A00353265611F
:1003B0000093131233700192310067610122A5612D
:1003C0001D4802F0E1F90098656135303070310068
:1003D00067610122A561184802F0D6F94246019BE7
:1003E00065619B18013B1B120192337031006761FC
:1003F0000122A561104802F0C7F9019B009834332F
:100400001B18656131003370012267610A48A561DC
:1004100002F0BAF92C236561012233703100A76123
:100420000548A56102F0B0F9656105B0F0BCBB46B6
:10043000B246A946A046F0BD00C0034070B5D02426
:100440008025802682B04D494D4802F0D3F8012125
:10045000122000F061FB012113202406AD0200F000
:100460005BFB1120760200F06FFB1020656200F04C
:100470006BFB1420666200F067FB80235B03636202
:100480006A466361012301A913713D480122A661F7
:10049000A56102F079F99620656101F031F8112328
:1004A0006A4601A9137136480122A661A56102F0CE
:1004B0006BF93220656101F023F83A236A4601A9FD
:1004C00013712F48A6610122A56102F05DF9052391
:1004D0006A46656101A91371294866610122A56117
:1004E00002F052F936236A46656101A91371244866
:1004F000A6610122A56102F047F970236A46656191
:1005000001A913711E4866610122A56102F03CF940
:1005100021236A46656101A913711948A661012268
:10052000A56102F031F929236A46656101A91371B9
:1005300013480122A661A56102F026F90A2065612F
:1005400000F0DEFF8723F02200210020FFF7D0FE1D
:1005500000236A466661A5610A4C9380022208481E
:1005600001A9013C02F010F9002CF7D1D023802220
:100570001B0692025A6102B070BDC046A0ACB9031E
:1005800000C00340907E000070B5012382B01600C9
:100590000122FFF7ADFED024802380256A46240681
:1005A0005B026361AD0273BAA56101A99380034840
:1005B000022202F0E9F8656102B070BD00C003409C
:1005C00010B587230400F02282B000210020FFF73D
:1005D0008FFED02380221B0652025A618022920293
:1005E0009A616B4664BA9C80074C0222074801A9B5
:1005F000013C02F0C9F8002CF7D1D02380221B0661
:1006000092025A6102B010BD907E000000C003400B
:1006100070B582B01D006B461C8B2B001600FFF7D7
:1006200067FED02380221B0652025A61802292026A
:100630009A616B46754364BA9C80002D08DD0024E6
:100640000222074801A9013402F09EF8AC42F7D11A
:10065000D02380221B0692025A6102B070BDC046B0
:1006600000C00340F0B5DE4657464E464546E0B56D
:10067000027885B0002A50D00600012080462D481F
:100680002D4B2E49039007E0002201300A601860CC
:1006900072780136002A40D018680A2AF4D0203A2D
:1006A000D7B20C68039D5E2F01D8D200AD18AB46BF
:1006B00008225A449246820012185200E700521B48
:1006C0003F19009691463E001D4D019302914F4601
:1006D0005F443B0000245F469B463A7843462241F4
:1006E0001A40013A174B2A40A0195946D218013432
:1006F000FFF74AFF082CF0D1BB4601239B44DA45A3
:10070000E5D10299009E0A68019B0132192A0BDC8F
:1007100001360A603278002ABED105B0F0BCBB4673
:10072000B246A946A046F0BD00220A601A6801320E
:100730001A60ADE7F42900104806002044060020A6
:100740002000FFFFFFFF0000F0B5DE46454657469C
:100750004E46E0B51F20A9B0FFF732FF0023D04A74
:10076000D04C13602360D04B089218001293FFF70F
:1007700079FFCE4D28000495FFF774FFCC48FFF7B2
:1007800071FF2800FFF76EFFCA48FFF76BFF2800D4
:10079000FFF768FFC848FFF765FF2800FFF762FF13
:1007A000C64B002518000793FFF75CFF18AB9B466C
:1007B000C34B0B93C34B0D93C34B0A93C34B0C9387
:1007C000C34B0E93C34B0F93C34B1093C34B119367
:1007D000C34B1493C34B1393C34B1593C34B169343
:1007E000C34B1793C34B0993002001F05BFD831C9F
:1007F000FAD00D2848D00A2846D07F2870D03E2D48
:10080000F2DC5B465855089B21681E680300203BBC
:10081000DBB25E2B00D917E1FF230340099A203B8E
:10082000DB00D3180135994608234B449A464B46C2
:10083000B20092195200D31A039301239846CE00B6
:10084000AD4F069405957418039E00254E44330061
:100850004E469946327843462A411A40013AA74B00
:100860003A4028194946D2180135FFF78DFE082D68
:10087000F0D1B14601239944D145E5D1069C059DAF
:10088000236801332360AFE700235A460498535589
:10089000FFF7E8FE5B469A4A1B6893422AD05B4604
:1008A000984A1B6893424FD05A46974B12689A4217
:1008B00000D185E05A46954B12689A4200D192E0E9
:1008C0005A46934B12689A4200D1C0E05B461B78AF
:1008D000002B00D0DAE00798FFF7C4FE002583E77D
:1008E000089B21681E68002D3ADC5B465855099B21
:1008F000013598E75B461B79002BD0D10B98FFF7A9
:10090000B1FE049D2800FFF7ADFE0D98FFF7AAFE8B
:100910002800FFF7A7FE0A98FFF7A4FE2800FFF7BC
:10092000A1FE0C98FFF79EFE2800FFF79BFE0E9895
:10093000FFF798FE2800FFF795FE0F98FFF792FE4D
:100940002800FFF78FFEC6E75B469B88722BABD172
:1009500000251F20FFF734FE089B25601D60BAE7C5
:10096000B200099B921952001F00D31A039301236E
:1009700001399A46CA00604B904699462300013DD2
:1009800088442160059544463D0098460026039B17
:100990005F192A78534632411A404B46013A1A40B1
:1009A000564BA0193900D2180136FFF7EDFD082E7D
:1009B000EFD1584B0135AB42E8D14446059D13E7D2
:1009C0005B469B886F2B00D074E71098FFF74AFEB8
:1009D000049D2800FFF746FE1198FFF743FE28000C
:1009E000FFF740FE77E75B469B88722B00D067E7F6
:1009F000F8231B0200935022872300210020FFF7D9
:100A000007FEFC23DB0000935022872300215020A7
:100A1000FFF7FEFD1F23502200210093A020683322
:100A2000FFF7F6FDFA200025C00000F069FD1F2049
:100A3000FFF7C6FD089B149825601D60FFF712FEA6
:100A40000498FFF70FFE46E7099B0135EBE65B468E
:100A50001B79002B00D039E71298FFF703FE049DA5
:100A60002800FFF7FFFD1398FFF7FCFD2800FFF7B4
:100A7000F9FD1598FFF7F6FD2800FFF7F3FD16982E
:100A8000FFF7F0FD2800FFF7EDFD24E71798FFF7CB
:100A9000E9FD5846FFF7E6FD0498FFF7E3FD1AE786
:100AA0004806002044060020EC270010E82700102C
:100AB000FC2700100C280010D4280010202800105B
:100AC0002C280010382800104C2800106428001032
:100AD0007C28001094280010BC280010D828001092
:100AE000F02800100C2900101C2900102C290010DF
:100AF0003C290010F42900102000FFFFFFFF000038
:100B000068656C70636C656168656C6C636F6C6F55
:100B1000696E666FFC29001010B54024074A8300F7
:100B20009A181268C0005440C0222240044C1B197D
:100B30001A60044BC018416010BDC04604C001409B
:100B400004D00140004001400123D022834012061E
:100B500093629361084A83009A18116840225140B9
:100B600080320A400549C0005B181A60044BC01867
:100B7000052343607047C04604C0014004D00140D3
:100B8000004001400FB400B5084883B001F020FCDC
:100B9000049B002B07D005A91800019101F066FA0B
:100BA000034801F015FC012001F078FA48290010F3
:100BB000E827001070B58C461600EFF3108472B66B
:100BC0000F490B68002BFCD0BFF35F8F6346DB0837
:100BD000C5180722C05C63461A40012393401A00DF
:100BE0000240034207D118432870BFF35F8F0A60A9
:100BF00084F3108870BD61463000FFF7C3FFC04624
:100C00002C0100D0044A1078431CDBB2172B00D90A
:100C1000102313707047C046E80100200021044BE8
:100C2000044ABFF35F8F02C39342FAD17047C046B4
:100C3000000100D0800100D0084B094A1360094A26
:100C40001360094A1360094A1360094A1360094A8C
:100C50001360094A1360094A1360704780808080DE
:100C600000E400E004E400E008E400E00CE400E05C
:100C700010E400E014E400E018E400E01CE400E00C
:100C80001F2318401E3B8340002905D0C021044A81
:100C90004900535013607047802201498B50FAE796
:100CA00000E100E070B50D00EFF3108672B60F4A58
:100CB0001368002BFCD0BFF35F8F0D4B10309B6887
:100CC00084001B590B4A934203D09D4201D000F08F
:100CD00099FF074B9B681D51BFF35F8FBFF35F8F79
:100CE0000022024B1A6086F3108870BD240100D0E8
:100CF00000ED00E0C1010010F0B54546DE46574664
:100D00004E46E0B50D0083B0EFF3108872B6604A2E
:100D10001368002BFCD0BFF35F8F5E4B5E499A686F
:100D2000030010339F00D45999468C423ED0AC4208
:100D30004FD05A4EA21B2F2A38D8594B1A689C46BE
:100D400013000122824013401F22024001209A46D4
:100D500090406346802283469850BFF35F8FEFF345
:100D600005830193002B36D0994501D000F04AFF4E
:100D7000012322009A439068854208D176E04B0017
:100D80005B189B00F3189868854236D01A0006213C
:100D900051560029F3DA854254D05346002B27D010
:100DA000C02259463E4B520099501960394B9B68FE
:100DB000DC51BFF35F8FBFF35F8F0022344B1A60AB
:100DC00088F3108803B0F0BCBB46B246A946A046E3
:100DD000F0BD0C00EAE7220001339A439068854297
:100DE000D5D106201056130000280ADA0C0031E095
:100DF000802359462A4AD150D8E7062018560028A1
:100E000021DB42001118890075188946A96899608C
:100E1000E979D971062169569971002924DBAD88D9
:100E2000F11A6D052D154D44491909051D4D490D42
:100E30002943998013181C4A9B001178F318997163
:100E40001070AAE713000199002914D1FF319171A4
:100E50001649918014490A789A71154A9B1B5B4187
:100E60005A43120D0A7098E71049E2E7062010561F
:100E700013000028C5DA0F4A0F49D21A083A500267
:100E8000400D014399800D4952080A43DA8084E7F6
:100E9000240100D000ED00E0C1010010EC010020B1
:100EA00000E100E000E0FFFF9006002001BDFFFF31
:100EB000AAAA00002602002000F0FFFF00F8FFFFB2
:100EC0000123034370B59C46EFF30581EFF31085D2
:100ED00072B6214A1368002BFCD0BFF35F8F1F4B03
:100EE00004001F4AE41A64416243120D1D4C89003C
:100EF000A66852B2765866451CD0062159569142D2
:100F00001CD012215956914222D01E21595691428D
:100F100020D02A2159560324914210D0124B19781F
:100F20001A708171BFF35F8F00220B4B1A6085F33B
:100F3000108870BDA3680D4C5C50EFE70024610081
:100F4000091989005B18FF21997109499980E5E722
:100F50000124F4E70224F2E7240100D0EC01002090
:100F6000AAAA000000ED00E090060020C1010010D8
:100F700001BDFFFF024BC918890001607047C046E0
:100F80004000003470B5114C114DAC420FD2FF2619
:100F90002368002B0CD0FFF735FE01002000FFF77F
:100FA000E9FFA680BFF35F8F0834AC42F0D370BD79
:100FB000FFF728FE01002000FFF7DCFF2671BFF3DA
:100FC0005F8F0834AC42E3D3F1E7C04688020020CB
:100FD000900200200A4B1968EFF3108072B60A687D
:100FE000002AFCD0BFF35F8F1B68BFF35F8F002226
:100FF0001A6080F3108840BF002000217047C0466F
:1010000084060020F0B5DE4657464E464546E0B51C
:1010100085B0EFF3058303221A40B34B91005F586C
:10102000012393409B4602925A468846AF4B1A6072
:10103000AF4B03935B46AF4843630823FE5E002E2D
:1010400037DABB881BB2002B00DBA4E0BB79002B96
:1010500000D0E5E00823F95E002920DB4B007A6927
:101060005B18DB00D3189D68DC686B1C00D104E1C1
:10107000A04801004144826A0B69AE1A9B1A9E4245
:1010800015D30123026A029883401A420FD099486F
:1010900000F03EFB8C4202DCCCD18542CAD940BF75
:1010A00005B0F0BCBB46B246A946A046F0BD0D61F6
:1010B000EDE77A69730091469B19DB0099444B4632
:1010C0009C68DD6800F024FB8D42BADC00D1F6E0BC
:1010D000002D00DADBE04A464B4652691B69924616
:1010E000039A934200D1CCE04A460821785E5288A8
:1010F0000004514610439847009001910099019ACD
:101100000B00134300D1C2E013000A00002B00DBE8
:10111000D9E020002900801A99414B469860D96097
:1011200000229B5E002B00DA8BE75D007C69EA18E9
:10113000D200A21800949468D268A2468A4200DDC8
:101140007FE702D1844200D97BE70824A4463B8193
:10115000BC44009C00972F006546B4463E0006E064
:101160005E00F218D200A2189768D268BA468A4286
:1011700007DC00D1B4E0F318DB00E518E35E002BD8
:10118000EEDA66464A46009F13802E80BB881BB26B
:10119000002B00DA5AE73A69EFF3108172B6136850
:1011A000002BFCD0BFF35F8F0123BE885B42BB8066
:1011B00036B23B69BFF35F8F00221A6081F310885B
:1011C000002E00DA42E73B0008333A0099467D6979
:1011D00073009B190824115FDB004846EB180029B7
:1011E00013DB9C680093A446DC6806E0A34240D071
:1011F0000023F95E3800002906DB4F007F18FF004E
:10120000EF19FB68A342F1DD009B068000201E5E03
:101210001980002EDCDA1700BB79002B00D119E70A
:101220000023BB710823F95E4B1C00D137E73D005A
:101230000835AC467C6903E084464B1C00D109E7C5
:101240004B005B18DB00E0180A00E15E43881BB22C
:10125000002BF1DA01256D42EE178560C660082586
:101260007B5F9342E9D0634619803B8903803A81D2
:10127000E3E7BB686345BBD9C6E7631C00D0F7E66C
:1012800005E7534650461B699847002823D14B4633
:101290001B883A693B81EFF3108372B6116800290D
:1012A000FCD0BFF35F8F49467A880A803A697E8016
:1012B000BFF35F8F0021116083F31088C1E6844281
:1012C00000D805E7BDE60B4800F022FA009B019C20
:1012D000C018614121E753460CCB009201930DE702
:1012E000824500D847E74CE7700600203C70054077
:1012F000051000100040054070B52D4C2569002DEB
:1013000004D00A212B48FFF735FE70BD2A4E032179
:10131000294800F0F3F9E660FFF774FC274B03223D
:10132000C018D02322701B061B6801216370244B58
:101330008000A3600F23206102206380636949421B
:10134000A18019800231198647311D835852183106
:101350005A5275325C399952183201319952183209
:1013600001319952183201319952083518329D5283
:101370000231183299521832013199521832013122
:10138000995218320131995218320131995218325A
:10139000013199520B4B0C49DC6001303562FFF78B
:1013A00081FC01210320FFF76BFC084B1D60A8E7BF
:1013B0003402002084060020004005404000003434
:1013C000FFFF100070060020051000103860054077
:1013D00070B582B00092019301000269EFF31084AE
:1013E00072B61368002BFCD0BFF35F8F0223C85E78
:1013F0000D6900283FDB4A69430016001B18DB001B
:10140000D218F35A4B80BFF35F8F00232B6084F315
:101410001088069B1361079B5361009B019C93609E
:10142000D460538801335B045B0C1D1C002B20D05F
:10143000ACB20304558023430D69EFF3108C72B6F0
:101440002C68002CFCD0BFF35F8F8C8814808880C0
:101450000A69BFF35F8F002010608CF310880A7850
:1014600001309040CA68084952181060180002B054
:1014700070BD0125DCE7BFF35F8F00232B6084F391
:101480001088013BF2E7C0463C20000010B54389BC
:101490000A1493421ADD53009B184269DB00D318EB
:1014A0000469EFF3108C72B62268002AFCD0BFF3F7
:1014B0005F8F5A88090494B2090C8A4208D00369E4
:1014C000BFF35F8F00221A608CF31088002010BDDC
:1014D000094A22435A80012302698371BFF35F8F57
:1014E000002111608CF31088027804499340C2688F
:1014F000012052181360EAE70080FFFF3C20000043
:10150000F0B5C64600B582B0040000F009F9FA2231
:1015100006000F00200000230021920000F02CFDA7
:101520008019794104000D1E02DA01242E4D644217
:1015300006267642F71736196F41AF4214D811D0FC
:1015400000F0EEF832003B00121A8B41002B15DC44
:10155000002B46D02000290000F022F902B080BC08
:10156000B846F0BDA642EBD90026002700F0D8F817
:1015700032003B00121A8B41002BE9DD00F0D0F85D
:1015800032003B00121A8B41002B0ADB002301932F
:10159000164B3200009316483B00FFF719FF01304D
:1015A000D8D000233900B0469C46124A1248536AEC
:1015B000994204D8966A4645CCD29942CAD1066867
:1015C000EFF3108772B63368002BFCD0BFF35F8F48
:1015D0000368BFF35F8F66461E6087F3108820BFE5
:1015E000E5E7002AB6D0C9E7FFFFFF7FD50F00105F
:1015F000340200200040054084060020F0B5CE46AD
:10160000474680B504000D0085B0EFF30586894696
:10161000002E10D0364900204B6AAB4206D38A6AAE
:101620005B1B591E8B41A2424041184305B0C0BC10
:10163000B946B046F0BD2F4FFB683A78984618007F
:10164000039200F065F8039A131D42469B009B58D5
:1016500022001B1A9C462B00121A8B419E4210DC62
:101660000DD020BF224A0020536A4B45DED3926A38
:101670005B1B591E8B41A24240411843D6E794455B
:10168000EFD900F04DF822002B00121A8B41002BED
:101690001BDB00230193184B2200009338002B0022
:1016A000FFF796FE002810DD114B5A6A4A451CD3FD
:1016B0009B6AA34217D301003800FFF7E7FE0C4AEC
:1016C0000020536A4B45B1D3D1E7094A0020536A41
:1016D0004B45ABD30020926A5B1BA24240415A1E8D
:1016E00093411843A2E74A45E5D120BFE3E7C0464E
:1016F0000040054034020020D50F001010B5024A0A
:101700000248FFF757FA10BD5829001018060020AC
:101710000300416A0A00986A596A8A42FAD17047FE
:10172000034B596A0A00986A596A9142FAD1704784
:101730000040054070B505000E00184A536A1900B4
:10174000946A536A8B42FAD1200019002C003500AC
:1017500024184D41AB4216D813D0104B2A005B6AB7
:101760009D4203D90D494B6A9342FCD3934207D162
:101770000A4A02E0516A994202D1916AA142F9D320
:1017800070BDA042E9D9054B5B6A1C005A1CEFD022
:10179000012201246442E5175242E3E7004005407C
:1017A000064A536A9942FCD807D1044B02E05A6AB0
:1017B000914202D19A6A9042F9D8704700400540A0
:1017C000F8B5040006200D0000F06EF9002843D0A3
:1017D000364B3749E3185A1E934180225B429B0DDA
:1017E00012049B059B18334A1360334A1360180098
:1017F0000A689043FBD12D4B304AE31859424B41C4
:1018000080215B0049000620995200F04DF9290023
:10181000C00000F023FB0130C3091ED14027012284
:101820006262A362266BF30722D4E36A244B06208C
:10183000E51800232B60266300F036F9390080009C
:1018400000F00CFB7023E26A5A400E3313402B6009
:101850001C4B23630323A364F8BD1B4A93421DD989
:1018600000231A4A1A4F6262A362266BF307DCD583
:10187000184B144AE3181A60656AA36A0620AD0182
:10188000ED1800F011F9144900F0E8FA0100A8027F
:1018900000F0E4FA0021FFF74DFFC6E740069A0189
:1018A000800E17181A000300BAE7C0460080FCBF7C
:1018B00008C0004000E0004000F000408806002022
:1018C0002C10000001030000FEFF0000FFFF0000DD
:1018D000C0FF3F00303000004E0E0000F8B5DE467D
:1018E0004E4645465746E0B505008B4618000A9916
:1018F000914600F0B3FA0A9B6C001E026419304B4B
:10190000A400E418636880469E4200D966602F1FD9
:10191000FBB29A46012B2FD9C0238022294FAD005C
:101920009B0179591201E3181A6000291BD14B461B
:1019300022685B015340E022134080225201A2182A
:1019400013605346012B2FD9802380229B01E3187B
:1019500012011A60434666607B51F0BCBB46B2463A
:10196000A946A046F8BD786900F078FA0130430036
:101970001B18033BFDD2DAE75B46012BCCD1C02319
:1019800003229B01E3181A60023AA3681A42FCD0B2
:101990004A46236852015A40E023134080225201F4
:1019A000A218084F1360AD00584603232168414038
:1019B0000B40136001228240A3681A42FCD0C3E7A7
:1019C000008000401C060020F0B5D6464F46464633
:1019D000440098462418324BA400E41863688A46F1
:1019E0009146C0B5FF2B02D880235B006360061FC1
:1019F000F6B2012E2FD9C02380222A4F85009B01E9
:101A000079591201E3181A6000291BD14B4622684C
:101A10005B015340E022134080225201A218136060
:101A2000012E30D9802380229B01E31812011A6015
:101A300080235B00636043467B51E0BCBA46B146FD
:101A4000A846F0BD786900F009FA013043001B1880
:101A5000033BFDD2DAE75346012BCCD1C02303224E
:101A60009B01E3181A60023AA3681A42FCD04A4666
:101A7000236852015A40E023134080225201A218E9
:101A8000084F1360850050460323216841400B40F6
:101A9000136001228240A3681A42FCD0C2E7C0460C
:101AA000008000401C060020014B8000C058704799
:101AB0001C060020F0B5C646040000B523481600F9
:101AC00098460D0000F0CAF90100300000F0C6F998
:101AD0004346069A1B04120313439C4623680600E0
:101AE000002B22DB1A4B1B48E218531E9A4180231D
:101AF0005242120B9B011203D218174B1A60174B5C
:101B00001A60130001688B43FBD12122144B25601E
:101B1000E318A6601A602268002AFCDA6246E260D6
:101B200008221A6080BCB846F0BD3F2322681340EB
:101B3000AB42D7D1A3681B051B0D8342D2D1EE2245
:101B4000E368D20213406345CCD1EBE7001BB7003A
:101B50000040FDBF08C0004000E0004000F0004031
:101B6000043000008023024A9B000B43D36270477D
:101B700000800540002310B50100988A1B8B984710
:101B800010BDC046162310B5010018885B88984721
:101B900010BDC046F8B54746CE4680B50F1E18D0DA
:101BA00014239946043304000025012698464B4629
:101BB0001888434621681B88984701C4431E9841F2
:101BC00001350640AF42F2D13000C0BCB946B04644
:101BD000F8BD0126F8E7C046AA23064A1B01136098
:101BE0008D235B00D3600449044B19605368002BBC
:101BF000FCDA70470040024000B0FA00006002408A
:101C00007047C04610B50148FEF7BCFF7C290010A4
:101C100070B5074D074EB54209D20024013E761B30
:101C2000B608013608CD01349847B442FAD170BDE8
:101C3000A8270010E4270010054B064A06491A6041
:101C4000064A074B1A6010000B689843FBD1704797
:101C500000E00040BFCDFBFE08C00040FE7F3C001E
:101C600000F00040044BDB6C002B03D18022034BBF
:101C7000D2021A607047C046000011504C2011502B
:101C8000044A054B1A60054A1368DB018033FBD117
:101C90007047C046FFFFFF0100F0004008C0004051
:101CA0004022034B9A675A671A67DA667047C04644
:101CB00000F0014010B5FEF7B1FF10BD70B5284926
:101CC000284D294E6D1AAC102200302C00D930223C
:101CD0003000920000F0BCF9BC2D3DD823002A3B17
:101CE000224A052B1DD9302075196D07A446001B0B
:101CF000EB0F002D03DA611C8C46A1007250C01A54
:101D0000E3189B004108F318C900C9181A605A600B
:101D100008339942FAD1012303421DD0984360440D
:101D20000400A300F250631C2F2C15D09B00F2502E
:101D3000A31C2E2C10D09B00F250E31C2D2C0BD09A
:101D40009B00F250231D2C2C06D09B00F250631DEB
:101D50002B2C01D09B00F250054B9E6070BDC046FD
:101D600000010010C001001000000020C10100109F
:101D700000ED00E0002310B5294C82B0A367FFF707
:101D80002BFF0122274B1A60636C012BFCD103222D
:101D9000254B1A60224A936B012BFCD1013300932F
:101DA0000121224A22480433FFF784FE0523012142
:101DB0000093204A2048FFF77DFE002202210420E4
:101DC0001E4BFFF701FE0022012105201C4BFFF7EF
:101DD000FBFD0022002107201A4BFFF7F5FD002232
:101DE00000210820174BFFF7EFFD8023DB00009355
:101DF000002200210920134BFFF770FD0022104B39
:101E000000210620FFF7E0FD0420FFF74DFE0E49FC
:101E100000F024F801000020FFF7A4FE02B010BD7E
:101E2000008000403CB0004030B00040002F6859B6
:101E300000800240008C864700C00240001BB700B3
:101E400040597307006CDC0240420F000148042136
:101E5000014B184750020020951B0010114A936F48
:101E60009B0813D210665166002905D0FFE7FFE7F3
:101E7000FFE7516F106F704704B5002801D00020B4
:101E8000C04300F079FC002104BDC046F0B5146EDB
:101E9000556E576F166FFFF7E5FF14665566576767
:101EA0001667F0BD000000D0132370B51D78012D1A
:101EB00019D014DD1F48FFF765FE06001E48FFF726
:101EC00061FE1E4C80223100200000F0C1F8022D7E
:101ED0002DD01B48FFF74EFE1A4B186070BD1A4BF1
:101EE000164CA364F5E7184B144C23606360A360A1
:101EF000E36023616361A361E36123626362A362C0
:101F0000E36223636363A363E36323646364A3649F
:101F1000E36423656365A365E36523666366A3667F
:101F2000E36623676367A367E367A364D1E7064BB0
:101F3000A364CEE753440000534600001004002081
:101F40004C330000800600204D1F001007B560468E
:101F500001880A0A0230DF2AFAD1C9B2820804D302
:101F6000028840880004104300E00068014A505095
:101F7000039007BD1004002051434343C9188C4609
:101F8000110C83B24B4310B4040C614392B280B283
:101F9000504362431C041B0C001910BC594113042C
:101FA000120CC0185141614470470000132310B552
:101FB0001C781348FFF7E6FD012C0BD004DD01006F
:101FC0008022104800F044F80F48FFF7D3FD0F4B74
:101FD000186010BD0B4C01005422200000F038F8AE
:101FE0000B4B6365A365E36523666366A366E366DF
:101FF00023676367A367E3672362E361E4E7C0469F
:1020000053460000100500204C33000080060020DD
:102010001520001007B5604601880A0A0230DF2A41
:10202000FAD1C9B2820804D3028840880004104360
:1020300000E00068014A5050039007BD10050020E1
:1020400001480421014B184760020020951B001035
:10205000014B5B68184700006002002010B50028A3
:1020600000D110BD00F06AF9FBE7C04610B5094A7F
:102070000300146884B0002C08D0012200910648A7
:10208000524203A9A047012004B010BD00F0A0F9FE
:102090000020F9E7540600205D20001000BEFDE797
:1020A00010B5FFF7FBFFC04670B5FFF7B1FD074D58
:1020B000074EB54209D20024013E761BB608013610
:1020C00008CD01349847B442FAD170BDE42700101E
:1020D000E8270010030010B5080011001B6898479E
:1020E00010BDC046F8B5437D07000D001600002B5B
:1020F00038D0002A1ADD0B780A2B18D00020012EC8
:1021000009D0012421006B5C01340A2B1AD0B4429F
:10211000F8D1864203DD311A3B6828189847AD197B
:10212000013D2B780D3B5A4253413B75F8BD037D71
:10213000002BE3D102210E483B689847012EEED0D8
:102140000120DEE76B1E5B5C0D2BE0D0884203DADA
:10215000091A3B6828189847054802213B689847A8
:102160002000D4E70368110028009847DEE7C04646
:10217000402D0010F0B54646D6464F46C0B582B059
:1021800090461C0006000D00FFF7CAFA00232F4AF4
:1021900012184B41002B02DA01222D4B52422D49DD
:1021A00008008A4600F0F8FA81466B1C03D1300023
:1021B00000F0A8FA0500002C27D0274F274B1C68F9
:1021C000002C18D04346002B21D1254B984602E025
:1021D0002469002C0FD02368002BF9D043461B68DC
:1021E000002B01D09C42F3D120002A003100B847D7
:1021F0002469002CEFD14B46002B23D1280002B0DC
:10220000E0BCBA46B146A846F0BD164FD6E7144B1F
:10221000984602E02469002CEDD02368002BF9D009
:1022200043461B68002B01D0A342F3D12A003100A2
:102230002000B8476B460A222000DA71D91D093AFE
:10224000B847E7E7504600F08FFAD7E740420F0063
:10225000FFFFFF7F88020020E52000104C060020D1
:1022600050060020D52000100A4A1368002B05D123
:102270000CE01A001B691032002B07D08342F8D102
:10228000002902D118691060196170470029FCD03B
:102290001060FAE74C06002010B500F083F9012029
:1022A00010BDC046F0B5CE464746040080B583B0A9
:1022B000FFF736FA2600002736184F41002F02DAC2
:1022C00001261A4F76421A4B1A4D994601AB984691
:1022D0004B461C68002C03D116E02469002C13D057
:1022E0002B68002B01D09C42F7D1A368002BF4D0BF
:1022F0000121404698470028EFDD4346187803B097
:10230000C0BCB946B046F0BD0B4B5A6A974207D8DD
:102310009B6AB34202D302204042F0E79742FAD1CF
:1023200001200021FFF706FAD2E7C046FFFFFF7F3A
:102330004C0600205006002000400540F0B5CE4677
:10234000474680B583B06B460600DD1D2870FFF759
:10235000E7F90023194A12184B41002B02DA012237
:10236000174B524217490800894600F015FA164BE0
:1023700080461C68002C14D0144F02E02469002C05
:102380000FD02368002BF9D03B68002B01D09C4272
:10239000F4D1200001222900FFF7A4FE2469002CBB
:1023A000EFD14346002B05D1300003B0C0BCB94685
:1023B000B046F0BD484600F0D7F9F5E740420F00BF
:1023C000FFFFFF7F880200204C06002050060020FF
:1023D00070B5040000F096F9012301000500012208
:1023E0002000FFF7C7FE084B1C68002C06D063686E
:1023F000002B05D098472469002CF8D1280070BD27
:102400002469002CF3D1F9E74C060020F0B500292F
:1024100015DD0E4B0D271A680D4B0E4CD3185D427F
:102420006B41451820215B001E5F0478A64207D04F
:1024300093691942FCD101301460A842F5D1F0BD76
:1024400093691942FCD11760F2E7C0468C06002060
:102450000080FCBF880600201F4B30B51B680D1E96
:102460009C462ADD441E102100201C4B1A689369EB
:10247000194214D1013093691942FCD113682354D5
:102480008542F4D16346002B07D050239363516BF0
:10249000183B0B40124952181360280030BD6346A8
:1024A000002B07D050239363516B183B0B400C4912
:1024B000521813600028F1D10BE0002B09D05022F4
:1024C000064B1B689A63596B183A0A4004495B181B
:1024D0001A6003204042E1E7100600208C0600202D
:1024E00034100000064B10B51B68002B06D00021ED
:1024F000044A12689163044A1068984710BDC046A8
:10250000100600208C060020140600200822034B31
:1025100019688B691A42FCD17047C0468C060020AE
:1025200070B51A4E1A4B32680400D3185842434112
:10253000184D143318002B68002C02D0002B0FD03C
:1025400070BD002BFCD0060000219463FEF798FBC1
:1025500030001149FEF7D0FB104B2C601C60EFE7F8
:102560002C6004000D4B19600B49FEF79BFB012109
:102570002000FEF785FB502233689A63596B183AA6
:102580000A4007495B181A60DAE7C0468C0600204B
:102590000080FCBF10060020E52400101406002077
:1025A000341000000D4B10B51B780D4B0D4C1B78F3
:1025B0000D4B02211B780D4B00202360FEF7ACFA77
:1025C00002210120FEF7A8FAE12120684902FFF765
:1025D000F7F801210648FFF747FE10BD842D0010D3
:1025E000802D00108C0600207C2D00100040034040
:1025F00070020020F0B5454680463B4A4E46DE4616
:1026000057464244531E9A418023E0B55B021204B0
:10261000D218364B83B01A60354B894635491A605B
:1026200015000B689D43FBD10620FFF73DFA43469A
:102630005A6802231A4000922F4A802642441360AF
:102640004B468246D90D580201920B00020002242B
:10265000760006E0924506D3023412184B41B4428C
:1026600001D0002BF6D080272602361B7F0002E027
:10267000361B012F36D031005046BB46013FFFF7D5
:10268000EDFB8145F4D2594661433D0243461C614E
:102690001B68FF226B40802512026D0113404544E8
:1026A000164A2B60009B4244136002204346019C63
:1026B0005B6820604446266807246640C83434407E
:1026C0002C600324034013600D4B43441C601060D6
:1026D0005046FFF7C3FB03B0F0BCBB46B246A94669
:1026E000A046F0BD2100D1E70040FCBF00E0004063
:1026F00000F0004008C0004004300000042000004A
:1027000024200000030084469B070BD00300032114
:1027100002E001330B4206D01A78002AF9D1624652
:10272000981A7047030019680C4A0D488A188A43A2
:1027300002420FD15968094A04338A188A43024277
:1027400008D15968054A04338A188A430242F1D0F5
:1027500000E001331A78002AFBD1E0E7FFFEFEFE1D
:1027600080808080F8B5C04601B40248844601BC30
:10277000604700BF5901002001B40248844601BCF3
:10278000604700BFD101002001B40248844601BC6B
:10279000604700BF8101002001B40248844601BCAB
:1027A000604700BFC1000020391C0010651C0010EC
:1027B0004D1E001041200010A91E0010AD1F00107A
:1027C000751D0010811C0010A11C0010B51C00100C
:1027D000850F0010BD1C0010F9120010011C001024
:0827E000390C0010B1020010D9
:1027E8000A0000005069636F4B65726E656C207655
:1027F800302E31002D2D2D2D2D2D2D2D2D2D2D2D26
:102808002D2D2D002768656C702720667565722050
:1028180048696C66650000003E20000068656C70C1
:102828000000000042656665686C653A00000000BB
:10283800202068656C70202020202D2048696C6657
:10284800650000002020636C6561722020202D2027
:1028580042696C6473636869726D00002020686562
:102868006C6C6F2020202D2042656772756573732C
:10287800696E67002020636F6C6F722020202D2006
:10288800466172622D546573740000002020696EE1
:10289800666F202020202D2053797374656D2049A0
:1028A8006E666F00636C65617200000068656C6C31
:1028B8006F00000048616C6C6F20766F6E2053616A
:1028C8007373616E69644279746573210000000056
:1028D8005250323034302040203132354D487A0061
:1028E800636F6C6F72000000466172622D546573ED
:1028F800742066657274696721000000696E666FEE
:1029080000000000446973706C61793A20535437B1
:102918003738390032343078313335205247423530
:102928003635000053504920402036322E354D4868
:102938007A000000556E62656B616E6E743A200015
:102948000A2A2A2A2050414E4943202A2A2A0A00C4
:10295800486172647761726520616C61726D2025CF
:102968006420616C726561647920636C61696D656E
:1029780064000000486172642061737365727400BA
:1029880052656C6561736500626F6F74325F773290
:102998003571303830000000322E322E3000000001
:1029A8007069636F000000007069636F5F6B657228
:1029B8006E656C004D61792032312032303236003C
:1029C8005541525420737464696E00005541525445
:1029D800207374646F757400554152542073746485
:1029E800696E202F207374646F75740000000000F6
:1029F80000000000183C3C1818001800363600008B
:102A08000000000036367F367F3636000C3E031E47
:102A1800301F0C00006333180C6663001C361C6EF4
:102A28003B336E000606030000000000180C060683
:102A3800060C1800060C1818180C060000663CFF57
:102A48003C660000000C0C3F0C0C0000000000006D
:102A5800000C0C060000003F000000000000000011
:102A6800000C0C006030180C060301003E63737BF9
:102A78006F673E000C0E0C0C0C0C3F001E33301C14
:102A880006333F001E33301C30331E00383C3633CB
:102A98007F3078003F031F3030331E001C06031FB1
:102AA80033331E003F3330180C0C0C001E33331E1A
:102AB80033331E001E33333E30180E00000C0C005A
:102AC800000C0C00000C0C00000C0C06180C060383
:102AD800060C180000003F00003F0000060C1830EC
:102AE800180C06001E3330180C000C003E637B7B6C
:102AF8007B031E000C1E33333F3333003F66663EB4
:102B080066663F003C66030303663C001F36666644
:102B180066361F007F46161E16467F007F46161E25
:102B280016060F003C66030373667C003333333F9D
:102B3800333333001E0C0C0C0C0C1E007830303074
:102B480033331E006766361E366667000F060606B4
:102B580046667F0063777F7F6B63630063676F7B85
:102B6800736363001C36636363361C003F66663E0E
:102B780006060F001E3333333B1E38003F66663EA1
:102B8800366667001E33070E38331E003F2D0C0CC7
:102B98000C0C1E003333333333333F0033333333BA
:102BA800331E0C006363636B7F7763006363361CBB
:102BB8001C3663003333331E0C0C1E007F63311840
:102BC8004C667F001E06060606061E0003060C1845
:102BD800306040001E18181818181E00081C3663AC
:102BE8000000000000000000000000FF0C0C1800AE
:102BF8000000000000001E303E336E000706063E4F
:102C080066663B0000001E3303331E003830303E3A
:102C180033336E0000001E333F031E001C36060FC0
:102C280006060F0000006E33333E301F0706366E6F
:102C3800666667000C000E0C0C0C1E00300030306D
:102C48003033331E070666361E3667000E0C0C0C32
:102C58000C0C1E000000337F7F6B630000001F33E5
:102C68003333330000001E3333331E0000003B664D
:102C7800663E060F00006E33333E307800003B6E30
:102C880066060F0000003E031E301F00080C3E0CB5
:102C98000C2C18000000333333336E00000033333C
:102CA800331E0C000000636B7F7F36000000633624
:102CB8001C36630000003333333E301F00003F19D9
:102CC8000C263F00380C0C070C0C3800181818009C
:102CD80018181800070C0C380C0C07006E3B000085
:102CE8000000000006005250D3F0754288290010F9
:102CF80006005250E182887F902900100600525049
:102D0800ABB36053A029001006005250BBFF3CB67D
:102D1800A829001006005250861C0302B029001092
:102D2800060052505422A29DBC29001005005250A2
:102D3800DE65F468582F00100D0A00000600525096
:102D480053B4F4A1E029001008005250120000000A
:082D5800080052509210000027
:102D6000EC2C0010F82C0010042D0010102D001079
:102D70001C2D0010282D0010342D0010582D00108F
:082D8000502D0010442D00103D
:102D8800F0B5C646160000B504001F000268EFF350
:102D9800108172B61368002BFCD0BFF35F8F042339
:102DA800E3562268002B2BDBBFF35F8F00201060F7
:102DB80081F31088D02212061278002552B290466C
:102DC8009A420ED1002080BCB846F0BDBFF35F8F99
:102DD800156081F310883000390000F05DF8002894
:102DE800F0D12268EFF3108172B61368002BFCD083
:102DF800BFF35F8F237922687F2BE7D9434602E030
:102E0800D0231B061B682371BFF35F8F0023136059
:102E180081F310880120D6E70268EFF3108172B6BB
:102E28001368002BFCD0BFF35F8FFF230371036887
:102E3800BFF35F8F00221A6081F3108840BF70478C
:102E48009446130010B5002A0AD00A00CC180221B3
:102E5800C3681942FCD0137801328360A242F7D1CB
:102E6800C3685B0704D504218368C3681942FBD192
:102E78001021C3681942FCD1C3685B0704D504213B
:102E88008368C3681942FBD101230362604610BD01
:102E98007047C0460000000001B40248844601BCE7
:102EA800604700BFFD150010100000000000000082
:102EB8000000010000000000000000000000020007
:102EC80000000000000000000000030000000000F7
:102ED800000000000000FF000000000001B5486885
:102EE80001318E460047704609380149884701BDBF
:102EF800C10E0010000000000000000000000000EB
:102F08000000000000000000900200200000000007
:102F1800503300004C33000054330000523300009B
:102F28004D5300004D43000053340000433400006B
:102F38000D2400100D250010592400102125001023
:102F48000000000000010000000000000000000078
:04000005100001E9FD
:00000001FF
